:020000040800F2
:1000000060AF00201D03000891580008010400089B
:1000100071580008A12B00089F9100080000000003
:100020000000000000000000000000004978000807
:1000300025490008000000008B030008057B00082C
:1000400037030008370300083703000837030008A8
:100050003703000837030008370300083703000898
:100060003703000827490008370300083703000852
:100070003703000837030008C942000837030008A7
:1000800037030008CB420008370300083703000895
:10009000DD2B000837030008370300082949000852
:1000A00037030008E57D0008370300083703000820
:1000B000F17D0008FD7D0008197E00083703000867
:1000C0003703000837030008370300083703000828
:1000D00037030008C988000837030008D5890008DD
:1000E0003703000837030008370300084D7E000877
:1000F00037030008370300083703000837030008F8
:100100003703000837030008357E0008370300086E
:10011000BD8800083703000837030008417E000847
:1001200037030008370300083703000837030008C7
:1001300037030008370300083703000837030008B7
:10014000252C000837030008370300083703000890
:100150003703000837030008370300083703000897
:100160003703000837030008370300083703000887
:100170003703000837030008370300083703000877
:10018000370300083703000800F002F800F0B7F862
:100190000AA090E8000C82448344AAF10107DA45E2
:1001A00001D100F0ACF8AFF2090EBAE80F0013F07D
:1001B000010F18BFFB1A43F001031847C0360100B6
:1001C000E03601000A444FF0000C10F8013B13F038
:1001D000070408BF10F8014B1D1108BF10F8015BA0
:1001E000641E05D010F8016B641E01F8016BF9D193
:1001F00013F0080F1EBF10F8014BAD1C0C1B09D1EA
:100200006D1E58BF01F801CBFAD505E014F8016B5B
:1002100001F8016B6D1EF9D59142D6D370470000ED
:100220000023002400250026103A28BF78C1FBD8FF
:10023000520728BF30C148BF0B6070476E2900F0DD
:100240006185702900F0A386662912F06E81652908
:1002500012F06B81672912F06881612912F06781C1
:1002600003681B0A28BF41F08001692900F00E8550
:10027000642900F00B85752900F008856F2900F0CE
:100280003086782900F06F86E92900F0CB85E429D3
:1002900000F0C885F52900F0C585EF2900F02D860E
:1002A000F82900F06E860368DB0928BF41F0800161
:1002B000632901F07183732901F07683E32901F04A
:1002C0008183F32901F08683002070471FB512F067
:1002D00027F900F0FBFA04000020002112F0DEF8FC
:1002E000401C60600020002112F004F9E060002052
:1002F000002112F0E9F820611FBD10B510BD00F01B
:100300000FFC1146FFF7E2FF0CF094FD00F052FCE9
:1003100003B4FFF7F2FF03BC01F080FB09488047FC
:1003200009480047FEE7FEE7FEE7FEE7FEE7FEE7D7
:10033000FEE7FEE7FEE7FEE704480549054A064BEF
:1003400070470000157B00088901000860A70020A5
:1003500060AF002060AB002060AB0020EFF31080A6
:1003600072B6704780F3108870472A4A1368012BD1
:1003700004D04FF001031360274A1060274A116030
:1003800027484FF0805101607047EFF3108272B63A
:1003900020480168B1B14FF0000101601E480168BA
:1003A00039B1EFF3098121ED108B21E9F00F0068DD
:1003B00001601A4909680968B1E8F00FB1EC108BC7
:1003C00081F3098882F310884EF0040E70471349B8
:1003D000086011494FF0000008600E494FF001001D
:1003E000086010484FF47F01D0F8002041EA020174
:1003F00001600B484FF08051016062B6704700BF4A
:10040000EFF3098000B50EF055FD5DF804EB4EF0FA
:10041000040E7047A40100209C010020A0010020D0
:1004200004ED00E020ED00E010B500F04FFA001DF3
:1004300010BD00BF6920010070B5064600F04AFA01
:100440000468054630460A22002100F047FA2C6075
:1004500070BD10B5431C02E010F8011B71B181079B
:10046000FAD14FF0013202C88C1A8C4314EAC2113F
:10047000F9D0C01A0A0603D0C01E10BDC01A10BDA4
:100480000A0401D0801E10BD0902FCD0401E10BD20
:1004900040EA010370B59B072ED14FF00136042AC4
:1004A0002AD308C810C99D1B9D43121F15EAC61503
:1004B00017D0D8B2E1B2401A50EA056110D198B213
:1004C000A1B2401A50EA05410AD123F07F4024F03E
:1004D0007F41401A50EA052102D1180EA0EB1460AA
:1004E00070BDA342DBD018BA21BA884201D90120DD
:1004F00070BD4FF0FF3070BD0AB9002070BD10F81C
:10050000013B11F8014B63B1A3420AD1521E08D03E
:1005100010F8013B11F8014B1BB1A34201D1521E4F
:10052000EDD1181B70BD032A40F2308010F0030C8F
:1005300000F0158011F8013BBCF1020F624498BF36
:1005400011F801CB00F8013B38BF11F8013BA2F1D3
:10055000040298BF00F801CB38BF00F8013B11F04E
:10056000030300F02580083AC0F0088051F8043BEE
:10057000083A51F804CBA0E80810F5E7121D5CBF5B
:1005800051F8043B40F8043BAFF30080D20724BF8E
:1005900011F8013B11F801CB48BF11F8012B24BF22
:1005A00000F8013B00F801CB48BF00F8012B704771
:1005B00010B5203AC0F00B80B1E81850203AA0E8FE
:1005C0001850B1E81850A0E81850BFF4F5AF5FEA32
:1005D000027C24BFB1E81850A0E8185044BF18C9E5
:1005E00018C0BDE810405FEA827C24BF51F8043B8C
:1005F00040F8043B08BF7047D20728BF31F8023BE0
:1006000048BF11F8012B28BF20F8023B48BF00F873
:10061000012B70474FF000020429C0F0128010F047
:10062000030C00F01B80CCF1040CBCF1020F18BFCE
:1006300000F8012BA8BF20F8022BA1EB0C0100F061
:100640000DB85FEAC17C24BF00F8012B00F8012B34
:1006500048BF00F8012B70474FF0000200B5134669
:1006600094469646203922BFA0E80C50A0E80C50D2
:10067000B1F12001BFF4F7AF090728BFA0E80C5083
:1006800048BF0CC05DF804EB890028BF40F8042B7C
:1006900008BF704748BF20F8022B11F0804F18BFE9
:1006A00000F8012B704710B5044610F0030F08BF87
:1006B00011F0030F40F015804FF0013E121FC0F201
:1006C0000E8051F8043BA3EB0E0C2CEA030C1CEA41
:1006D000CE1C08BF40F8043BF0D0A1F1040102F1A8
:1006E0000402521E08DB11F8013B002B00F8013B0D
:1006F000F7D11146FFF78EFF204610BD10B500F070
:1007000005F8BDE8104000F021B90000014900F0F3
:1007100023B9000090A6002010B503681C1404EB58
:1007200021449BB289B2194494FBF2F302FB1343B8
:1007300094FBF2F401EB034393FBF2F102FB113162
:1007400093FBF2F301E05B1E11440029FBDB016027
:1007500003EB044010BDF0B504464FF0FF3585B003
:100760000068049060680290A0680390E0680190BF
:1007700020690090666906F18040B0F1004F7CD896
:100780003C22002104A8FFF7C7FF3C22014602A833
:10079000FFF7C2FF1822014603A8FFF7BDFF411E65
:1007A00040F2B55201A8FFF7B7FF0C220746684692
:1007B0000021FFF7B1FF414B00EB870030440026DA
:1007C0007B4411E0511A01910099491C02290091C2
:1007D00002D00C2908D105E0810705D00199491CF8
:1007E000019101E0401C00960099019A595C9142E8
:1007F000E8DD0099012906D11C2A04D1810702D025
:100800000221CDE90016A0F146018B293CD2DDE999
:100810000061002202E09F5C521C3944B242FADBC4
:10082000012E02DD820700D0491E40F2B55340F28E
:100830006D16C21700EB927292105A4300F0030338
:1008400003FB062283070A4400D1521E039E02EBDB
:100850004203049F06EBC303029EC3EB031306EBA4
:100860008303174E33441E149BB2C6EB0616C3EB2C
:100870000313B60007EB830300E005E006EB134625
:1008800066F31F43360C02D0284605B0F0BD80C485
:10089000029E40C4039E40C4019E761C44F80C6B2B
:1008A000009E44E902600720521C92FBF0F600FB18
:1008B000162084E823001846E7E70000592A0100C3
:1008C000A039CEFD70477047704700000048704760
:1008D00020A700200048704700A700202DE9F0471E
:1008E00091460F4680460446002614F8015B2DB160
:1008F000FFF79AFD0068405DC007F6D12B2D02D0AE
:100900002D2D18D0641E4A463946204600F084F842
:1009100027B13968A14201D1C7F800804FF0020425
:1009200071050BD54042002803DDFFF7D3FF0460BB
:10093000A007BDE8F08746F48066E4E70028F8DA0F
:10094000FFF7C8FF04606FF00040F2E7014900F0D4
:10095000B3B80000BCA6002070B50C4601680020AA
:100960004A1C3ED03C22B1FBF2F302FB1313B1FB55
:10097000F2F12360B1FBF2F302FB1313B1FBF2F1CE
:1009800018226360B1FBF2F302FB1313B1FBF2F127
:1009900046F2E0320A440721A360B2FBF1F301FB07
:1009A000132140F2B553B2FBF3F5A161B2FBF3F1B1
:1009B00003FB15228900B2F5B77F08D39B10521EA6
:1009C000B2FBF3F52944B2FBF3F503FB15220F4B01
:1009D000E261616189077B440CD03B2A0AD3521C37
:1009E00008E02C212046FFF737FE0120E0600AE0F6
:1009F000521A401C195C9142FAD9521CC4E90320D6
:100A00004FF0FF302062204670BD000043280100F7
:100A10000048704700A700202DE9F05F8246154688
:100A20008B4600270AF10104B9460078302801D02E
:100A30009DB113E014F8010B0127782803D0582842
:100A400001D045B10AE00DB1102D07D1002714F8EF
:100A5000010B102502E0082500E00A250026B0461B
:100A60000EE005FB080005FB06F101271FFA80F8E0
:100A700001EB1046B6F5803F00D3B94614F8010BE0
:100A8000294600F089F80028EBDABBF1000F05D009
:100A90000FB1641E00E05446CBF80040B9F1000FDE
:100AA00006D0FFF717FF02210160C81EBDE8F09FC6
:100AB00048EA0640FAE70000F0B50D46044685B066
:100AC000FFF704FF006994E8C0106369016803F24E
:100AD0006C730A188168CDE90363CDE901C7E36847
:100AE00001440093C66A2369406A03FB0613A169A7
:100AF00001FB0022284603A100F038F805B0284683
:100B0000F0BD0000257320257325336420252E3287
:100B1000643A252E32643A252E32642025640A0078
:100B20007546FFF775FFAE4605006946534620F04F
:100B30000700854618B020B5FFF7FEFBBDE8204052
:100B40004FF000064FF000074FF000084FF0000B89
:100B500021F00701AC46ACE8C009ACE8C009ACE83C
:100B6000C009ACE8C0098D46704700000FB41CB541
:100B7000084B06AA7B4469460090059800F0DBF814
:100B800004460020694600F0E9F820461CBC5DF8E8
:100B900014FB0000E50100003A2800D2303820F0B4
:100BA0002002412A01D3A2F13700884201D34FF03D
:100BB000FF30704710B50446AFF300802046BDE813
:100BC0001040FFF7A5BB70B5044685690068C106F3
:100BD00001D5302600E02026C00707D070BDD4E93B
:100BE000012130469047206A401C20626D1EF6D5D8
:100BF00070BD70B5044685690078C00707D170BD27
:100C0000D4E9012120209047206A401C20626D1EFB
:100C1000F6D570BD09684A0501D540B27047C905CF
:100C2000FCD500B2704709684A0501D5C0B27047CB
:100C3000C905FCD580B2704770B50C460546012A3F
:100C400005D02878800600D5EA69002302E0012358
:100C500005E05B1C934202D2E05C0028F9D1A86950
:100C6000E618C01AA861286A184428622846FFF7C7
:100C7000AAFF04E0D5E9012114F8010B9047B44222
:100C8000F8D32846FFF7B5FF70BD00002DE9F0410D
:100C90000646002410687529314616A510D0FFF7C6
:100CA000B9FF002802DA404213A507E031688A073D
:100CB00001D512A502E0490704D511A5012401E0E0
:100CC000FFF7B1FF00210A2206F1240709E0B0FB7B
:100CD000F2FCB0FBF2F302FB1C00303078541846F3
:100CE000491C0028F3D123462A463046BDE8F0418E
:100CF00000F061BA000000002D0000002B00000091
:100D00002000000011680268006A530501D50870D0
:100D10000AE0D30501D5088006E0130603D5C21703
:100D2000C1E9000200E008600120704701694A1C27
:100D300002610878704700B58FB0CDE9013100211C
:100D4000059105497944CDE903101146684600F044
:100D500029F90FB000BD0000E5FFFFFF0A6802F8A7
:100D6000010B0A60704700002DE9FF5F15468A46B7
:100D70000446DFF8AC80F8440027D8E900103E466E
:100D8000CDE9001010E03AF816106A4602A800F00B
:100D900025FE411C07D02178890603D5E269391860
:100DA00091420DD80744761C2078800602D5E06970
:100DB000B84205DDAE42E6DB3AF816000028E2D183
:100DC000A069C01BA0612046FFF7FDFED8E9001016
:100DD000CDE90010002017E03AF818106A4602A882
:100DE00000F0FCFDB0F1FF3F81460BD000250DF176
:100DF000080B05E0D4E901211BF8050090476D1CA4
:100E00004D45F7D308F10100B0428046E4DB206A8B
:100E1000384420622046FFF7ECFEBDE8FF9F00004B
:100E2000B22401002DE9F0418046D21D22F00702D4
:100E30000025D2E90002F52915A614D0011E72F191
:100E4000000106DA0023D0EB030063EB020211A6D7
:100E500008E0D8F800108B0701D50FA602E049077B
:100E600001D50EA601251146002408F1240704E04F
:100E700000F05CF930323A55641C50EA0102F7D1B7
:100E80002B46324621464046BDE8F04100F093B97A
:100E9000000000002D0000002B00000020000000DA
:100EA00030B4002100F1240408E002F00705D20864
:100EB000303542EA4372DB086554491C52EA0305A7
:100EC000F3D10468002310A2250707D5A40600D497
:100ED00021B1C46901230DA2641EC46130BC00F0BD
:100EE0006AB910B5044621461068FFF79CFE024619
:100EF0002046BDE810400023D2E7D21D22F00701B2
:100F0000D1E90023CCE70000000000003000000021
:100F1000F0B40D460188090502D5214C7C4402E05D
:100F20001F4C7C440E34002100F1240608E002F03E
:100F30000F071209E75D42EA03721B097754491C47
:100F400052EA0307F3D102780023120704D5702D6B
:100F500006D009B1022311342246F0BC00F02BB9AF
:100F600001231034F8E770B504460D462146106899
:100F7000FFF759FE024629462046BDE8704000238F
:100F8000C6E7D21D22F00703D3E90023C0E70368B8
:100F9000126843F0200303600823C3610023B7E70E
:100FA000142301002DE9F05F894604464FF0000A42
:100FB000DFF874B1FB44C0F820A02046E168884700
:100FC000002874D0252806D0D4E901219047206A52
:100FD000401C2062F1E700265F462046E168884712
:100FE0002028054607DB312D05D2781910F8200C92
:100FF00008B10643F1E7B00701D526F00406C4F8AE
:101000001CA00027C4F818A02A2D09D0284608F0F3
:10101000E0F838B304EB8708303DC8F8185019E001
:1010200059F8041B204604EB87029161E168884768
:10103000012F054618D1E069002820DA26F02006A5
:101040001DE0D8F8180000EB800005EB40003038B8
:10105000C8F818002046E1688847054608F0B9F846
:101060000028EED1012F0AD02E2D08D12046E168AC
:1010700088477F1C0546022F46F02006C4DBA06986
:10108000002803DA404246F00106A061F00701D0D3
:1010900026F010066C2D0BD0682D09D04C2D39D0C0
:1010A0006A2D35D0742D35D07A2D33D016E038E046
:1010B000E1682F4620468847B842054609D16C2F83
:1010C00026D04FF48060E1680643204688470546F5
:1010D00004E06C2F1AD04FF4807006430DB3A5F1D5
:1010E0004100192802D8203546F400664A462946B0
:1010F000204626604E46FFF7A1F880B101280BD0AC
:10110000F61D26F0070000F1080956E74020E4E745
:101110008020D8E70020D6E706F104094DE72846ED
:1011200052E7206ABDE8F09FA422010030B5B0F17B
:101130000A024FEA900E71F100034EEA817EB0EB95
:101140000E0061EB91014FEA101E4EEA017E10EB9A
:101150000E0041EB11114FEA102E4EEA016E10EB1A
:101160000E0041EB11214FEA104E4EEA014E10EBFA
:101170000E0041EB1141401841F100014FEAD0004F
:1011800040EA41704FEAD10110EB80054FEA81043B
:1011900044EA907444EB01046D1944EB0404521BBF
:1011A000A3414FF0000348BF0A3200D530BD401CB8
:1011B00041F1000130BD2DE9F0470D4699469246B8
:1011C000044600F124080168880604D5E06921F08E
:1011D0001001216000E00120A84201DD471B00E072
:1011E0000027A1697A1902EB0900081AA06120788A
:1011F000C00602D42046FFF7E6FC002608E0D4E94A
:1012000001211AF806009047206A401C761C2062D3
:101210004E45F4DB2078C0060AD52046FFF7D3FC04
:1012200006E0D4E9012130209047206A401C20626A
:10123000381EA7F10107F4DC07E0D4E9012118F812
:1012400005009047206A401C2062281EA5F1010578
:10125000F3DC2046FFF7CDFC2078000602D5022003
:10126000BDE8F0870120FBE770472DE9FF4F0C46F2
:101270001E464FF0FF378BB0D2E90001DDF86080E9
:101280000A908A46C1F30A5505B93D460021084631
:101290004FF00000BAF1000F00F4400005DA00EB57
:1012A00080004FF4400101EA50004FEA9059B9F133
:1012B000010F00DDB9460A9850EA4A000ED044F604
:1012C0001050A5F2FF3545432F14B8F1000F1ED082
:1012D0007542291E1EDDC9F100021CE0B8F1010FA4
:1012E0004FF0000001D0302103E0F24305E021542B
:1012F000401CB042FBDB30460022002121540B99F8
:10130000C1F80880C1E900200FB0BDE8F08FBD1B17
:101310006D1CDEE74A4600DA694206A800F0C6FB0B
:1013200006AB93E8070003AB83E8070050460A9931
:1013300000F02EFC8DE80700A0F500501F3800904B
:101340000398002D0ADD42F21F014A46084400239B
:1013500003A90390684600F097FE09E0A0F500504D
:101360004A461F38002303A90390684600F0A1FEF7
:101370008DE807000004000C03D04FF0FF30410857
:1013800000E01046B8F1000F03D00022009215468D
:101390001EE0751E05D4FFF7C9FE303262556D1E82
:1013A000F9D5B3460122084302D000227F1C04E095
:1013B0002078302801D100227F1E002A099784D08E
:1013C0001DE0112D07DAFFF7B1FE303262556D1CBA
:1013D00050EA0102F5D1084302D00098C8B10EE0EE
:1013E0000021681E05E0235C625C63542254401EA9
:1013F000491C8142F7DBAB46A81B401E0990002028
:1014000004F80B000B98099AC0F80880C0E9002B7B
:101410007AE711264FF0000857E72DE9F04F88468C
:101420000446D21D22F0070191B0D1E90001CDE9B7
:101430000A0107F0B6FE02460B98C00F01D02D201E
:1014400007E02068810701D52B2002E0202101EA76
:10145000C000032A099001D0072A05DB0346414654
:10146000204600F0E3FA0BE12078800601D5E06920
:1014700000E00620B8F1650F814606D0B8F1660F8E
:1014800018D0B8F1670F70D131E00020B9F1110F19
:10149000009001DB112301E009F101030AAA01A96F
:1014A0000CA8FFF7E2FEDDE90C70002609F101054A
:1014B000834647E001204B4600904FF000470AAAC0
:1014C00001A90CA8FFF7D1FEDDE90DB00C995D462E
:1014D000002610B909F101000D18B9EB050003D47D
:1014E000C0F1FF3609F10105A5EB09002BE0B9F1C8
:1014F000010F01DA4FF001090020B9F1110F00903E
:10150000484601DD112300E003460AAA01A90CA800
:10151000FFF7ABFEDDE90C704D46002683462078D0
:1015200000070AD4AB4500DA5D4601A8012D04DDB1
:10153000411911F8011C302907D04F4502DA17F183
:10154000040F04DA012082460FE06D1EEEE7002F43
:1015500002DCED1B3E4403E0781CA84200DD7D1C4C
:10156000B81B00F1010A4FF000472078000703D4B0
:10157000AA4501DB4FF0FF3A0021B7F1004F0DF112
:1015800043088DF8431024D002202B23002F01DACA
:101590007F422D230A21021EA0F1010000DC5FB171
:1015A00097FBF1FC97FBF1F201FB1C7C17460CF159
:1015B000300C08F801CDEEE7A8F101000370218896
:1015C000090501D5452100E06521A0F1010800F8D9
:1015D000011C09980FA9A1EB0807FF1D00B101200C
:1015E000411901EBEA70A1693844081A401EA06154
:1015F0002078C00602D42046FFF7E5FA099828B102
:10160000D4E901219047206A401C20622078C0065E
:1016100022D52046FFF7D7FA1EE0002E04DBB345A3
:1016200002DD01A8805D00E03020D4E9012190476F
:10163000206A401C2062761CAAF101005FEA000AC1
:101640000AD1FFF743F9C0680168405CD4E9012181
:101650009047206A401C2062281EA5F10105DCDCB1
:1016600007E0D4E9012118F8010B9047206A401CDB
:101670002062381EA7F10107F3DC2046FFF7B9FA14
:10168000032011B041E600002DE9F04F04460D465D
:10169000D21D22F0070089B0D0E9009748463946AC
:1016A00007F07FFD0246F80F01D02D2307E02068E8
:1016B000810701D52B2302E0202101EAC0038DF828
:1016C00020300BB1012000E00020032A824601D027
:1016D000072A04DB2946204600F0A8F93FE12078DC
:1016E000800601D40D2500E0E569C7F30A560D2DEB
:1016F00049DA00214FEA175B08464FF00000002F3F
:1017000000F4400007DA00EB80004FF4400100EBEA
:10171000D07001EA60008115012901DD4FF0FF3131
:1017200000224FEA850CBCF1180F06D31346ACF12A
:1017300018004FF08052C24003E04FF4801323FAA8
:101740000CF30CF10C0CBCF1200F04D3ACF1200C09
:1017500009FA0CF001E007FA0CF000294FF00048FC
:1017600001DD18B90FE00ED140450CD319EB020989
:101770005F4121B9404502D19F4329EA0209BBEBF1
:10178000175F00D0761C2088000502D57B4878447E
:1017900002E07A487844193808AA302302F80A305F
:1017A000037C0AF10101002E0AF1020A53546A4631
:1017B00002DC4FF0300101E04FF031014FF0010841
:1017C0008DF8001002D0A6F2FF3603E059EA470177
:1017D00000D06B4E002D02DC2178090704D54FF0B4
:1017E00002082E218DF80110C44600210BE0C7F33A
:1017F00003433F01C35C491C6D1E02F808300529F4
:1018000008F1010801DA002DF1DC00210CE000EB09
:101810001973491C1B786D1E082902F808304FEA1D
:10182000091908F1010801DA002DF0DC21688B06A6
:1018300002D516E0A8F10108E04505DD02EB08033A
:1018400013F8013C302BF5D0B8F1000F09DD02EBA5
:10185000080313F8013C2E2B03D1090701D4A8F18A
:101860000108002D05DD3E2102F808106D1E08F16B
:101870000108407C002E02F8080008F1010804DA93
:101880002D20764202F8080002E02B2002F8080022
:101890000A214FF47A70864208F101080BDB96FBAF
:1018A000F0F3303302F8083096FBF0F308F101084A
:1018B00000FB136601E0642E0CDB642096FBF0F362
:1018C000303302F8083096FBF0F308F1010800FB12
:1018D000136601E00A2E06DB96FBF1F0303002F8C9
:1018E000080008F1010896FBF1F001FB10603030B0
:1018F00002F80800A16908F1010808EB050202EBF3
:101900000A00081AA0612078C00602D42046FFF71A
:101910005AF9216A08AE01EB0A00206204E0D4E91A
:10192000012116F8010B9047BAF1010AF7D220788D
:10193000C00602D52046FFF746F96E4609E016F8C4
:10194000010B3E280FD0D4E901219047206A401CAA
:101950002062B8F10108F2D22046FFF74AF909B037
:101960000320BDE8F08F206A2844206203E0D4E918
:101970000121302090476D1EEBD3F8E7EE1A0100ED
:1019800002FCFFFF10B5436913B1AFF3008001E023
:10199000FFF752F9012010BD127800F124010A70FE
:1019A00000224A700122EDE711684FF0FF32E9E7AB
:1019B00010B5436913B1AFF3008001E0FFF7D4F92C
:1019C000012010BD128800F1240182840022C2840B
:1019D0000122EDE711684FF0FF32E9E770B51646D6
:1019E0000C460546FEF720FD036893F80101012827
:1019F00006D0FF2C0FD8185D68B101202C7070BD87
:101A0000D3F807013246214603F207130344284660
:101A1000BDE8704018474FF0FF3070BD01491820F5
:101A2000ABBEFEE726000200704700002DE9F04142
:101A30001F46044603260168072A01F4006004DB00
:101A400008B116A505E016A503E008B115A500E04C
:101A500015A521F010002060A069C01EA0610FB183
:101A6000401EA0612046FFF7AEF84FB1D4E9012136
:101A700038469047206A401C2062C01C206206E065
:101A8000206AFAE7D4E9012115F8010B9047761E88
:101A9000F8D22046FFF7ADF8BDE8F0814E414E0088
:101AA0006E616E00494E4600696E66002DE9F04792
:101AB000814616468AB0354878440DC88DE80D0039
:101AC00032487844801C03AC0DC884E80D0041F610
:101AD0009B300844372190FBF1F290FBF1F5A5F122
:101AE000800501FB12041B3C02D56442012000E08A
:101AF0000020DFF898A080460027FA44AAF1BE0A29
:101B00000EE0E0070AD03246684607EB47010123A2
:101B10000AEB810100F0CDFA8DE8070064107F1C0C
:101B2000002CEED1194F7F44AE3F19E0E80715D0E5
:101B300007EB04100DF1180A90E80E008AE80E0079
:101B4000C068F04201D1981908903246012306A9D5
:101B500003A800F0AEFA03AB83E807006D10641C25
:101B6000002DE3D14FF0010332466946B8F1000F72
:101B700003A802D000F088FA01E000F09AFAC9E95F
:101B80000001C9F808200AB0BDE8F0875418010028
:101B90005FEA400C08BF91F0000F4FEA8C234FEA38
:101BA000C12243EA51514FEA1C5018BF00F5F040E2
:101BB0004FEA300018BF41F000415FEA6C5C00F072
:101BC0002980BCF1FF3F08BF40F080407047130CF4
:101BD00006BF12044FF0100C4FF0000C130E04BFA0
:101BE00012020CF1080C130F04BF12010CF1040CCB
:101BF000930F04BF92000CF1020CD30F04BF5200EC
:101C00000CF1010C11464FF00002A0F11F00A0EBF7
:101C10000C00704711F0004F08BF704731F00041D1
:101C20003FF4D5AF0B0C06BF09044FF0100C4FF07A
:101C3000000C0B0E04BF09020CF1080C0B0F04BFC3
:101C400009010CF1040C8B0F04BF89000CF1020C8C
:101C5000CB0F04BF49000CF1010CCCF12003A0EB29
:101C60000C0022FA03F302FA0CF241EA030100F13C
:101C70000100704720F07F4C80EA030023F07F478B
:101C8000ACEB070303F57C5300F0004003F1FF03C6
:101C90002DE980494FEA154B09B44FEA144325EA70
:101CA0000B4E24EA03480FF2042606EB13274908DB
:101CB0003E785FEA320203FB0667C7F5000707FBC1
:101CC00006F64FEA54374FEAD64606F1020607FBFE
:101CD000066CCCF1005C4FEA1C472CEA074C07FB72
:101CE00006F40CFB06F504EB15464FEA961634BFD6
:101CF00000204FF000404FEAD13706FB07FC4FEAC7
:101D00001C4C0CFB0BF7D21B03FB0CF761EB070120
:101D10000CFB0EF7B0EB074072EB17420CFB08F719
:101D200034BFA2EB0742B2EB074261EB17414FEA27
:101D30000C444FEA910706FB07FC4FEA1C4C0CFBD6
:101D40000BF7B0EBC74072EB573203FB0CF734BF15
:101D5000A2EBC742B2EBC74261EB57310CFB0EF767
:101D6000B0EBC70072EB57720CFB08F734BFA2EB65
:101D7000C702B2EBC70261EB5771039F4FEA816163
:101D800041EA921104EBCC044FEAD1374FEA826268
:101D900006FB07FC42EA90124FEA80604FEA1C4CB7
:101DA0000CFB0BF7D21B03FB0CF761EB07010CFBE1
:101DB0000EF7B0EB074072EB17420CFB08F734BF8D
:101DC000A2EB0742B2EB074261EB17414FEA8C5599
:101DD0004FEA910704EB9C2406FB07FC4FEA1C4CDE
:101DE0000CFB0BF7B0EBC74072EB573203FB0CF761
:101DF00034BFA2EBC742B2EBC74261EB57310CFBD9
:101E00000EF7B0EBC70072EB57720CFB08F734BF4C
:101E1000A2EBC702B2EBC70261EB577115EB4C2581
:101E20004FEA816141EA92114FEA82624FEAD1376B
:101E300042EA901206FB07FC44F100044FEA80607E
:101E40004FEA1C4C0CFB0BF7D21B03FB0CF761EBAE
:101E500007010CFB0EF7B0EB074072EB17420CFBCF
:101E600008F734BFA2EB0742B2EB074261EB174120
:101E700015EB1C154FEA813141EA92414FEA82325B
:101E800042EA90424FEA80304FEA0C7644F1000477
:101E900048EA03434EEA0B484FF0000EB2EB080C41
:101EA00071EB030724BF624639464EEB0E0E4FF02E
:101EB000000B0018524149414BEB0B0BB2EB080CE5
:101EC00071EB03077BF1000B24BF624639464EEBF2
:101ED0000E0E4FF0000B0018524149414BEB0B0B1B
:101EE000B2EB080C71EB03077BF1000B24BF6246D9
:101EF00039464EEB0E0E51EA020718BF46F00106B6
:101F000016EB0E7655F1000254F1000103D5BDE841
:101F10008901BDE80088BDE88901BDE80048B6191F
:101F2000524141EB0101A3F10103704780807F7EA4
:101F30007D7C7B7A7978777676757473727171703F
:101F40006F6E6E6D6C6C6B6A6A69686867666665F1
:101F50006464636362616160605F5F5E5E5D5D5C7F
:101F60005C5B5B5A5A5959585857575656555555F0
:101F70005454535352525251515050504F4F4F4E50
:101F80004E4D4D4D4C4C4C4B4B4B4A4A4A4949499E
:101F900048484847474747464646454545444444E0
:101FA000444343434342424242414141002B9C4609
:101FB00030D477002BD01CB54FEA370703B44FF06D
:101FC00010004FF01001BAF1000F06D0BCF1000F65
:101FD000DCBF40F0080040F008014FF000000FBCEB
:101FE000BDE810400BF1010BBBF1010F08BF5FEA28
:101FF000170722BF12F1010211F101014FF0004158
:1020000043F1000300F0004043EA00007047F9D3B9
:102010005708D0E746EA064613F1400F4FEA164646
:102020001FDD13F1200FDFBF16430A4600212033C6
:102030005B42BED0C3F1200746EA064602FA07F724
:102040004FEA164646EA0706C3F1200722FA03F2D2
:1020500001FA07F721FA03F14FF0000342EA070201
:10206000A7E746EA020646EA06464FEA164646EA69
:102070000106BCBF46EA0646360C4FF000034FF09F
:1020800000024FF0000194E72DE9804C9A469346F8
:1020900070B491E8380007C831EA400C48BF34EA10
:1020A000430C03D5FFF7E6FDFFF780FFF0BCBDE86A
:1020B000008C2DE9804C9A46934670B491E8380024
:1020C00007C810F0804F08BF13F0804F03D100F015
:1020D00005F8FFF76BFFF0BCBDE8008C20F07F47F0
:1020E00080EA030023F07F4C07EB0C03A3F57C533D
:1020F00000F00040A3F1FE0392F0000F00F0B38067
:1021000095F0000F00F077802DE901494FEA11406A
:102110004FEA144621EA004800FB06FC24EA064781
:1021200008FB06F607FB08F800FB07F718EB064864
:102130004CEB164C4FEA124B18EB07484FEA15468A
:102140004CEB174022EA0B4E0BFB06FC25EA064738
:102150000EFB06F607FB0EFE0BFB07F71EEB064E0B
:102160004CEB164C4FF000061EEB074E4CEB174B9A
:1021700018EB0B0840F1000018EB0E0B58EB0008B1
:1021800040F100008F1A4FF000013CBFC943661BAD
:1021900014BFB5EB040C00213CBFC943F61B4FEA4A
:1021A00017444EEA8E0E27EA04454FEA1C4704FB0B
:1021B00007622CEA074C05FB07F70CFB05F604FB4E
:1021C0000CFC16EB074642EB174216EB0C4642EBB3
:1021D0001C421BEB060658EB0202414146EA9E06F2
:1021E00001D5BDE80189B619524141EB0101A3F1C6
:1021F0000103BDE801894FEA14454FEA114724EA7B
:10220000054621EA074C05FB07F406FB07F70CFB24
:1022100006F105FB0CFC11EB074144EB17444FEAB8
:10222000124711EB0C4144EB1C4422EA074C05FB1E
:1022300007F206FB07F70CFB06F605FB0CFC16EB9A
:10224000074642EB174216EB0C4642EB1C456A1858
:1022500054F1000148BF7047B619524141EB0101EA
:10226000A3F10103704795F0000F37D04FEA1142F8
:102270004FEA144721EA024624EA074C02FB07F121
:1022800006FB07F70CFB06F402FB0CFC14EB0744FF
:1022900041EB17414FEA154714EB0C4441EB1C414D
:1022A00025EA074C02FB07F506FB07F70CFB06F6D1
:1022B00002FB0CFC16EB074645EB174516EB0C46EC
:1022C00045EB1C42121951F1000148BF7047B61985
:1022D000524141EB0101A3F1010370474FEA14455C
:1022E0004FEA114724EA054621EA074C05FB07F1AE
:1022F00006FB07F70CFB06F24FF0000605FB0CFC93
:1023000012EB074241EB174112EB0C4251EB1C411F
:1023100048BF7047921841EB0101A3F101037047D8
:1023200010B501F09FFC10BD10B502480DF08EFFF6
:1023300010BD0000600700201FB505F01FFC2AA09B
:102340000DF04AF8002233A134480CF005F9344965
:1023500008600AF051FD0AF017FD0AF031FD142063
:102360000821CA012F4BCDE90032CDE9021000232C
:102370002D4A2EA130480EF013FD04200821020240
:102380002E4BCDE90032CDE9021000232C4A2DA1BD
:1023900030480EF005FD0420082102022E4BCDE945
:1023A0000032CDE9021000232C4A2DA130480EF056
:1023B000F7FC08200D21C2012E4BCDE90032CDE9FA
:1023C000021000232C4A2DA12F480EF0E9FC1A48D8
:1023D0000EF0ECFD1F480EF0E9FD25480EF0E6FD7D
:1023E00029480EF0E3FD1FBD0D0A2B2043414E206E
:1023F000494E464F3A2053797374656D2043414EE0
:1024000020485720496E6974207375636365737340
:10241000210D0A00455F43616E00000070670020D7
:1024200048020020A0670020ED240008427370439A
:10243000616E517565527800A06B0020306C0020F1
:10244000D524000842737043616E3151756554782C
:102450000000000030700020C0700020E12400085F
:1024600042737043616E325175655478000000000C
:10247000C074002050750020FD2400084273704392
:10248000616E5461736B0000507900201CB503F03D
:10249000B5F80B480B494860012008701420122140
:1024A0004FF480630022CDE90010074907A00EF029
:1024B0006AFB044614B120460EF078FD1CBD0000F6
:1024C000AC020020B08300204D2700084D766253F7
:1024D0007276000000BF01F027FA07F007FCFAE768
:1024E00000BF01F0BBFA07F055FCFAE700BF01F0AE
:1024F000C7FB07F0AFFD03F0BDF9F8E700BF01F03F
:10250000A1FB0448007800F001000028F7D007F094
:1025100095FCF4E74C02002000B59FB03C2110A8C8
:10252000FEF79AF81C2109A8FEF796F81C2102A8CC
:10253000FEF792F80020009001900121782004F02D
:10254000E3F80121084604F01FF90C2200217B4822
:1025500002F01CFD0C220121784802F017FD0C222C
:102560000421764802F012FD0C220521734802F086
:102570000DFD0C220E21714802F008FD0C220F21E6
:102580006E4802F003FD4CF23300009002208DF8FB
:1025900004008DF8050000208DF806008DF8070076
:1025A0006946664802F01CFC0C220721644802F0D0
:1025B000EDFC0C220821624802F0E8FC0C22092103
:1025C0005F4802F0E3FC0C220A215D4802F0DEFCC9
:1025D0004FF4F06000906946594802F001FC0C226B
:1025E0000021584802F0D2FC0C220121554802F08B
:1025F000CDFC0C220221534802F0C8FC0C2203211E
:10260000504802F0C3FC0C2204214E4802F0BEFCEC
:102610000C2205214B4802F0B9FC0C220B21494841
:1026200002F0B4FC0C221146464802F0AFFC0C222A
:102630000D21444802F0AAFC0C220E21414802F070
:10264000A5FC0C220F213F4802F0A0FC4FF63F00F2
:10265000009069463B4802F0C3FB0C2200213A4837
:1026600002F094FC0C220121374802F08FFC0C226E
:102670000221354802F08AFC0C220321324802F084
:1026800085FC0C220421304802F080FC0C2205213C
:102690002D4802F07BFC3F20009069462A4802F05A
:1026A0009FFB4FF4805000906946274802F098FB4A
:1026B0000C221146244802F069FC0F2009900120E9
:1026C0000A901F200B9000200C900D900E904FF060
:1026D00040500F900F200290012003901F20049083
:1026E00000200590069007904FF040500890002081
:1026F00010901190082012900020139014901590C3
:102700004FF400701690002017904FF4006018905E
:102710004000199000201A904FF480401B90002038
:102720001C9009A81D9002A81E9010A802F07EF926
:102730000121002002F030F91FB000BD000C024062
:1027400000100240001402400018024086B000BF92
:1027500002F076FFA9480078012804D102F0B2FF08
:102760000020A6490870A648007A01287ED10EF004
:102770005DFD0446A348C1892246A3A00CF02CFEAF
:10278000A7A00CF029FE9E48C068C0799C49C96882
:1027900089799B4AD2685279994BDB681B79CDE9DC
:1027A0000132CDE903109648C068C0780090944883
:1027B000C06883789248C06842789148C0680178C0
:1027C000A4A00CF009FEB0A00CF006FE8C48C06876
:1027D000C27B8B48C068807B8949C968497B884B2C
:1027E000DB681B7BCDE90131CDE903028448C06879
:1027F000C07A00908248C068837A8148C068427A73
:102800007F48C068017A93A00CF0E6FDABA00CF005
:10281000E3FD7B48C068C27D7948C068817D784807
:10282000C068407D764BDB681B7DCDE90130CDE98A
:1028300003127348C068C07C00907148C068837CF4
:102840006F48C068427C6E48C068017C81A00CF073
:10285000C3FDA7A00CF0C0FD6948C068C17F6848EF
:10286000C068827F6648C068407F00E020E0644B1B
:10287000DB681B7FCDE90130CDE903216048C068EA
:10288000C07E00905E48C068837E5D48C068427E1E
:102890005B48C068017E6FA00CF09EFD4FF47A701B
:1028A0000EF099F90120554908700020544908722A
:1028B0005348007801287FF44BAF0EF0B7FC044674
:1028C0005048C188224650A00CF086FD54A00CF060
:1028D00083FD4B484068C27949484068817948483F
:1028E00040684079464B5B681B79CDE90130CDE902
:1028F000031243484068C07800904148406883789C
:102900003F48406842783E484068017851A00CF04A
:1029100063FD5DA00CF060FD39484068C27B38481B
:102920004068817B36484068407B354B5B681B7B49
:10293000CDE90130CDE9031231484068C07A0090FA
:102940002F484068837A2E484068427A2C48406875
:10295000017A40A00CF040FD58A00CF03DFD284845
:102960004068C27D26484068817D25484068407D9A
:10297000234B5B681B7DCDE90130CDE90312204874
:102980004068C07C00901E484068837C1C484068BA
:10299000427C1B484068017C2EA00CF01DFD54A019
:1029A0000CF01AFD16484068C07F15494968897FB8
:1029B000134A5268527F124B5B681B7FCDE901328C
:1029C000CDE903100E484068C07E00900C48406876
:1029D000837E0B484068427E09484068017E1DA006
:1029E0000CF0FAFC4FF47A700EF0F5F80120034970
:1029F0000870002002490870AAE60000B083002099
:102A0000B0840020B0850020706F7274203A2025B9
:102A1000642020207469636B3A25640D0A2000004D
:102A20002B2D6230202D2B2D6231202D2B2D62324B
:102A3000202D2B2D6233202D2B2D6234202D2B2D7C
:102A40006235202D2B2D6236202D2B2D6237202D27
:102A50002B0D0A007C20253364207C202533642044
:102A60007C20253364207C20253364207C20253382
:102A700064207C20253364207C20253364207C2046
:102A8000253364207C0D0A002B2D6238202D2B2D40
:102A90006239202D2B2D6231302D2B2D6231312DBD
:102AA0002B2D6231322D2B2D6231332D2B2D6231A6
:102AB000342D2B2D6231352D2B0D0A002B2D62313B
:102AC000362D2B2D6231372D2B2D6231382D2B2DAC
:102AD0006231392D2B2D6232302D2B2D6232312D6A
:102AE0002B2D6232322D2B2D6232332D2B0D0A000D
:102AF0002B2D6232342D2B2D6232352D2B2D62324F
:102B0000362D2B2D6232372D2B2D6232382D2B2D69
:102B10006232392D2B2D6233302D2B2D6233312D26
:102B20002B0D0A0000BF0EF081FB0FA00CF054FC2F
:102B300000BF4FF0FF3118480DF0B2FB1748006896
:102B4000401C1649086002F099FC02F02DFC134865
:102B500000680521B0FBF1F201FB12000028E8D16A
:102B600005F030F8E5E700000D0A2B204253502015
:102B70005441534B20494E464F203A204253502057
:102B80005461736B20496E69742053756363657378
:102B900073210D0A000000006007002020000020C3
:102BA00000BFFEE710B50221094800F005FA70B138
:102BB000084A0021064800F077FC0EF037FB064972
:102BC0000860044A08460168012000F093FF10BD28
:102BD00000640040501F00202002002010B50CF0BF
:102BE00087FBFFF7DFFF0CF09BFB10BD10B5022148
:102BF000094800F0E1F970B1084A0021064800F0E8
:102C000053FC0EF013FB06490860044A08460168AD
:102C1000022000F06FFF10BD00680040501F002030
:102C20002002002010B50CF063FBFFF7DFFF0CF073
:102C300077FB10BD10B504461048844202D01048FE
:102C4000844200D103E0A5210EA006F099FF0B48B5
:102C5000844209D10121480603F014FE00214FF0FF
:102C6000007003F00FFE08E00121880603F00AFE61
:102C700000214FF0806003F005FE10BD00640040AD
:102C80000068004053544D3332463478785F5374B3
:102C9000645065726970685F4472697665725C73CE
:102CA00072635C73746D3332663478785F63616E1F
:102CB0002E63000070B504460025A07A1B2800DCB6
:102CC00004E040F24D1157A006F05AFFE07A10B12F
:102CD000E07A012800D104E04FF4A77151A006F07A
:102CE0004FFF207B10B1207B012800D104E040F28F
:102CF0004F114CA006F044FF208910B12089012813
:102D000000D104E04FF4A87146A006F039FF607BC3
:102D100010B1607B012800D104E040F2511141A0C4
:102D200006F02EFFA17A012000FA01F5494800685B
:102D300040F001004749086046481C300068A8433D
:102D400044491C310860207BC8B942480C300068F7
:102D5000A84340490C3108606088E18840EA01419D
:102D60003C484030A27A40F832102088A18840EADE
:102D7000014138484030A27A00EBC2004160207B1C
:102D8000012819D133480C300068284331490C31EF
:102D900008606088218840EA01412E484030A27ACC
:102DA00040F83210E088A18840EA014129484030CB
:102DB000A27A00EBC2004160E07A38B92548001DD4
:102DC0000068A8432349091D086006E02148001D4A
:102DD000006828431F49091D0860208930B91D4833
:102DE00014300068A8431B49143108602089012869
:102DF00006D1184814300068284316491431086079
:102E0000607B012806D113481C3000682843114913
:102E10001C3108600F48006820F001000D4908606F
:102E200070BD000053544D3332463478785F53748C
:102E3000645065726970685F4472697665725C732C
:102E400072635C73746D3332663478785F63616E7D
:102E50002E6300000066004070B505460C46002653
:102E60003E48854202D03E48854200D104E040F20F
:102E700034513CA006F084FE464884422DD046489A
:102E800084422AD0801E844227D0401E844224D00F
:102E90004248844221D0424884421ED040480838EB
:102EA00084421AD03F48844217D03F48844214D00D
:102EB0003D480838844210D03C4884420DD03C48FC
:102EC00084420AD03B48844207D03A48FF388442C3
:102ED00003D032480A30844200D104E040F2355138
:102EE00020A006F04DFE04F4700040B1A869C4F3C0
:102EF0001301084008B101262DE000262BE004F064
:102F0000807040B16868C4F31301084008B101261D
:102F100021E000261FE004F0006040B1A868C4F37F
:102F20001301084008B1012615E0002613E004F063
:102F3000007040B1E868C4F31301084008B10126ED
:102F400009E0002607E02869C4F31301084008B12E
:102F5000012600E00026304670BD000000640040FD
:102F60000068004053544D3332463478785F5374D0
:102F7000645065726970685F4472697665725C73EB
:102F800072635C73746D3332663478785F63616E3C
:102F90002E6300007000F0300400F01008000031D3
:102FA000100000320300001210000034030000146F
:102FB000000001380001003870B504460D460026B7
:102FC0005F48844202D05F48844200D104E040F26E
:102FD000D3515DA006F0D4FD012D20D0022D1ED0CE
:102FE000042D1CD0082D1AD0102D18D0202D16D04D
:102FF000402D14D0B5F5807F11D0B5F5007F0ED0EF
:10300000B5F5806F0BD0B5F5006F08D0B5F5004F62
:1030100005D0B5F5803F02D0B5F5003F00D104E002
:1030200040F2D45148A006F0ABFD6069284000286A
:1030300071D0B5F5807F5CD010DC082D35D006DC72
:10304000012D20D0022D24D0042D72D127E0102D87
:1030500031D0202D35D0402D6BD138E0B5F5004F63
:1030600060D009DCB5F5007F49D0B5F5806F4CD054
:10307000B5F5006F5DD14FE0B5F5803F2DD0B5F5CA
:10308000003F56D12FE0A0683B4900F07BFF064689
:1030900051E0E068032100F075FF06464BE0E06870
:1030A000082100F06FFF064645E0E068102100F0BF
:1030B00069FF06463FE02069032100F063FF0646F2
:1030C00039E02069082100F05DFF064633E0206901
:1030D000102100F057FF06462DE06068082100F03F
:1030E00051FF064627E06068102100F04BFF0646BE
:1030F00021E0A069012100F045FF06461BE0A06920
:10310000022100F03FFF064615E0A069042100F00F
:1031100039FF06460FE00FE0A069702100F032FF92
:10312000064608E06068042100F02CFF064602E035
:10313000FFE7002600BF00E00026304670BD00001B
:10314000006400400068004053544D3332463478E8
:10315000785F5374645065726970685F4472697611
:1031600065725C7372635C73746D33326634787845
:103170005F63616E2E6300000101010070B50546BA
:103180000C4616462348854202D02348854200D18A
:1031900004E040F20A5121A006F0F2FC012C20D0FC
:1031A000022C1ED0042C1CD0082C1AD0102C18D0A5
:1031B000202C16D0402C14D0B4F5807F11D0B4F55B
:1031C000007F0ED0B4F5806F0BD0B4F5006F08D03F
:1031D000B4F5004F05D0B4F5803F02D0B4F5003F00
:1031E00000D104E040F20B510CA006F0C9FC0EB176
:1031F000012E00D104E040F20C5108A006F0C0FC02
:103200001EB168692043686102E06869A043686193
:1032100070BD0000006400400068004053544D330E
:1032200032463478785F5374645065726970685FB1
:103230004472697665725C7372635C73746D333269
:10324000663478785F63616E2E6300002DE9F0418B
:1032500004460D46002700268548844202D0854852
:10326000844200D103E0C52183A006F089FCA8793F
:1032700010B1A879012800D103E0C6217EA006F094
:103280007FFCE87910B1E879012800D103E0C7217B
:1032900079A006F075FC287A10B1287A012800D1AF
:1032A00003E0C82174A006F06BFC687A10B1687A5C
:1032B000012800D103E0C9216FA006F061FCA87AC3
:1032C00010B1A87A012800D103E0CA216AA006F053
:1032D00057FCE87A10B1E87A012800D103E0CB214D
:1032E00065A006F04DFCA87840B1A878012805D06B
:1032F000A878022802D0A878032800D103E0CC21C6
:103300005DA006F03DFCE87840B1E878012805D0E2
:10331000E878022802D0E878032800D103E0CD2124
:1033200055A006F02DFC28790F2800DC03E0CE2103
:1033300051A006F025FC6879072800DC03E0CF21C6
:103340004DA006F01DFC2888012804DB2888B0F574
:10335000806F00DC03E0D02147A006F011FC20685C
:1033600020F002002060206840F00100206000E0B2
:10337000761C606800F0010018B94FF6FF708642B5
:10338000F6D1606800F0010008B900276CE0A87968
:10339000012804D1206840F08000206003E020680C
:1033A00020F080002060E879012804D1206840F0F6
:1033B0004000206003E0206820F040002060287A70
:1033C000012804D1206840F02000206003E020683C
:1033D00020F020002060687A012804D1206840F0A5
:1033E0001000206003E0206820F010002060A87A20
:1033F000012804D1206840F00800206003E0206824
:1034000020F008002060E87A012804D1206840F00C
:103410000400206003E0206820F004002060A87809
:103420008007E97840EA0160297940EA014069793A
:1034300040EA01502988491E0843E061206820F0D5
:1034400001002060002600E0761C606800F00100AA
:1034500018B14FF6FF708642F6D1606800F00100A7
:1034600008B1002700E001273846BDE8F0810000E0
:10347000006400400068004053544D3332463478B5
:10348000785F5374645065726970685F44726976DE
:1034900065725C7372635C73746D33326634787812
:1034A0005F63616E2E63000070B504460D461646DC
:1034B0004548844202D04548844200D104E04FF49C
:1034C0003B7143A006F05CFB0DB1012D00D104E07F
:1034D00040F2ED213EA006F053FB04F5D87000EB5E
:1034E0000510006800F004003072307A50B904F51D
:1034F000D87000EB0510006840F2FF7101EA5050EF
:10350000306009E004F5D87000EB051000686FF03A
:10351000604101EAD000706004F5D87000EB05103E
:10352000006800F00200707204F5D87000EB05101E
:10353000406800F00F00B07204F5D87000EB051081
:103540004068000AF07404F5D87000EB051080683C
:10355000F07204F5D87000EB05108068010A317331
:1035600004F5D87000EB05108068010C717304F548
:10357000D87000EB05108068000EB07304F5D870A9
:1035800000EB0510C068F07304F5D87000EB05106F
:10359000C068010A317404F5D87000EB0510C068EA
:1035A000010C717404F5D87000EB0510C068000EB2
:1035B000B07425B9E06840F02000E06003E02069C5
:1035C00040F02000206170BD0064004000680040B1
:1035D00053544D3332463478785F53746450657277
:1035E0006970685F4472697665725C7372635C735C
:1035F000746D3332663478785F63616E2E630000D9
:1036000000218171C171017241728172C172817038
:10361000C1700321017102214171012101807047B4
:1036200070B505460C4600266948854202D06948B7
:10363000854200D104E04FF4107167A006F0A0FAB3
:10364000207A10B1207A042800D104E040F2412110
:1036500061A006F095FA607A10B1607A022800D174
:1036600004E040F242215CA006F08AFAA07A082821
:1036700000DC04E040F2432157A006F081FAA8687C
:1036800000F08060B0F1806F01D1002610E0A868E2
:1036900000F00060B0F1006F01D1012608E0A868D9
:1036A00000F08050B0F1805F01D1022600E00426D6
:1036B000042E7DD005F5C07000EB0610006800F008
:1036C000010105F5C07000EB06100160207AC8B951
:1036D0002068B0F5006F00D204E040F25D213EA00A
:1036E00006F04EFA607A218840EA415005F5C07133
:1036F00001EB06110968084305F5C07101EB0611DD
:1037000008601AE06068B0F1005F00D204E040F2A7
:10371000632131A006F034FA207A616840EAC100E2
:10372000617A084305F5C07101EB06110968084389
:1037300005F5C07101EB06110860A07A00F00F00DA
:10374000A07205F5C07000EB0610406820F00F0174
:1037500005F5C07000EB0610416005F5C07000EB88
:1037600006104068A17A084305F5C07101EB061107
:103770004860A07B0106607B41EA0041207B41EA72
:103780000020E17A084305F5C07101EB061188605D
:10379000A07C0106607C41EA0041207C41EA0020D7
:1037A000E17B084305F5C07101EB0611C86000E03C
:1037B0000BE005F5C07000EB0610006840F0010159
:1037C00005F5C07000EB06100160304670BD0000CA
:1037D000006400400068004053544D333246347852
:1037E000785F5374645065726970685F447269767B
:1037F00065725C7372635C73746D333266347878AF
:103800005F63616E2E63000010B50AF0ABFB10BD64
:103810002DE9F04106460F4615463F48008801282D
:1038200077D0FCF79BFD80463C4804680068401C4C
:103830003A49086008460068FF2801D30020086064
:103840004046FCF78FFDC4EBC400354941F82060C9
:10385000C4EBC40001EB80004760C4EBC401304AF4
:1038600002EB810128688860C4EBC40002EB800091
:103870006968C160297AC4EBC40002EB800001745E
:10388000697AC4EBC40002EB80004174A97AC4EBEE
:10389000C40002EB80008174E97AC4EBC40002EB3F
:1038A0008000C174297BC4EBC40002EB8000017569
:1038B000697BC4EBC40002EB80004175A97BC4EBBB
:1038C000C40002EB80008175E97BC4EBC40002EB0D
:1038D0008000C175297CC4EBC40002EB8000017636
:1038E000697CC4EBC40002EB80004176A97CC4EB88
:1038F000C40002EB80008176C4EBC40102EB8100BE
:103900000AF0DAF907480CF0A1FC0120BDE8F081CB
:10391000FFE70020FAE700003A020020340200200E
:10392000682B00202827002010B54FF0FF310248F7
:103930000CF0B6FC10BD00002827002010B50AF0DE
:103940004FFB10BD2DE9F04106460F4615463F4896
:103950000088012877D0FCF701FD80463C480468C8
:103960000068401C3A49086008460068FF2801D3F7
:10397000002008604046FCF7F5FCC4EBC400354964
:1039800041F82060C4EBC40001EB80004760C4EB49
:10399000C401304A02EB810128688860C4EBC4008E
:1039A00002EB80006968C160297AC4EBC40002EBB5
:1039B00080000174697AC4EBC40002EB800041749A
:1039C000A97AC4EBC40002EB80008174E97AC4EBED
:1039D000C40002EB8000C174297BC4EBC40002EB7D
:1039E00080000175697BC4EBC40002EB8000417567
:1039F000A97BC4EBC40002EB80008175E97BC4EBBA
:103A0000C40002EB8000C175297CC4EBC40002EB4A
:103A100080000176697CC4EBC40002EB8000417633
:103A2000A97CC4EBC40002EB80008176C4EBC40126
:103A300002EB81000AF0A6F907480CF007FC012010
:103A4000BDE8F081FFE70020FAE700004602002011
:103A5000400200208C4B00206847002010B54FF03A
:103A6000FF3102480CF01CFC10BD0000684700202C
:103A700070B505460E460024701EC4B2282C14DA18
:103A8000012D02D0022D0BD104E00020094901F8DC
:103A9000140009E00020074901EB4401487003E0ED
:103AA00005A00BF099FC00BF02E008A00BF094FC0D
:103AB00070BD0000E07900202B63616E20706F7292
:103AC000742065727221200D0A0000002B63616E64
:103AD000207265636569766520736C6F7420494454
:103AE0002065727221200D0A0000000010B50AF056
:103AF000FBF910BD70B505460E4614464D480088CA
:103B000001287CD04C480068C0EBC0004B4941F80C
:103B1000205049480068C0EBC00001EB80004660BF
:103B2000454920680968C1EBC101444A02EB8101A3
:103B30008860414861680068C0EBC00002EB80000B
:103B4000C160217A3C480068C0EBC00002EB8000F5
:103B50000174617A38480068C0EBC00002EB800055
:103B60004174A17A34480068C0EBC00002EB8000C9
:103B70008174E17A30480068C0EBC00002EB80003D
:103B8000C174217B2C480068C0EBC00002EB8000B0
:103B90000175617B28480068C0EBC00002EB800023
:103BA0004175A17B24480068C0EBC00002EB800097
:103BB0008175E17B20480068C0EBC00002EB80000B
:103BC000C175217C1C480068C0EBC00002EB80007E
:103BD0000176617C18480068C0EBC00002EB8000F1
:103BE0004176A17C14480068C0EBC00002EB800065
:103BF0008176E17C10480068C0EBC00000E018E06E
:103C000002EB8000C1760C490968C1EBC10102EBEF
:103C1000810009F0F7FF08480068401C0649086069
:103C2000084600683C2801D30020086004480CF0D6
:103C30000DFB70BD2E0200202802002098200020DD
:103C4000641F002008B505484FF0FF33062203210A
:103C5000009003480AF0BCFC08BD00004C020020A4
:103C60007067002010B50448006818B901210348A6
:103C70000AF08AFD10BD0000480200207067002095
:103C800010B54FF0FF3102480CF00AFB10BD0000E8
:103C9000641F00200EB5002000900190029017488C
:103CA000FEF7C8FF1648FEF7C5FF6846FFF7A8FCF9
:103CB00000208DF8060001208DF8070000208DF807
:103CC00008008DF809008DF80A008DF80B008DF8BA
:103CD00002008DF8030001208DF8040002208DF809
:103CE00005000720ADF8000069460448FFF7AEFA6A
:103CF00069460348FFF7AAFA0EBD000000640040C1
:103D0000006800401FB500200090019002900390D1
:103D10008DF80B0001208DF80C000020ADF8040098
:103D2000ADF80600ADF8080001208DF80D00002068
:103D30008DF80A00ADF80000ADF802006846FEF705
:103D4000B9FF0E208DF80A000020ADF80000ADF894
:103D500002006846FEF7AEFF1FBD00001CB5002044
:103D6000009001900121022002F0CEFC01210846C2
:103D700002F0CAFC0121480602F044FD0121880638
:103D800002F040FD4FF4C050009002208DF8040076
:103D90008DF8050000208DF8060001208DF8070041
:103DA0006946154801F01CF809220B21124801F060
:103DB000EDF809220C21104801F0E8F84FF44050CA
:103DC000009002208DF804008DF8050000208DF889
:103DD000060001208DF807006946084801F000F848
:103DE00009220C21054801F0D1F809220D210348D0
:103DF00001F0CCF81CBD00000000024000040240AD
:103E000008B50020009014208DF8000001208DF8E6
:103E1000010002208DF8020001208DF803006846A1
:103E200001F082FD40208DF8000001208DF8010096
:103E300002208DF8020001208DF80300684601F091
:103E400073FD08BD30B585B00446002516480078DE
:103E5000002827D0E0680490A07C0499C1F3436156
:103E6000049AC2F30802049BC3F34743CDE900322E
:103E7000CDE902100498C0F347230CA0D4E9001246
:103E80000BF0AAFA00BF07E004F11300415D12A095
:103E90000BF0A2FA681CC5B2A07CA842F4DC10A00A
:103EA0000BF09AFA05B030BD5202002043414E2576
:103EB000642C20522C20253130642C2025326420A3
:103EC0002D3E202532642C202532782C2025642C90
:103ED0002025642C205B0000202532782C00000077
:103EE0005D0D0A0030B585B00446002516480078FF
:103EF000002827D0E0680490A07C0499C1F34361B6
:103F0000049AC2F30802049BC3F34743CDE900328D
:103F1000CDE902100498C0F347230CA0D4E90012A5
:103F20000BF05AFA00BF07E004F11300415D12A044
:103F30000BF052FA681CC5B2A07CA842F4DC10A0B9
:103F40000BF04AFA05B030BD5202002043414E2525
:103F5000642C20542C20253130642C202532642000
:103F60002D3E202532642C202532782C2025642CEF
:103F70002025642C205B0000202532782C000000D6
:103F80005D0D0A000246002002EA01030BB1012088
:103F900000E000207047000010B504463B48006870
:103FA0003B4908607B2002F0EBFD10B1012039494C
:103FB00008707A2002F0E4FD28B13648007840F01D
:103FC0000200344908707F2002F0DAFD28B1314840
:103FD000007840F004002F4908707E2002F0D0FDE8
:103FE00028B12C48007840F008002A4908707D204C
:103FF00002F0C6FD28B12748007840F0100025499E
:1040000008707C2002F0BCFD28B12248007840F006
:1040100020002049087002F0F5FC1C4800681E4989
:1040200008601EA00BF0D8F91948016820A00BF019
:10403000D3F91848017824A00BF0CEF928A00BF092
:10404000CBF9C4F340612AA00BF0C6F9C4F3806138
:104050002BA00BF0C1F9C4F3C0612DA00BF0BCF98B
:10406000C4F300712EA00BF0B7F9C4F3407130A077
:104070000BF0B2F9C4F3807131A00BF0ADF901205F
:1040800000EAD47132A00BF0A7F910BD74380240D9
:1040900018000020140000201C0000200D0A2B2016
:1040A00053797352535420496E666F3A20000000D2
:1040B0000D0A20204373725F7265676973746572BD
:1040C0003A203078257800000D0A20207273745F42
:1040D00073656D70686F72653A20307825780000DE
:1040E0000D0A2B205359535F5253543A20000000BD
:1040F0000D0A202B20202020424F523A2025640018
:104100000D0A202B2020202050494E3A2025640003
:104110000D0A202B20202020504F523A20256400E9
:104120000D0A202B202020205346543A20256400DD
:104130000D0A202B202020204957443A20256400D6
:104140000D0A202B202020205757443A20256400B8
:104150000D0A202B202020204C50573A20256400A7
:10416000F8B505460E46002400270020009040EADE
:104170008630284384B201F047FB00909DF8000090
:1041800001280BD1432004F08FFBE0B204F08CFB3C
:10419000201204F089FB01F05DFB01E00020F8BD76
:1041A00001F032FB00909DF80000012805D153205A
:1041B00004F07AFB01F04EFB01E00020EFE701F094
:1041C0000DFB00909DF8000001280AD103F032FB9E
:1041D000074603F02FFB07EB002087B201F02CFB12
:1041E00001E00020DBE7A74201D10120D7E7002052
:1041F000D5E72DE9F04304460D4616461F464FF01D
:104200000008C146F00340EA073020431FFA80F857
:1042100001F0FAFA8146B9F1010F10D1482004F0FB
:1042200043FB284604F040FB08F0FF0004F03CFB91
:104230004FEA282004F038FB01F00CFB02E00020DC
:10424000BDE8F0830120FBE770B504460D460F483A
:10425000204008B904B103E078210DA005F090FCDE
:104260000DB1012D00D103E0792109A005F088FCF2
:104270002DB11448806820431249886004E0114839
:104280008068A0430F49886070BD000000E21FF9FC
:1042900053544D3332463478785F537464506572AA
:1042A0006970685F4472697665725C7372635C738F
:1042B000746D3332663478785F6462676D63752E2F
:1042C00063000000002004E07047704770B50446AA
:1042D0000D462C4884423AD02A481830844236D0C1
:1042E00028483030844232D02648483084422ED08C
:1042F0002448603084422AD022487830844226D034
:1043000020489030844222D01E48A83084421ED0DB
:104310001D4884421BD01C481830844217D01A48CC
:104320003030844213D01848483084420FD01648A9
:10433000603084420BD014487830844207D0124851
:104340009030844203D01048A830844200D104E069
:1043500040F2D9110DA005F013FC0DB1012D00D1D3
:1043600004E04FF4ED7109A005F00AFC25B12068C6
:1043700040F00100206003E0206820F00100206090
:1043800070BD0000106002401064024053544D3371
:1043900032463478785F5374645065726970685F30
:1043A0004472697665725C7372635C73746D3332E8
:1043B000663478785F646D612E63000010B51B4829
:1043C00000F03EF81A481B494860002048614FF44D
:1043D000806088610020C8610862486288620420A9
:1043E000C862032008630020486388634FF00060C0
:1043F00008604020C86010488860012008610B48B0
:1044000000F028F90948303800F01AF84FF0006041
:10441000084908600020C860084888604FF40070B0
:1044200008610248303800F015F910BDB864024048
:1044300004100140400C002018090020180A002038
:1044400010B50446724884423AD07148183084420C
:1044500036D06F483030844232D06D484830844284
:104460002ED06B48603084422AD06948783084422C
:1044700026D067489030844222D06548A8308442D4
:104480001ED0644884421BD062481830844217D042
:1044900060483030844213D05E48483084420FD0A8
:1044A0005C48603084420BD05A487830844207D050
:1044B00058489030844203D05648A830844200D1F6
:1044C00003E0BF2154A005F05BFB206820F0010051
:1044D0002060002020606060A060E06020612120FA
:1044E00060614B48844204D13D20494910398860BD
:1044F0008CE047481830844205D14FF47460444939
:104500001039886082E042483030844205D14FF44F
:1045100074103F491039886078E03D484830844243
:1045200005D14FF074603A49103988606EE0384820
:104530006030844204D1444835491039C86065E090
:1045400033487830844204D1404831491039C8603A
:104550005CE02F489030844204D13D482C4910390A
:10456000C86053E02A48A830844205D14FF03D503E
:1045700027491039C86049E02648844204D13D20CB
:1045800024490839086041E022481830844205D1A6
:104590004FF474601F490839086037E01D48303017
:1045A000844205D14FF474101A49083908602DE08F
:1045B00018484830844205D14FF0746015490839D5
:1045C000086023E013486030844204D11E4811493A
:1045D000091F08601AE00F487830844204D11B4854
:1045E0000C49091F086011E00A489030844204D148
:1045F00017480849091F086008E00648A8308442A7
:1046000004D14FF03D500349091F086010BD000060
:10461000106002401064024053544D3332463478E7
:10462000785F5374645065726970685F447269762C
:1046300065725C7372635C73746D33326634787860
:104640005F646D612E6300003D000020400F00207C
:1046500000003D2070B505460C460026A248854264
:104660003AD0A1481830854236D09F483030854234
:1046700032D09D48483085422ED09B4860308542DC
:104680002AD099487830854226D097489030854284
:1046900022D09548A83085421ED0944885421BD030
:1046A00092481830854217D090483030854213D058
:1046B0008E48483085420FD08C48603085420BD000
:1046C0008A487830854207D088489030854203D0A8
:1046D0008648A830854200D104E04FF49E7184A042
:1046E00005F04EFA2068D8B12068B0F1007F17D0ED
:1046F0002068B0F1806F13D02068B0F1C06F0FD088
:104700002068B0F1006F0BD02068B0F1206F07D0A7
:104710002068B0F1406F03D02068B0F1606F00D125
:1047200004E040F23D1172A005F02AFAE06828B1D9
:10473000E068402802D0E068802800D104E04FF40F
:104740009F716BA005F01CFA206920B12069B0F5BB
:10475000803F00D204E040F23F1165A005F010FA5E
:104760006069B0F5007F01D0606900B904E04FF4E2
:10477000A0715FA005F004FAA069B0F5806F01D0C8
:10478000A06900B904E040F2411159A005F0F8F920
:10479000E06938B1E069B0F5006F03D0E069B0F5C9
:1047A000805F00D104E04FF4A17151A005F0E8F959
:1047B000206A38B1206AB0F5005F03D0206AB0F5F6
:1047C000804F00D104E040F2431149A005F0D8F930
:1047D000606A18B1606AB0F5807F00D104E04FF4E0
:1047E000A27143A005F0CCF9A06A58B1A06AB0F557
:1047F000803F07D0A06AB0F5003F03D0A06AB0F5B3
:10480000403F00D104E040F2451139A005F0B8F96D
:10481000E06A10B1E06A042800D104E04FF4A3710B
:1048200033A005F0ADF9206B40B1206B012805D015
:10483000206B022802D0206B032800D104E040F254
:1048400047112BA005F09CF9606B58B1606BB0F577
:10485000000F07D0606BB0F1807F03D0606BB0F1C8
:10486000C07F00D104E04FF4A47121A005F088F9C5
:10487000A06B58B1A06BB0F5001F07D0A06BB0F5CE
:10488000800F03D0A06BB0F5C00F00D104E040F260
:10489000491117A005F074F92E6821480640E16817
:1048A0002068084361690843A1690843E169084336
:1048B000216A0843616A0843A16A0843616B08439F
:1048C000A16B084306432E606E6926F00706D4E903
:1048D0000B01084306436E61206968606068A86048
:1048E000A068E86070BD00001060024010640240E3
:1048F00053544D3332463478785F53746450657244
:104900006970685F4472697665725C7372635C7328
:10491000746D3332663478785F646D612E630000A5
:104920003F801CF0704770477047000010B5044688
:104930000CB1012C00D103E0B82109A005F020F949
:1049400034B11448006840F480701249086005E0F2
:104950001048006820F480700E49086010BD000007
:1049600053544D3332463478785F537464506572D3
:104970006970685F4472697665725C7372635C73B8
:10498000746D3332663478785F666C6173682E6359
:1049900000000000003C024070B504460D462CB1FA
:1049A000022C03D0042C01D0062C00D104E04FF4DB
:1049B000877111A005F0E4F80DB1012D00D104E0DC
:1049C00040F20F110CA005F0DBF855B1A000A0F1EA
:1049D000C040006840F00101A000A0F1C0400160AB
:1049E00009E0A000A0F1C04000680F490840A10004
:1049F000A1F1C041086070BD53544D333246347844
:104A0000785F5374645065726970685F4472697648
:104A100065725C7372635C73746D3332663478787C
:104A20005F66736D632E6300FEFF0F0010B50446D2
:104A3000206840B12068022805D02068042802D0F0
:104A40002068062800D103E09221C8A005F098F85C
:104A5000606810B16068022800D103E09321C3A010
:104A600005F08EF8A06828B1A068042802D0A068DC
:104A7000082800D103E09421BCA005F081F8E0688B
:104A800010B1E068102800D103E09521B7A005F02F
:104A900077F8206918B12069B0F5807F00D103E074
:104AA0009621B2A005F06CF8606918B16069B0F5A4
:104AB000004F00D103E09721ACA005F061F8A06998
:104AC00018B1A069B0F5007F00D103E09821A7A03C
:104AD00005F056F8E06918B1E069B0F5806F00D1D3
:104AE00003E09921A1A005F04BF8206A18B1206AD3
:104AF000B0F5006F00D103E09A219CA005F040F8CA
:104B0000606A18B1606AB0F5805F00D103E09B2154
:104B100096A005F035F8A06A18B1A06AB0F5005F5C
:104B200000D103E09C2191A005F02AF8E06A18B1B9
:104B3000E06AB0F5804F00D103E09D218BA005F025
:104B40001FF8206B18B1206BB0F5002F00D103E0E7
:104B50009E2186A005F014F8606B00680F2800D82D
:104B600003E09F2181A005F00BF8606B40680F28DF
:104B700000D803E0A0217DA005F002F8606B8068FA
:104B800020B1606B8068FF2800D803E0A12177A0E6
:104B900004F0F6FF606BC0680F2800D803E0A22184
:104BA00072A004F0EDFF606B00690F2800D803E0ED
:104BB000A3216EA004F0E4FF606B40690F2800D8C9
:104BC00003E0A42169A004F0DBFF606B806970B191
:104BD000606B8069B0F1805F09D0606B8069B0F173
:104BE000005F04D0606B8069B0F1405F00D103E0EA
:104BF000A5215EA004F0C4FFD4E901010843E168E7
:104C000008432169084361690843A1690843E169D0
:104C10000843216A0843616A0843A16A0843E16ABC
:104C20000843216B084321688900A1F1C041086055
:104C3000A06808280BD120688000A0F1C04000685F
:104C400040F0400120688000A0F1C0400160606B2E
:104C50000068616B496840EA0110616B896840EA4D
:104C60000120616B898940EA0140616B098A40EA51
:104C70000150616B097D40EA0160616B89690843FD
:104C80002168491C8900A1F1C0410860E06AB0F5C3
:104C9000804F62D1A06B00680F2800D803E0C721C5
:104CA00032A004F06DFFA06B40680F2800D803E02D
:104CB000C8212EA004F064FFA06B806820B1A06B17
:104CC0008068FF2800D803E0C92128A004F058FF1D
:104CD000A06B00690F2800D803E0CA2123A004F0CC
:104CE0004FFFA06B40690F2800D803E0CB211FA025
:104CF00004F046FFA06B806970B1A06B8069B0F1D1
:104D0000805F09D0A06B8069B0F1005F04D0A06B18
:104D10008069B0F1405F00D103E0CC2113A004F022
:104D20002FFFA06B0068A16B496840EA0110A16BDE
:104D3000896840EA0120A16B098A40EA0150A16B11
:104D4000097D40EA0160A16B8969084321688900F7
:104D5000A1F1C041C1F8040107E06FF07041206883
:104D60008000A0F1C040C0F8041110BD53544D3371
:104D700032463478785F5374645065726970685F46
:104D80004472697665725C7372635C73746D3332FE
:104D9000663478785F66736D632E63001CB50220FD
:104DA0008DF8040000208DF8060001208DF8070022
:104DB00000208DF805004FF4C06000906946074858
:104DC00000F00EF807220921044800F0DFF807225E
:104DD0000A21024800F0DAF81CBD00000000024081
:104DE0002DE9F04104460D4600260027B046524802
:104DF000844217D05148844214D05148844211D083
:104E0000504884420ED0504884420BD04F488442D0
:104E100008D04F48844205D04E48844202D04E48C4
:104E2000844200D103E0BB214CA004F0A9FE002085
:104E300010B9286800B103E0BC2148A004F0A0FE2E
:104E4000287940B12879012805D02879022802D094
:104E50002879032800D103E0BD2140A004F090FE92
:104E6000E87928B1E879012802D0E879022800D150
:104E700003E0BE2139A004F083FE002657E00120A4
:104E800000FA06F7286800EA0708B8454ED12068FE
:104E90007200032191408843206028797100884086
:104EA0002168084320602879012802D02879022847
:104EB00030D1687940B16879012805D06879022835
:104EC00002D06879032800D103E0D02123A004F0A8
:104ED00057FEA0687200032191408843A060687962
:104EE00071008840A1680843A060A87910B1A87932
:104EF000012800D103E0D72118A004F041FE616829
:104F00000120B040814361606068A979B14089B2F5
:104F100008436060E0687200032191408843E060CC
:104F2000E87971008840E1680843E060761C102E43
:104F3000A5D3BDE8F081000000000240000402405B
:104F400000080240000C0240001002400014024021
:104F500000180240001C02400020024053544D3310
:104F600032463478785F5374645065726970685F54
:104F70004472697665725C7372635C73746D33320C
:104F8000663478785F6770696F2E63002DE9F041B1
:104F900006460D4614460027B8465148864217D0AB
:104FA0005048864214D05048864211D04F4886421D
:104FB0000ED04F4886420BD04E48864208D04E480D
:104FC000864205D04D48864202D04D48864200D1E7
:104FD00004E040F217214BA004F0D2FDEDB1012D09
:104FE0001BD0022D19D0032D17D0042D15D0052D5F
:104FF00013D0062D11D0072D0FD0082D0DD0092D5F
:105000000BD00A2D09D00B2D07D00C2D05D00D2D5E
:1050100003D00E2D01D00F2D00D104E04FF4067106
:1050200038A004F0ADFD9CB3092C31D084B37CB31F
:1050300074B36CB3012C2BD02AD0022C28D027D0EB
:1050400026D0032C24D0042C22D021D020D0052C13
:105050001ED01DD0092C1BD0062C19D0092C17D01E
:10506000072C15D014D013D0082C11D010D00FD08D
:10507000092C0DD00CD00A2C0AD009D00B2C07D04B
:105080000C2C05D004D003D00D2C01D00F2C00D156
:1050900004E040F219211BA004F072FD6807C00E65
:1050A00004FA00F7E91006F1200050F82100690722
:1050B000CA0E0F2191408843EA1006F1200141F801
:1050C0002200E91006F1200050F8210040EA07080C
:1050D000E91006F1200040F82180BDE8F0810000D1
:1050E000000002400004024000080240000C0240A0
:1050F000001002400014024000180240001C024050
:105100000020024053544D3332463478785F537454
:10511000645065726970685F4472697665725C7329
:1051200072635C73746D3332663478785F6770696C
:105130006F2E630070B505460C4600262B4885424D
:1051400017D02B48854214D02A48854211D02A48CE
:1051500085420ED0294885420BD02948854208D087
:105160002848854205D02848854202D027488542F4
:1051700000D104E040F2571125A004F001FD012CFC
:1051800025D0022C23D0042C21D0082C1FD0102C89
:105190001DD0202C1BD0402C19D0802C17D0B4F55A
:1051A000807F14D0B4F5007F11D0B4F5806F0ED09D
:1051B000B4F5006F0BD0B4F5805F08D0B4F5005F94
:1051C00005D0B4F5804F02D0B4F5004F00D104E013
:1051D0004FF4AC710EA004F0D3FC6869204008B114
:1051E000012600E00026304670BD000000000240AD
:1051F0000004024000080240000C0240001002407F
:105200000014024000180240001C0240002002402E
:1052100053544D3332463478785F5374645065721A
:105220006970685F4472697665725C7372635C73FF
:10523000746D3332663478785F6770696F2E6300FF
:1052400070B504460D461648844217D0154884426E
:1052500014D01548844211D0144884420ED014480A
:1052600084420BD01348844208D01348844205D0AE
:105270001248844202D01248844200D104E04FF424
:10528000C97110A004F07CFC002008B905B104E04D
:1052900040F293110BA004F073FC658370BD000015
:1052A000000002400004024000080240000C0240DE
:1052B000001002400014024000180240001C02408E
:1052C0000020024053544D3332463478785F537493
:1052D000645065726970685F4472697665725C7368
:1052E00072635C73746D3332663478785F677069AB
:1052F0006F2E630070B504460D461648844217D0E1
:105300001548844214D01548844211D01448844270
:105310000ED0144884420BD01348844208D013485E
:10532000844205D01248844202D01248844200D1FF
:1053300004E040F27F1110A004F022FC002008B924
:1053400005B104E04FF4C0710BA004F019FC2583F3
:1053500070BD00000000024000040240000802404E
:10536000000C0240001002400014024000180240ED
:10537000001C02400020024053544D333246347822
:10538000785F5374645065726970685F44726976BF
:1053900065725C7372635C73746D333266347878F3
:1053A0005F6770696F2E630010B580210748FFF7B3
:1053B000C1FE012804D080210448FFF79BFF03E0D1
:1053C00080210248FFF73CFF10BD0000000C0240A6
:1053D0001CB50DA00AF000F80121082001F094F995
:1053E00001208DF8040000208DF8060002208DF8C1
:1053F000050000208DF807008020009069460D48C8
:10540000FFF7EEFC1CBD00000D0A48617264576591
:10541000617220646F67204368616E616C7320471E
:1054200050494F20636F6E6669677572652E2E2E28
:105430002E2E2E00000C02404CF6CC400149086094
:10544000704700000030004070B505461A2D02DBA1
:1054500040F6FF7403E09C206843C0F30B0445F260
:10546000555000F06DF8062000F010F8204600F0CE
:105470003FF800F003F8FFF7DFFF70BD4AF6AA20FF
:1054800001490860704700000030004010B5044634
:105490005CB1012C09D0022C07D0032C05D0042CC0
:1054A00003D0052C01D0062C00D103E0982103A0E5
:1054B00004F066FB0D48446010BD000053544D33AA
:1054C00032463478785F5374645065726970685FEF
:1054D0004472697665725C7372635C73746D3332A7
:1054E000663478785F697764672E63000030004027
:1054F00010B50446B4F5805F00DA03E0A52103A0EF
:1055000004F03EFB0D48846010BD000053544D3341
:1055100032463478785F5374645065726970685F9E
:105520004472697665725C7372635C73746D333256
:10553000663478785F697764672E630000300040D6
:1055400010B5044645F25550844200D004B903E03A
:10555000842103A004F014FB0D48046010BD00007A
:1055600053544D3332463478785F537464506572C7
:105570006970685F4472697665725C7372635C73AC
:10558000746D3332663478785F697764672E6300B0
:10559000003000401CB510A009F01EFF01210220C0
:1055A00001F0B2F801208DF8040000208DF806000B
:1055B0008DF805008DF807004FF400400090694613
:1055C0000D48FFF70DFC4FF48040009069460A48F3
:1055D000FFF706FC1CBD00000D0A2B204C454420A3
:1055E0004750494F20636F6E6669677572652E2E4E
:1055F0002E2E2E2E0D0A00000004024010B50120B0
:105600000E4908706420488001210C484181042122
:105610008181012101720320084908714FF49260D1
:10562000C880002105484182042181820221017441
:105630004FF49361C18100F07FF810BDB085002068
:105640002DE9F0410025002400260027A04600BFD8
:105650002BE005EB450000EBC510174901EB4000BE
:10566000067900241DE020221449204607F041F964
:10567000A8B105EB450101EBC5110F4B03EB41014F
:10568000891D01EBC401CA880D4901EBC4014868BA
:105690000A490AF0BBF80120094901F83400601CEE
:1056A000C4B2B442DFDB681CC5B203480078A8422C
:1056B000CFDCBDE8F0810000B085002070A600209E
:1056C000B084002070B500250026002400BF29E02A
:1056D00005EB450000EBC510154901EB40000679CC
:1056E00000241BE0134810F83400A8B10020114931
:1056F00001F8340005EB450000EBC5100C4B03EB43
:105700004000801D00EBC4008279084600EBC60013
:105710004168204607F01CF9601CC4B2B442E1DBCA
:10572000681CC5B202480078A842D1DC70BD0000F8
:10573000B0850020B08300202DE9F041044600250B
:105740000026002700BF43E006EB460101EBC6112F
:1057500004EB410148880121FEF702FD07460025C0
:1057600032E006EB460C0CEBC61C04EB4C0C0CF1C7
:10577000060C0CEBC50CBCF8063006EB460C0CEB2B
:10578000C61C04EB4C0C0CF1060C0CEBC50CBCF865
:10579000042006EB460C0CEBC61C04EB4C0C0CF185
:1057A000060C0CEBC50C9CF8021006EB460C0CEB3F
:1057B000C61C04EB4C0C0CF1060C3CF83500FEF753
:1057C00018FD0740681CC5B2202DCADB701CC6B28C
:1057D0002078B042B8DC3846BDE8F08130B500250D
:1057E00000240AE0074803F0D3FC054605F0010059
:1057F00008B1012030BD601C84B2B4F5FA7FF1DB42
:105800000020F7E7FD01026030B5002500240BE021
:10581000084803F0BDFC054605F02000202801D112
:10582000012030BD601C84B2B4F5FA7FF0DB0020AB
:10583000F7E70000FD01026010B5054803F0A8FC81
:10584000044604F0FE042146014803F0A5FC10BD07
:10585000FD01026010B5054803F09AFC044604F00F
:10586000DF042146014803F097FC10BDFD010260F2
:1058700000BFFEE710B50448006818B902210348CC
:1058800008F082FF10BD0000740200201C80002080
:10589000704710B500214FF0006000F0E5F84FF4BC
:1058A000A06000F0ADF810BD08B51E208DF8000016
:1058B00001208DF8010000208DF8020001208DF8F4
:1058C0000300684600F030F81D208DF8000001202C
:1058D0008DF8010000208DF8020001208DF80300F2
:1058E000684600F021F808BD08B525208DF80000B5
:1058F00003208DF8010000208DF8020001208DF8B2
:105900000300684600F010F82B208DF800000320FB
:105910008DF8010000208DF8020001208DF80300B1
:10592000684600F001F808BD2DE9F0410446002565
:1059300000270F26E07810B1E078012800D103E0BD
:10594000872122A004F01CF96078102800DA03E017
:1059500088211EA004F014F9A078102800DA03E0D2
:1059600089211AA004F00CF9E07818B321480068E6
:1059700000F4E060C0F5E060C0F30725C5F1040065
:10598000C7B22E416078B840C5B2A0783040054318
:105990002807050E184821784554207800F01F018B
:1059A0000120884021784911890001F1E021C1F8E6
:1059B000000109E0207800F01F01012088400F4914
:1059C0002278521141F82200BDE8F08153544D3342
:1059D00032463478785F5374645065726970685FDA
:1059E0004472697665725C7372635C6D6973632E71
:1059F000630000000CED00E000E400E080E100E066
:105A000010B50446B4F5E06F0BD0B4F5C06F08D004
:105A1000B4F5A06F05D0B4F5806F02D0B4F5407F27
:105A200000D103E0732104A004F0AAF80C4820433D
:105A30000C49086010BD000053544D333246347891
:105A4000785F5374645065726970685F44726976F8
:105A500065725C7372635C6D6973632E6300000032
:105A60000000FA050CED00E070B504460D46B4F1F7
:105A7000005F02D0B4F1006F00D103E0B12109A0B2
:105A800004F07EF81148854200D203E0B22105A05F
:105A900004F076F80E4905EA010020430D4908603C
:105AA00070BD000053544D3332463478785F5374E0
:105AB000645065726970685F4472697665725C7380
:105AC00072635C6D6973632E63000000FFFF0F005B
:105AD00080FFFF1F08ED00E000BF0A48006810F8D3
