:020000040800F2
:100000003052002079020008193100085D03000811
:1000100015310008790B00089D5F00080000000002
:100020000000000000000000000000008143000804
:10003000AD25000800000000E7020008794600082E
:10004000930200089302000893020008930200083C
:10005000930200089302000893020008930200082C
:1000600093020008AF2500089302000893020008DD
:100070009302000893020008751E0008930200080E
:1000800093020008771E00089302000893020008FC
:10009000C50B00089302000893020008B125000870
:1000A0009302000809480008930200089302000820
:1000B00015480008214800083D4800089302000840
:1000C00093020008930200089302000893020008BC
:1000D00093020008A1560008E5560008E157000801
:1000E0009302000893020008930200088148000868
:1000F000930200089302000893020008930200088C
:10010000930200089302000859480008930200086F
:1001100095560008930200089302000865480008FD
:10012000930200089302000893020008930200085B
:10013000930200089302000893020008930200084B
:100140001D0C0008930200089302000893020008A7
:10015000930200089302000893020008930200082B
:10016000930200089302000893020008930200081B
:10017000930200089302000893020008930200080B
:10018000930200089302000800F002F800F065F8FE
:100190000AA090E8000C82448344AAF10107DA45E2
:1001A00001D100F05AF8AFF2090EBAE80F0013F0CF
:1001B000010F18BFFB1A43F0010318478401010027
:1001C000A40101000A444FF0000C10F8013B13F0A9
:1001D000070408BF10F8014B1D1108BF10F8015BA0
:1001E000641E05D010F8016B641E01F8016BF9D193
:1001F00013F0080F1EBF10F8014BAD1C0C1B09D1EA
:100200006D1E58BF01F801CBFAD505E014F8016B5B
:1002100001F8016B6D1EF9D59142D6D370470000ED
:100220000023002400250026103A28BF78C1FBD8FF
:10023000520728BF30C148BF0B6070471FB50EF092
:1002400049FF00F00DFA0400002000210EF02CFF01
:10025000401C60601FBD10B510BD00F094FA11463F
:10026000FFF7ECFF09F03AFE00F0C0FA03B4FFF725
:10027000F2FF03BC00F0C4FA094880470948004770
:10028000FEE7FEE7FEE7FEE7FEE7FEE7FEE7FEE746
:10029000FEE7FEE704480549054A064B70470000A3
:1002A0008946000889010008304A002030520020A9
:1002B000304E0020304E0020EFF3108072B67047B1
:1002C00080F3108870472A4A1368012B04D04FF03E
:1002D00001031360274A1060274A116027484FF036
:1002E000805101607047EFF3108272B620480168B8
:1002F000B1B14FF0000101601E48016839B1EFF360
:10030000098121ED108B21E9F00F006801601A4985
:1003100009680968B1E8F00FB1EC108B81F3098826
:1003200082F310884EF0040E70471349086011499B
:100330004FF0000008600E494FF0010008601048BF
:100340004FF47F01D0F8002041EA020101600B4820
:100350004FF08051016062B6704700BFEFF3098033
:1003600000B50BF085FB5DF804EB4EF0040E704712
:1003700060010020580100205C01002004ED00E035
:1003800020ED00E010B500F06BF9001D10BD00BFBE
:1003900019ED000070B5064600F066F904680546E0
:1003A00030460A22002100F063F92C6070BD10B5C0
:1003B000431C02E010F8011B71B18107FAD14FF024
:1003C000013202C88C1A8C4314EAC211F9D0C01A47
:1003D0000A0603D0C01E10BDC01A10BD0A0401D009
:1003E000801E10BD0902FCD0401E10BD40EA010372
:1003F00070B59B072ED14FF00136042A2AD308C8C6
:1004000010C99D1B9D43121F15EAC61517D0D8B2FF
:10041000E1B2401A50EA056110D198B2A1B2401A77
:1004200050EA05410AD123F07F4024F07F41401A71
:1004300050EA052102D1180EA0EB146070BDA34252
:10044000DBD018BA21BA884201D9012070BD4FF023
:10045000FF3070BD0AB9002070BD10F8013B11F8E3
:10046000014B63B1A3420AD1521E08D010F8013BE0
:1004700011F8014B1BB1A34201D1521EEDD1181B43
:1004800070BD032A40F2308010F0030C00F015809C
:1004900011F8013BBCF1020F624498BF11F801CB87
:1004A00000F8013B38BF11F8013BA2F1040298BFEC
:1004B00000F801CB38BF00F8013B11F0030300F056
:1004C0002580083AC0F0088051F8043B083A51F8FA
:1004D00004CBA0E80810F5E7121D5CBF51F8043BFF
:1004E00040F8043BAFF30080D20724BF11F8013B72
:1004F00011F801CB48BF11F8012B24BF00F8013BD4
:1005000000F801CB48BF00F8012B704710B5203A26
:10051000C0F00B80B1E81850203AA0E81850B1E8BC
:100520001850A0E81850BFF4F5AF5FEA027C24BF72
:10053000B1E81850A0E8185044BF18C918C0BDE869
:1005400010405FEA827C24BF51F8043B40F8043B32
:1005500008BF7047D20728BF31F8023B48BF11F8E7
:10056000012B28BF20F8023B48BF00F8012B704741
:100570004FF000020429C0F0128010F0030C00F0CC
:100580001B80CCF1040CBCF1020F18BF00F8012B4A
:10059000A8BF20F8022BA1EB0C0100F00DB85FEA18
:1005A000C17C24BF00F8012B00F8012B48BF00F8E4
:1005B000012B70474FF0000200B513469446964653
:1005C000203922BFA0E80C50A0E80C50B1F1200166
:1005D000BFF4F7AF090728BFA0E80C5048BF0CC014
:1005E0005DF804EB890028BF40F8042B08BF704772
:1005F00048BF20F8022B11F0804F18BF00F8012BE4
:10060000704710B5044610F0030F08BF11F0030F38
:1006100040F015804FF0013E121FC0F20E8051F8DD
:10062000043BA3EB0E0C2CEA030C1CEACE1C08BF07
:1006300040F8043BF0D0A1F1040102F10402521E83
:1006400008DB11F8013B002B00F8013BF7D1114604
:10065000FFF78EFF204610BD7047704770470000BF
:1006600000487047F049002000487047D0490020FA
:100670002DE9F04791460F4680460446002614F8BF
:10068000015B2DB1FFF77EFE0068405DC007F6D12B
:100690002B2D02D02D2D18D0641E4A4639462046F7
:1006A00000F022F827B13968A14201D1C7F80080D3
:1006B0004FF0020471050BD54042002803DDFFF71F
:1006C000D3FF0460A007BDE8F08746F48066E4E746
:1006D0000028F8DAFFF7C8FF04606FF00040F2E787
:1006E00000487047D04900202DE9F05F824615464A
:1006F0008B4600270AF10104B9460078302801D062
:100700009DB113E014F8010B0127782803D0582875
:1007100001D045B10AE00DB1102D07D1002714F822
:10072000010B102502E0082500E00A250026B0464E
:100730000EE005FB080005FB06F101271FFA80F813
:1007400001EB1046B6F5803F00D3B94614F8010B13
:10075000294600F03DF80028EBDABBF1000F05D088
:100760000FB1641E00E05446CBF80040B9F1000F11
:1007700006D0FFF779FF02210160C81EBDE8F09F97
:1007800048EA0640FAE77546FFF7AAFFAE460500BD
:100790006946534620F00700854618B020B5FFF79C
:1007A00079FDBDE820404FF000064FF000074FF004
:1007B00000084FF0000B21F00701AC46ACE8C0097F
:1007C000ACE8C009ACE8C009ACE8C0098D46704788
:1007D0003A2800D2303820F02002412A01D3A2F179
:1007E0003700884201D34FF0FF30704710B5044600
:1007F000AFF300802046BDE81040FFF737BD000092
:1008000001491820ABBEFEE7260002007047000039
:1008100010B501F0F5F801F05DF801F0C5F801F050
:1008200041F901220221044800F0A4FC0122022126
:10083000024800F09FFC10BD0064004000680040CA
:100840001FB500220CA110480AF0E2FC0F49086015
:1008500008200D21C2010E4BCDE90032CDE9021076
:1008600000230C4A0CA10E480DF06AF9044614B995
:100870000B480DF06BFA1FBD43616E53656E645FEC
:100880004576656E74000000F8400020E801002005
:10089000F83C0020496E000843616E5461736B00A0
:1008A000683C002000200149086070472404004093
:1008B00010B503F09FFC02F06CFC04F09DFE10BD2F
:1008C0001FB500204FF4206114230E4ACDE900101B
:1008D0000DA110480BF072FE0F490860142008218A
:1008E000CA010E4BCDE90032CDE9021000230C4ABB
:1008F0000CA10F480DF024F9044614B90C480DF072
:1009000025FA1FBDD01E002063616E5F72785F6D97
:1009100071000000D0280020DC0100209C2900206C
:10092000916C000863616E5F72785F7461736B0035
:100930000C2900201FB500204FF4206114230E4A1B
:10094000CDE900100DA110480BF038FE0F490860EA
:100950000420082102020E4BCDE90032CDE902103D
:1009600000230C4A0CA10F480DF0EAF8044614B914
:100970000C480DF0EBF91FBD9C2D002063616E5FEC
:1009800074785F6D710000009C370020E00100204A
:1009900068380020CD6E000863616E5F74785F7404
:1009A00061736B00D837002000B58BB00121102097
:1009B00003F0C8FA0121084603F084FB02208DF8F9
:1009C000080000208DF80A004FF40050019000202C
:1009D0008DF80B0003208DF8090001A9214801F0D2
:1009E00041FE01220D211F4801F012FF0020ADF849
:1009F000220040F24F1009900020ADF82000ADF821
:100A0000280008A9184804F009FD6020ADF80C0082
:100A10000120ADF80E000420ADF810000020ADF864
:100A20001800ADF81A004FF48070ADF81C000020DB
:100A3000ADF81E003C20059003A90B4804F0DCFA39
:100A40000121094803F040FF0821074804F0BEFBDC
:100A50000121054804F082F80121034804F0F8F868
:100A60000BB000BD00100240000001401FB50FA0F8
:100A70000BF020FA00231A4614A116480CF07CFA59
:100A80001549086008200721C201144BCDE9003246
:100A9000CDE902100023124A12A115480DF050F8BA
:100AA000044614B912480DF051F91FBD0D0A5B2A16
:100AB0005D20494F2054687265616420496E6974F5
:100AC000202E2E2E2E2E2E200D0A000053656D3264
:100AD0006D73000040490020F4010020B044002064
:100AE000459A0008494F5F546872656164000000D0
:100AF000B048002010B508F04EFF08F053FF08F092
:100B000039FF10BD1FB5002301220DA10E480CF0C6
:100B100033FA0E49086008200A21C2010C4BCDE9C6
:100B20000032CDE9021000230A4A0BA10D480DF056
:100B300007F8044614B90B480DF008F91FBD000072
:100B400053656D31306D7300900600201400002055
:100B50000002002029E60008427370537973546143
:100B6000736B00000006002010B503F02BFB02F0B1
:100B7000DFFA04F011FD10BD00BFFEE700B585B03F
:100B800014216846FFF716FD02210B4800F010FA09
:100B900080B16A460021084800F082FC019840F0CC
:100BA000005001900548006820B9142269460448A5
:100BB0000BF086FE05B000BD00640040DC010020A3
:100BC000D028002010B50BF001F9FFF7D7FF0BF08C
:100BD00015F910BD00B585B014216846FFF7EAFC91
:100BE00002210B4800F0E4F980B16A460021084870
:100BF00000F056FC019840F08040019005480068E4
:100C000020B91422694604480BF05AFE05B000BD15
:100C100000680040DC010020D028002010B50BF057
:100C2000D5F8FFF7D7FF0BF0E9F810BD10B5044673
:100C30001048844202D01048844200D103E0A5212C
:100C40000EA005F07DFE0B48844209D10121480623
:100C500003F0F8F900214FF0007003F0F3F908E019
:100C60000121880603F0EEF900214FF0806003F0C7
:100C7000E9F910BD006400400068004053544D3352
:100C800032463478785F5374645065726970685F77
:100C90004472697665725C7372635C73746D33322F
:100CA000663478785F63616E2E63000070B5044629
:100CB0000025A07A1B2800DC04E040F24D1157A06B
:100CC00005F03EFEE07A10B1E07A012800D104E0A0
:100CD0004FF4A77151A005F033FE207B10B1207BAB
:100CE000012800D104E040F24F114CA005F028FE8D
:100CF000208910B12089012800D104E04FF4A871A7
:100D000046A005F01DFE607B10B1607B012800D17C
:100D100004E040F2511141A005F012FEA17A012039
:100D200000FA01F54948006840F0010047490860B1
:100D300046481C300068A84344491C310860207BA9
:100D4000C8B942480C300068A84340490C310860DB
:100D50006088E18840EA01413C484030A27A40F88E
:100D600032102088A18840EA014138484030A27AF8
:100D700000EBC2004160207B012819D133480C30C0
:100D80000068284331490C3108606088218840EAB6
:100D900001412E484030A27A40F83210E088A18804
:100DA00040EA014129484030A27A00EBC20041608C
:100DB000E07A38B92548001D0068A8432349091D79
:100DC000086006E02148001D006828431F49091DEE
:100DD0000860208930B91D4814300068A8431B49B9
:100DE000143108602089012806D1184814300068A1
:100DF0002843164914310860607B012806D1134846
:100E00001C300068284311491C3108600F480068F5
:100E100020F001000D49086070BD000053544D33AF
:100E200032463478785F5374645065726970685FD5
:100E30004472697665725C7372635C73746D33328D
:100E4000663478785F63616E2E6300000066004050
:100E500070B505460C4600263E48854202D03E4805
:100E6000854200D104E040F234513CA005F068FD19
:100E7000464884422DD0464884422AD0801E84426F
:100E800027D0401E844224D04248844221D0424888
:100E900084421ED04048083884421AD03F488442D9
:100EA00017D03F48844214D03D480838844210D0BF
:100EB0003C4884420DD03C4884420AD03B4884429E
:100EC00007D03A48FF38844203D032480A3084427F
:100ED00000D104E040F2355120A005F031FD04F4CA
:100EE000700040B1A869C4F31301084008B101269D
:100EF0002DE000262BE004F0807040B16868C4F358
:100F00001301084008B1012621E000261FE004F08B
:100F1000006040B1A868C4F31301084008B101267D
:100F200015E0002613E004F0007040B1E868C4F357
:100F30001301084008B1012609E0002607E02869EE
:100F4000C4F31301084008B1012600E00026304632
:100F500070BD0000006400400068004053544D33F1
:100F600032463478785F5374645065726970685F94
:100F70004472697665725C7372635C73746D33324C
:100F8000663478785F63616E2E6300007000F03025
:100F90000400F010080000311000003203000012BD
:100FA0001000003403000014000001380001003874
:100FB00070B504460D4600265F48844202D05F4863
:100FC000844200D104E040F2D3515DA005F0B8FCAA
:100FD000012D20D0022D1ED0042D1CD0082D1AD09A
:100FE000102D18D0202D16D0402D14D0B5F5807FAF
:100FF00011D0B5F5007F0ED0B5F5806F0BD0B5F5EB
:10100000006F08D0B5F5004F05D0B5F5803F02D090
:10101000B5F5003F00D104E040F2D45148A005F0FE
:101020008FFC60692840002871D0B5F5807F5CD0C6
:1010300010DC082D35D006DC012D20D0022D24D067
:10104000042D72D127E0102D31D0202D35D0402D28
:101050006BD138E0B5F5004F60D009DCB5F5007F05
:1010600049D0B5F5806F4CD0B5F5006F5DD14FE03C
:10107000B5F5803F2DD0B5F5003F56D12FE0A068E3
:101080003B4900F0ADFE064651E0E068032100F068
:10109000A7FE06464BE0E068082100F0A1FE0646E8
:1010A00045E0E068102100F09BFE06463FE0206925
:1010B000032100F095FE064639E02069082100F082
:1010C0008FFE064633E02069102100F089FE0646B7
:1010D0002DE06068082100F083FE064627E0606886
:1010E000102100F07DFE064621E0A069012100F0FC
:1010F00077FE06461BE0A069022100F071FE06465D
:1011000015E0A069042100F06BFE06460FE00FE039
:10111000A069702100F064FE064608E060680421C2
:1011200000F05EFE064602E0FFE7002600BF00E09A
:101130000026304670BD000000640040006800409A
:1011400053544D3332463478785F5374645065722B
:101150006970685F4472697665725C7372635C7310
:10116000746D3332663478785F63616E2E6300008D
:101170000101010070B505460C461646234885421C
:1011800002D02348854200D104E040F20A5121A058
:1011900005F0D6FB012C20D0022C1ED0042C1CD034
:1011A000082C1AD0102C18D0202C16D0402C14D07B
:1011B000B4F5807F11D0B4F5007F0ED0B4F5806F08
:1011C0000BD0B4F5006F08D0B4F5004F05D0B4F5DE
:1011D000803F02D0B4F5003F00D104E040F20B5153
:1011E0000CA005F0ADFB0EB1012E00D104E040F2E1
:1011F0000C5108A005F0A4FB1EB16869204368618A
:1012000002E06869A043686170BD000000640040AE
:101210000068004053544D3332463478785F53743D
:10122000645065726970685F4472697665725C7358
:1012300072635C73746D3332663478785F63616EA9
:101240002E6300002DE9F04104460D4600270026DC
:101250008548844202D08548844200D103E0C521FC
:1012600083A005F06DFBA87910B1A879012800D101
:1012700003E0C6217EA005F063FBE87910B1E879B0
:10128000012800D103E0C72179A005F059FB287A95
:1012900010B1287A012800D103E0C82174A005F01C
:1012A0004FFB687A10B1687A012800D103E0C921A8
:1012B0006FA005F045FBA87A10B1A87A012800D1EB
:1012C00003E0CA216AA005F03BFBE87A10B1E87A96
:1012D000012800D103E0CB2165A005F031FBA878FF
:1012E00040B1A878012805D0A878022802D0A878B3
:1012F000032800D103E0CC215DA005F021FBE878B4
:1013000040B1E878012805D0E878022802D0E878D2
:10131000032800D103E0CD2155A005F011FB287969
:101320000F2800DC03E0CE2151A005F009FB68790D
:10133000072800DC03E0CF214DA005F001FB288841
:10134000012804DB2888B0F5806F00DC03E0D021A1
:1013500047A005F0F5FA206820F002002060206820
:1013600040F00100206000E0761C606800F00100A1
:1013700018B94FF6FF708642F6D1606800F00100A0
:1013800008B900276CE0A879012804D1206840F052
:101390008000206003E0206820F080002060E87971
:1013A000012804D1206840F04000206003E020685C
:1013B00020F040002060287A012804D1206840F005
:1013C0002000206003E0206820F020002060687A80
:1013D000012804D1206840F01000206003E020685C
:1013E00020F010002060A87A012804D1206840F085
:1013F0000800206003E0206820F008002060E87A00
:10140000012804D1206840F00400206003E0206837
:1014100020F004002060A8788007E97840EA0160A5
:10142000297940EA0140697940EA01502988491E3A
:101430000843E061206820F001002060002600E001
:10144000761C606800F0010018B14FF6FF7086420C
:10145000F6D1606800F0010008B1002700E0012724
:101460003846BDE8F081000000640040006800409C
:1014700053544D3332463478785F537464506572F8
:101480006970685F4472697665725C7372635C73DD
:10149000746D3332663478785F63616E2E6300005A
:1014A00070B504460D4616464548844202D045486C
:1014B000844200D104E04FF43B7143A005F040FAB0
:1014C0000DB1012D00D104E040F2ED213EA005F068
:1014D00037FA04F5D87000EB0510006800F004003E
:1014E0003072307A50B904F5D87000EB05100068FE
:1014F00040F2FF7101EA5050306009E004F5D87005
:1015000000EB051000686FF0604101EAD0007060E8
:1015100004F5D87000EB0510006800F0020070724E
:1015200004F5D87000EB0510406800F00F00B072B1
:1015300004F5D87000EB05104068000AF07404F55B
:10154000D87000EB05108068F07204F5D87000EBDD
:1015500005108068010A317304F5D87000EB05109E
:101560008068010C717304F5D87000EB0510806879
:10157000000EB07304F5D87000EB0510C068F0736E
:1015800004F5D87000EB0510C068010A317404F549
:10159000D87000EB0510C068010C717404F5D870A8
:1015A00000EB0510C068000EB07425B9E06840F08B
:1015B0002000E06003E0206940F02000206170BD61
:1015C000006400400068004053544D333246347884
:1015D000785F5374645065726970685F44726976AD
:1015E00065725C7372635C73746D333266347878E1
:1015F0005F63616E2E63000000218171C171017211
:1016000041728172C1728170C17003210171022126
:10161000417101210180704770B505460C460026D6
:101620006948854202D06948854200D104E04FF400
:10163000107167A005F084F9207A10B1207A04288F
:1016400000D104E040F2412161A005F079F9607A0F
:1016500010B1607A022800D104E040F242215CA07F
:1016600005F06EF9A07A082800DC04E040F243217E
:1016700057A005F065F9A86800F08060B0F1806FB0
:1016800001D1002610E0A86800F00060B0F1006F02
:1016900001D1012608E0A86800F08050B0F1805F19
:1016A00001D1022600E00426042E7DD005F5C0708D
:1016B00000EB0610006800F0010105F5C07000EBBA
:1016C00006100160207AC8B92068B0F5006F00D21A
:1016D00004E040F25D213EA005F032F9607A2188F5
:1016E00040EA415005F5C07101EB06110968084355
:1016F00005F5C07101EB061108601AE06068B0F1F1
:10170000005F00D204E040F2632131A005F018F937
:10171000207A616840EAC100617A084305F5C0712A
:1017200001EB06110968084305F5C07101EB0611CC
:101730000860A07A00F00F00A07205F5C07000EB01
:101740000610406820F00F0105F5C07000EB061090
:10175000416005F5C07000EB06104068A17A0843AF
:1017600005F5C07101EB06114860A07B0106607BA6
:1017700041EA0041207B41EA0020E17A084305F577
:10178000C07101EB06118860A07C0106607C41EA13
:101790000041207C41EA0020E17B084305F5C0714F
:1017A00001EB0611C86000E00BE005F5C07000EB2E
:1017B0000610006840F0010105F5C07000EB06104E
:1017C0000160304670BD00000064004000680040C9
:1017D00053544D3332463478785F53746450657295
:1017E0006970685F4472697665725C7372635C737A
:1017F000746D3332663478785F63616E2E630000F7
:1018000010B504460448006820B914222146034854
:101810000BF056F810BD0000E00100209C370020BE
:101820002DE9F04104460D460026032710492046C5
:10183000FFF70EFB012801D1BDE8F08100BF0026B3
:1018400029462046FFF7E8FE04280CD10126012096
:101850000CF091F8381EA7F10101CFB203D1002698
:1018600001200CF088F8002EE9D100BFE4E7000069
:101870000400F010282910D2012802D002280AD131
:1018800004E00022054B43F8212005E00022044B30
:1018900043F8212000E000BF00BF70472042002035
:1018A000C042002000200EE0084951F82010491CD9
:1018B000064A42F82010064951F82010491C044AF3
:1018C00042F82010401C2828EED370472042002008
:1018D000C04200200EB500200090019002901D48EB
:1018E000FFF7A4F91C48FFF7A1F96846FFF784FE4B
:1018F00000208DF8060001208DF8070000208DF8EB
:1019000008008DF809008DF80A008DF80B008DF89D
:1019100002008DF8030001208DF8040002208DF8EC
:1019200005000720ADF8000069460A48FFF78AFC69
:1019300000208DF8030001208DF8040002208DF8AE
:1019400005000720ADF8000069460348FFF77AFC60
:101950000EBD0000006400400068004010B50CF0AF
:1019600035FBB0F5FA6F02D902200C4908600B482C
:10197000006820B1012805D002280BD103E000F057
:101980005DF908E007E0FFF78DFF08F03BF800F095
:101990009BF900E000BF00BF10BD0000EC0100207B
:1019A00010B500F011F910BD1FB500200090019096
:1019B000029003908DF80B0001208DF80C000020A0
:1019C000ADF80400ADF80600ADF8080001208DF870
:1019D0000D0000208DF80A00ADF80000ADF80200FF
:1019E0006846FFF763F90E208DF80A000020ADF875
:1019F0000000ADF802006846FFF758F91FBD00006F
:101A00001CB50020009001900121022002F09AFAFA
:101A10000121084602F096FA0121480602F0D2FAA6
:101A20000121880602F0CEFA4FF4C0500090022047
:101A30008DF804008DF8050000208DF806000120C7
:101A40008DF807006946154800F00CFE09220B21AD
:101A5000124800F0DDFE09220C21104800F0D8FEEB
:101A60004FF44050009002208DF804008DF80500DE
:101A700000208DF8060001208DF80700694608480F
:101A800000F0F0FD09220C21054800F0C1FE0922FA
:101A90000D21034800F0BCFE1CBD00000000024008
:101AA0000004024008B50020009014208DF80000CA
:101AB00001208DF8010002208DF8020001208DF830
:101AC0000300684601F076FB40208DF800000120FD
:101AD0008DF8010002208DF8020001208DF803002E
:101AE000684601F067FB08BDF0B585B004460E46B8
:101AF00000251848007800282AD0606804900CF06F
:101B000065FA0746A07A0499C1F34361049AC2F3C7
:101B10000802049BC3F34743CDE90032CDE902102C
:101B20000498C0F347233A4631460BA00AF0C2F9A5
:101B300000BF07E004F10B00415D12A00AF0BAF902
:101B4000681CC5B2A07AA842F4DC10A00AF0B2F971
:101B500005B0F0BDF101002043414E25642C205218
:101B60002C20253130642C20253264202D3E202568
:101B700032642C202532782C2025642C2025642CDE
:101B8000205B0000202532782C0000005D0D0A004B
:101B900010B50448006818B90121034809F050FC49
:101BA00010BD0000E8010020F840002010B50448F6
:101BB000006818B90221034809F042FC10BD00007A
:101BC000E8010020F840002000B587B00020019017
:101BD00001986FF30800401C0190174801790198A3
:101BE00061F350200190019820F0FF7000F5C000D3
:101BF0000190019820F0F0500190019820F0604091
:101C000001900198039004208DF8100000208DF8B9
:101C1000110002208DF812000748007B8DF8130098
:101C20000548417B8DF8141002A8FFF7E9FD02A8D2
:101C3000FFF7E6FD07B000BD480B002000B587B0F8
:101C40000020019001986FF308000A3001901C48B1
:101C50000179019861F350200190019820F0FF7004
:101C600000F5C0000190019820F0F05000F10070E4
:101C70000190019820F060400190019803900420A9
:101C80008DF8100000208DF8110004208DF812004E
:101C90000C4800788DF813000A480078401C094968
:101CA000087005218DF814100548017B8DF815107A
:101CB000417B8DF8161002A8FFF7A2FD07B000BD0A
:101CC000480B0020F001002000B587B001986FF3A9
:101CD00008000930019017480179019861F35020FC
:101CE0000190019820F0FF7000F5C000019001986C
:101CF00020F0F05000F180600190019820F06040E9
:101D000001900198039004208DF8100000208DF8B8
:101D1000110008208DF812009DF8122005490C31A1
:101D20000DF113000AF0E0FA02A8FFF769FD07B011
:101D300000BD0000480B0020F0B585B004460E46FB
:101D400000251848007800282AD0606804900CF01C
:101D50003DF90746A07A0499C1F34361049AC2F39E
:101D60000802049BC3F34743CDE90032CDE90210DA
:101D70000498C0F347233A4631460BA00AF09AF87C
:101D800000BF07E004F10B00415D12A00AF092F8D9
:101D9000681CC5B2A07AA842F4DC10A00AF08AF848
:101DA00005B0F0BDF101002043414E25642C2054C4
:101DB0002C20253130642C20253264202D3E202516
:101DC00032642C202532782C2025642C2025642C8C
:101DD000205B0000202532782C0000005D0D0A00F9
:101DE0000246002002EA01030BB1012000E00020BE
:101DF0007047000070B504460D460F48204008B9F2
:101E000004B103E078210DA004F09AFD0DB1012D7D
:101E100000D103E0792109A004F092FD2DB114480E
:101E2000806820431249886004E011488068A0431C
:101E30000F49886070BD000000E21FF953544D3314
:101E400032463478785F5374645065726970685FA5
:101E50004472697665725C7372635C73746D33325D
:101E6000663478785F6462676D63752E6300000086
:101E7000002004E07047704770B504460D462C48BA
:101E800084423AD02A481830844236D0284830302C
:101E9000844232D02648483084422ED024486030D4
:101EA00084422AD022487830844226D0204890307C
:101EB000844222D01E48A83084421ED01D4884424D
:101EC0001BD01C481830844217D01A483030844246
:101ED00013D01848483084420FD0164860308442EE
:101EE0000BD014487830844207D012489030844296
:101EF00003D01048A830844200D104E040F2D91148
:101F00000DA004F01DFD0DB1012D00D104E04FF432
:101F1000ED7109A004F014FD25B1206840F0010026
:101F2000206003E0206820F00100206070BD000008
:101F3000106002401064024053544D3332463478EE
:101F4000785F5374645065726970685F4472697633
:101F500065725C7372635C73746D33326634787867
:101F60005F646D612E63000010B51B4800F03EF801
:101F70001A481B494860002048614FF4806088611E
:101F80000020C8610862486288620420C862032099
:101F900008630020486388634FF0006008604020B9
:101FA000C86010488860012008610B4800F028F9DB
:101FB0000948303800F01AF84FF00060084908600E
:101FC0000020C860084888604FF40070086102482B
:101FD000303800F015F910BDB8640240041001401B
:101FE0000C0B0020E4070020E408002010B5044694
:101FF000724884423AD071481830844236D06F48D3
:102000003030844232D06D48483084422ED06B4804
:10201000603084422AD069487830844226D06748AC
:102020009030844222D06548A83084421ED0644853
:1020300084421BD062481830844217D06048303048
:10204000844213D05E48483084420FD05C486030F0
:1020500084420BD05A487830844207D05848903098
:10206000844203D05648A830844200D103E0BF2107
:1020700054A004F065FC206820F0010020600020DE
:1020800020606060A060E0602061212060614B48BA
:10209000844204D13D204949103988608CE047488A
:1020A0001830844205D14FF4746044491039886077
:1020B00082E042483030844205D14FF474103F49E9
:1020C0001039886078E03D484830844205D14FF0AF
:1020D00074603A49103988606EE038486030844254
:1020E00004D1444835491039C86065E03348783038
:1020F000844204D1404831491039C8605CE02F481F
:102100009030844204D13D482C491039C86053E0D6
:102110002A48A830844205D14FF03D502749103954
:10212000C86049E02648844204D13D20244908394A
:10213000086041E022481830844205D14FF47460B1
:102140001F490839086037E01D483030844205D106
:102150004FF474101A49083908602DE018484830C7
:10216000844205D14FF0746015490839086023E0B6
:1021700013486030844204D11E481149091F086089
:102180001AE00F487830844204D11B480C49091FDB
:10219000086011E00A489030844204D11748084989
:1021A000091F086008E00648A830844204D14FF0B7
:1021B0003D500349091F086010BD00001060024037
:1021C0001064024053544D3332463478785F537470
:1021D000645065726970685F4472697665725C7399
:1021E00072635C73746D3332663478785F646D61EA
:1021F0002E6300003D000020400F002000003D2025
:1022000070B505460C460026A24885423AD0A14842
:102210001830854236D09F483030854232D09D48B4
:10222000483085422ED09B48603085422AD099485C
:102230007830854226D097489030854222D0954804
:10224000A83085421ED0944885421BD09248183051
:10225000854217D090483030854213D08E484830A0
:1022600085420FD08C48603085420BD08A48783048
:10227000854207D088489030854203D08648A830F0
:10228000854200D104E04FF49E7184A004F058FB15
:102290002068D8B12068B0F1007F17D02068B0F175
:1022A000806F13D02068B0F1C06F0FD02068B0F1FC
:1022B000006F0BD02068B0F1206F07D02068B0F11C
:1022C000406F03D02068B0F1606F00D104E040F2AD
:1022D0003D1172A004F034FBE06828B1E0684028AA
:1022E00002D0E068802800D104E04FF49F716BA019
:1022F00004F026FB206920B12069B0F5803F00D2B0
:1023000004E040F23F1165A004F01AFB6069B0F5EB
:10231000007F01D0606900B904E04FF4A0715FA0B4
:1023200004F00EFBA069B0F5806F01D0A06900B980
:1023300004E040F2411159A004F002FBE06938B119
:10234000E069B0F5006F03D0E069B0F5805F00D1BF
:1023500004E04FF4A17151A004F0F2FA206A38B100
:10236000206AB0F5005F03D0206AB0F5804F00D13D
:1023700004E040F2431149A004F0E2FA606A18B1A7
:10238000606AB0F5807F00D104E04FF4A27143A0F1
:1023900004F0D6FAA06A58B1A06AB0F5803F07D021
:1023A000A06AB0F5003F03D0A06AB0F5403F00D16D
:1023B00004E040F2451139A004F0C2FAE06A10B11D
:1023C000E06A042800D104E04FF4A37133A004F0C4
:1023D000B7FA206B40B1206B012805D0206B022892
:1023E00002D0206B032800D104E040F247112BA05B
:1023F00004F0A6FA606B58B1606BB0F5000F07D01F
:10240000606BB0F1807F03D0606BB0F1C07F00D112
:1024100004E04FF4A47121A004F092FAA06B58B12B
:10242000A06BB0F5001F07D0A06BB0F5800F03D0F4
:10243000A06BB0F5C00F00D104E040F2491117A025
:1024400004F07EFA2E6821480640E16820680843BF
:1024500061690843A1690843E1690843216A0843A7
:10246000616A0843A16A0843616B0843A16B084392
:1024700006432E606E6926F00706D4E90B01084377
:1024800006436E61206968606068A860A068E860C3
:1024900070BD0000106002401064024053544D3380
:1024A00032463478785F5374645065726970685F3F
:1024B0004472697665725C7372635C73746D3332F7
:1024C000663478785F646D612E6300003F801CF095
:1024D00010B5002400BF64E004EB8402324901EB34
:1024E000820101F1080004F063FA04EB84022E4932
:1024F00001EB8201086104EBC4022B496C3901EB4A
:10250000820101F1080004F053FA04EBC4022649E9
:102510006C3901EB8201086104EBC40222496C3979
:1025200001EB820101F10A0004F042FA04EBC4025B
:102530001D496C3901EB8201486104EBC4021A4960
:102540006C3901EB820101F10B0004F031FA04EB6C
:10255000C40215496C3901EB8201886104EBC402A5
:1025600011496C3901EB820101F10D0004F020FAF0
:1025700004EBC4020C496C3901EB8201C86104EB25
:10258000C40209496C3901EB820101F10F0004F02A
:102590000FFA04EBC40204496C3901EB82010862B2
:1025A000641C032C98D310BDB80B002070477047F3
:1025B0007047000010B504460CB1012C00D103E0B7
:1025C000B82109A004F0BCF934B11448006840F403
:1025D00080701249086005E01048006820F480709F
:1025E0000E49086010BD000053544D333246347814
:1025F000785F5374645065726970685F447269767D
:1026000065725C7372635C73746D333266347878B0
:102610005F666C6173682E6300000000003C02403E
:102620001CB502208DF8040000208DF80600012062
:102630008DF8070000208DF805004FF4C060009071
:102640006946074800F00EF807220921044800F007
:10265000DFF807220A21024800F0DAF81CBD00006A
:10266000000002402DE9F04104460D4600260027F7
:10267000B0465248844217D05148844214D0514841
:10268000844211D0504884420ED0504884420BD02E
:102690004F48844208D04F48844205D04E48844277
:1026A00002D04E48844200D103E0BB214CA004F08C
:1026B00047F9002010B9286800B103E0BC2148A008
:1026C00004F03EF9287940B12879012805D028790D
:1026D000022802D02879032800D103E0BD2140A0C0
:1026E00004F02EF9E87928B1E879012802D0E879D8
:1026F000022800D103E0BE2139A004F021F9002610
:1027000057E0012000FA06F7286800EA0708B845F4
:102710004ED12068720003219140884320602879BF
:10272000710088402168084320602879012802D080
:102730002879022830D1687940B16879012805D01C
:102740006879022802D06879032800D103E0D021FB
:1027500023A004F0F5F8A06872000321914088439B
:10276000A060687971008840A1680843A060A879DA
:1027700010B1A879012800D103E0D72118A004F0F6
:10278000DFF861680120B040814361606068A97929
:10279000B14089B208436060E06872000321914053
:1027A0008843E060E87971008840E1680843E060B0
:1027B000761C102EA5D3BDE8F08100000000024079
:1027C0000004024000080240000C024000100240D9
:1027D0000014024000180240001C02400020024089
:1027E00053544D3332463478785F53746450657275
:1027F0006970685F4472697665725C7372635C735A
:10280000746D3332663478785F6770696F2E630059
:102810002DE9F04106460D4614460027B8465148BA
:10282000864217D05048864214D05048864211D074
:102830004F4886420ED04F4886420BD04E488642C3
:1028400008D04E48864205D04D48864202D04D48B9
:10285000864200D104E040F217214BA004F070F84A
:10286000EDB1012D1BD0022D19D0032D17D0042D51
:1028700015D0052D13D0062D11D0072D0FD0082D02
:102880000DD0092D0BD00A2D09D00B2D07D00C2D02
:1028900005D00D2D03D00E2D01D00F2D00D104E059
:1028A0004FF4067138A004F04BF89CB3092C31D0DA
:1028B00084B37CB374B36CB3012C2BD02AD0022C1C
:1028C00028D027D026D0032C24D0042C22D021D0ED
:1028D00020D0052C1ED01DD0092C1BD0062C19D0C1
:1028E000092C17D0072C15D014D013D0082C11D0D8
:1028F00010D00FD0092C0DD00CD00A2C0AD009D042
:102900000B2C07D00C2C05D004D003D00D2C01D0FB
:102910000F2C00D104E040F219211BA004F010F8A4
:102920006807C00E04FA00F7E91006F1200050F81D
:1029300021006907CA0E0F2191408843EA1006F171
:10294000200141F82200E91006F1200050F8210092
:1029500040EA0708E91006F1200040F82180BDE8B0
:10296000F081000000000240000402400008024024
:10297000000C024000100240001402400018024007
:10298000001C02400020024053544D33324634783C
:10299000785F5374645065726970685F44726976D9
:1029A00065725C7372635C73746D3332663478780D
:1029B0005F6770696F2E630070B505460C46002690
:1029C0002B48854217D02B48854214D02A4885428F
:1029D00011D02A4885420ED0294885420BD029487B
:1029E000854208D02848854205D02848854202D033
:1029F0002748854200D104E04FF4987125A003F0E8
:102A00009FFF012C25D0022C23D0042C21D0082C90
:102A10001FD0102C1DD0202C1BD0402C19D0802C66
:102A200017D0B4F5807F14D0B4F5007F11D0B4F581
:102A3000806F0ED0B4F5006F0BD0B4F5805F08D076
:102A4000B4F5005F05D0B4F5804F02D0B4F5004F67
:102A500000D104E040F231110EA003F071FF2869AB
:102A6000204008B1012600E00026304670BD00007D
:102A7000000002400004024000080240000C024036
:102A8000001002400014024000180240001C0240E6
:102A90000020024053544D3332463478785F5374EB
:102AA000645065726970685F4472697665725C73C0
:102AB00072635C73746D3332663478785F67706903
:102AC0006F2E630070B505460C4600262B488542E4
:102AD00017D02B48854214D02A48854211D02A4865
:102AE00085420ED0294885420BD02948854208D01E
:102AF0002848854205D02848854202D0274885428B
:102B000000D104E040F2571125A003F019FF012C79
:102B100025D0022C23D0042C21D0082C1FD0102C1F
:102B20001DD0202C1BD0402C19D0802C17D0B4F5F0
:102B3000807F14D0B4F5007F11D0B4F5806F0ED033
:102B4000B4F5006F0BD0B4F5805F08D0B4F5005F2A
:102B500005D0B4F5804F02D0B4F5004F00D104E0A9
:102B60004FF4AC710EA003F0EBFE6869204008B191
:102B7000012600E00026304670BD00000000024043
:102B80000004024000080240000C02400010024015
:102B90000014024000180240001C024000200240C5
:102BA00053544D3332463478785F537464506572B1
:102BB0006970685F4472697665725C7372635C7396
:102BC000746D3332663478785F6770696F2E630096
:102BD00070B504460D461648844217D01548844205
:102BE00014D01548844211D0144884420ED01448A1
:102BF00084420BD01348844208D01348844205D045
:102C00001248844202D01248844200D104E04FF4BA
:102C1000C97110A003F094FE002008B905B104E0CA
:102C200040F293110BA003F08BFE658370BD000092
:102C3000000002400004024000080240000C024074
:102C4000001002400014024000180240001C024024
:102C50000020024053544D3332463478785F537429
:102C6000645065726970685F4472697665725C73FE
:102C700072635C73746D3332663478785F67706941
:102C80006F2E630070B504460D461648844217D077
:102C90001548844214D01548844211D01448844207
:102CA0000ED0144884420BD01348844208D01348F5
:102CB000844205D01248844202D01248844200D196
:102CC00004E040F27F1110A003F03AFE002008B9A2
:102CD00005B104E04FF4C0710BA003F031FE258371
:102CE00070BD0000000002400004024000080240E5
:102CF000000C024000100240001402400018024084
:102D0000001C02400020024053544D3332463478B8
:102D1000785F5374645065726970685F4472697655
:102D200065725C7372635C73746D33326634787889
:102D30005F6770696F2E630010B50446054A02EBA9
:102D40000412928991B2034A02EB04129068FFF7D1
:102D500033FE10BD48F20008F8B500240025002617
:102D60000020009000BF002430E00020FFF7E4FFC7
:102D70009DF8001060F3000100910120FFF7DCFFD7
:102D80009DF8001060F3410100910220FFF7D4FF8D
:102D90009DF8001060F3820100910320FFF7CCFF43
:102DA0009DF8001060F3C30100910420FFF7C4FFF9
:102DB0009DF8001060F3041100910520FFF7BCFF9F
:102DC0009DF8001060F345110091641CB4F57A7F02
:102DD000CBD39DF800000728C5DB9DF80000212813
:102DE000C1DC9DF800001D49486008464068C01FCE
:102DF0000321B0FBF1F0C6B218484068C01FB0FB19
:102E0000F1F201FB1205C6EBC6001449086025B1BA
:102E1000012D0CD0022D1ED113E010484068401C3B
:102E20000E49886208464068801CC86414E00B485C
:102E30004068401C0949886208464068401EC864D2
:102E40000AE006484068801E0449886208464068D7
:102E5000401EC86400E000BF00BFF8BD480B002062
:102E60000246012028291AD2012A02D0022A14D1AE
:102E700009E00B4B53F82130032B01D3012300E071
:102E8000002318460AE0064B53F82130032B01D3E8
:102E9000012300E00023184600E000BF00BF704798
:102EA0002042002070B50546002406E055F82410A5
:102EB00004F1250001F066FA641C072CF6D370BDFE
:102EC00010B504210748FFF7FDFD012804D00421B7
:102ED0000448FFF7D7FE03E004210248FFF778FE1D
:102EE00010BD0000001002401CB50DA008F0E2FF6C
:102EF0000121102001F026F801208DF804000020A7
:102F00008DF8060002208DF8050000208DF80700DE
:102F10000420009069460D48FFF7A4FB1CBD00008B
:102F20000D0A486172645765617220646F672043BF
:102F300068616E616C73204750494F20636F6E6605
:102F400069677572652E2E2E2E2E2E0000100240FF
:102F50004CF6CC400149086070470000003000404A
:102F600070B505461A2D02DB40F6FF7403E09C2085
:102F70006843C0F30B0445F2555000F06DF804208F
:102F800000F010F8204600F03FF800F003F8FFF7DB
:102F9000DFFF70BD4AF6AA200149086070470000B3
:102FA0000030004010B504465CB1012C09D0022C61
:102FB00007D0032C05D0042C03D0052C01D0062CFF
:102FC00000D103E0982103A003F0BAFC0D4844604F
:102FD00010BD000053544D3332463478785F53743B
:102FE000645065726970685F4472697665725C737B
:102FF00072635C73746D3332663478785F697764BA
:10300000672E63000030004010B50446B4F5805FC1
:1030100000DA03E0A52103A003F092FC0D488460D0
:1030200010BD000053544D3332463478785F5374EA
:10303000645065726970685F4472697665725C732A
:1030400072635C73746D3332663478785F69776469
:10305000672E63000030004010B5044645F255501D
:10306000844200D004B903E0842103A003F068FC8B
:103070000D48046010BD000053544D33324634787F
:10308000785F5374645065726970685F44726976E2
:1030900065725C7372635C73746D33326634787816
:1030A0005F697764672E6300003000401CB510A094
:1030B00008F000FF0121022000F044FF01208DF8FC
:1030C000040000208DF806008DF805008DF807003B
:1030D0004FF48040009069460D48FFF7C3FA4FF463
:1030E0000040009069460A48FFF7BCFA1CBD00008A
:1030F0000D0A2B204C4544204750494F20636F6EEA
:103100006669677572652E2E2E2E2E2E0D0A000012
:103110000004024000BFFEE7704710B500214FF0E9
:10312000006000F0E7F84FF4A06000F0AFF810BDC9
:1031300008B51E208DF8000001208DF80100002048
:103140008DF8020001208DF80300684600F032F887
:1031500008BD08B525208DF8000003208DF801007A
:1031600000208DF8020001208DF80300684600F071
:1031700021F82B208DF8000003208DF8010000209D
:103180008DF8020001208DF80300684600F012F867
:1031900008BD08B51D208DF8000001208DF8010044
:1031A00000208DF8020001208DF80300684600F031
:1031B00001F808BD2DE9F0410446002500270F263F
:1031C000E07810B1E078012800D103E0872122A047
:1031D00003F0B6FB6078102800DA03E088211EA017
:1031E00003F0AEFBA078102800DA03E089211AA0D2
:1031F00003F0A6FBE07818B32148006800F4E06013
:10320000C0F5E060C0F30725C5F10400C7B22E4148
:103210006078B840C5B2A078304005432807050E55
:10322000184821784554207800F01F01012088407B
:1032300021784911890001F1E021C1F8000109E07C
:10324000207800F01F01012088400F492278521198
:1032500041F82200BDE8F08153544D3332463478B2
:10326000785F5374645065726970685F4472697600
:1032700065725C7372635C6D6973632E630000003A
:103280000CED00E000E400E080E100E010B5044651
:10329000B4F5E06F0BD0B4F5C06F08D0B4F5A06FF3
:1032A00005D0B4F5806F02D0B4F5407F00D103E0C3
:1032B000732104A003F044FB0C4820430C49086030
:1032C00010BD000053544D3332463478785F537448
:1032D000645065726970685F4472697665725C7388
:1032E00072635C6D6973632E630000000000FA0571
:1032F0000CED00E070B504460D46B4F1005F02D05D
:10330000B4F1006F00D103E0B12109A003F018FB74
:103310001148854200D203E0B22105A003F010FB62
:103320000E4905EA010020430D49086070BD000008
:1033300053544D3332463478785F53746450657219
:103340006970685F4472697665725C7372635C6D04
:103350006973632E63000000FFFF0F0080FFFF1FF3
:1033600008ED00E000BF0A48006810F8080C0849A2
:10337000096811F8041C08440549096801F8080C9B
:1033800003480068001F0249086000BF7047000042
:10339000BC01002000BF0A48006850F8080C08492A
:1033A000096851F8041C08440549096841F8080CEB
:1033B00003480068001F0249086000BF7047000012
:1033C000BC01002000BF0A48006830F8080C08491A
:1033D000096831F8041C084400B20549096821F85D
:1033E000080C03480068001F0149086000BF7047CF
:1033F000BC01002000BF0A48006810F8080C08490A
:10340000096811F8041C08400549096801F8080C0E
:1034100003480068001F0249086000BF70470000B1
:10342000BC01002000BF0A48006850F8080C084999
:10343000096851F8041C08400549096841F8080C5E
:1034400003480068001F0249086000BF7047000081
:10345000BC01002000BF0A48006830F9080C084988
:10346000096831F9041C08400549096821F8080C6D
:1034700003480068001F0249086000BF7047000051
:10348000BC0100200448006810F8040CC043024945
:10349000096801F8040C7047BC010020044800686A
:1034A00050F8040CC0430249096841F8040C704705
:1034B000BC0100200448006830F9040CC0430249F4
:1034C000096821F8040C7047BC01002010B5A4B0B5
:1034D000DF48006800781390DD480068401CDC4934
:1034E000086000201290DB480068001FD94908607E
:1034F00011E0D848006802681398401E1299401ADB
:1035000014A941F82020D3480068001FD149086061
:103510001298401C1290DDE912018842E9D3CD488F
:10352000006800681190139811286ED2DFE800F04F
:10353000090E141D293747596E849CB6D2F4F2F156
:10354000F000002011998847109074E114980F90B2
:103550001199884710906EE115980F9014980E906D
:10356000119A0F999047109065E116980F90159851
:103570000E9014980D90119BDDE90E129847109053
:1035800059E117980F9016980E9015980D90149871
:103590000C90119C0DA90EC9A04710904BE11898F2
:1035A000009017980F9016980E9015980D901498FB
:1035B0000C90119C0DA90EC9A04710903BE1DDE9CC
:1035C0001801CDE9000117980F9016980E901598E4
:1035D0000D9014980C90119C0DA90EC9A047109045
:1035E00029E1DDE919211898CDE90121009017980A
:1035F0000F9016980E9015980D9014980C90119CA1
:103600000DA90EC9A047109015E111E1DDE91932AD
:1036100018991B98CDE901320091039017980F90EB
:1036200016980E9015980D9014980C90119C0DA959
:103630000EC9A0471090FEE0DDE91923DDE91B105B
:10364000CDE90123CDE903101898009017980F9049
:1036500016980E9015980D9014980C90119C0DA929
:103660000EC9A0471090E6E0DDE91A23DDE91C1041
:10367000CDE90223CDE90410DDE91801CDE900010F
:1036800017980F9016980E9015980D9014980C900E
:10369000119C0DA90EC9A0471090CCE0DDE91C32A9
:1036A0001B991E98CDE9043203910690DDE919219A
:1036B0001898CDE90121009017980F9016980E9058
:1036C00015980D9014980C90119C0DA90EC9A04747
:1036D0001090B0E0DDE91C23DDE91E10CDE90423E4
:1036E000CDE90610DDE9193218991B98CDE90132B0
:1036F0000091039017980F9016980E9015980D90C2
:1037000014980C90119C0DA90EC9A047109092E03E
:1037100068E043E020E0FFE7DDE91E321D992098D4
:10372000CDE9063205910890DDE91923DDE91B0199
:10373000CDE90123CDE903011898009017980F9067
:1037400016980E9015980D9014980C90119C0DA938
:103750000EC9A04710906EE0DDE91E13DDE92002DE
:10376000CDE90613CDE90802DDE91A23DDE91C01E4
:10377000CDE90223CDE90401DDE91801CDE900011D
:1037800017980F9016980E9015980D9014980C900D
:10379000119C0DA90EC9A04710904CE0DDE9203125
:1037A000229A1F98CDE908310A920790DDE91B2380
:1037B000DDE91D01CDE90323CDE90501DDE919218D
:1037C0001898CDE90121009017980F9016980E9047
:1037D00015980D9014980C90119C0DA90EC9A04736
:1037E000109028E0DDE9213220992398CDE90932B3
:1037F00008910B90DDE91D321C991F98CDE9053227
:1038000004910790DDE91823DDE91A10CDE90023C2
:10381000CDE9021017980F9016980E9015980D90FC
:1038200014980C90119C0DA90EC9A047109002E0AD
:103830000020109000BF00BF06491098096808607A
:1038400004480068001D0349086024B010BD000052
:10385000C0010020BC01002000BF0A48006810F829
:10386000080C0849096811F8041C90FBF1F005499F
:10387000096801F8080C03480068001F0149086046
:1038800000BF7047BC01002000BF0A48006850F824
:10389000080C0849096851F8041C90FBF1F005492F
:1038A000096841F8080C03480068001F01490860D6
:1038B00000BF7047BC01002000BF0B48006830F912
:1038C000080C0949096831F9041C90FBF1F000B2B9
:1038D0000549096821F8080C03480068001F0249DF
:1038E000086000BF70470000BC0100200848006865
:1038F000007808490968087006480068001D0549F5
:10390000086003480068401C0149086070470000D7
:10391000C0010020BC0100200F48006800780E495B
:103920000968497840EA01200B490968897840EA2A
:10393000014009490968C97840EA016007490968F6
:10394000086006480068001D0449086002480068D5
:10395000001D014908607047C0010020BC01002023
:103960001049096809780F4A1268527841EA022121
:103970000C4A1268927841EA02410A4A1268D278E7
:1039800041EA02600178084A126811700649096824
:10399000091D054A116003490968091D014A1160A2
:1039A00070470000C0010020BC01002004490968E4
:1039B00051F8040C0178024A126802F8041C70479E
:1039C000BC0100201049096809780F4A1268527832
:1039D00041EA02210C4A1268927841EA02410A4AFD
:1039E0001268D27841EA0260084A016812681160E0
:1039F00006490968091D054A116003490968091D3E
:103A0000014A116070470000C0010020BC01002085
:103A10000449096851F8040C024A0168126842F826
:103A2000041C7047BC0100201049096809780F4A3E
:103A30001268527841EA02210C4A1268927841EAEF
:103A400002410A4A1268D27841EA02600188084AB3
:103A50001268118006490968091D054A1160034969
:103A60000968091D014A116070470000C00100206B
:103A7000BC0100200449096851F8040C0188024A7D
:103A8000126822F8041C7047BC0100200B48006833
:103A900000780A490968497840EA012000B20849DB
:103AA0000968088006480068001D05490860034849
:103AB0000068801C0149086070470000C0010020B8
:103AC000BC01002000BF0B48006810F8080C094931
:103AD000096811F8041C90FBF1F201FB1200054982
:103AE000096801F8080C03480068001F01490860D4
:103AF00000BF7047BC01002000BF0B48006850F8B1
:103B0000080C0949096851F8041C90FBF1F201FB0B
:103B100012000549096841F8080C03480068001FB5
:103B20000149086000BF7047BC01002000BF0B487E
:103B3000006830F9080C0949096831F9041C90FB48
:103B4000F1F201FB12000549096821F8080C03484D
:103B50000068001F0149086000BF7047BC010020D9
:103B600000BF0A48006810F8080C0849096811F8F5
:103B7000041C10FB01F00549096801F8080C034812
:103B80000068001F0149086000BF7047BC010020A9
:103B900000BF0A48006850F8080C0849096851F845
:103BA000041C48430549096841F8080C03480068AB
:103BB000001F0249086000BF70470000BC010020E0
:103BC00000BF0B48006830F8080C0949096831F853
:103BD000041C10FB01F000B20549096821F8080C2B
:103BE00003480068001F0249086000BF70470000DA
:103BF000BC0100207047000000BF0A48006810F8B0
:103C0000080C0849096811F8041C084305490968AB
:103C100001F8080C03480068001F0249086000BF53
:103C200070470000BC01002000BF0A48006850F83F
:103C3000080C0849096851F8041C0843054909683B
:103C400041F8080C03480068001F0249086000BFE3
:103C500070470000BC01002000BF0A48006830F92E
:103C6000080C0849096831F9041C0843054909682A
:103C700021F8080C03480068001F0249086000BFD3
:103C800070470000BC01002002480068001F014985
:103C900008607047BC01002000BF0A48006810F8A7
:103CA000080C0849096811F8041C8840054909688E
:103CB00001F8080C03480068001F0249086000BFB3
:103CC00070470000BC01002000BF0A48006850F89F
:103CD000080C0849096811F8041C8840054909685E
:103CE00041F8080C03480068001F0249086000BF43
:103CF00070470000BC01002000BF0A48006830F88F
:103D0000080C0849096811F8041C884000B20549EC
:103D1000096821F8080C03480068001F0149086081
:103D200000BF7047BC01002000BF0A48006810F8BF
:103D3000080C0849096811F8041C0841054909687C
:103D400001F8080C03480068001F0249086000BF22
:103D500070470000BC01002000BF0A48006850F80E
:103D6000080C0849096811F8041C0841054909684C
:103D700041F8080C03480068001F0249086000BFB2
:103D800070470000BC01002000BF0A48006830F9FD
:103D9000080C0849096811F8041C0841054909681C
:103DA00021F8080C03480068001F0249086000BFA2
:103DB00070470000BC0100200748006810F8040CA0
:103DC0000549096851F8081C087003480068001F7D
:103DD0000149086070470000BC01002007480068E6
:103DE00050F8040C0549096851F8081C086003489C
:103DF0000068001F0149086070470000BC010020F6
:103E00000748006830F8040C0549096851F8081C97
:103E1000088003480068001F0149086070470000DF
:103E2000BC01002000BF0A48006810F8080C0849CF
:103E3000096811F8041C401A0549096801F8080CC2
:103E400003480068001F0249086000BF7047000077
:103E5000BC01002000BF0A48006850F8080C08495F
:103E6000096851F8041C401A0549096841F8080C12
:103E700003480068001F0249086000BF7047000047
:103E8000BC01002000BF0A48006830F8080C08494F
:103E9000096831F8041C401A00B20549096821F884
:103EA000080C03480068001F0149086000BF704704
:103EB000BC01002000BF0A48006810F8080C08493F
:103EC000096811F8041C48400549096801F8080C04
:103ED00003480068001F0249086000BF70470000E7
:103EE000BC01002000BF0A48006850F8080C0849CF
:103EF000096851F8041C48400549096841F8080C54
:103F000003480068001F0249086000BF70470000B6
:103F1000BC01002000BF0A48006830F9080C0849BD
:103F2000096831F9041C48400549096821F8080C62
:103F300003480068001F0249086000BF7047000086
:103F4000BC01002070B504460D461048204008B959
:103F500004B104E04FF488610DA002F0F1FC0DB152
:103F6000012D00D104E040F2424109A002F0E8FC3A
:103F70002DB11348006820431149086004E010483F
:103F80000068A0430E49086070BD000000EE8B8100
:103F900053544D3332463478785F537464506572AD
:103FA0006970685F4472697665725C7372635C7392
:103FB000746D3332663478785F7263632E63000009
:103FC0003038024070B504460D461048204008B90C
:103FD00004B104E040F2AD410DA002F0B1FC0DB11E
:103FE000012D00D104E040F2AE4109A002F0A8FC8E
:103FF0002DB11348006820431149086004E01048BF
:104000000068A0430E49086070BD0000003601C979
:1040100053544D3332463478785F5374645065722C
:104020006970685F4472697665725C7372635C7311
:10403000746D3332663478785F7263632E63000088
:104040004038024070B504460D461048204008B97B
:1040500004B104E04FF4AC610DA002F071FC0DB1AD
:10406000012D00D104E040F2615109A002F068FC8A
:104070002DB11348006820431149086004E010483E
:104080000068A0430E49086070BD0000003601C9F9
:1040900053544D3332463478785F537464506572AC
:1040A0006970685F4472697665725C7372635C7391
:1040B000746D3332663478785F7263632E63000008
:1040C0002038024070B504460D461048204008B91B
:1040D00004B104E040F2D5410DA002F031FC0DB175
:1040E000012D00D104E040F2D64109A002F028FCE5
:1040F0002DB11348006820431149086004E01048BE
:104100000068A0430E49086070BD0000CCA0F8FF15
:1041100053544D3332463478785F5374645065722B
:104120006970685F4472697665725C7372635C7310
:10413000746D3332663478785F7263632E63000087
:104140004438024070B504460D461048204008B976
:1041500004B104E040F284510DA002F0F1FB0DB176
:10416000012D00D104E040F2855109A002F0E8FBE6
:104170002DB11348006820431149086004E010483D
:104180000068A0430E49086070BD0000CCA6F8FF8F
:1041900053544D3332463478785F537464506572AB
:1041A0006970685F4472697665725C7372635C7390
:1041B000746D3332663478785F7263632E63000007
:1041C0002438024010B501210420FFF7FBFE10BD8A
:1041D00010B501210846FFF7B5FE01211020FFF7B9
:1041E00071FF01218805FFF7ADFE01214020FFF797
:1041F000E9FE10BD10B501210220FFF7E3FE10BD5E
:104200000E48006840F001000C49086000200B498E
:1042100008310860094800680949084007490860F2
:104220000848091D0860081F006820F48020091F45
:104230000860002001490C310860704700380240D6
:10424000FFFFF6FE10300024F0B50021002200240C
:10425000022500260223324F3F6807F00C0121B1EE
:10426000042905D0082937D105E02E4F076036E034
:104270002D4F076033E02A4F3F1F3F68C7F380563A
:10428000274F3F1F3F6807F03F036EB1264FB7FB34
:10429000F3F7DFF88CC0ACF1040CDCF800C0CCF311
:1042A000881C07FB0CF40CE01E4FB7FBF3F7DFF89C
:1042B00070C0ACF1040CDCF800C0CCF3881C07FB28
:1042C0000CF4174F3F1F3F68C7F301477F1C7D0069
:1042D000B4FBF5F7076002E0124F076000BF00BFB4
:1042E0000F4F3F6807F0F0010909104F7A5C07682B
:1042F000D74047600A4F3F6807F4E051890A0B4FE7
:104300007A5C4768D7408760054F3F6807F4604193
:10431000490B064F7A5C4768D740C760F0BD000084
:10432000083802400024F40000127A004000002007
:1043300010B504460CB1012C00D104E040F24B1141
:1043400002A002F0FDFA0D48046010BD53544D3335
:1043500032463478785F5374645065726970685F70
:104360004472697665725C7372635C73746D333228
:10437000663478785F7263632E6300000000474202
:104380007047000070B504460D465DB90B4A02EB5C
:104390000412928991B2094A02EB04129068FEF766
:1043A00017FC0AE0054A02EB0412928991B2034A13
:1043B00002EB04129068FEF765FC70BD48F200083D
:1043C0001CB50020019000905C48006840F48030EB
:1043D0005A49086000BF5948006800F40030009056
:1043E0000198401C0190009818B90198B0F5A06F91
:1043F000F1D15248006800F4003010B10120009063
:1044000001E0002000900098012847D14B4840303F
:10441000006840F0805049494031086048480068D1
:1044200040F48040464908604448083000684349E9
:10443000083108600846006840F4004008600846FB
:10444000006840F4A05008603E48091F0860081F3B
:10445000006840F08070091F086000BF374800689E
:1044600000F000700028F9D040F20560364908607D
:1044700032480830006820F00300304908310860F5
:104480000846006840F00200086000BF2B48083072
:10449000006800F00C000828F8D14EE0FFF7B0FEED
:1044A0000120FFF745FF0120FEF784F82348403044
:1044B000006840F080502149403108602048006881
:1044C00040F480401E4908601C48083000681B49C1
:1044D000083108600846006840F40040086008465B
:1044E000006840F4A05008601848091F0860081FC1
:1044F000006840F08070091F086000BF0F48006826
:1045000000F000700028F9D040F205600E49086004
:104510000A480830006820F00300084908310860A4
:104520000846006840F00200086000BF03480830F9
:10453000006800F00C000828F8D11CBD00380240CB
:104540000070004008544007003C0240105400072F
:1045500010B504462CB94FF480410548FEF792FB94
:1045600004E04FF480410248FEF732FB10BD00002A
:104570000004024010B504462CB94FF40041054830
:10458000FEF780FB04E04FF400410248FEF720FBF9
:1045900010BD00000004024010B50446042C01D0F8
:1045A000601D00B903E0DC210BA002F0C9F9042C66
:1045B00008D14FF0E020006940F004004FF0E02106
:1045C000086107E04FF0E020006920F004004FF0A0
:1045D000E021086110BD000053544D333246347859
:1045E000785F5374645065726970685F447269766D
:1045F00065725C7372635C6D6973632E63000000A7
:104600007FB56846FFF720FE4FF47A710198B0FB42
:10461000F1F4E4081549019808602146B1F1807F62
:1046200000D31DE021F07F40401E4FF0E02250619A
:1046300050170F22002807DA13071E0E0C4B00F04C
:104640000F052D1F5E5503E013071D0E094B1D546A
:1046500000BF00204FF0E02290610720106100BFF2
:104660006FF00400FFF798FF7FBD000000000020FE
:1046700018ED00E000E400E010B507F0A7FB09F03A
:10468000ABFC07F0BBFB10BD10B51548006840F44B
:104690007000134908601348006840F00100114998
:1046A000086000200F49083108600E4800680E4974
:1046B00008400C4908600D48091D0860081F006883
:1046C00020F48020091F0860002006490C31086092
:1046D000FFF776FE4FF0006001498039086010BD99
:1046E00088ED00E000380240FFFFF6FE10300024A5
:1046F00010B5FEF7DBFC0120FFF72AFF0120FFF7D2
:1047000039FF0421012000F029F80121022000F0E6
:1047100025F810BD10B50E4909680E4A1268885C6C
:10472000FFF716FF0C4909680A4A1268885CFFF710
:1047300021FF08480068401C0649086008460068D8
:104740002821B0FBF1F201FB12000249086010BD04
:1047500008000020100000200C0000200246012963
:1047600008D0022904D0032906D0042908D105E085
:104770000C4807E00C4805E00C4803E00C4801E059
:10478000094800BF00BF012A02D0022A06D102E078
:10479000084B186003E0084B186000E000BF00BF42
:1047A00070470000FAF0000822F100084AF1000802
:1047B00072F10008080000200C00002010B507A0CE
:1047C00007F078FBFEF790FB02F0F2FBFCF79AF99A
:1047D000FCF74CF9FCF734F810BD00000D0A5B2A19
:1047E0005D2053797374656D20616C6C2074617306
:1047F0006B20496E6974205374617274202E2E2EC2
:104800002E2E2E200D0A000010B507F0DFFA07F05B
:10481000F5FA10BD10B507F0D9FA07F0EFFA10BDA0
:1048200010B507F0D3FA0121034800F02FF9FDF786
:10483000AFF907F0E3FA10BD0004004010B507F02F
:10484000C5FA0121034800F021F909F07DFD07F0C8
:10485000D5FA10BD0008004010B507F0B7FA07F010
:10486000CDFA10BD10B507F0B1FA0121034800F0F0
:104870000DF909F075FD07F0C1FA10BD00140040F4
:1048800010B507F0A3FA0C480068C0F500700B499A
:10489000086006F08DFA0A48407C10B1084808F01C
:1048A000A5FB0021074800F059F90121054800F057
:1048B00085F807F0A3FA10BD8C6402403C0000208C
:1048C000E40A00200018004070B504460D46224856
:1048D000844226D0B4F1804F23D02048844220D097
:1048E0001F4884421DD01F4884421AD01E4884426B
:1048F00017D01E48844214D01D48844211D01D4850
:1049000084420ED01C4884420BD01C48844208D0FC
:104910001B48844205D01B48844202D01A48844276
:1049200000D104E040F2072118A002F009F80DB10F
:10493000012D00D104E04FF4027114A002F000F840
:1049400025B1208840F08000208004E020884FF6C8
:104950007F710840208070BD0000014000040040CD
:1049600000080040000C004000100040001400400F
:104970000004014000400140004401400048014063
:1049800000180040001C00400020004053544D33EC
:1049900032463478785F5374645065726970685F2A
:1049A0004472697665725C7372635C73746D3332E2
:1049B000663478785F74696D2E63000070B50446C4
:1049C0000D461948844226D0B4F1804F23D01748B1
:1049D000844220D0164884421DD0164884421AD002
:1049E0001548844217D01548844214D01448844294
:1049F00011D0144884420ED0134884420BD013487F
:104A0000844208D01248844205D01248844202D021
:104A10001148844200D104E040F6AE110FA001F02D
:104A20008FFFE843208270BD000001400004004079
:104A300000080040000C004000100040001400403E
:104A40000004014000400140004401400048014092
:104A500000180040001C00400020004053544D331B
:104A600032463478785F5374645065726970685F59
:104A70004472697665725C7372635C73746D333211
:104A8000663478785F74696D2E63000070B50446F3
:104A90000D461948844226D0B4F1804F23D01748E0
:104AA000844220D0164884421DD0164884421AD031
:104AB0001548844217D01548844214D014488442C3
:104AC00011D0144884420ED0134884420BD01348AE
:104AD000844208D01248844205D01248844202D051
:104AE0001148844200D104E040F6F3110FA001F018
:104AF00027FFE843208270BD000001400004004011
:104B000000080040000C004000100040001400406D
:104B100000040140004001400044014000480140C1
:104B200000180040001C00400020004053544D334A
:104B300032463478785F5374645065726970685F88
:104B40004472697665725C7372635C73746D333240
:104B5000663478785F74696D2E63000070B5044622
:104B60000D462248844226D0B4F1804F23D02048FD
:104B7000844220D01F4884421DD01F4884421AD04E
:104B80001E48844217D01E48844214D01D488442D7
:104B900011D01D4884420ED01C4884420BD01C48C2
:104BA000844208D01B48844205D01B48844202D06E
:104BB0001A48844200D104E040F24D2118A001F0CF
:104BC000BFFE0DB1012D00D104E040F24E2114A032
:104BD00001F0B6FE25B1208840F00100208004E0FD
:104BE00020884FF6FE710840208070BD0000014013
:104BF0000004004000080040000C0040001000408D
:104C00000014004000040140004001400044014005
:104C10000048014000180040001C004000200040F7
:104C200053544D3332463478785F53746450657210
:104C30006970685F4472697665725C7372635C73F5
:104C4000746D3332663478785F74696D2E6300005A
:104C500070B504460D461248844202D01148844281
:104C600000D104E040F6D2010FA001F069FE0DB1C1
:104C7000012D00D104E040F6D3010BA001F060FE4D
:104C800035B1B4F8440040F40040A4F8440005E015
:104C9000B4F84400C0F30E00A4F8440070BD000056
:104CA000000001400004014053544D333246347833
:104CB000785F5374645065726970685F4472697696
:104CC00065725C7372635C73746D333266347878CA
:104CD0005F74696D2E63000010B504466C48844211
:104CE00026D0B4F1804F23D06A48844220D06A484D
:104CF00084421DD0694884421AD06948844217D042
:104D00006848844214D06848844211D0674884427D
:104D10000ED0674884420BD06648844208D066486B
:104D2000844205D06548844202D06548844200D15F
:104D300003E0C52163A001F003FE5548844208D179
:104D400001210846FFF7FEF900210120FFF7FAF9DB
:104D50009DE0B4F1804F08D101210846FFF772F9B8
:104D600000210120FFF76EF991E04A48844208D102
:104D700001210220FFF766F900210220FFF762F906
:104D800085E04548844208D101210420FFF75AF903
:104D900000210420FFF756F979E04048844208D109
:104DA00001210820FFF74EF900210820FFF74AF9FA
:104DB0006DE03B48844208D101211020FFF742F901
:104DC00000211020FFF73EF961E03648844208D107
:104DD00001212020FFF736F900212020FFF732F9CA
:104DE00055E03148844208D101210220FFF7AAF999
:104DF00000210220FFF7A6F949E02C48844209D19E
:104E000001210804FFF79EF900214FF48030FFF7DD
:104E100099F93CE02648844209D101214804FFF772
:104E200091F900214FF40030FFF78CF92FE0214871
:104E3000844209D101218804FFF784F900214FF44D
:104E40008020FFF77FF922E01B48844208D101212E
:104E50004020FFF7F7F800214020FFF7F3F816E0B5
:104E60001648844208D101218020FFF7EBF8002189
:104E70008020FFF7E7F80AE01148844207D10121BA
:104E80008015FFF7DFF80021A015FFF7DBF810BD54
:104E9000000001400004004000080040000C0040F9
:104EA0000010004000140040000401400040014098
:104EB000004401400048014000180040001C004030
:104EC0000020004053544D3332463478785F537499
:104ED000645065726970685F4472697665725C736C
:104EE00072635C73746D3332663478785F74696DA5
:104EF0002E63000070B504460D46164625488442D0
:104F000026D0B4F1804F23D02348844220D02348B8
:104F100084421DD0224884421AD02248844217D0AD
:104F20002148844214D02148844211D02048844230
:104F30000ED0204884420BD01F48844208D01F481E
:104F4000844205D01E48844202D01E48844200D1CB
:104F500004E040F63D111CA001F0F2FC05F47F4096
:104F600008B905B104E040F63E1117A001F0E8FCD5
:104F70000EB1012E00D104E040F63F1112A001F065
:104F8000DFFC1EB1A0892843A08102E0A089A843CC
:104F9000A08170BD000001400004004000080040F6
:104FA000000C0040001000400014004000040140CC
:104FB000004001400044014000480140001800400A
:104FC000001C00400020004053544D3332463478DA
:104FD000785F5374645065726970685F4472697673
:104FE00065725C7372635C73746D333266347878A7
:104FF0005F74696D2E6300002DE9F04105460C4693
:105000004FF00008002600275F4885420ED0B5F11A
:10501000804F0BD05D48854208D05D48854205D061
:105020005C48854202D05C48854200D104E04FF4E0
:1050300050715AA001F084FC208870B1208810289B
:105040000BD02088202808D02088302805D0208840
:10505000602802D02088702800D104E040F241315D
:105060004EA001F06DFC608810B16088012800D16D
:1050700004E040F2423149A001F062FCA08910B185
:10508000A089022800D104E040F2433143A001F09E
:1050900057FC288C4FF6FF61084028842E8CAF887F
:1050A000B5F81C804FF68F7008EA00084FF6FC70C8
:1050B00008EA0008208840EA08084FF6FF5006403A
:1050C000A0894FF6FF7101EA00200643608801EADB
:1050D000002006432C48854202D02F4885424BD100
:1050E000A08810B1A088042800D104E04FF45871C2
:1050F0002AA001F025FCE08910B1E089082800D140
:1051000004E040F2613125A001F01AFC608AB0F59C
:10511000007F01D0608A00B904E040F262311FA034
:1051200001F00EFC208AB0F5807F01D0208A00B902
:1051300004E040F2633119A001F002FC4FF2FF706D
:105140000640E0894FF6FF7101EA002006434FF662
:10515000FF300640A08801EA002006434EF6FF70AB
:1051600007404DF6FF700740208A01EA0010074310
:10517000608A01EA00100743AF80A5F81C80A06890
:10518000E8632E84BDE8F081000001400004004087
:1051900000080040000C00400004014053544D330F
:1051A00032463478785F5374645065726970685F12
:1051B0004472697665725C7372635C73746D3332CA
:1051C000663478785F74696D2E63000070B50446AC
:1051D0000D460026134884420ED0B4F1804F0BD008
:1051E0001148844208D01148844205D010488442B6
:1051F00002D01048844200D104E040F20E510EA0CB
:1052000001F09EFB082D00D005B904E040F20F51DB
:1052100009A001F095FBA68B4FF6F77006402E43D0
:10522000A68370BD0000014000040040000800405B
:10523000000C00400004014053544D333246347892
:10524000785F5374645065726970685F4472697600
:1052500065725C7372635C73746D33326634787834
:105260005F74696D2E63000070B504460E461546E6
:105270001D48844226D0B4F1804F23D01B4884427D
:1052800020D01B4884421DD01A4884421AD01A48A4
:10529000844217D01948844214D01948844211D04E
:1052A000184884420ED0184884420BD017488442D4
:1052B00008D01748844205D01648844202D01648C8
:1052C000844200D104E040F2651114A001F038FBE3
:1052D0000DB1012D00D104E04FF4B3710FA001F026
:1052E0002FFB2685A58270BD000001400004004010
:1052F00000080040000C0040001000400014004076
:1053000000040140004001400044014000480140C9
:1053100000180040001C00400020004053544D3352
:1053200032463478785F5374645065726970685F90
:105330004472697665725C7372635C73746D333248
:10534000663478785F74696D2E63000070B504462A
:105350000D461948844226D0B4F1804F23D0174817
:10536000844220D0164884421DD0164884421AD068
:105370001548844217D01548844214D014488442FA
:1053800011D0144884420ED0134884420BD01348E5
:10539000844208D01248844205D01248844202D088
:1053A0001148844200D104E04FF4CB710FA001F00A
:1053B000C7FA656270BD00000000014000040040B3
:1053C00000080040000C00400010004000140040A5
:1053D00000040140004001400044014000480140F9
:1053E00000180040001C00400020004053544D3382
:1053F00032463478785F5374645065726970685FC0
:105400004472697665725C7372635C73746D333277
:10541000663478785F74696D2E63000070B5044659
:105420000D4600264348844226D0B4F1804F23D055
:105430004148844220D0414884421DD040488442A3
:105440001AD04048844217D03F48844214D03F4885
:10545000844211D03E4884420ED03E4884420BD054
:105460003D48844208D03D48844205D03C488442AF
:1054700002D03C48844200D104E040F21F113AA01F
:1054800001F05EFA688858B16888102808D06888EA
:10549000202805D06888402802D06888602800D17C
:1054A00004E04FF4907130A001F04AFA288938B135
:1054B0002889B0F5807F03D02889B0F5007F00D11E
:1054C00004E040F2211128A001F03AFA2688194898
:1054D00084420ED01D4884420BD0B4F1804F08D0D6
:1054E0001548844205D01548844202D014488442AD
:1054F00004D14FF68F7006406888064311488442F5
:1055000007D01148844204D04FF6FF400640288956
:10551000064326806868E062288820850548844222
:1055200002D00A48844201D1A87A20860120A082B4
:1055300070BD000000000140000400400008004071
:10554000000C004000100040001400400004014026
:105550000040014000440140004801400018004064
:10556000001C00400020004053544D333246347834
:10557000785F5374645065726970685F44726976CD
:1055800065725C7372635C73746D33326634787801
:105590005F74696D2E6300000EB5002000900190CD
:1055A00002901448FFF798FB642001900020ADF8AA
:1055B0000000ADF80800ADF8020069460D48FFF79D
:1055C0002DFF012242F2CF010A48FFF74DFE0121D3
:1055D0000848FFF779F901210648FFF7EFF90122A2
:1055E00011460448FFF786FC01210248FFF7B6FA8E
:1055F0000EBD0000000800400EB500200090019094
:1056000002901448FFF768FB4FF4FA600190002005
:10561000ADF80000ADF80800ADF8020069460D488D
:10562000FFF7FCFE012242F2CF010A48FFF71CFE01
:1056300001210848FFF748F901210648FFF7BEF9A4
:10564000012211460348FFF755FC01210148FFF7ED
:1056500085FA0EBD000400400EB50D48FFF73CFB77
:10566000C82001905320ADF800000020ADF80800DC
:10567000ADF8020069460648FFF7D0FE0121044854
:10568000FFF79CF9012211460148FFF733FC0EBDDC
:105690000018004010B506F099FB06F0AFFB10BDF6
:1056A00010B506F093FB40F224410B4800F0CCF912
:1056B00058B1094800F02EFC00210848FFF746FECB
:1056C00001210648FFF74AFA02E0054806F04CFAC5
:1056D00006F094FB10BD00000010014000180040CF
:1056E0009C07002010B506F071FB40F225510848D8
:1056F00000F0AAF948B1064800F00CFC0549087012
:1057000040F22551024800F071F806F077FB10BD19
:10571000004400402400002000B587B00121084665
:10572000FEF710FC01214804FEF74CFC4FF4E13079
:1057300003900020ADF81000ADF81200ADF8140091
:10574000ADF818000C20ADF81600C001FDF79EFD65
:1057500026208DF8000000208DF8020001208DF831
:10576000030000208DF801006846FDF723FD0722A5
:1057700002211948FDF74CF8072203211648FDF7CE
:1057800047F800208DF80A0001208DF80B00022058
:105790008DF808000420019002208DF8090001A96D
:1057A0000D48FCF75FFF02208DF8080008200190EB
:1057B00001A90948FCF756FF03A9084800F09EFA22
:1057C0000121064800F08AF8012240F225510348E1
:1057D00000F0ECF907B000BD0000024000440040BA
:1057E00010B506F0F3FA06F009FB10BD2DE9F04103
:1057F00004460D4600260027254884420ED0254841
:1058000084420BD02448844208D02448844205D0E6
:105810002348844202D02348844200D104E040F26D
:10582000995121A001F08CF840F2266085420BD0FE
:1058300040F22550854207D040F64600854203D00D
:1058400040F66A10854200D104E040F29A5116A059
:1058500001F076F840F66A10854211D10C48844276
:1058600008D00C48844205D00B48844202D00D4831
:10587000844200D104E040F29F510BA001F060F897
:105880002E120120B04087B2F8432080BDE8F0819D
:10589000001001400044004000480040004C00401F
:1058A000005000400014014053544D3332463478C8
:1058B000785F5374645065726970685F447269768A
:1058C00065725C7372635C73746D333266347878BE
:1058D0005F75736172742E630000000070B504463A
:1058E0000D46164884420ED0154884420BD0154808
:1058F000844208D01448844205D01448844202D01F
:105900001348844200D104E040F29B1111A001F041
:1059100017F80DB1012D00D104E04FF4CE710DA0A8
:1059200001F00EF825B1A08940F40050A08104E0F8
:10593000A0894DF6FF710840A08170BD00100140A4
:105940000044004000480040004C0040005000402F
:105950000014014053544D3332463478785F537409
:10596000645065726970685F4472697665725C73D1
:1059700072635C73746D3332663478785F7573610B
:1059800072742E630000000070B504460D46164682
:105990001A4884420ED01A4884420BD019488442D7
:1059A00008D01948844205D01848844202D01848CB
:1059B000844200D104E040F23B4116A000F0C0FF59
:1059C0004FF63F70284008B905B104E040F23C4171
:1059D00010A000F0B5FF0EB1012E00D104E040F29E
:1059E0003D410CA000F0ACFF1EB1A08A2843A0826C
:1059F00002E0A08AA843A08270BD00000010014010
:105A00000044004000480040004C0040005000406E
:105A10000014014053544D3332463478785F537448
:105A2000645065726970685F4472697665725C7310
:105A300072635C73746D3332663478785F7573614A
:105A400072742E63000000002DE9F04705460C46F5
:105A500000270026B046B146414885420ED0414855
:105A600085420BD04048854208D04048854205D049
:105A70003F48854202D03F48854200D104E04FF4C0
:105A8000AA613DA000F05CFF282C27D040F22770CF
:105A9000844223D040F2266084421FD040F2255039
:105AA00084421BD040F22440844217D040F6460086
:105AB000844213D040F66A1084420FD0B4F5587F68
:105AC0000CD040F22530844208D0B4F5587F05D080
:105AD000B4F5187F02D0B4F5B07F00D104E040F2F5
