:020000040800F2
:10000000C0CC012021E90008B51100080D37010816
:10001000B7110008BB110008BF1100080000000064
:10002000000000000000000000000000C3110008F4
:10003000C51100080000000093360108C90500083A
:100040003BE900083BE900083BE900083BE9000800
:100050003BE900083BE900083BE900083BE90008F0
:100060003BE900083BE900083BE900083BE90008E0
:100070003BE900083BE900083BE900083BE90008D0
:100080003BE900083BE900083BE900083BE90008C0
:10009000DD1100083BE900083BE900083BE90008E6
:1000A0003BE900083BE900083BE900083BE90008A0
:1000B0003BE90008FD1100083BE900083BE90008A6
:1000C0003BE900083BE900083BE900083BE9000880
:1000D0003BE90008C7110008D9110008DB1100082E
:1000E0003BE900083BE900083BE900083BE9000860
:1000F0003BE900083BE900083BE900083BE9000850
:100100003BE90008019102083BE900083BE90008CF
:100110003BE900083BE900083BE900083BE900082F
:100120003BE900083BE900083BE900081991020897
:100130003BE90008210E03083BE900083BE9000801
:10014000ED1100083BE900083BE900083BE9000825
:100150003BE900083BE900083BE900083BE90008EF
:100160003BE900083BE900083BE900083BE90008DF
:100170003BE900083BE900083BE900083BE90008CF
:100180003BE900083BE9000800F002F800F0B7F88E
:100190000AA090E8000C82448344AAF10107DA45E2
:1001A00001D100F0ACF8AFF2090EBAE80F0013F07D
:1001B000010F18BFFB1A43F001031847AC6A040093
:1001C000CC6A04000A444FF0000C10F8013B13F015
:1001D000070408BF10F8014B1D1108BF10F8015BA0
:1001E000641E05D010F8016B641E01F8016BF9D193
:1001F00013F0080F1EBF10F8014BAD1C0C1B09D1EA
:100200006D1E58BF01F801CBFAD505E014F8016B5B
:1002100001F8016B6D1EF9D59142D6D370470000ED
:100220000023002400250026103A28BF78C1FBD8FF
:10023000520728BF30C148BF0B6070476E2902F0DB
:100240009CA4702901F089A4662903F05FA66529A2
:1002500003F05CA6672903F059A6612903F058A6AC
:1002600003681B0A28BF41F08001692901F0FAA345
:10027000642901F0F7A3752901F0F4A36F2902F0B6
:100280004EA5782901F055A4E92902F0E9A4E42952
:1002900002F0E6A4F52902F0E3A4EF2902F04BA551
:1002A000F82901F054A40368DB0928BF41F080015C
:1002B000632902F0CCA2732902F0D1A2E32903F052
:1002C00021A1F32903F026A1002070471FB541F0BA
:1002D00036FD42F019FC04000020002143F0D4FD5B
:1002E000401C60600020002143F0FAFDE060002027
:1002F000002143F0DFFD20611FBD10B510BD42F0AD
:10030000DDFB1146FFF7E2FF00F088F842F024FC25
:1003100003B4FFF7F2FF03BC42F028FC0B49D1F80D
:1003200000C04A685CF8043B1068184442F8040BAB
:100330008C4528BFA1F1DC0C8A4228BFA1F1DC0268
:10034000C1F800C04A6020F000407047E4C50120B9
:1003500000BF4FF47A7012F09FFDFAE71CB501F070
:10036000FFFE14200821CB010022CDE90010AFF2DE
:100370001F010AA012F03FFC0446204612F0D4FBF5
:1003800000F099F840F0B2F83FF050FE29F0F0F993
:1003900031F014FA41F046F900201CBD696E697411
:1003A0000000000004460D4620A010F03AFF214650
:1003B00028A010F036FF29462BA010F032FF00BF16
:1003C000FEE710B500F0ACF910F05BFF0EF0C8FAD4
:1003D00011F069FF13F04DF828494FF0D84011F0A3
:1003E000B8F812F01AF9FFF7B9FF18F0B2F824A024
:1003F00017F028FC13F049F80EF063FD12F029F90C
:1004000010BD214B00FB03F1CB1701EB93739A1046
:1004100000BF111EA2F10102FBDC704710B513F002
:1004200021F9FFF7CEFF002010BD00000A0D205774
:10043000726F6E6720706172616D6574657220768F
:10044000616C7565206465746563746564206F6EA6
:100450000D0A00002020202020202066696C6520E5
:100460002025730D0A000000202020202020206C71
:10047000696E65202025640D0A0000000000106CE4
:1004800075617274310000004090020010B50FA039
:1004900010F0C7FE0923002201210DA010F0C1FEBB
:1004A0001348416813A010F0BCFE1148816818A0E1
:1004B00010F0B7FE10BD10B51C480D4908601CA017
:1004C00048601EA08860FFF7E1FF10BD0D0A000024
:1004D0002050726F6A6563742076657273696F6EFF
:1004E0003A2025642E25642E2564200D0A00000084
:1004F000000000202050726F6A6563742062756985
:100500006C6420646174653A202573200D0A000034
:100510002050726F6A656374206275696C64207420
:10052000696D653A202573200D0A0000090001005D
:100530004D617220203220323032300032333A3076
:10054000363A35320000000010B500214FF000604F
:1005500002F099F84FF4A06002F028F810BD7FB5C2
:10056000684606F063FF4FF47A710198B0FBF1F42E
:10057000E408C349019848612146B1F1807F00D366
:100580001DE021F07F40401E4FF0E02250615017E7
:100590000F22002807DA13071E0EBA4B00F00F05D2
:1005A0002D1F5E5503E013071D0EB74B1D5400BFF2
:1005B00000204FF0E02290610720106100BF6FF033
:1005C000040002F0A5F87FBD10B510F045FA0EF05A
:1005D000D6F910F050FA10BD10B59EB0062408A848
:1005E0001C9001A81D900FA805F07BF9042008902D
:1005F0000120099004200A9000200B900C9002200A
:100600000D9000200E900420019001200290042003
:10061000039000200490059002200690002007908F
:100620000F941090119010201290002013901490AD
:100630001590169017904FF4805018900020199044
:100640004FF480401A9000201B900FA804F0A9FFDF
:100650000121204605F09CF91EB010BD2DE9F041A6
:1006600005460E4614468948011501FB05070C2274
:100670003146384606F005FA0120B0402060214698
:10068000384605F0C1FEBDE8F0811CB50121782097
:1006900006F0E8FF0121084607F036F802208DF841
:1006A000040003208DF8050000208DF806008DF869
:1006B000070000240AE0764A02EB44025178744AAB
:1006C00012F814006A46FFF7C9FF641C2F2CF2D3FE
:1006D0001CBD10B50121080303F022F904F0B9FE96
:1006E000044604F0010068B104F0F0FD80224021CE
:1006F000002004F048FE00BF04F09CFE0828FBD157
:1007000004F0F1FD45F2555006F07CFA042006F0A5
:1007100088FA40F6FF7006F09BFA06F0A6FA10BDC4
:1007200070B5FFF7D6FF5B48006855490861FFF7D1
:100730000BFFFFF714FF00F0A9FD57A010F0E6FD36
:100740003FF066FE56A010F06CFD5DA010F069FD54
:1007500067A010F066FD6DA010F063FD72A010F0B0
:1007600060FD4C4874380068410C4548406A61F3AC
:10077000000043494862084690F8240000F0010058
:1007800018B171A010F04DFD02E076A010F049FD07
:100790003B4840697A49B0FBF1F4214679A010F05A
:1007A00040FD80A010F03DFD02231A46012189A0E2
:1007B00010F037FD0123002219468EA010F031FD04
:1007C0004FF49D6193A010F02CFD99A010F029FD2D
:1007D0003CA010F026FD9DA010F023FD65202849C7
:1007E0004860FFF752FFFFF7F7FE4FF0D845A1A092
:1007F00010F017FD002402E005F8014B641CB4F56D
:10080000801FF9D34FF0D84500240BE015F8011BE9
:10081000E0B2814205D029469BA010F002FD00BF46
:10082000FEE7641CB4F5801FF0D3A1A010F0F9FC22
:10083000002403E0002005F8010B641CB4F5801FC0
:10084000F8D301F020FB00F0DCFD401C20B99DA096
:1008500010F0E7FC00BFFEE7A0A010F0E2FC01F002
:1008600062F8401C18B9AAA010F0DBFC02E0AFA0AF
:1008700010F0D7FC01F0FCF9B5A010F0D2FC70BD6F
:10088000400C002018ED00E000E400E00000024011
:10089000373F0408743802407561727431000000FB
:1008A0000D0A0D0A0D0A0D0A0D0A0D0A0D0A0D0A90
:1008B0000D0A0D0A0D0A0D0A0D0A0D0A00000000AE
:1008C0000D0A0D0A2B2B2B2B2B2B2B2B2B2B2B2BF6
:1008D0002B2B2B2B2B2B2B2B2B2B2B2B2B2B2B2B68
:1008E0002B2B2B2B2B2B2B2B2B2B2B0D0A00000018
:1008F0002B2020202020202020202020205379730E
:1009000074656D496E6974200D0A00002B2020204B
:1009100020202020202020202020202020202020D7
:10092000202020200D0A00002B204D4355202020A0
:1009300020202020202020203A2053544D333246BE
:1009400034303720200D0A002B20436C6F636B205E
:10095000736F7572636520203A2048534520200D3F
:100960000A0000002B20436C6F636B20736F75725D
:10097000636520203A2048534920200D0A000000DA
:1009800040420F002B20535045454420202020207A
:10099000202020203A202564204D487A20200D0A6E
:1009A000000000002B204F5320202020202020205A
:1009B000202020203A20525420546872656164201F
:1009C0004F7065726174696E672053797374656DD9
:1009D0000D0A00002B204F53205665722020202046
:1009E000202020203A2025642E25642E25640D0A1F
:1009F000000000002B2042737056657220202020DA
:100A0000202020203A2025642E25642E25642020D5
:100A10000D0A00002B204275696C64436F756E747B
:100A2000732020203A20256420200D0A00000000B9
:100A30002B20434F50595249474854202020202012
:100A40003A20546F6E675965200D0A000D0A5B2A23
:100A50005D20425350204D6F64756C6520496E696E
:100A600074205374617274202E2E2E2E2E2E200D83
:100A70000A0000000D0A6D656D2074657374696E5F
:100A8000672E2E2E2E0000000D6D656D746573743B
:100A9000206661696C204020253038580D0A737932
:100AA0007374656D2068616C74212121212100001F
:100AB0000D0A6D656D207465737420706173732108
:100AC000210D0A000D0A535049204552523A205335
:100AD0005049204857204552522100000D0A5350DA
:100AE0004920494E464F3A20496E69742073756318
:100AF000636573732120466C61736820697320728B
:100B00006561647920666F7220757365210000004D
:100B10000D0A41543235204552523A20466C6173D9
:100B20006820485720455252210000000D0A4154C8
:100B3000323520494E464F3A20466C617368204951
:100B40006E69742073756363657373210000000020
:100B50000D0A52544320494E464F3A2052544320E6
:100B60004D6F64756C6520496E697420737563639D
:100B7000657373210000000038B50546EC6BA87D55
:100B800000F0100000283BD1E88A00F4807048B1E2
:100B90004022002160680FF0B4FF00206168086403
:100BA00061684864E88A00F40060002820D0A068EA
:100BB000006868B9002000902F23F44AF4A1FEA039
:100BC00010F02FFB00BF9DF800000028FBD000BFF5
:100BD0000020A1688860A168486010200090A1688A
:100BE00001F1440201F10C005023FBA111F020F9A6
:100BF000012120680DF0E8F8E88A40F01000E88252
:100C0000002038BD02460020704701460020704792
:100C10002DE9F05F80468B4616461F4635464FF05D
:100C20000009D8F83C40B8F8160000F4807048B3CA
:100C300025E012F017FD82466068006C6168496C1F
:100C4000884212D06068016C405C05F8010B7F1E81
:100C50006068006C401C616808646068006C402833
:100C600009D300206168086405E06FF0030950466D
:100C700012F0FCFC05E0504612F0F8FC00BF002F1B
:100C8000D7D10EE00AE003E02068808828706D1C50
:100C90002068008800F020000028F5D1A81BB84289
:100CA000F1D348460FF00CFFA81BBDE8F09FF8B544
:100CB00004460E4615466CB9002000908E23C74AA4
:100CC000C7A1BDA010F0ADFA00BF9DF8000000283C
:100CD000FBD000BF0021204603F0F4F8E660656019
:100CE0000121204603F0EEF8F8BD2DE9F84F8046CB
:100CF00091461F464FF0000A4E46D8F83C40B8F8DF
:100D0000160000F4806068B100200090A923BA4A60
:100D1000BAA1A9A010F085FA00BF9DF80000002834
:100D2000FBD068E0B8F8160000F40060002831D06D
:100D3000A16801F10C004FF0FF3111F0A2F9054656
:100D400015B96FF0040A24E02E606F600020A860DF
:100D500012F088FC8346A0688068E860A06880681C
:100D600010B1A06880688560A0688560A068406850
:100D700058B9A0684560A3685B685A68A3685B6857
:100D80001968A3681868FFF792FF584612F06EFCC6
:100D900000BF30E098F8160000F04000E0B118E025
:100DA00030780A2809D100BF2068008800F0800050
:100DB0000028F9D00D202168888000BF20680088B5
:100DC00000F080000028F9D0307821688880761CF7
:100DD0007F1E002FE4D10EE00BE000BF20680088EA
:100DE00000F080000028F9D0307821688880761CD7
:100DF0007F1E002FF1D150460FF062FEA6EB0900D6
:100E0000BDE8F88FF8B504460E46174674B90020C1
:100E100000904FF482737A4A7AA167A010F001FA29
:100E200000BF9DF800000028FBD000BFE56B012E3D
:100E30000AD0022E11D1E08A40F02000E082002189
:100E400028680CF0C1FF08E0E08A20F02000E08272
:100E5000012128680CF0B8FF00BF00BF0020F8BDDA
:100E6000F8B504460F4615461E4674B9002000909A
:100E700040F21F13674A68A14FA010F0D2F900BFDB
:100E80009DF800000028FBD000BF05F4007010B9E9
:100E900005F4806070B1002000904FF492735D4AB9
:100EA00056A145A010F0BDF900BF9DF80000002834
:100EB000FBD000BF00202075E06120625B486062CB
:100EC0005B48A0625B48E0625B4820635B4860630C
:100ED0005B48A063E663A8B240F0030239462046AF
:100EE0000DF094FDF8BDF8B50546EC6B40F22551C8
:100EF00020680DF026FC002846D0E88A00F48070B7
:100F000070B9002000904FF49F734E4A4EA12AA062
:100F100010F087F900BF9DF800000028FBD000BF4B
:100F200029E012F09FFB06462068808861684A6CC1
:100F300088546068406C401C616848646068406C1C
:100F4000402802D30020616848646068406C616892
:100F5000096C88420BD16068006C401C61680864B1
:100F60006068006C402802D3002061680864304645
:100F700012F07CFB00BF2068008800F020000028F1
:100F8000CFD140F2255173E090E00000953F040876
:100F9000756172742D3E646D615F74782D3E646D71
:100FA000615F6368616E6E656C20213D2052545F05
:100FB0004E554C4C000000002825732920617373A6
:100FC000657274206661696C6564206174202573A4
:100FD0003A2564200A000000646E0000A43F040863
:100FE000646D615F6368616E6E656C20213D2052A7
:100FF000545F4E554C4C0000B93F040830000000CF
:10100000C93F040864657620213D2052545F4E5547
:101010004C4C0000DB3F0408646576696365202161
:101020003D2052545F4E554C4C000000790B000897
:10103000050C00080B0C0008110C0008EB0C000854
:10104000050E0008F13F04086465766963652D3E6E
:10105000666C616720262052545F444556494345DB
:101060005F464C41475F494E545F525800000000B4
:1010700020680DF0F4FBE869C0B16068006C61683D
:10108000496C884207D96068006CC0F14000616813
:10109000496C084404E06068406C6168096C401A5F
:1010A000064631462846EA69904700BF40F226616D
:1010B00020680DF046FB20B140F2266120680DF05B
:1010C000CEFBF8BDF8B50546EC6BE88A00F400608D
:1010D00078B9002000904FF4BE73254A25A1AFF2E5
:1010E000281010F09EF800BF9DF800000028FBD0EB
:1010F00000BFA06846687EB9002000904FF4C0731E
:101100001B4A26A1AFF2501010F08BF800BF9DF8DB
:1011100000000028FBD000BF286A18B131682846BB
:101120002A6A904712F09EFA0746B068A1684860A4
:10113000A068406810B90020A1688860384612F0A5
:1011400095FA304611F01AF8A068406850B1A368CB
:101150005B685A68A3685B681968A3681868FFF73A
:10116000A6FD04E0A1680868002102F0ABFEF8BD0E
:10117000024004086465766963652D3E666C6167AC
:1011800020262052545F4445564943455F464C4112
:10119000475F444D415F5458000000006461746132
:1011A0005F6E6F646520213D2052545F4E554C4C5C
:1011B00000000000704700BFFEE700BFFEE700BF71
:1011C000FEE77047704710B50FF046FC1148FFF777
:1011D0008AFE0FF050FC10BD7047704710B50FF03D
:1011E0003BFC3FF090FA0FF046FC10BD10B50FF03D
:1011F00033FC3FF09EFA0FF03EFC10BD10B50FF02F
:101200002BFC012104480BF03CFF01F055F80FF0D6
:1012100032FC10BDC00C00200004004010B50121BC
:10122000084606F01FFA0121102006F00AFB10BD47
:101230001CB502208DF8040000208DF80600012066
:101240008DF8070000208DF805004FF4C060009075
:101250006946234805F0D8F807220921204805F0FF
:1012600010FC07220A211E4805F00BFC1CBD08B526
:1012700025208DF8000000208DF8020001208DF857
:101280000300684601F0ADF908BD70471FB5FFF7D0
:10129000C5FFFFF7CDFFFFF7EAFFFFF7F6FF1148A5
:1012A00000900020ADF80400ADF80600ADF808008D
:1012B000ADF80C000C20ADF80A0069460A480CF0A5
:1012C0003AFC0A4B40F2431209A10B48FFF7C8FD54
:1012D000012240F2255104480DF005F91FBD000020
:1012E00000000240F0CD0500001001400C0000207D
:1012F0007561727431000000C00C002000B585B02B
:101300001421684641F08BF80120684908800021CB
:10131000674808F0DBFD0020ADF800004FF4827054
:10132000ADF802000020ADF804000220ADF8060080
:101330000120ADF808004002ADF80A000020ADF829
:101340000C00ADF80E000720ADF8100069465848B3
:1013500008F0D0FB0121564808F0B8FD05B000BDEB
:101360001CB50020009001900121062006F07AF9BA
:1013700005220A214F4805F084FB052202214B4833
:10138000183805F07EFB052203214848183805F07F
:1013900078FB02208DF804008DF8050000208DF800
:1013A000060002208DF8070040020090694641487F
:1013B00005F02AF80820009069463C48183805F0E6
:1013C00023F80420009069463848183805F01CF8C6
:1013D000012000908DF8040000208DF80600032005
:1013E0008DF8050000208DF8070069462F48183851
:1013F00005F00AF81CBD10B50121880306F0F8F9C4
:1014000010BD10B5FFF7F7FFFFF7AAFFFFF776FF54
:10141000002010BD2DE9F04104460D4600270026AE
:1014200000BF0221204609F033F820B9781C074696
:1014300021498842F5D32946204608F00FFF00BF16
:101440000121204609F024F820B9701C06461A49EB
:101450008842F5D3204608F0E7FEC0B2BDE8F0812F
:101460002DE9F04104460D460027002600BF022169
:10147000204609F00DF820B9781C07460E4988422D
:10148000F5D32946204608F0E9FE00BF0121204699
:1014900008F0FEFF20B9701C064607498842F5D3C4
:1014A000204608F0C1FEBDE8F081000018080240A7
:1014B000003800400004024040420F0010B50446CE
:1014C0002146F848FFF7A6FF10BD10B50446214697
:1014D000F448FFF79FFF10BD00200A2000BF011E47
:1014E000A0F10102D0B2FAD1704710B50120EE4947
:1014F00008800620FFF7E9FF0120EB49891E0880DC
:10150000FFF7EAFF0120E8490880FFF7DEFF00202F
:10151000FFF7DBFF0120E449891E0880FFF7DCFFAD
:1015200010BD10B50520FFF7D0FFFF20FFF7C6FF65
:10153000DE490870FF20FFF7C1FFDC494870FF203B
:10154000FFF7BCFFD9490870FF20FFF7B7FFD74965
:10155000487010BD10B5D64C0120D349088000BF9B
:10156000FFF7DFFF601E041E0BD0D048007800F0AC
:1015700001000028F4D1CD48407800F00100002897
:10158000EED10120C849891E088004B110BD002099
:10159000FCE770B505460C4600260120C2490880CC
:1015A00000BF0A2011F078FCFFF7BBFF0DF0D9F95E
:1015B000C049086008460068A04204D30846006895
:1015C000001B086006E0C4F1FF30BA49096808440E
:1015D000B8490860012D06D0022D0BD0032D10D084
:1015E000042D1DD114E0B3480068B0F5FA7F00D98E
:1015F000012616E0AF480068B0F57A7F00D90126D1
:101600000FE0AC480068B0F5FA6F00D9012608E099
:10161000A84800684CF25031884200D9012600E009
:1016200000BF00BF5EB9A148007800F001000028AB
:10163000B7D19E48407800F001000028B1D10120C8
:101640009949891E08800EB1002070BD0120FCE779
:101650002DE9F04705460C4600260027B046B14666
:10166000042D02DD0020BDE8F087C4F30747C4F372
:10167000072804F0FF09FFF72FFF01208A4908809F
:101680000620FFF722FF01208749891E0880FFF707
:1016900023FF012D06D0022D18D0032D2AD0042DB2
:1016A00047D13BE00120804908802020FFF70DFF53
:1016B0003846FFF70AFF4046FFF707FF4846FFF7A7
:1016C00004FF01207849891E088032E00120764914
:1016D00008805220FFF7F9FE3846FFF7F6FE404635
:1016E000FFF7F3FE4846FFF7F0FE01206E49891E22
:1016F00008801EE001206C490880D820FFF7E5FE35
:101700003846FFF7E2FE4046FFF7DFFE4846FFF7A8
:10171000DCFE01206449891E08800AE0012062493C
:101720000880C720FFF7D1FE01205F49891E08808D
:1017300000BF00BFFFF7D0FE0DF013F95E4908604F
:10174000084601682846FFF724FF064630468AE728
:101750002DE9F84F04460D4616460027B846B9460F
:10176000BA46BB4600200090FF2E01D94FF4807688
:10177000B4F5804F01D8270202E00020BDE8F88FC1
:10178000C7F3074AC7F3072BF8B200900120464978
:1017900008800620FFF799FE01204349891E088032
:1017A000FFF79AFE0120404908800220FFF78DFED6
:1017B0005046FFF78AFE5846FFF787FE0098FFF76E
:1017C00084FE4FF0000805E015F8010BFFF77DFEE1
:1017D00008F10108B045F7D301203349891E08807C
:1017E000FFF77AFEFFF7B6FE81464846C6E72DE9C9
:1017F000F84F04460D4616464FF000080027B9463C
:10180000BA46BB4600200090FF2E01D94FF48076E7
:10181000B4F5804F01D8270202E00020BDE8F88F20
:10182000C7F3074AC7F3072BF8B20090FFF754FE3F
:1018300001201D4908800420FFF747FE01201A49B6
:10184000891E0880FFF748FE012017490880032001
:10185000FFF73BFE5046FFF738FE5846FFF735FED0
:101860000098FFF732FE4FF0000806E0FF20FFF778
:1018700025FE05F8010B08F10108B045F6D301205B
:101880000949891E0880FFF727FEFFF763FE81469E
:101890004846C3E72DE9F04105460E4600270024DF
:1018A00000BF10E0003800401A0802401C00002071
:1018B000A08601002000002024000020A01931494A
:1018C0000855601C84B2B4F5806FF7DBB5F5804F26
:1018D00000D82F026FF30B0739460120FFF7B8FE3F
:1018E0004FF4807227492846FFF732FF4FF4807289
:1018F00025492846FFF77BFF00240DE02148005DC5
:101900002149095D884205D0214620A00FF089FCBD
:1019100000BFFEE7601C84B2C82CEFDB25A00FF0EF
:1019200080FCBDE8F08108B50120294908809F208E
:10193000FFF7CBFDFF20FFF7C1FD8DF80000FF2072
:10194000FFF7BCFD8DF80100FF20FFF7B7FD8DF814
:101950000200FF20FFF7B2FD8DF8030001201C49B3
:10196000891E0880FFF7C1FD9DF800001F2805D1E2
:101970009DF80100482801D1002008BD4FF0FF303C
:10198000FBE7000000110020000D00200D6D656DCB
:1019900074657374206661696C20402025640D0AAB
:1019A00073797374656D2068616C74212121212124
:1019B000000000000D0A466C617368206D656D20A3
:1019C00074657374207061737321210D0A00000027
:1019D0001A080240F0B503460C461046002109E003
:1019E000C6B25F5C86EA070500121E4E36F8156027
:1019F0007040491CA142F3D3F0BD70B503460C46BC
:101A0000104600210CE05E5C86EA20254FF6FF764A
:101A100006EA0020144E36F8156070404E1CF1B2F4
:101A2000A142F0DB70BD30B502464FF6FF7001B940
:101A3000012111E012F8014B604000230AE000F0A0
:101A4000010424B140104AF20104604000E040105B
:101A50005C1CE3B2082BF2DB0C1EA1F10105E9B21C
:101A6000E8D130BD1A4004081A42040830B50146D6
:101A70004A69A2F146035A1CD41702EB9474A410CD
:101A8000C74D6C43C74D05FB0340C74C0A6954F86A
:101A9000222010440C69012C09DD9A1CD41702EB9A
:101AA0009474A410A2EB84040CB1BD4A801ACA68D5
:101AB000521EBB4C04FB02004FF461648A6804FBB5
:101AC00002003C244A6804FB02000A68104430BD4E
:101AD00002460020704710B50446002010BD2DE9D5
:101AE000F0418CB00746884615466FB9002000903B
:101AF0005423AE4AAEA1B2A00FF093FB00BF9DF8F5
:101B000000000028FBD000BFB8F1100F03D0B8F1DF
:101B1000110F4CD121E02E46B149002006F052FBB6
:101B2000B049002006F04DFCAD4880780190AC48EB
:101B300040780290AA4800780390AA484078401E56
:101B40000590A84880780490A648C0784630069052
:101B500001A8FFF78BFF306029E02E46012108071E
:101B600005F046FE012005F0CAF8304640F0F2FCD0
:101B7000044620789A49887020794870207A087045
:101B8000207C401C97494870207B8870207D463817
:101B9000C8709349002006F01DFA9249002006F013
:101BA00048FB4AF2A551012007F038FA00BF00BFF8
:101BB00000200CB0BDE8F08110B54FF48004012185
:101BC000080705F015FE012005F099F8012005F041
:101BD0005CFA00BF412005F0DAF910B9601E041E5E
:101BE000F8D114B94FF0FF3010BD4FF4807005F0FC
:101BF00088FCFF207C4908607F207C490860012028
:101C000005F002FD06F050F80020EDE710B5FFF7F3
:101C1000D3FF002802DA4FF0FF3010BD00207049DA
:101C200008704870887001206E49487088700020E4
:101C3000C870042008706D4800686D4948606A48A3
:101C40000068886000200860084606F0E9F86449EA
:101C5000012006F0BFF96349012006F0EAFA644862
:101C600006F0DEF810B94FF0FF30D6E70020D4E7D9
:101C700010B505205F490875012007F00CFA4AF2FB
:101C8000A55188420CD05CA00FF0CBFA60A00FF0F9
:101C9000C8FAFFF7BBFF28B169A00FF0C2FA10BD68
:101CA00006F002F80020534948626B488862002021
:101CB000C8626A4808630020486369488863002056
:101CC000C863032267A14B480CF0A0FE00BFE6E703
:101CD00038B504460020009062A00CF071FE054665
:101CE0003DB16A46102128460CF0EAFF0CB100987D
:101CF0002060009838BD2DE9F84306460F4690460F
:101D000000246846FFF7E4FF684640F023FC0446E1
:101D100034B1A6F26C706061781E2061C4F80C804A
:101D2000204640F03CFC00904EA00CF049FE0546D9
:101D300025B16A4611212846FFF7D1FEBDE8F88398
:101D40002DE9F84306460F46904600246846FFF703
:101D5000BFFF684640F0FEFB04461CB1A66067600A
:101D6000C4F80080204640F01AFC00903DA00CF022
:101D700027FE054625B16A4611212846FFF7AFFE2A
:101D8000BDE8F88338B56846FFF7A2FF684640F023
:101D9000D9FB0446214634A00FF043FA38BD0000B9
:101DA000805101008033E101380000208F44040895
:101DB00064657620213D2052545F4E554C4C000006
:101DC0002825732920617373657274206661696CBC
:101DD00065642061742025733A2564200A000000A0
:101DE00030000020340000202C00002028000020BB
:101DF000001500201C150020727463206973206E8A
:101E00006F7420636F6E666967757265640A00009F
:101E1000706C6561736520636F6E66696775726566
:101E20002077697468207365745F646174652061EC
:101E30006E64207365745F74696D650A000000004C
:101E400072746320636F6E66696775726520666180
:101E5000696C2E2E2E0D0A00D11A0008D71A000820
:101E6000DF1A00087274630025730A0010B501219F
:101E7000080705F0BDFC012004F041FF01218804A2
:101E800005F0F0FB10BD10B5022007F004F941F693
:101E90007511884219D0FFF7E9FF69486949086060
:101EA00082140021674800680EF02BFE012004F028
:101EB0006CFF00BF082004F0E4FF0028FAD041F6D0
:101EC0007511022007F0AAF804E0FFF7CFFF5C4885
:101ED0005C4908605CA00FF0A4F9002010BD70B54B
:101EE00004460D464FF6FF76324629462046FFF758
:101EF00071FD70BD2DE9F04707460C461546514867
:101F0000006801192A4638460EF01FFE2946384659
:101F1000FFF7E5FF06464FEA162806F0FF09494895
:101F200000682044405D404509D14648006820448F
:101F300028444078484502D10120BDE8F0870020C0
:101F4000FBE72DE9F04106460C461546294630468A
:101F5000FFF7C5FF07463B49096808192A4631467D
:101F60000EF0F3FD380A37490968214448553549D0
:101F70000968214429444F700120BDE8F08110B563
:101F800086B038A00FF04DF92D4944A00FF049F963
:101F90004FF480514AA00FF044F952A00FF041F9DC
:101FA000002447E02648211850A00FF03AF92448B1
:101FB0002044C079224921448979214A2244527916
:101FC0001F4B23441B79CDE90132CDE903101C4896
:101FD0002044C07800901A48204483781848204450
:101FE00042781748215C44A00FF01BF914482044A4
:101FF000C17B13482044807B114A2244527B104B02
:1020000023441B7BCDE90132CDE903010C48204478
:10201000C07A00900A482044837A09482044427AD2
:1020200007482044017A41A00FF0FBF84BA00FF0C5
:10203000F8F81034B4F5805FB4D306B010BD0000DA
:1020400000400240680000200D0A424B50205352CD
:10205000414D2028344B2920496E6974204F4B2173
:10206000000000000D0A20203D3D3D3D3D3D3D3D31
:102070003D3D3D3D205072696E74204261636B7539
:1020800070205352414D2044617461203D3D3D3DDF
:102090003D3D3D3D3D3D3D3D000000000D0A202001
:1020A0004261636B7570205352414D2042617365EC
:1020B0004164647220203A2030782530387800005E
:1020C0000D0A20204261636B7570205352414D20F0
:1020D00053697A652842797465293A202530386435
:1020E000000000000D0A0D0A0000000030782530C5
:1020F000387820202000000025303278202025303C
:102100003278202025303278202025303278202067
:102110002530327820202530327820202530327842
:102120002020253032782020000000002530327831
:10213000202025303278202025303278202025308C
:102140003278202025303278202025303278202027
:102150002530327820202530327800000D0A00002A
:102160001CB51BA00FF05DF80121102005F07AFAD4
:1021700001208DF8040000208DF8060002208DF863
:10218000050000208DF807000420009069461B48D8
:1021900004F03AF91CBD10B50421184804F05BFBAB
:1021A00010BD10B50421154804F086FB10BD10B514
:1021B0001348007828B1FFF7EEFF0020104908709F
:1021C00004E0FFF7EEFF01200D49087010BD00008C
:1021D0000D0A486172645765617220646F6720431D
:1021E00068616E616C73204750494F20636F6E6663
:1021F00069677572652E2E2E2E2E2E00001002405D
:102200006C0000200146C81D20F007007047014601
:1022100014480068084470472DE9F041044611480D
:1022200006680025002710F04CFC10B1012710F0C3
:10223000CFFA14B90020BDE8F0812046FFF7E2FF95
:1022400004462046FFF7E3FF05460748006885423D
:1022500001D90020EFE7034805600FB110F0C6FA7E
:102260003046E8E7700000207400002010B54A48AE
:102270000DF01BF849480088401C80B2474908808F
:10228000052190FBF1F201FB120028B9002043491F
:10229000088043480DF009F842480088401C80B28D
:1022A00040490880642190FBF1F201FB120010B953
:1022B00000203C49088010BD10B53FF005FA10BD64
:1022C00000203949086070470EB500200090019049
:1022D00002903548243808F07FFA4FF4FA600190F4
:1022E0000020ADF80000ADF80800ADF80200694626
:1022F0002D48243808F04CFB012242F2CF012A4835
:10230000243808F0D9FB01212748243808F0E9FDDA
:102310000121254824380AF021FE012211462248D5
:1023200024380AF011FD01211F48243808F0CAFEA4
:102330000EBD08B51E208DF8000001208DF80100AB
:1023400000208DF8020001208DF80300684600F09F
:1023500048F91D208DF8000001208DF801000020B3
:102360008DF8020001208DF80300684600F039F96D
:1023700008BD10B50121042005F03AFA0121022020
:1023800005F036FA10BD10B5FFF7F3FFFFF7D1FFE8
:10239000FFF79AFF10BD00005C1500207A000020B6
:1023A0007C15002078000020240400400CB500209B
:1023B000019000907248006840F4803070490860D5
:1023C00000BF6F48006800F4003000900198401C86
:1023D0000190009818B90198B0F5A06FF1D1684844
:1023E000006800F4003010B10120009001E00020EE
:1023F00000900098012846D161484030006840F0C4
:1024000080505F49403108605E48006840F4804079
:102410005C4908605A48083000685949083108602A
:102420000846006840F4004008600846006840F430
:10243000A05008605448091F0860081F006840F059
:102440008070091F086000BF4D48006800F00070F0
:102450000028F9D040F205604C490860484808302F
:10246000006820F00300464908310860084600680B
:1024700040F00200086000BF41480830006800F0EA
:102480000C000828F8D10CBD10B53D48006840F09C
:1024900001003B490860002039490831086038488C
:1024A00000683B490840364908603A48091D086001
:1024B000081F006820F48020091F086000203049B0
:1024C0000C310860FFF772FF4FF00060324908607E
:1024D00010BD70B500200022022300240221284DE7
:1024E00008352D6805F00C0020B1042806D0082816
:1024F00034D107E0294D2A4E356033E0294D284E6E
:1025000035602FE01E4D2D1D2D68C5F380541C4DE8
:102510002D1D2D6805F03F0154B1224DB5FBF1F59D
:10252000174E361D3668C6F3881605FB06F209E01D
:102530001A4DB5FBF1F5124E361D3668C6F38816F6
:1025400005FB06F20E4D2D1D2D68C5F301456D1CD2
:102550006B00B2FBF3F5124E356003E00F4D104EE9
:10256000356000BF00BF064D08352D68C5F3031563
:102570000D4E705D0A4D2D68C540094E356070BD29
:10258000003802400070004008544007003C024000
:10259000FFFFF6FE1030002408ED00E00024F400F8
:1025A0007C00002000127A008000002010B5044654
:1025B000B4F5E06F0BD0B4F5C06F08D0B4F5A06FE0
:1025C00005D0B4F5806F02D0B4F5407F00D103E0B0
:1025D00073215FA0FDF7E6FE694820436949086062
:1025E00010BD2DE9F0410446002500270F26E078B4
:1025F00010B1E078012800D103E0872154A0FDF755
:10260000D1FE6078102800DA03E0882150A0FDF7A1
:10261000C9FEA078102800DA03E089214CA0FDF75C
:10262000C1FEE07818B35748006800F4E060C0F5D8
:10263000E060C0F30725C5F10400C7B22E41607801
:10264000B840C5B2A078304005432807050E4E4873
:1026500021784554207800F01F010120884021781E
:102660004911890001F1E021C1F8000109E0207859
:1026700000F01F010120884044492278521141F89E
:102680002200BDE8F08170B504460D46B4F1005F4C
:1026900002D0B4F1006F00D103E0B1212CA0FDF70E
:1026A00081FE3B48854200D203E0B22128A0FDF71D
:1026B00079FE384905EA010020433249091F0860C4
:1026C00070BD70B504460D46102C03D0042C01D00B
:1026D000022C00D103E0C4211DA0FDF763FE0DB163
:1026E000012D00D103E0C52119A0FDF75BFE3DB12E
:1026F0002448001D006820432249091D086006E0A7
:102700002048001D0068A0431E49091D086070BDD7
:1027100010B50446042C01D0601D00B903E0DC2193
:102720000BA0FDF73FFE042C08D14FF0E02000691C
:1027300040F004004FF0E021086107E04FF0E02096
:10274000006920F004004FF0E021086110BD000096
:102750004C69627261726965735C53544D333246E1
:102760003478785F5374645065726970685F44723E
:10277000697665725C7372635C6D6973632E630066
:102780000000FA050CED00E000E400E080E100E06C
:10279000FFFF0F0080FFFF1F10B50446FC48844276
:1027A00002D0FC48844200D103E0A521FAA0FDF745
:1027B000F9FDF748844209D10121480605F0E5F802
:1027C00000214FF0007005F0E0F808E001218806D4
:1027D00005F0DBF800214FF0806005F0D6F810BD61
:1027E0002DE9F04104460D4600270026E8488442C2
:1027F00002D0E848844200D103E0C521E6A0FDF7FD
:10280000D1FDA87910B1A879012800D103E0C62133
:10281000E1A0FDF7C7FDE87910B1E879012800D102
:1028200003E0C721DCA0FDF7BDFD287A10B1287AAE
:10283000012800D103E0C821D7A0FDF7B3FD687AD5
:1028400010B1687A012800D103E0C921D2A0FDF7B8
:10285000A9FDA87A10B1A87A012800D103E0CA2105
:10286000CDA0FDF79FFDE87A10B1E87A012800D1EC
:1028700003E0CB21C8A0FDF795FDA87840B1A8786A
:10288000012805D0A878022802D0A878032800D112
:1028900003E0CC21C0A0FDF785FDE87840B1E878E1
:1028A000012805D0E878022802D0E878032800D172
:1028B00003E0CD21B8A0FDF775FD28790F2800DCD5
:1028C00003E0CE21B4A0FDF76DFD6879072800DC98
:1028D00003E0CF21B0A0FDF765FD2888012804DBC7
:1028E0002888B0F5806F00DC03E0D021AAA0FDF7B6
:1028F00059FD206820F002002060206840F00100AF
:10290000206000E0761C606800F0010018B94FF606
:10291000FF708642F6D1606800F0010008B9002718
:102920006CE0A879012804D1206840F08000206084
:1029300003E0206820F080002060E879012804D1BD
:10294000206840F04000206003E0206820F0400054
:102950002060287A012804D1206840F020002060FF
:1029600003E0206820F020002060687A012804D16C
:10297000206840F01000206003E0206820F0100084
:102980002060A87A012804D1206840F00800206067
:1029900003E0206820F008002060E87A012804D1D4
:1029A000206840F00400206003E0206820F004006C
:1029B0002060A8788007E97840EA0160297940EA38
:1029C0000140697940EA01502988491E0843E061C5
:1029D000206820F001002060002600E0761C60687E
:1029E00000F0010018B14FF6FF708642F6D1606822
:1029F00000F0010008B1002700E001273846BDE8DB
:102A0000F08170B504460025A07A1B2800DC04E0A4
:102A100040F24D1160A0FDF7C5FCE07A10B1E07AFC
:102A2000012800D104E04FF4A7715BA0FDF7BAFCC8
:102A3000207B10B1207B012800D104E040F24F112F
:102A400055A0FDF7AFFC208910B12089012800D1E5
:102A500004E04FF4A87150A0FDF7A4FC607B10B116
:102A6000607B012800D104E040F251114AA0FDF73B
:102A700099FCA17A012000FA01F55648006840F05F
:102A800001005449086053481C300068A84351496C
:102A90001C310860207BC8B94E480C300068A84340
:102AA0004C490C3108606088E18840EA014149489E
:102AB0004030A27A40F832102088A18840EA0141D3
:102AC00044484030A27A00EBC2004160207B0128DC
:102AD00019D140480C30006828433E490C31086049
:102AE0006088218840EA01413A484030A27A40F8A3
:102AF0003210E088A18840EA014136484030A27A8D
:102B000000EBC2004160E07A38B93248001D00682D
:102B1000A8433049091D086006E02E48001D0068E2
:102B200028432C49091D0860208930B929481430F0
:102B30000068A8432749143108602089012806D17C
:102B40002448143000682843224914310860607B0F
:102B5000012806D11F481C30006828431D491C313C
:102B600008601C48006820F001001A49086070BD28
:102B700000218171C171017241728172C1728170D3
:102B8000C17003210171022141710121018070474F
:102B900000640040006800404C69627261726965BF
:102BA000735C53544D3332463478785F53746450B9
:102BB00065726970685F4472697665725C7372638E
:102BC0005C73746D3332663478785F63616E2E6344
:102BD000000000000066004010B50446012C02DB36
:102BE0001B2C00DC05E04FF4E971AFF25400FDF757
:102BF000D9FBF848006840F00100F6490860084633
:102C0000006843F60E718843F24908600846006880
:102C100040EA042008600846006820F001000860CF
:102C200010BD70B504460D46EB48844202D0EB4817
:102C3000844200D105E040F2EB11AFF2A400FDF7B1
:102C4000B1FB0DB1012D00D105E04FF4F671AFF2EB
:102C5000B800FDF7A7FB25B1206840F48030206064
:102C600003E0206820F48030206070BD70B5044619
:102C70000D46D948844202D0D848844200D105E0AC
:102C800040F20921AFF2F000FDF78CFB0DB1012DF0
:102C900000D105E040F20A21AFF20410FDF782FBFB
:102CA000C5B1206840F0800020604FF4C270005928
:102CB00040F480714FF4C2700151D4F8940140F493
:102CC0008071C4F89411D4F8A40140F48071C4F860
:102CD000A41117E0206820F0800020604FF4C2703B
:102CE000005920F480714FF4C2700151D4F894015E
:102CF00020F48071C4F89411D4F8A40120F48071F8
:102D0000C4F8A41170BD70B505460C460026B24843
:102D1000854202D0B148854200D105E04FF41071E0
:102D2000AFF28C10FDF73EFB207A10B1207A042818
:102D300000D105E040F24121AFF2A410FDF732FBD3
:102D4000607A10B1607A022800D105E040F2422199
:102D5000AFF2BC10FDF726FBA07A082800DC05E0E6
:102D600040F24321AFF2D010FDF71CFBA86800F041
:102D70008060B0F1806F01D1002610E0A86800F0FB
:102D80000060B0F1006F01D1012608E0A86800F0F2
:102D90008050B0F1805F01D1022600E00426042EAD
:102DA0007ED005F5C07000EB0610006800F0010150
:102DB00005F5C07000EB06100160207AD0B92068DC
:102DC000B0F5006F00D205E040F25D21AFF238208F
:102DD000FDF7E8FA607A218840EA415005F5C071B4
:102DE00001EB06110968084305F5C07101EB0611F6
:102DF00008601BE06068B0F1005F00D205E040F2BF
:102E00006321AFF26C20FDF7CDFA207A616840EAC9
:102E1000C100617A084305F5C07101EB061109682C
:102E2000084305F5C07101EB06110860A07A00F0B7
:102E30000F00A07205F5C07000EB0610406820F08E
:102E40000F0105F5C07000EB0610416005F5C0707C
:102E500000EB06104068A17A084305F5C07101EB4C
:102E600006114860A07B0106607B41EA0041207B9F
:102E700041EA0020E17A084305F5C07101EB061133
:102E80008860A07C0106607C41EA0041207C41EA28
:102E90000020E17B084305F5C07101EB061100E05D
:102EA0000CE0C86005F5C07000EB0610006840F04B
:102EB000010105F5C07000EB06100160304670BDE1
:102EC00070B504460D4600264348844202D043486C
:102ED000844200D105E040F28921AFF24430FDF791
:102EE00061FA022D00DC05E040F28A21AFF2583091
:102EF000FDF758FA25B1012D07D0022D0FD109E0B9
:102F0000A068374900EA01060BE0A068354900EAED
:102F1000010606E0A068344900EA010601E0002647
:102F200000BF00BF3149701A8E4216D007DC86B14F
:102F30006FF08060304470B1022818D111E0B0F514
:102F4000007F10D02A49084448B1B0F5003F0ED1A7
:102F50000BE002260DE000260BE0002609E000262B
:102F600007E0012605E0012603E0012601E0002636
:102F700000BF00BFF0B270BD70B504460D461648E4
:102F8000844202D01548844200D105E040F2BD21C0
:102F9000AFF2FC30FDF706FA022D00DC05E040F24E
:102FA000BE21AFF20C40FDF7FDF925B1012D07D090
:102FB000022D1FD109E0A06840F08000A0601AE057
:102FC000A06840F40040A06015E0A06840F4000054
:102FD000A06010E00066004000640040006800400F
:102FE00003000004000300080000031000010008B3
:102FF0000001FFF700BF00BF70BD70B504460D466D
:103000001646FE48844202D0FD48844200D105E0C5
:103010004FF43B71AFF28040FDF7C4F90DB1012DC3
:1030200000D105E040F2ED21AFF29440FDF7BAF98E
:1030300004F5D87000EB0510006800F00400307251
:10304000307A50B904F5D87000EB0510006840F2F2
:10305000FF7101EA5050306009E004F5D87000EBD0
:10306000051000686FF0604101EAD000706004F55F
:10307000D87000EB0510006800F00200707204F5D3
:10308000D87000EB0510406800F00F00B07204F536
:10309000D87000EB05104068000AF07404F5D87091
:1030A00000EB05108068F07204F5D87000EB051095
:1030B0008068010A317304F5D87000EB0510806850
:1030C000010C717304F5D87000EB05108068000ED8
:1030D000B07304F5D87000EB0510C068F07304F508
:1030E000D87000EB0510C068010A317404F5D8707F
:1030F00000EB0510C068010C717404F5D87000EB8A
:103100000510C068000EB07425B9E06840F02000DA
:10311000E06003E0206940F02000206170BD70B5E0
:1031200004460D46B548844202D0B548844200D1D9
:1031300005E040F21D31AFF2A050FDF733F90DB1BB
:10314000012D00D105E040F21E31AFF2B450FDF781
:1031500029F925B9E06840F02000E06003E020692B
:1031600040F02000206170BD70B504460D46002679
:10317000A248844202D0A248844200D105E040F235
:103180003531AFF2EC50FDF70DF90DB1012D00D145
:1031900005E040F23631AFF20060FDF703F91DB9EA
:1031A000E06800F0030606E0012D03D1206900F07D
:1031B000030600E00026304670BD2DE9F0410446CC
:1031C0000D4600274FF6FF768C48844202D08C488B
:1031D000844200D105E040F26B31AFF24460FDF76C
:1031E000E1F81DB1012D01D0022D00D105E04FF411
:1031F0005B71AFF25C60FDF7D5F8BDB9206820F0D7
:10320000020040F00100206000E0761E606800F0DF
:103210000300012801D0002EF7D1606800F0030000
:10322000012801D0002732E0012730E0012D13D121
:10323000206820F00300206000E0761E606800F047
:10324000030008B1002EF8D1606800F0030008B157
:1032500000271CE001271AE0022D17D1206820F07A
:10326000010040F00200206000E0761E606800F07F
:103270000300022801D0002EF7D1606800F003009F
:10328000022801D0002702E0012700E0002738468D
:10329000BDE8F08170B5044600255848844202D04C
:1032A0005748844200D105E040F2B931AFF21870BE
:1032B000FDF778F8206820F0010040F0020020605F
:1032C000606800F00300022800D10125284670BD87
:1032D00070B504464FF6FF7500264848844202D078
:1032E0004748844200D105E040F2D331AFF2587034
:1032F000FDF758F8206820F00200206000E06D1E05
:10330000606800F00200022801D1002DF7D160684A
:1033100000F00200022800D00126304670BD70B5D2
:10332000044600253548844202D03548844200D105
:1033300005E04FF48261AFF2A070FDF733F8A069A9
:1033400000F07005284670BD70B5044600252B4876
:10335000844202D02A48844200D105E040F229414B
:10336000AFF2CC70FDF71EF8A069050E284670BDBF
:1033700070B5044600252148844202D0204884428A
:1033800000D105E040F23D41AFF2F470FDF70AF8DC
:10339000A069C0F30745284670BD70B505460C46C8
:1033A00016461648854202D01548854200D105E0F0
:1033B00040F20A51AFF62000FCF7F4FF012C25D0B3
:1033C000022C23D0042C21D0082C1FD0102C1DD06F
:1033D000202C1BD0402C19D0B4F5807F16D0B4F52A
:1033E000007F13D0B4F5806F10D0B4F5006F0DD00E
:1033F000B4F5004F0AD0B4F5803F03E0006400400C
:103400000068004002D0B4F5003F00D105E040F272
:103410000B51AFF67C00FCF7C5FF0EB1012E00D1B9
:1034200005E040F20C51AFF69000FCF7BBFF1EB177
:1034300068692043686102E06869A043686170BD03
:1034400070B505460C460026FA48854202D0FA4877
:10345000854200D105E040F23451AFF6C400FCF7DC
:10346000A1FFF64884422DD0F54884422AD0801E20
:10347000844227D0401E844224D0F248844221D086
:10348000F14884421ED0F048083884421AD0EF48F0
:10349000844217D0EE48844214D0ED480838844264
:1034A00010D0EC4884420DD0EB4884420AD0EB485F
:1034B000844207D0E948FF38844203D0E1480A300B
:1034C000844200D105E040F23551AFF63410FCF7EC
:1034D00069FF04F4700040B1A869C4F31301084007
:1034E00008B101262DE000262BE004F0807040B1E9
:1034F0006868C4F31301084008B1012621E00026E2
:103500001FE004F0006040B1A868C4F31301084054
:1035100008B1012615E0002613E004F0007040B168
:10352000E868C4F31301084008B1012609E0002649
:1035300007E02869C4F31301084008B1012600E040
:103540000026304670BD70B505460C460026B948C9
:10355000854202D0B848854200D105E040F297513B
:10356000AFF6CC10FCF71EFFB44884421ED0BA4818
:1035700084421BD0B948844218D0B848FF388442EE
:1035800014D0B1480838844210D0AF4884420DD0DE
:10359000AF480838844209D0AD48844206D0A948D3
:1035A000844203D0A7480A30844200D105E04FF49A
:1035B000B361AFF61C20FCF7F5FEA048844202D1AF
:1035C0000020A86111E0C4F3130604F0007008B1F4
:1035D000EE600AE004F0806008B12E6105E004F0BE
:1035E000006008B1AE6000E06E6070BD0246002071
:1035F00002EA01030BB1012000E00020704770B522
:1036000004460D4600268B48844202D08A488442F4
:1036100000D105E040F2D351AFF68420FCF7C2FEA2
:10362000012D20D0022D1ED0042D1CD0082D1AD023
:10363000102D18D0202D16D0402D14D0B5F5807F38
:1036400011D0B5F5007F0ED0B5F5806F0BD0B5F574
:10365000006F08D0B5F5004F05D0B5F5803F02D01A
:10366000B5F5003F00D105E040F2D451AFF6D820C7
:10367000FCF798FE60692840002871D0B5F5807F7E
:103680005CD010DC082D35D006DC012D20D0022DB9
:1036900024D0042D72D127E0102D31D0202D35D02B
:1036A000402D6BD138E0B5F5004F60D009DCB5F5A1
:1036B000007F49D0B5F5806F4CD0B5F5006F5DD176
:1036C0004FE0B5F5803F2DD0B5F5003F56D12FE046
:1036D000A0686349FFF78AFF064651E0E0680321CE
:1036E000FFF784FF06464BE0E0680821FFF77EFF06
:1036F000064645E0E0681021FFF778FF06463FE008
:1037000020690321FFF772FF064639E0206908218E
:10371000FFF76CFF064633E020691021FFF766FFD4
:1037200006462DE060680821FFF760FF064627E0A7
:1037300060681021FFF75AFF064621E0A0690121C9
:10374000FFF754FF06461BE0A0690221FFF74EFF7A
:10375000064615E0A0690421FFF748FF06460FE082
:103760000FE0A0697021FFF741FF064608E060689E
:103770000421FFF73BFF064602E0FFE7002600BFFB
:1037800000E00026304670BD70B504460D4629485D
:10379000844202D02848844200D105E040F23A61D8
:1037A000AFF60C40FCF7FEFD012D1CD0042D1AD005
:1037B000082D18D0202D16D0402D14D0B5F5807FBF
:1037C00011D0B5F5007F0ED0B5F5806F0BD0B5F5F3
:1037D000006F08D0B5F5004F05D0B5F5803F02D099
:1037E000B5F5003F00D105E040F23B61AFF658402F
:1037F000FCF7D8FDB5F5007F53D00FDC202D41D06C
:1038000006DC012D35D0042D36D0082D59D136E0F7
:10381000402D3AD0B5F5807F53D13FE0B5F5004F4C
:103820004AD01FDCB5F5806F3ED0B5F5006F48D1AA
:103830003DE0000000640040006800407000F0308F
:103840000400F010080000311000003203000012E4
:10385000100000340300001400000138000100389B
:1038600001010100B5F5803F12D0B5F5003F28D128
:1038700011E01548A06025E00820E06022E010205B
:10388000E0601FE0082020611CE01020206119E0AA
:103890000820606016E01020606013E00420606083
:1038A00010E0042060600DE0042060600AE0002069
:1038B000A0610420606005E00020A0610420606039
:1038C00000E000BF00BF70BD010101003548006885
:1038D000000C704733480068C0F30B00704770B5A8
:1038E00004460D4624F0070008B904B103E0512155
:1038F0002DA0FCF757FD0DB1012D00D103E05221A1
:1039000029A0FCF74FFD2DB12648406820432549EA
:10391000486004E023484068A0432249486070BDE5
:1039200070B504460D462F48204008B904B103E0A5
:1039300078211DA0FCF736FD0DB1012D00D103E06B
:10394000792119A0FCF72EFD2DB11648806820437F
:103950001449886004E013488068A04311498860D6
:1039600070BD70B504460D461F48204008B904B12B
:1039700003E095210CA0FCF715FD0DB1012D00D140
:1039800003E0962108A0FCF70DFD2DB10548C068A5
:1039900020430449C86004E00248C068A0430149CC
:1039A000C86070BD002004E04C6962726172696594
:1039B000735C53544D3332463478785F537464509B
:1039C00065726970685F4472697665725C73726370
:1039D0005C73746D3332663478785F6462676D63EC
:1039E000752E630000E21FF9FCFFF8FF10B50446D6
:1039F000FE4884423AD0FD481830844236D0FB4815
:103A00003030844232D0F948483084422ED0F748D2
:103A1000603084422AD0F5487830844226D0F3487A
:103A20009030844222D0F148A83084421ED0F04821
:103A300084421BD0EE481830844217D0EC48303016
:103A4000844213D0EA48483084420FD0E8486030BE
:103A500084420BD0E6487830844207D0E448903066
:103A6000844203D0E248A830844200D103E0BF2161
:103A7000E0A0FCF797FC206820F001002060002007
:103A800020606060A060E060206121206061D74814
:103A9000844204D13D20D549103988608CE0D34858
:103AA0001830844205D14FF47460D04910398860D1
:103AB00082E0CE483030844205D14FF47410CB49B7
:103AC0001039886078E0C9484830844205D14FF009
:103AD0007460C649103988606EE0C4486030844222
:103AE00004D1D348C1491039C86065E0BF48783077
:103AF000844204D1CF48BD491039C8605CE0BB485E
:103B00009030844204D1CC48B8491039C86053E0A1
:103B1000B648A830844205D14FF03D50B349103922
:103B2000C86049E0B248844204D13D20B049083918
:103B3000086041E0AE481830844205D14FF474600B
:103B4000AB490839086037E0A9483030844205D1D4
:103B50004FF47410A649083908602DE0A448483095
:103B6000844205D14FF07460A1490839086023E010
:103B70009F486030844204D1AD489D49091F0860C8
:103B80001AE09B487830844204D1AA489849091F1A
:103B9000086011E096489030844204D1A6489449C8
:103BA000091F086008E09248A830844204D14FF011
:103BB0003D508F49091F086010BD70B505460C4681
:103BC00000268A4885423AD088481830854236D047
:103BD00086483030854232D08448483085422ED0E5
:103BE0008248603085422AD080487830854226D08D
:103BF0007E489030854222D07C48A83085421ED035
:103C00007B4885421BD07A481830854217D07848C7
:103C10003030854213D07648483085420FD0744802
:103C2000603085420BD072487830854207D07048AA
:103C30009030854203D06E48A830854200D104E020
:103C40004FF49E716BA0FCF7ADFB2068D8B12068E3
:103C5000B0F1007F17D02068B0F1806F13D02068DA
:103C6000B0F1C06F0FD02068B0F1006F0BD02068AA
:103C7000B0F1206F07D02068B0F1406F03D020680A
:103C8000B0F1606F00D104E040F23D1159A0FCF7A3
:103C900089FBE06828B1E068402802D0E06880280D
:103CA00000D104E04FF49F7152A0FCF77BFB206928
:103CB00020B12069B0F5803F00D204E040F23F110E
:103CC0004CA0FCF76FFB6069B0F5007F01D0606924
:103CD00000B904E04FF4A07146A0FCF763FBA069B3
:103CE000B0F5806F01D0A06900B904E040F2411145
:103CF00040A0FCF757FBE06938B1E069B0F5006F10
:103D000003D0E069B0F5805F00D104E04FF4A17109
:103D100038A0FCF747FB206A38B1206AB0F5005F95
:103D200003D0206AB0F5804F00D104E040F2431187
:103D300030A0FCF737FB606A18B1606AB0F5807F8D
:103D400000D104E04FF4A2712AA0FCF72BFBA06A7B
:103D500058B1A06AB0F5803F07D0A06AB0F5003F27
:103D600003D0A06AB0F5403F00D104E040F2451115
:103D700020A0FCF717FBE06A10B1E06A042800D12C
:103D800004E04FF4A3711BA0FCF70CFB206B40B1C7
:103D9000206B012805D0206B022802D0206B03285D
:103DA00000D104E040F2471112A0FCF7FBFA606B6F
:103DB00058B1606BB0F5000F07D0606BB0F1807F39
:103DC00003D0606BB0F1C07F00D104E04FF4A47168
:103DD00008A0FCF7E7FAA06B80B3A06BB0F5001F5A
:103DE00031D0A06BB0F5800F2DD028E010600240DC
:103DF000106402404C69627261726965735C53546D
:103E00004D3332463478785F53746450657269700C
:103E1000685F4472697665725C7372635C73746D1B
:103E20003332663478785F646D612E630000000081
:103E30003D000020400F002000003D2003E0A06B6B
:103E4000B0F5C00F00D105E040F24911AFF25C00BF
:103E5000FCF7A8FA2E68FE480640E168206808438F
:103E600061690843A1690843E1690843216A08437D
:103E7000616A0843A16A0843616B0843A16B084368
:103E800006432E606E6926F00706D4E90B0108434D
:103E900006436E61206968606068A860A068E86099
:103EA00070BD0021016041608160C16001614161BC
:103EB0008161C161016241628162C16201634163EA
:103EC0008163704770B504460D46E24884423AD09B
:103ED000E0481830844236D0DE483030844232D058
:103EE000DC48483084422ED0DA48603084422AD000
:103EF000D8487830844226D0D6489030844222D0A8
:103F0000D448A83084421ED0D34884421BD0D24823
:103F10001830844217D0D0483030844213D0CE4875
:103F2000483084420FD0CC48603084420BD0CA481D
:103F30007830844207D0C8489030844203D0C648C5
:103F4000A830844200D105E040F2D911AFF25C10F4
:103F5000FCF728FA0DB1012D00D105E04FF4ED7109
:103F6000AFF27010FCF71EFA25B1206840F0010096
:103F7000206003E0206820F00100206070BD70B573
:103F800004460D46B34884423AD0B24818308442C1
:103F900036D0B0483030844232D0AE4848308442C7
:103FA0002ED0AC48603084422AD0AA48783084426F
:103FB00026D0A8489030844222D0A648A830844217
:103FC0001ED0A54884421BD0A3481830844217D085
:103FD000A1483030844213D09F48483084420FD0EB
:103FE0009D48603084420BD09B487830844207D093
:103FF00099489030844203D09748A830844200D139
:1040000005E040F2FD11AFF21420FCF7CBF915B139
:10401000B5F5004F00D105E04FF4FF71AFF22C2051
:10402000FCF7C0F925B1206840F40040206003E0AF
:10403000206820F40040206070BD70B504460D4635
:10404000844884423AD083481830844236D081482C
:104050003030844232D07F48483084422ED07D4870
:10406000603084422AD07B487830844226D0794818
:104070009030844222D07748A83084421ED07648BF
:1040800084421BD074481830844217D072483030B4
:10409000844213D07048483084420FD06E4860305C
:1040A00084420BD06C487830844207D06A48903004
:1040B000844203D06848A830844200D105E040F231
:1040C0002121AFF2D020FCF76DF90DB1202D00D1E8
:1040D00005E040F22221AFF2E420FCF763F925B1BC
:1040E000206840F02000206003E0206820F02000DD
:1040F000206070BD70B504460D46564884423AD0E3
:1041000054481830844236D052483030844232D03D
:104110005048483084422ED04E48603084422AD0E5
:104120004C487830844226D04A489030844222D08D
:104130004848A83084421ED0474884421BD0464895
:104140001830844217D044483030844213D042485B
:10415000483084420FD04048603084420BD03E4803
:104160007830844207D03C489030844203D03A48AB
:10417000A830844200D105E040F27521AFF28C30C6
:10418000FCF710F9656070BD10B5044631488442F3
:104190003AD030481830844236D02E4830308442ED
:1041A00032D02C48483084422ED02A486030844295
:1041B0002AD028487830844226D02648903084423D
:1041C00022D02448A83084421ED0234884421BD0E9
:1041D00021481830844217D01F483030844213D011
:1041E0001D48483084420FD01B48603084420BD0B9
:1041F00019487830844207D017489030844203D061
:104200001548A830844200D105E04FF42171AFF287
:104210001C40FCF7C7F8606880B210BD70B504465A
:104220000E4615460B48844240D00A481830844256
:104230003CD008483030844238D006484830844268
:1042400034D004486030844230D00248783005E0F1
:104250003F801CF01060024010640240844225D070
:10426000FE48844222D0FD48183084421ED0FC48CB
:1042700084421BD0FA481830844217D0F8483030B6
:10428000844213D0F648483084420FD0F44860305E
:1042900084420BD0F2487830844207D0F048903006
:1042A000844203D0EE48A830844200D105E040F2B9
:1042B000D221AFF2C040FCF775F815B1B5F5002F6B
:1042C00000D105E040F2D321AFF2D840FCF76AF804
:1042D00025B1206840F40020206003E0206820F42D
:1042E00000202060266170BD70B504460D46DB4895
:1042F0009038844239D0D9487838844235D0D7486C
:104300006038844231D0D548483884422DD0D348D3
:104310003038844229D0D1481838844225D0CF483B
:10432000844222D0CD48183084421ED0CC488442EA
:104330001BD0CB481830844217D0C9483030844253
:1043400013D0C748483084420FD0C54860308442FB
:104350000BD0C3487830844207D0C14890308442A3
:1043600003D0BF48A830844200D105E04FF43C712F
:10437000AFF28050FCF716F80DB1012D00D105E029
:1043800040F2F121AFF29450FCF70CF825B120680F
:1043900040F48020206003E0206820F4802020602A
:1043A00070BD70B504460E461546AC489038844240
:1043B00039D0AA487838844235D0A8486038844239
:1043C00031D0A648483884422DD0A44830388442A1
:1043D00029D0A2481838844225D0A048844222D04F
:1043E0009E48183084421ED09D4884421BD09C4871
:1043F0001830844217D09A483030844213D09848FD
:10440000483084420FD09648603084420BD09448A4
:104410007830844207D092489030844203D090484C
:10442000A830844200D105E040F21A31AFF23C607E
:10443000FBF7B8FF15B1B5F5002F00D105E040F24C
:104440001B31AFF25060FBF7ADFF0DB1266100E00C
:10445000E66070BD70B504460025804890388442FF
:1044600039D07E487838844235D07C4860388442E0
:1044700031D07A48483884422DD078483038844248
:1044800029D076481838844225D07448844222D0F6
:104490007248183084421ED0714884421BD0704844
:1044A0001830844217D06E483030844213D06C48A4
:1044B000483084420FD06A48603084420BD068484C
:1044C0007830844207D066489030844203D06448F4
:1044D000A830844200D105E040F23531AFF2EC6003
:1044E000FBF760FF206800F4002008B1012500E020
:1044F0000025284670BD70B5044600255748903801
:10450000844239D055487838844235D05348603891
:10451000844231D05148483884422DD04F483038F9
:10452000844229D04D481838844225D04B488442D3
:1045300022D04A48183084421ED0494884421BD0B9
:1045400047481830844217D045483030844213D051
:104550004348483084420FD04148603084420BD0F9
:104560003F487830844207D03D489030844203D0A1
:104570003B48A830844200D105E040F2A231AFF2BE
:104580008C70FBF70FFF206800F0010008B10125D7
:1045900000E00025284670BD70B5044600252F4870
:1045A0009038844239D02D487838844235D02B4811
:1045B0006038844231D02948483884422DD0274879
:1045C0003038844229D025481838844225D02348E1
:1045D000844222D02148183084421ED02048844290
:1045E0001BD01F481830844217D01D4830308442F9
:1045F00013D01B48483084420FD0194860308442A1
:104600000BD017487830844207D015489030844248
:1046100003D01348A830844200D105E04FF47171F3
:10462000AFF63000FBF7BEFE606900F038052846A3
:1046300070BD2DE9F04105460C464FF000080027FB
:104640000648903885423ED00448783885423AD0B2
:1046500002486038854236D0004803E0A06002403E
:1046600010640240483885422DD0FE4885422AD049
:10467000FC481830854226D0FA483030854222D096
:10468000F848483085421ED0F74885421BD0F6488E
:104690001830854217D0F4483030854213D0F248A4
:1046A000483085420FD0F048603085420BD0EE484C
:1046B0007830854207D0EC489030854203D0EA48F4
:1046C000A830854200D105E040F2E131AFF6DC00D0
:1046D000FBF768FEE54884427CD0E4481038844209
:1046E00078D0E2481838844274D0E148844271D0CE
:1046F000C01E84426ED0DF4884426BD0DE488442C4
:1047000068D0DE48844265D0D848E030844261D029
:10471000D648203084425DD0B4F1815F5AD0D84869
:10472000844257D0D748844254D0D748844251D08D
:10473000D64884424ED0B4F1C05F4BD0B4F1A05FF4
:1047400048D0B4F1905F45D0B4F1885F42D0B4F165
:10475000825F3FD0CE4884423CD0CD48103884425E
:1047600038D0CB481838844234D0001F844231D02E
:10477000C01E84422ED0C74884422BD0C6488442F3
:1047800028D0C648844225D0C148E030844221D098
:10479000BF48203084421DD0C14884421AD0C1484D
:1047A000844217D0C048844214D0C048844211D0FB
:1047B000BF4884420ED0B4F1205F0BD0B4F1105F3B
:1047C00008D0B4F1085F05D0B4F1045F02D0B4F1B1
:1047D000015F00D105E040F2E231AFF6E810FBF7EF
:1047E000E1FDA148854202D29E4E703E01E09E4E00
:1047F000103E04F0005008B1776800E03768AD481B
:10480000074007EA040010B14FF0010801E04FF043
:1048100000084046BDE8F08170B504460D46914859
:104820006038844239D08F484838844235D08D482A
:104830003038844231D08B48183884422DD0894892
:1048400084422AD087481830844226D085483030A8
:10485000844222D08348483084421ED08248844219
:104860001BD081481830844217D07F4830308442B2
:1048700013D07D48483084420FD07B48603084425A
:104880000BD079487830844207D077489030844202
:1048900003D07548A830844200D105E040F222419F
:1048A000AFF6B020FBF77EFD05F04050B0F1405F61
:1048B00007D005F0405020B17F48284008B905B125
:1048C00005E040F22341AFF6D420FBF76BFD6648CC
:1048D000844202D2634E703E01E0634E103E05F00A
:1048E000005018B173482840F06002E07148284039
:1048F000B06070BD70B504460D4616465948603824
:10490000844239D057484838844235D055483038E9
:10491000844231D05348183884422DD051488442C3
:104920002AD050481830844226D04E483030844235
:1049300022D04C48483084421ED04B4884421BD081
:1049400049481830844217D047483030844213D049
:104950004548483084420FD04348603084420BD0F1
:1049600041487830844207D03F489030844203D099
:104970003D48A830844200D105E040F24F41AFF6F7
:104980008C30FBF70FFD25F09E0008B905B105E05E
:104990004FF48A61AFF6A430FBF704FD0EB1012E8F
:1049A00000D105E040F25141AFF6B830FBF7FAFC18
:1049B00005F0800048B126B1606940F08000606178
:1049C00003E0606920F080006061802D0BD02EB183
:1049D000206805F01E010843206004E0206805F00F
:1049E0001E018843206070BD2DE9F04705460C4646
:1049F0004FF000080027B9461A486038854265D054
:104A000018484838854261D01648303885425DD014
:104A100014481838854259D01248854256D011485A
:104A20001830854252D00F48303085424ED00D4864
:104A3000483085424AD00C48854247D00A48183051
:104A4000854243D00848303085423FD00648483040
:104A500085423BD004486030854237D002487830E8
:104A600085422BE07060024010640240200000107C
:104A70000400801000080010000400100002001064
:104A800000001010000008100000041000000110C9
:104A90002000002000080020000400200002002068
:104AA000000020200000102000000820000004204A
:104AB000000001207D0F7D0F82F082C006D0954856
:104AC000854203D093481830854200D105E040F27A
:104AD0008741AFF6E040FBF765FC8F48844278D011
:104AE0008E48844275D08E48844272D08D4884426C
:104AF0006FD08D4884426CD08C48844269D08C48F9
:104B0000844266D08B48844263D08648FC3084421D
:104B10005FD085483F3084425BD08748844258D07C
:104B20008648844255D08648844252D08548844283
:104B30004FD0854884424CD08448844249D0844830
:104B4000844246D08348844243D08348844240D044
:104B5000824884423DD0824884423AD0814884428F
:104B600037D08148844234D08048844231D0804854
:104B700084422ED07F4884422BD07F48844228D064
:104B80007E48844225D07948FC30844221D0784840
:104B90003F3084421DD07A4884421AD079488442FA
:104BA00017D07948844214D07848844211D078488C
:104BB00084420ED0774884420BD07748844208D094
:104BC0007648844205D07648844202D075488442B3
:104BD00000D105E04FF49161AFF6E850FBF7E2FB3E
:104BE0004C489038854201D26F4E01E0494EA03EBC
:104BF0006E48204030B11E2000EAD427286800EA21
:104C0000070902E0686900F0800904F0005008B16B
:104C1000776800E037686648074007EA040028B173
:104C2000B9F1000F02D04FF0010801E04FF0000889
:104C30004046BDE8F08770B504460D465A4810302E
:104C400084423AD058482830844236D056484030C2
:104C5000844232D05448583084422ED0524870306A
:104C600084422AD050488830844226D04E48A03012
:104C7000844222D04C48B83084421ED02548903817
:104C800084421AD023487838844216D021486038AC
:104C9000844212D01F48483884420ED01D48303814
:104CA00084420AD01B481838844206D019488442EE
:104CB00003D018481830844200D105E040F2D741B3
:104CC000AFF6D060FBF76EFB05F04050B0F1405FEF
:104CD00007D005F0405020B11DB13648284000B93A
:104CE00005E04FF49B61AFF6F460FBF75BFB09480E
:104CF0009038844201D22C4E01E0064EA03E05F0D1
:104D0000005018B12A482840F06002E028482840A6
:104D1000B06070BDA0640240208000101040001000
:104D200008200010041000100100009000880010FE
:104D300000440010002200100080201000401010DD
:104D400000200810001004100000019000800018DE
:104D500000400014002000120010001100004090DC
:104D60002080002010400020082000200410002097
:104D7000010000A000880020004400200022002044
:104D80000080202000401020002008200010042077
:104D9000000001A000800028004000240020002224
:104DA00000100021000040A0006002403C0F3C0FBA
:104DB0007D0F7D0F8200824010B504466CB1012C3E
:104DC0000BD0022C09D0032C07D0042C05D0052CC5
:104DD00003D0062C01D0072C00D103E0A921EFA0BD
:104DE000FBF7E0FAFC490C7010BD10B504460CB19D
:104DF000012C00D103E0B821E8A0FBF7D3FA34B1CD
:104E0000F548006840F48070F349086005E0F24816
:104E1000006820F48070F049086010BD10B50446A9
:104E20000CB1012C00D103E0CE21DCA0FBF7BAFAD3
:104E300034B1E948006840F40070E749086005E0D3
:104E4000E548006820F40070E349086010BD10B523
:104E500004460CB1012C00D103E0E321CFA0FBF705
:104E6000A1FA34B1DC48006840F48060DA49086097
:104E700005E0D948006820F48060D749086010BD7B
:104E8000D548006840F40060D34908607047D248B4
:104E9000006840F48050D04908607047CE48103018
:104EA000006800F0004028B1CC48CB49091D0860DB
:104EB000CB4808607047C8481030006840F0004098
:104EC000C5491031086070470820C3490C31096892
:104ED00001F48031B1F5803F01D1012018E0BE49D5
:104EE0000C31096801F0100109B1052010E0BA4940
:104EF0000C31096801F0EF0109B1062008E0B6495C
:104F00000C31096801F0020109B1072000E0082016
:104F1000704708B508200090FFF7D6FF009002E028
:104F2000FFF7D2FF00909DF800000128F8D09DF80F
:104F3000000008BD2DE9F04104460D460027082673
:104F4000ACB1082C13D0102C11D0182C0FD0202C61
:104F50000DD0282C0BD0302C09D0382C07D0402C69
:104F600005D0482C03D0502C01D0582C00D104E09F
:104F700040F25B1189A0FBF715FA2DB1012D03D08A
:104F8000022D01D0032D00D104E04FF4AE7183A0B7
:104F9000FBF708FA0DB9002709E0012D01D12F0216
:104FA00005E0022D01D12F0201E04FF44077FFF719
:104FB000B0FF0646082E2DD187481030006820F437
:104FC0004070854910310860084600683843086021
:104FD0000846006820F0F80008600846006844F0C1
:104FE000020108437C49103108600846006840F41B
:104FF00080300860FFF78DFF064677481030006864
:1050000020F002007449103108600846006820F062
:10501000F80008603046BDE8F08170B5044600260F
:105020000825FFF776FF05462CB1012C03D0022C92
:1050300001D0032C00D104E040F29D1157A0FBF7F2
:10504000B1F90CB9002609E0012C01D1260205E0D6
:10505000022C01D1260201E04FF44076082D20D128
:105060005D481030006820F440705B4910310860E2
:1050700008460068304308600846006840F00400B5
:1050800008600846006840F480300860FFF741FF80
:10509000054651481030006820F004004E49103198
:1050A0000860284670BD2DE9F041044615461E46AD
:1050B0000827B4F1006F02D34A48844205D34A4816
:1050C000844203D34948844200D204E04FF4E8719B
:1050D00032A0FBF767F9FFF71CFF0746082F1ED128
:1050E0003D481030006820F440703B4910310860A2
:1050F0000846006840F4407008600846006840F0C8
:105100000100086025606660FFF703FF074632482C
:105110001030006820F001002F4910310860384637
:10512000BDE8F08170B504460D460826B4F1006F65
:1051300002D32C48844205D32B48844203D32B4806
:10514000844200D204E04FF4FB7114A0FBF72AF96B
:10515000FFF7DFFE0646082E1DD11F4810300068FD
:1051600020F440701C49103108600846006840F483
:10517000007008600846006840F001000860256083
:10518000FFF7C7FE064614481030006820F0010003
:10519000114910310860304670BD00004C696272E0
:1051A00061726965735C53544D3332463478785F6D
:1051B0005374645065726970685F44726976657291
:1051C0005C7372635C73746D3332663478785F66D7
:1051D0006C6173682E630000003C02402301674548
:1051E000AB89EFCDFFFF0F080078FF1F0F7AFF1F7D
:1051F00070B504460D460826B4F1006F02D3CE48C0
:10520000844205D3CD48844203D3CD48844200D2A2
:1052100005E04FF40771AFF27C00FBF7C3F8FFF72E
:1052200078FE0646082E19D1C648006820F4407062
:10523000C44908600846006840F480700860084669
:10524000006840F0010008602580FFF762FE064616
:10525000BC48006820F00100BA490860304670BDC3
:1052600070B504460D460826B4F1006F02D3B2486B
:10527000844205D3B148844203D3B148844200D26A
:1052800005E040F24221AFF2EC00FBF78BF8FFF7AC
:1052900040FE0646082E17D1AA48006820F4407048
:1052A000A84908600846006808600846006840F0A1
:1052B000010008602570FFF72CFE0646A148006833
:1052C00020F001009F490860304670BD9D48001DD8
:1052D000006800F0010028B19B489A49083908602D
:1052E0009A48086070479748001D006840F0010028
:1052F0009449091D0860704770B504460D4608269C
:10530000200B000308B904B105E040F2B621AFF26A
:105310007410FBF747F80DB1012D00D105E040F204
:10532000B721AFF28810FBF73DF8FFF7F2FD064614
:10533000082E10D13DB18348801D0088A0438149CB
:10534000891D088007E07F48801D0088A1B20843BE
:105350007C49891D088070BD70B504460825AA2CBB
:1053600001D0552C00D105E040F2D921AFF2D41084
:10537000FBF718F8FFF7CDFD0546082D02D171485F
:10538000401D047070BD2DE9F04104460D461646DF
:10539000FF274FF00808202C00D004B905E040F2A8
:1053A000FA21AFF20820FAF7FDFF402D00D005B931
:1053B00005E040F2FB21AFF21C20FAF7F3FF802E4C
:1053C00000D006B905E04FF43F71AFF23020FAF794
:1053D000E9FFFFF79EFD8046B8F1080F0BD1594851
:1053E000001D007800F00F0745EA07003043204316
:1053F0005449091D0870BDE8F08110B50446082C19
:1054000004D0042C02D00CB10C2C00D105E04FF4D8
:105410004671AFF27820FAF7C5FF4A48001D0078C0
:1054200020F00C004749091D087008460078204309
:10543000087010BD00B508224248001D007840F0F9
:1054400002004049091D0870FFF763FD024610463F
:1054500000BD3C48001D0068C0F347107047394844
:10546000801D0088704700203649491D0978AA2907
:1054700001D0012000E0002070473248001D007874
:1054800000F00C00704770B504460D4624F04070E3
:1054900008B904B105E040F28A31AFF20030FAF702
:1054A00081FF0DB1012D00D105E040F28B31AFF24B
:1054B0001430FAF777FF2DB12248006820432149C4
:1054C000086004E01F480068A0431E49086070BDE2
:1054D00070B504460025012C0CD0022C0AD0102CEB
:1054E00008D0202C06D0402C04D0802C02D0B4F55B
:1054F000803F00D105E040F2AA31AFF26030FAF708
:1055000051FF1048001F0068204008B1012500E04D
:105510000025284670BD10B5044624F0F30008B9F4
:1055200004B105E040F2C731AFF29030FAF73AFF2C
:105530000448001F046010BDFFFF0F080078FF1F24
:105540000F7AFF1F103C02403B2A19087F6E5D4C0A
:1055500010B504462CB1022C03D0042C01D0062C2B
:1055600000D103E07721FBA0FAF71CFF34B943F226
:10557000DB01A000A0F1C040016005E043F2D201D0
:10558000A000A0F1C04001606FF07041601C80007D
:10559000A0F1C0400160A000A0F1C040C0F804111B
:1055A00010BD10B50446206840B12068022805D01F
:1055B0002068042802D02068062800D103E0922148
:1055C000E4A0FAF7EFFE606810B16068022800D12D
:1055D00003E09321DFA0FAF7E5FEA06828B1A068F8
:1055E000042802D0A068082800D103E09421D9A0A3
:1055F000FAF7D8FEE06810B1E068102800D103E0A7
:105600009521D4A0FAF7CEFE206918B12069B0F533
:10561000807F00D103E09621CEA0FAF7C3FE606937
:1056200018B16069B0F5004F00D103E09721C9A01F
:10563000FAF7B8FEA06918B1A069B0F5007F00D1F3
:1056400003E09821C3A0FAF7ADFEE06918B1E06964
:10565000B0F5806F00D103E09921BEA0FAF7A2FE59
:10566000206A18B1206AB0F5006F00D103E09A21DA
:10567000B8A0FAF797FE606A18B1606AB0F5805F6B
:1056800000D103E09B21B3A0FAF78CFEA06A18B109
:10569000A06AB0F5005F00D103E09C21ADA0FAF74D
:1056A00081FEE06A18B1E06AB0F5804F00D103E0F6
:1056B0009D21A8A0FAF776FE206B18B1206BB0F5FB
:1056C000002F00D103E09E21A2A0FAF76BFE606BD1
:1056D00000680F2800D803E09F219EA0FAF762FE21
:1056E000606B40680F2800D803E0A02199A0FAF76A
:1056F00059FE606B806820B1606B8068FF2800D81D
:1057000003E0A12193A0FAF74DFE606BC0680F285B
:1057100000D803E0A2218FA0FAF744FE606B006975
:105720000F2800D803E0A3218AA0FAF73BFE606BA4
:1057300040690F2800D803E0A42186A0FAF732FEC2
:10574000606B806970B1606B8069B0F1805F09D077
:10575000606B8069B0F1005F04D0606B8069B0F16C
:10576000405F00D103E0A5217AA0FAF71BFED4E93F
:1057700001010843E168084321690843616908435E
:10578000A1690843E1690843216A0843616A084343
:10579000A16A0843E16A0843216B08432168890034
:1057A000A1F1C0410860A06808280BD120688000E2
:1057B000A0F1C040006840F0400120688000A0F1E6
:1057C000C0400160606B0068616B496840EA01108D
:1057D000616B896840EA0120616B898940EA014078
:1057E000616B098A40EA0150616B097D40EA016002
:1057F000616B896908432168491C8900A1F1C04196
:105800000860E06AB0F5804F62D1A06B00680F2895
:1058100000D803E0C7214FA0FAF7C4FDA06B406891
:105820000F2800D803E0C8214AA0FAF7BBFDA06BFF
:10583000806820B1A06B8068FF2800D803E0C921F0
:1058400044A0FAF7AFFDA06B00690F2800D803E071
:10585000CA2140A0FAF7A6FDA06B40690F2800D826
:1058600003E0CB213BA0FAF79DFDA06B806970B1EE
:10587000A06B8069B0F1805F09D0A06B8069B0F146
:10588000005F04D0A06B8069B0F1405F00D103E0FD
:10589000CC2130A0FAF786FDA06B0068A16B4968A7
:1058A00040EA0110A16B896840EA0120A16B098AD6
:1058B00040EA0150A16B097D40EA0160A16B896952
:1058C000084321688900A1F1C041C1F8040107E043
:1058D0006FF0704120688000A0F1C040C0F8041152
:1058E00010BD002101600221416000218160C16082
:1058F000016141618161C16101624FF48051416286
:10590000490081620021C16201630F21426B116075
:10591000426B5160FF21426B91600F21426BD1605D
:10592000426B1161426B51610021426B91610F2109
:10593000826B1160826B5160FF21826B91600F213D
:10594000826BD160826B1161826B51610021826B2D
:10595000916170474C69627261726965735C5354FE
:105960004D3332463478785F537464506572697091
:10597000685F4472697665725C7372635C73746DA0
:105980003332663478785F66736D632E630000008F
:1059900070B504460D462CB1022C03D0042C01D066
:1059A000062C00D105E04FF48771AFF25800FAF7EA
:1059B000F9FC0DB1012D00D105E040F20F11AFF25D
:1059C0006C00FAF7EFFC55B1A000A0F1C0400068F0
:1059D00040F00101A000A0F1C040016009E0A0007A
:1059E000A0F1C0400068FA490840A100A1F1C041FF
:1059F000086070BD10B50446102C02D0B4F5807F4D
:105A000000D105E04FF4AB71AFF2B800FAF7CAFC71
:105A1000102C0AD118204FF020410866402048661B
:105A20004FF0FC308866C86610E01820E94908602D
:105A300040204FF02041C1F884004FF0FC30E54990
:105A4000083108604FF02041C1F88C0010BD2DE9ED
:105A5000F04104460025002600272068102803D0C6
:105A60002068B0F5807F00D105E040F27711AFF2F9
:105A70001C10FAF797FC606810B16068022800D12A
:105A800005E04FF4BC71AFF23410FAF78BFCA0685C
:105A900010B1A068102800D105E040F27911AFF2F2
:105AA0004C10FAF77FFCE06810B1E068402800D1A4
:105AB00005E04FF4BD71AFF26410FAF773FC206992
:105AC00098B12069B0F5003F0FD02069B0F5802F64
:105AD0000BD02069B0F5C02F07D02069B0F5002F9A
