:020000040800F2
:100000002085002079020008F92E00085D03000811
:10001000F52E0008050A00086959000800000000D4
:100020000000000000000000000000000541000882
:10003000B524000800000000E70200089D43000806
:10004000930200089302000893020008930200083C
:10005000930200089302000893020008930200082C
:1000600093020008B72400089302000893020008D6
:100070009302000893020008591E0008930200082A
:10008000930200085B1E0008930200089302000818
:10009000090A00089302000893020008B924000826
:1000A00093020008A9450008930200089302000883
:1000B000B5450008C1450008DD4500089302000869
:1000C00093020008930200089302000893020008BC
:1000D0009302000879500008BD500008AD51000897
:1000E00093020008930200089302000811460008DA
:1000F000930200089302000893020008930200088C
:100100009302000893020008F945000893020008D2
:100110006D5000089302000893020008054600088D
:10012000930200089302000893020008930200085B
:10013000930200089302000893020008930200084B
:10014000410A000893020008930200089302000885
:10015000930200089302000893020008930200082B
:10016000930200089302000893020008930200081B
:10017000930200089302000893020008930200080B
:10018000930200089302000800F002F800F065F8FE
:100190000AA090E8000C82448344AAF10107DA45E2
:1001A00001D100F05AF8AFF2090EBAE80F0013F0CF
:1001B000010F18BFFB1A43F001031847C8F50000F0
:1001C000E8F500000A444FF0000C10F8013B13F072
:1001D000070408BF10F8014B1D1108BF10F8015BA0
:1001E000641E05D010F8016B641E01F8016BF9D193
:1001F00013F0080F1EBF10F8014BAD1C0C1B09D1EA
:100200006D1E58BF01F801CBFAD505E014F8016B5B
:1002100001F8016B6D1EF9D59142D6D370470000ED
:100220000023002400250026103A28BF78C1FBD8FF
:10023000520728BF30C148BF0B6070471FB50EF092
:100240005FFA00F00DFA0400002000210EF042FADF
:10025000401C60601FBD10B510BD00F094FA11463F
:10026000FFF7ECFF09F08EF900F0C0FA03B4FFF7D6
:10027000F2FF03BC00F0C4FA094880470948004770
:10028000FEE7FEE7FEE7FEE7FEE7FEE7FEE7FEE746
:10029000FEE7FEE704480549054A064B70470000A3
:1002A000AD43000889010008207D00202085002042
:1002B0002081002020810020EFF3108072B670476B
:1002C00080F3108870472A4A1368012B04D04FF03E
:1002D00001031360274A1060274A116027484FF036
:1002E000805101607047EFF3108272B620480168B8
:1002F000B1B14FF0000101601E48016839B1EFF360
:10030000098121ED108B21E9F00F006801601A4985
:1003100009680968B1E8F00FB1EC108B81F3098826
:1003200082F310884EF0040E70471349086011499B
:100330004FF0000008600E494FF0010008601048BF
:100340004FF47F01D0F8002041EA020101600B4820
:100350004FF08051016062B6704700BFEFF3098033
:1003600000B50BF019F85DF804EB4EF0040E704781
:1003700058010020500100205401002004ED00E04D
:1003800020ED00E010B500F06BF9001D10BD00BFBE
:1003900045E3000070B5064600F066F904680546BE
:1003A00030460A22002100F063F92C6070BD10B5C0
:1003B000431C02E010F8011B71B18107FAD14FF024
:1003C000013202C88C1A8C4314EAC211F9D0C01A47
:1003D0000A0603D0C01E10BDC01A10BD0A0401D009
:1003E000801E10BD0902FCD0401E10BD40EA010372
:1003F00070B59B072ED14FF00136042A2AD308C8C6
:1004000010C99D1B9D43121F15EAC61517D0D8B2FF
:10041000E1B2401A50EA056110D198B2A1B2401A77
:1004200050EA05410AD123F07F4024F07F41401A71
:1004300050EA052102D1180EA0EB146070BDA34252
:10044000DBD018BA21BA884201D9012070BD4FF023
:10045000FF3070BD0AB9002070BD10F8013B11F8E3
:10046000014B63B1A3420AD1521E08D010F8013BE0
:1004700011F8014B1BB1A34201D1521EEDD1181B43
:1004800070BD032A40F2308010F0030C00F015809C
:1004900011F8013BBCF1020F624498BF11F801CB87
:1004A00000F8013B38BF11F8013BA2F1040298BFEC
:1004B00000F801CB38BF00F8013B11F0030300F056
:1004C0002580083AC0F0088051F8043B083A51F8FA
:1004D00004CBA0E80810F5E7121D5CBF51F8043BFF
:1004E00040F8043BAFF30080D20724BF11F8013B72
:1004F00011F801CB48BF11F8012B24BF00F8013BD4
:1005000000F801CB48BF00F8012B704710B5203A26
:10051000C0F00B80B1E81850203AA0E81850B1E8BC
:100520001850A0E81850BFF4F5AF5FEA027C24BF72
:10053000B1E81850A0E8185044BF18C918C0BDE869
:1005400010405FEA827C24BF51F8043B40F8043B32
:1005500008BF7047D20728BF31F8023B48BF11F8E7
:10056000012B28BF20F8023B48BF00F8012B704741
:100570004FF000020429C0F0128010F0030C00F0CC
:100580001B80CCF1040CBCF1020F18BF00F8012B4A
:10059000A8BF20F8022BA1EB0C0100F00DB85FEA18
:1005A000C17C24BF00F8012B00F8012B48BF00F8E4
:1005B000012B70474FF0000200B513469446964653
:1005C000203922BFA0E80C50A0E80C50B1F1200166
:1005D000BFF4F7AF090728BFA0E80C5048BF0CC014
:1005E0005DF804EB890028BF40F8042B08BF704772
:1005F00048BF20F8022B11F0804F18BF00F8012BE4
:10060000704710B5044610F0030F08BF11F0030F38
:1006100040F015804FF0013E121FC0F20E8051F8DD
:10062000043BA3EB0E0C2CEA030C1CEACE1C08BF07
:1006300040F8043BF0D0A1F1040102F10402521E83
:1006400008DB11F8013B002B00F8013BF7D1114604
:10065000FFF78EFF204610BD7047704770470000BF
:1006600000487047E07C002000487047C07C0020B4
:100670002DE9F04791460F4680460446002614F8BF
:10068000015B2DB1FFF77EFE0068405DC007F6D12B
:100690002B2D02D02D2D18D0641E4A4639462046F7
:1006A00000F022F827B13968A14201D1C7F80080D3
:1006B0004FF0020471050BD54042002803DDFFF71F
:1006C000D3FF0460A007BDE8F08746F48066E4E746
:1006D0000028F8DAFFF7C8FF04606FF00040F2E787
:1006E00000487047C07C00202DE9F05F8246154627
:1006F0008B4600270AF10104B9460078302801D062
:100700009DB113E014F8010B0127782803D0582875
:1007100001D045B10AE00DB1102D07D1002714F822
:10072000010B102502E0082500E00A250026B0464E
:100730000EE005FB080005FB06F101271FFA80F813
:1007400001EB1046B6F5803F00D3B94614F8010B13
:10075000294600F03DF80028EBDABBF1000F05D088
:100760000FB1641E00E05446CBF80040B9F1000F11
:1007700006D0FFF779FF02210160C81EBDE8F09F97
:1007800048EA0640FAE77546FFF7AAFFAE460500BD
:100790006946534620F00700854618B020B5FFF79C
:1007A00079FDBDE820404FF000064FF000074FF004
:1007B00000084FF0000B21F00701AC46ACE8C0097F
:1007C000ACE8C009ACE8C009ACE8C0098D46704788
:1007D0003A2800D2303820F02002412A01D3A2F179
:1007E0003700884201D34FF0FF30704710B5044600
:1007F000AFF300802046BDE81040FFF737BD000092
:1008000001491820ABBEFEE7260002007047000039
:100810001FB503F0FFFD2AA00AF0E0FF002233A17C
:1008200034480AF087F93449086008F08DFE08F072
:1008300053FE08F06DFE14200821CA012F4BCDE9AC
:100840000032CDE9021000232D4A2EA130480CF0D1
:10085000DDFB0420082102022E4BCDE90032CDE958
:10086000021000232C4A2DA130480CF0CFFB0420AD
:10087000082102022E4BCDE90032CDE902100023FF
:100880002C4A2DA130480CF0C1FB08200D21C201DB
:100890002E4BCDE90032CDE9021000232C4A2DA1C8
:1008A0002F480CF0B3FB1A480CF0B6FC1F480CF0B4
:1008B000B3FC25480CF0B0FC29480CF0ADFC1FBD82
:1008C0000D0A2B2043414E20494E464F3A20537982
:1008D0007374656D2043414E20485720496E6974FA
:1008E0002073756363657373210D0A00455F43616F
:1008F0006E00000010690020F8010020406900200F
:100900007D09000842737043616E5175655278002D
:10091000406D0020D06D00206509000842737043CF
:10092000616E31517565547800000000D07100206F
:10093000607200207109000842737043616E325189
:10094000756554780000000060760020F076002085
:100950008909000842737043616E5461736B000033
:10096000F07A002000BF00F001FF05F039FEFAE741
:1009700000BF00F095FF05F0C1FEFAE700BF01F0EF
:1009800093F805F08DFFFAE700BF01F06FF8044817
:10099000007800F001000028F7D005F003FFF4E72D
:1009A000FC01002010B50DF0E3F805F035FF10BD97
:1009B00007A00AF013FF00BF4FF0FF3110480BF003
:1009C000A5FD02F0DFF902F06FF903F043FDF3E754
:1009D0000D0A2B20425350205441534B20494E4680
:1009E0004F203A20425350205461736B20496E6966
:1009F000742053756363657373210D0A0000000052
:100A0000A006002000BFFEE710B50AF073FE022129
:100A1000094800F0F3F960B1084A0021064800F0E7
:100A200065FC0CF039FD0446044A2146012000F023
:100A300075FF0AF077FE10BD00640040D020002052
:100A400010B50AF057FE0221094800F0D7F960B14D
:100A5000084A0021064800F049FC0CF01DFD044640
:100A6000044A2146022000F059FF0AF05BFE10BD47
:100A700000680040E420002010B50446104884427D
:100A800002D01048844200D103E0A5210EA005F059
:100A90003DFC0B48844209D10121480603F0A0F92E
:100AA00000214FF0007003F09BF908E00121880657
:100AB00003F096F900214FF0806003F091F910BD2A
:100AC000006400400068004053544D33324634788F
:100AD000785F5374645065726970685F44726976B8
:100AE00065725C7372635C73746D333266347878EC
:100AF0005F63616E2E63000070B504460025A07A26
:100B00001B2800DC04E040F24D1157A005F0FEFB6D
:100B1000E07A10B1E07A012800D104E04FF4A77127
:100B200051A005F0F3FB207B10B1207B012800D100
:100B300004E040F24F114CA005F0E8FB208910B111
:100B40002089012800D104E04FF4A87146A005F0E7
:100B5000DDFB607B10B1607B012800D104E040F236
:100B6000511141A005F0D2FBA17A012000FA01F554
:100B70004948006840F001004749086046481C3079
:100B80000068A84344491C310860207BC8B942482A
:100B90000C300068A84340490C3108606088E18847
:100BA00040EA01413C484030A27A40F832102088A7
:100BB000A18840EA014138484030A27A00EBC200E7
:100BC0004160207B012819D133480C30006828434C
:100BD00031490C3108606088218840EA01412E4883
:100BE0004030A27A40F83210E088A18840EA014102
:100BF00029484030A27A00EBC2004160E07A38B95F
:100C00002548001D0068A8432349091D086006E027
:100C10002148001D006828431F49091D08602089DC
:100C200030B91D4814300068A8431B4914310860CE
:100C30002089012806D11848143000682843164935
:100C400014310860607B012806D113481C3000680D
:100C5000284311491C3108600F48006820F001004A
:100C60000D49086070BD000053544D33324634784E
:100C7000785F5374645065726970685F4472697616
:100C800065725C7372635C73746D3332663478784A
:100C90005F63616E2E6300000066004070B505461C
:100CA0000C4600263E48854202D03E48854200D18F
:100CB00004E040F234513CA005F028FB4648844251
:100CC0002DD0464884422AD0801E844227D0401E20
:100CD000844224D04248844221D0424884421ED0DB
:100CE0004048083884421AD03F48844217D03F48D1
:100CF000844214D03D480838844210D03C48844295
:100D00000DD03C4884420AD03B48844207D03A4840
:100D1000FF38844203D032480A30844200D104E0D4
:100D200040F2355120A005F0F1FA04F4700040B112
:100D3000A869C4F31301084008B101262DE000267C
:100D40002BE004F0807040B16868C4F313010840E0
:100D500008B1012621E000261FE004F0006040B148
:100D6000A868C4F31301084008B1012615E0002665
:100D700013E004F0007040B1E868C4F313010840C8
:100D800008B1012609E0002607E02869C4F3130131
:100D9000084008B1012600E00026304670BD000082
:100DA000006400400068004053544D3332463478AC
:100DB000785F5374645065726970685F44726976D5
:100DC00065725C7372635C73746D33326634787809
:100DD0005F63616E2E6300007000F0300400F0105D
:100DE000080000311000003203000012100000342F
:100DF00003000014000001380001003870B50446FB
:100E00000D4600265F48844202D05F48844200D1EC
:100E100004E040F2D3515DA005F078FA012D20D016
:100E2000022D1ED0042D1CD0082D1AD0102D18D044
:100E3000202D16D0402D14D0B5F5807F11D0B5F5FA
:100E4000007F0ED0B5F5806F0BD0B5F5006F08D0E0
:100E5000B5F5004F05D0B5F5803F02D0B5F5003FA0
:100E600000D104E040F2D45148A005F04FFA606987
:100E70002840002871D0B5F5807F5CD010DC082DAB
:100E800035D006DC012D20D0022D24D0042D72D1C6
:100E900027E0102D31D0202D35D0402D6BD138E0FA
:100EA000B5F5004F60D009DCB5F5007F49D0B5F548
:100EB000806F4CD0B5F5006F5DD14FE0B5F5803F48
:100EC0002DD0B5F5003F56D12FE0A0683B4900F08A
:100ED00079FF064651E0E068032100F073FF064603
:100EE0004BE0E068082100F06DFF064645E0E06851
:100EF000102100F067FF06463FE02069032100F063
:100F000061FF064639E02069082100F05BFF0646D4
:100F100033E02069102100F055FF06462DE060689F
:100F2000082100F04FFF064627E06068102100F01E
:100F300049FF064621E0A069012100F043FF064673
:100F40001BE0A069022100F03DFF064615E0A06904
:100F5000042100F037FF06460FE00FE0A069702182
:100F600000F030FF064608E06068042100F02AFF28
:100F7000064602E0FFE7002600BF00E000263046FC
:100F800070BD0000006400400068004053544D33C1
:100F900032463478785F5374645065726970685F64
:100FA0004472697665725C7372635C73746D33321C
:100FB000663478785F63616E2E6300000101010082
:100FC00070B505460C4616462348854202D0234894
:100FD000854200D104E040F20A5121A005F096F9C3
:100FE000012C20D0022C1ED0042C1CD0082C1AD08E
:100FF000102C18D0202C16D0402C14D0B4F5807FA3
:1010000011D0B4F5007F0ED0B4F5806F0BD0B4F5DD
:10101000006F08D0B4F5004F05D0B4F5803F02D082
:10102000B4F5003F00D104E040F20B510CA005F0F4
:101030006DF90EB1012E00D104E040F20C5108A070
:1010400005F064F91EB168692043686102E06869CF
:10105000A043686170BD000000640040006800406B
:1010600053544D3332463478785F5374645065720C
:101070006970685F4472697665725C7372635C73F1
:10108000746D3332663478785F63616E2E6300006E
:101090002DE9F04104460D4600270026854884428C
:1010A00002D08548844200D103E0C52183A005F029
:1010B0002DF9A87910B1A879012800D103E0C62143
:1010C0007EA005F023F9E87910B1E879012800D174
:1010D00003E0C72179A005F019F9287A10B1287A20
:1010E000012800D103E0C82174A005F00FF9687A47
:1010F00010B1687A012800D103E0C9216FA005F082
:1011000005F9A87A10B1A87A012800D103E0CA2114
:101110006AA005F0FBF8E87A10B1E87A012800D15E
:1011200003E0CB2165A005F0F1F8A87840B1A878DC
:10113000012805D0A878022802D0A878032800D179
:1011400003E0CC215DA005F0E1F8E87840B1E87853
:10115000012805D0E878022802D0E878032800D1D9
:1011600003E0CD2155A005F0D1F828790F2800DC47
:1011700003E0CE2151A005F0C9F86879072800DC0A
:1011800003E0CF214DA005F0C1F82888012804DB39
:101190002888B0F5806F00DC03E0D02147A005F07F
:1011A000B5F8206820F002002060206840F00100BF
:1011B000206000E0761C606800F0010018B94FF66E
:1011C000FF708642F6D1606800F0010008B9002780
:1011D0006CE0A879012804D1206840F080002060EC
:1011E00003E0206820F080002060E879012804D125
:1011F000206840F04000206003E0206820F04000BC
:101200002060287A012804D1206840F02000206066
:1012100003E0206820F020002060687A012804D1D3
:10122000206840F01000206003E0206820F01000EB
:101230002060A87A012804D1206840F008002060CE
:1012400003E0206820F008002060E87A012804D13B
:10125000206840F00400206003E0206820F00400D3
:101260002060A8788007E97840EA0160297940EA9F
:101270000140697940EA01502988491E0843E0612C
:10128000206820F001002060002600E0761C6068E5
:1012900000F0010018B14FF6FF708642F6D1606889
:1012A00000F0010008B1002700E001273846BDE842
:1012B000F0810000006400400068004053544D334A
:1012C00032463478785F5374645065726970685F31
:1012D0004472697665725C7372635C73746D3332E9
:1012E000663478785F63616E2E63000070B50446E3
:1012F0000D4616464548844202D04548844200D1F6
:1013000004E04FF43B7143A005F000F80DB1012D4E
:1013100000D104E040F2ED213EA004F0F7FF04F517
:10132000D87000EB0510006800F004003072307ACD
:1013300050B904F5D87000EB0510006840F2FF7159
:1013400001EA5050306009E004F5D87000EB051058
:1013500000686FF0604101EAD000706004F5D87059
:1013600000EB0510006800F00200707204F5D87000
:1013700000EB0510406800F00F00B07204F5D87063
:1013800000EB05104068000AF07404F5D87000EB1B
:1013900005108068F07204F5D87000EB05108068C5
:1013A000010A317304F5D87000EB05108068010C58
:1013B000717304F5D87000EB05108068000EB073EF
:1013C00004F5D87000EB0510C068F07304F5D87010
:1013D00000EB0510C068010A317404F5D87000EB09
:1013E0000510C068010C717404F5D87000EB05108D
:1013F000C068000EB07425B9E06840F02000E060DD
:1014000003E0206940F02000206170BD00640040CE
:101410000068004053544D3332463478785F53743B
:10142000645065726970685F4472697665725C7356
:1014300072635C73746D3332663478785F63616EA7
:101440002E63000000218171C171017241728172AD
:10145000C1728170C17003210171022141710121AA
:101460000180704770B505460C46002669488542E4
:1014700002D06948854200D104E04FF4107167A0A2
:1014800004F044FF207A10B1207A042800D104E04F
:1014900040F2412161A004F039FF607A10B1607A16
:1014A000022800D104E040F242215CA004F02EFFAB
:1014B000A07A082800DC04E040F2432157A004F0A1
:1014C00025FFA86800F08060B0F1806F01D1002690
:1014D00010E0A86800F00060B0F1006F01D10126B3
:1014E00008E0A86800F08050B0F1805F01D10226CA
:1014F00000E00426042E7DD005F5C07000EB061038
:10150000006800F0010105F5C07000EB06100160F5
:10151000207AC8B92068B0F5006F00D204E040F22C
:101520005D213EA004F0F2FE607A218840EA41503D
:1015300005F5C07101EB06110968084305F5C07196
:1015400001EB061108601AE06068B0F1005F00D29C
:1015500004E040F2632131A004F0D8FE207A6168F3
:1015600040EAC100617A084305F5C07101EB06113C
:101570000968084305F5C07101EB06110860A07AFF
:1015800000F00F00A07205F5C07000EB0610406877
:1015900020F00F0105F5C07000EB0610416005F565
:1015A000C07000EB06104068A17A084305F5C071D1
:1015B00001EB06114860A07B0106607B41EA004117
:1015C000207B41EA0020E17A084305F5C07101EB78
:1015D00006118860A07C0106607C41EA0041207C05
:1015E00041EA0020E17B084305F5C07101EB0611DB
:1015F000C86000E00BE005F5C07000EB0610006865
:1016000040F0010105F5C07000EB061001603046A6
:1016100070BD0000006400400068004053544D332A
:1016200032463478785F5374645065726970685FCD
:101630004472697665725C7372635C73746D333285
:10164000663478785F63616E2E63000010B508F031
:10165000AFFF10BD2DE9F04106460F4615463F4845
:101660000088012877D0FEF727FE80463C480468B2
:101670000068401C3A49086008460068FF2801D30A
:10168000002008604046FEF71BFEC4EBC40035494D
:1016900041F82060C4EBC40001EB80004760C4EB5C
:1016A000C401304A02EB810128688860C4EBC400A1
:1016B00002EB80006968C160297AC4EBC40002EBC8
:1016C00080000174697AC4EBC40002EB80004174AD
:1016D000A97AC4EBC40002EB80008174E97AC4EB00
:1016E000C40002EB8000C174297BC4EBC40002EB90
:1016F00080000175697BC4EBC40002EB800041757A
:10170000A97BC4EBC40002EB80008175E97BC4EBCC
:10171000C40002EB8000C175297CC4EBC40002EB5D
:1017200080000176697CC4EBC40002EB8000417646
:10173000A97CC4EBC40002EB80008176C4EBC40139
:1017400002EB810008F0DEFD07480AF0B5FE01203B
:10175000BDE8F081FFE70020FAE70000EA01002081
:10176000E4010020FC2C0020BC28002010B54FF024
:10177000FF3102480AF0CAFE10BD0000BC2800205C
:1017800010B508F053FF10BD2DE9F04106460F4695
:1017900015463F480088012877D0FEF78DFD80462A
:1017A0003C4804680068401C3A49086008460068E4
:1017B000FF2801D3002008604046FEF781FDC4EBFE
:1017C000C400354941F82060C4EBC40001EB80003F
:1017D0004760C4EBC401304A02EB8101286888608D
:1017E000C4EBC40002EB80006968C160297AC4EBD5
:1017F000C40002EB80000174697AC4EBC40002EB00
:1018000080004174A97AC4EBC40002EB80008174AB
:10181000E97AC4EBC40002EB8000C174297BC4EBFD
:10182000C40002EB80000175697BC4EBC40002EBCD
:1018300080004175A97BC4EBC40002EB8000817578
:10184000E97BC4EBC40002EB8000C175297CC4EBCA
:10185000C40002EB80000176697CC4EBC40002EB9B
:1018600080004176A97CC4EBC40002EB8000817645
:10187000C4EBC40102EB810008F0AAFD07480AF09E
:101880001BFE0120BDE8F081FFE70020FAE7000021
:10189000F6010020F0010020204D0020FC4800202F
:1018A00010B54FF0FF3102480AF030FE10BD0000C5
:1018B000FC480020282910D2012802D002280AD191
:1018C00004E00022054B43F8212005E00022044BF0
:1018D00043F8212000E000BF00BF7047807B00205C
:1018E000207C002000200EE0084951F82010491CFF
:1018F000064A42F82010064951F82010491C044AB3
:1019000042F82010401C2828EED37047807B00202E
:10191000207C002010B508F00DFE10BD70B5054606
:101920000E4614464D48008801287CD04C4800687B
:10193000C0EBC0004B4941F8205049480068C0EB5B
:10194000C00001EB80004660454920680968C1EB92
:10195000C101444A02EB8101886041486168006826
:10196000C0EBC00002EB8000C160217A3C480068F7
:10197000C0EBC00002EB80000174617A3848006857
:10198000C0EBC00002EB80004174A17A34480068CB
:10199000C0EBC00002EB80008174E17A304800683F
:1019A000C0EBC00002EB8000C174217B2C480068B2
:1019B000C0EBC00002EB80000175617B2848006825
:1019C000C0EBC00002EB80004175A17B2448006899
:1019D000C0EBC00002EB80008175E17B204800680D
:1019E000C0EBC00002EB8000C175217C1C48006880
:1019F000C0EBC00002EB80000176617C18480068F3
:101A0000C0EBC00002EB80004176A17C1448006866
:101A1000C0EBC00002EB80008176E17C10480068DA
:101A2000C0EBC00000E018E002EB8000C1760C497A
:101A30000968C1EBC10102EB810008F009FC08480C
:101A40000068401C06490860084600683C2801D32D
:101A50000020086004480AF02FFD70BDDE01002060
:101A6000D80100202C220020F820002008B50548CD
:101A70004FF0FF33062203210090034809F096F847
:101A800008BD0000FC0100201069002010B50448CA
:101A9000006818B90121034809F064F910BD00007D
:101AA000F80100201069002010B54FF0FF31024806
:101AB0000AF02CFD10BD0000F82000200EB500201B
:101AC0000090019002901D48FEF7D6FF1C48FEF7DB
:101AD000D3FF6846FFF7B6FC00208DF80600012012
:101AE0008DF8070000208DF808008DF809008DF8AA
:101AF0000A008DF80B008DF802008DF8030001201C
:101B00008DF8040002208DF805000720ADF80000D4
:101B100069460A48FFF7BCFA00208DF803000C2044
:101B20008DF8040001208DF805001520ADF80000A7
:101B300069460348FFF7ACFA0EBD000000640040A0
:101B4000006800401FB500200090019002900390B3
:101B50008DF80B0001208DF80C000020ADF804007A
:101B6000ADF80600ADF8080001208DF80D0000204A
:101B70008DF80A00ADF80000ADF802006846FEF7E7
:101B8000BBFF0E208DF80A000020ADF80000ADF874
:101B900002006846FEF7B0FF1FBD00001CB5002024
:101BA000009001900121022002F09AF801210846DC
:101BB00002F096F80121480602F0D2F801218806C9
:101BC00002F0CEF84FF4C050009002208DF80400CF
:101BD0008DF8050000208DF8060001208DF8070023
:101BE0006946154800F0C2FC09220B21124800F09A
:101BF00093FD09220C21104800F08EFD4FF4405057
:101C0000009002208DF804008DF8050000208DF86A
:101C1000060001208DF807006946084800F0A6FC80
:101C200009220C21054800F077FD09220D21034807
:101C300000F072FD1CBD00000000024000040240E4
:101C400008B50020009014208DF8000001208DF8C8
:101C5000010002208DF8020001208DF80300684683
:101C600001F076F940208DF8000001208DF8010088
:101C700002208DF8020001208DF80300684601F073
:101C800067F908BD30B585B00446002516480078D0
:101C9000002827D0E0680490A07C0499C1F3436138
:101CA000049AC2F30802049BC3F34743CDE9003210
:101CB000CDE902100498C0F347230CA0D4E9001228
:101CC00009F08CFD00BF07E004F11300415D12A094
:101CD00009F084FD681CC5B2A07CA842F4DC10A009
:101CE00009F07CFD05B030BD0102002043414E25C6
:101CF000642C20522C20253130642C202532642085
:101D00002D3E202532642C202532782C2025642C71
:101D10002025642C205B0000202532782C00000058
:101D20005D0D0A0030B585B00446002516480078E0
:101D3000002827D0E0680490A07C0499C1F3436197
:101D4000049AC2F30802049BC3F34743CDE900326F
:101D5000CDE902100498C0F347230CA0D4E9001287
:101D600009F03CFD00BF07E004F11300415D12A043
:101D700009F034FD681CC5B2A07CA842F4DC10A0B8
:101D800009F02CFD05B030BD0102002043414E2575
:101D9000642C20542C20253130642C2025326420E2
:101DA0002D3E202532642C202532782C2025642CD1
:101DB0002025642C205B0000202532782C000000B8
:101DC0005D0D0A000246002002EA01030BB101206A
:101DD00000E000207047000070B504460D460F4833
:101DE000204008B904B103E078210DA004F08EFA78
:101DF0000DB1012D00D103E0792109A004F086FA8C
:101E00002DB11448806820431249886004E01148CD
:101E10008068A0430F49886070BD000000E21FF990
:101E200053544D3332463478785F5374645065723E
:101E30006970685F4472697665725C7372635C7323
:101E4000746D3332663478785F6462676D63752EC3
:101E500063000000002004E07047704770B504463E
:101E60000D462C4884423AD02A481830844236D055
:101E700028483030844232D02648483084422ED020
:101E80002448603084422AD022487830844226D0C8
:101E900020489030844222D01E48A83084421ED070
:101EA0001D4884421BD01C481830844217D01A4861
:101EB0003030844213D01848483084420FD016483E
:101EC000603084420BD014487830844207D01248E6
:101ED0009030844203D01048A830844200D104E0FE
:101EE00040F2D9110DA004F011FA0DB1012D00D16D
:101EF00004E04FF4ED7109A004F008FA25B1206860
:101F000040F00100206003E0206820F00100206024
:101F100070BD0000106002401064024053544D3305
:101F200032463478785F5374645065726970685FC4
:101F30004472697665725C7372635C73746D33327C
:101F4000663478785F646D612E63000010B51B48BD
:101F500000F03EF81A481B494860002048614FF4E1
:101F6000806088610020C86108624862886204203D
:101F7000C862032008630020486388634FF0006054
:101F800008604020C86010488860012008610B4844
:101F900000F028F90948303800F01AF84FF00060D6
:101FA000084908600020C860084888604FF4007045
:101FB00008610248303800F015F910BDB8640240DD
:101FC000041001401C0B0020F4070020F40800203E
:101FD00010B50446724884423AD0714818308442A1
:101FE00036D06F483030844232D06D484830844219
:101FF0002ED06B48603084422AD0694878308442C1
:1020000026D067489030844222D06548A830844268
:102010001ED0644884421BD062481830844217D0D6
:1020200060483030844213D05E48483084420FD03C
:102030005C48603084420BD05A487830844207D0E4
:1020400058489030844203D05648A830844200D18A
:1020500003E0BF2154A004F059F9206820F00100EA
:102060002060002020606060A060E060206121208E
:1020700060614B48844204D13D2049491039886051
:102080008CE047481830844205D14FF474604449CD
:102090001039886082E042483030844205D14FF4E4
:1020A00074103F491039886078E03D4848308442D8
:1020B00005D14FF074603A49103988606EE03848B5
:1020C0006030844204D1444835491039C86065E025
:1020D00033487830844204D1404831491039C860CF
:1020E0005CE02F489030844204D13D482C4910399F
:1020F000C86053E02A48A830844205D14FF03D50D3
:1021000027491039C86049E02648844204D13D205F
:1021100024490839086041E022481830844205D13A
:102120004FF474601F490839086037E01D483030AB
:10213000844205D14FF474101A49083908602DE023
:1021400018484830844205D14FF074601549083969
:10215000086023E013486030844204D11E481149CE
:10216000091F08601AE00F487830844204D11B48E8
:102170000C49091F086011E00A489030844204D1DC
:1021800017480849091F086008E00648A83084423B
:1021900004D14FF03D500349091F086010BD0000F5
:1021A000106002401064024053544D33324634787C
:1021B000785F5374645065726970685F44726976C1
:1021C00065725C7372635C73746D333266347878F5
:1021D0005F646D612E6300003D000020400F002011
:1021E00000003D2070B505460C460026A2488542F9
:1021F0003AD0A1481830854236D09F4830308542C9
:1022000032D09D48483085422ED09B486030854270
:102210002AD099487830854226D097489030854218
:1022200022D09548A83085421ED0944885421BD0C4
:1022300092481830854217D090483030854213D0EC
:102240008E48483085420FD08C48603085420BD094
:102250008A487830854207D088489030854203D03C
:102260008648A830854200D104E04FF49E7184A0D6
:1022700004F04CF82068D8B12068B0F1007F17D086
:102280002068B0F1806F13D02068B0F1C06F0FD01C
:102290002068B0F1006F0BD02068B0F1206F07D03C
:1022A0002068B0F1406F03D02068B0F1606F00D1BA
:1022B00004E040F23D1172A004F028F8E06828B173
:1022C000E068402802D0E068802800D104E04FF4A4
:1022D0009F716BA004F01AF8206920B12069B0F555
:1022E000803F00D204E040F23F1165A004F00EF8F8
:1022F0006069B0F5007F01D0606900B904E04FF477
:10230000A0715FA004F002F8A069B0F5806F01D061
:10231000A06900B904E040F2411159A003F0F6FFB2
:10232000E06938B1E069B0F5006F03D0E069B0F55D
:10233000805F00D104E04FF4A17151A003F0E6FFEB
:10234000206A38B1206AB0F5005F03D0206AB0F58A
:10235000804F00D104E040F2431149A003F0D6FFC2
:10236000606A18B1606AB0F5807F00D104E04FF474
:10237000A27143A003F0CAFFA06A58B1A06AB0F5E9
:10238000803F07D0A06AB0F5003F03D0A06AB0F547
:10239000403F00D104E040F2451139A003F0B6FF00
:1023A000E06A10B1E06A042800D104E04FF4A371A0
:1023B00033A003F0ABFF206B40B1206B012805D0A8
:1023C000206B022802D0206B032800D104E040F2E9
:1023D00047112BA003F09AFF606B58B1606BB0F50A
:1023E000000F07D0606BB0F1807F03D0606BB0F15D
:1023F000C07F00D104E04FF4A47121A003F086FF58
:10240000A06B58B1A06BB0F5001F07D0A06BB0F562
:10241000800F03D0A06BB0F5C00F00D104E040F2F4
:10242000491117A003F072FF2E6821480640E168A9
:102430002068084361690843A1690843E1690843CA
:10244000216A0843616A0843A16A0843616B084333
:10245000A16B084306432E606E6926F00706D4E997
:102460000B01084306436E61206968606068A860DC
:10247000A068E86070BD0000106002401064024077
:1024800053544D3332463478785F537464506572D8
:102490006970685F4472697665725C7372635C73BD
:1024A000746D3332663478785F646D612E6300003A
:1024B0003F801CF0704770477047000010B504461D
:1024C0000CB1012C00D103E0B82109A003F01EFFDC
:1024D00034B11448006840F480701249086005E087
:1024E0001048006820F480700E49086010BD00009C
:1024F00053544D3332463478785F53746450657268
:102500006970685F4472697665725C7372635C734C
:10251000746D3332663478785F666C6173682E63ED
:1025200000000000003C02401CB502208DF80400B1
:1025300000208DF8060001208DF8070000208DF89E
:1025400005004FF4C06000906946074800F00EF89F
:1025500007220921044800F0DFF807220A21024877
:1025600000F0DAF81CBD0000000002402DE9F04147
:1025700004460D4600260027B0465248844217D034
:102580005148844214D05148844211D0504884426A
:102590000ED0504884420BD04F48844208D04F4858
:1025A000844205D04E48844202D04E48844200D135
:1025B00003E0BB214CA003F0A9FE002010B928685D
:1025C00000B103E0BC2148A003F0A0FE287940B18F
:1025D0002879012805D02879022802D028790328F3
:1025E00000D103E0BD2140A003F090FEE87928B1BE
:1025F000E879012802D0E879022800D103E0BE2161
:1026000039A003F083FE002657E0012000FA06F708
:10261000286800EA0708B8454ED1206872000321F7
:1026200091408843206028797100884021680843E0
:1026300020602879012802D02879022830D16879D1
:1026400040B16879012805D06879022802D06879FC
:10265000032800D103E0D02123A003F057FEA06897
:102660007200032191408843A0606879710088401E
:10267000A1680843A060A87910B1A879012800D109
:1026800003E0D72118A003F041FE61680120B040AB
:10269000814361606068A979B14089B20843606094
:1026A000E0687200032191408843E060E87971009E
:1026B0008840E1680843E060761C102EA5D3BDE891
:1026C000F0810000000002400004024000080240C7
:1026D000000C0240001002400014024000180240AA
:1026E000001C02400020024053544D3332463478DF
:1026F000785F5374645065726970685F447269767C
:1027000065725C7372635C73746D333266347878AF
:102710005F6770696F2E63002DE9F04106460D4634
:1027200014460027B8465148864217D05048864282
:1027300014D05048864211D04F4886420ED04F48A0
:1027400086420BD04E48864208D04E48864205D07D
:102750004D48864202D04D48864200D104E040F206
:1027600017214BA003F0D2FDEDB1012D1BD0022D9E
:1027700019D0032D17D0042D15D0052D13D0062DFB
:1027800011D0072D0FD0082D0DD0092D0BD00A2DFB
:1027900009D00B2D07D00C2D05D00D2D03D00E2DFB
:1027A00001D00F2D00D104E04FF4067138A003F0E2
:1027B000ADFD9CB3092C31D084B37CB374B36CB33E
:1027C000012C2BD02AD0022C28D027D026D0032CA5
:1027D00024D0042C22D021D020D0052C1ED01DD0F6
:1027E000092C1BD0062C19D0092C17D0072C15D07A
:1027F00014D013D0082C11D010D00FD0092C0DD02C
:102800000CD00A2C0AD009D00B2C07D00C2C05D0E8
:1028100004D003D00D2C01D00F2C00D104E040F2E5
:1028200019211BA003F072FD6807C00E04FA00F71F
:10283000E91006F1200050F821006907CA0E0F21A7
:1028400091408843EA1006F1200141F82200E91086
:1028500006F1200050F8210040EA0708E91006F1CF
:10286000200040F82180BDE8F08100000000024017
:102870000004024000080240000C02400010024028
:102880000014024000180240001C024000200240D8
:1028900053544D3332463478785F537464506572C4
:1028A0006970685F4472697665725C7372635C73A9
:1028B000746D3332663478785F6770696F2E6300A9
:1028C00070B505460C4600262B48854217D02B488C
:1028D000854214D02A48854211D02A4885420ED01C
:1028E000294885420BD02948854208D0284885428E
:1028F00005D02848854202D02748854200D104E00F
:102900004FF4987125A003F001FD012C25D0022C75
:1029100023D0042C21D0082C1FD0102C1DD0202C0B
:102920001BD0402C19D0802C17D0B4F5807F14D048
:10293000B4F5007F11D0B4F5806F0ED0B4F5006F00
:102940000BD0B4F5805F08D0B4F5005F05D0B4F5C6
:10295000804F02D0B4F5004F00D104E040F23111B5
:102960000EA003F0D3FC2869204008B1012600E046
:102970000026304670BD0000000002400004024006
:1029800000080240000C0240001002400014024007
:1029900000180240001C02400020024053544D33F6
:1029A00032463478785F5374645065726970685F3A
:1029B0004472697665725C7372635C73746D3332F2
:1029C000663478785F6770696F2E630070B505466E
:1029D0000C4600262B48854217D02B48854214D040
:1029E0002A48854211D02A4885420ED0294885427E
:1029F0000BD02948854208D02848854205D0284870
:102A0000854202D02748854200D104E040F25711A8
:102A100025A003F07BFC012C25D0022C23D0042C14
:102A200021D0082C1FD0102C1DD0202C1BD0402CC6
:102A300019D0802C17D0B4F5807F14D0B4F5007F66
:102A400011D0B4F5806F0ED0B4F5006F0BD0B4F593
:102A5000805F08D0B4F5005F05D0B4F5804F02D098
:102A6000B4F5004F00D104E04FF4AC710EA003F0B8
:102A70004DFC6869204008B1012600E00026304680
:102A800070BD000000000240000402400008024047
:102A9000000C0240001002400014024000180240E6
:102AA000001C02400020024053544D33324634781B
:102AB000785F5374645065726970685F44726976B8
:102AC00065725C7372635C73746D333266347878EC
:102AD0005F6770696F2E630070B504460D46164837
:102AE000844217D01548844214D01548844211D02E
:102AF000144884420ED0144884420BD013488442B8
:102B000008D01348844205D01248844202D01248AB
:102B1000844200D104E04FF4C97110A003F0F6FB29
:102B2000002008B905B104E040F293110BA003F0B6
:102B3000EDFB658370BD0000000002400004024010
:102B400000080240000C0240001002400014024045
:102B500000180240001C02400020024053544D3334
:102B600032463478785F5374645065726970685F78
:102B70004472697665725C7372635C73746D333230
:102B8000663478785F6770696F2E630070B50446AD
:102B90000D461648844217D01548844214D0154873
:102BA000844211D0144884420ED0144884420BD081
:102BB0001348844208D01348844205D01248844206
:102BC00002D01248844200D104E040F27F1110A0EC
:102BD00003F09CFB002008B905B104E04FF4C0717C
:102BE0000BA003F093FB258370BD000000000240A2
:102BF0000004024000080240000C024000100240A5
:102C00000014024000180240001C02400020024054
:102C100053544D3332463478785F53746450657240
:102C20006970685F4472697665725C7372635C7325
:102C3000746D3332663478785F6770696F2E630025
:102C400010B50446054A02EB0412928991B2034A78
:102C500002EB04129068FFF733FE10BDA8E80008ED
:102C60000246012028291AD2012A02D0022A14D1B0
:102C700009E00B4B53F82130052B01D3012300E071
:102C8000002318460AE0074B53F82130052B01D3E7
:102C9000012300E00023184600E000BF00BF70479A
:102CA000807B0020207C002010B504210748FFF71E
:102CB0008DFE012804D004210448FFF767FF03E0DC
:102CC00004210248FFF708FF10BD00000010024079
:102CD0001CB50DA008F082FD0121102001F000F8C4
:102CE00001208DF8040000208DF8060002208DF8E8
:102CF000050000208DF807000420009069460F4869
:102D0000FFF734FC1CBD00000D0A20486172647797
:102D1000617265205761746368646F6720436861FE
:102D20006E616C73204750494F20636F6E66696710
:102D30007572652E2E2E2E2E2E00000000100240E1
:102D40004CF6CC400149086070470000003000405C
:102D500070B505461A2D02DB40F6FF7403E09C2097
:102D60006843C0F30B0445F2555000F06DF806209F
:102D700000F010F8204600F03FF800F003F8FFF7ED
:102D8000DFFF70BD4AF6AA200149086070470000C5
:102D90000030004010B504465CB1012C09D0022C73
:102DA00007D0032C05D0042C03D0052C01D0062C11
:102DB00000D103E0982103A003F0A8FA0D48446075
:102DC00010BD000053544D3332463478785F53744D
:102DD000645065726970685F4472697665725C738D
:102DE00072635C73746D3332663478785F697764CC
:102DF000672E63000030004010B50446B4F5805FD4
:102E000000DA03E0A52103A003F080FA0D488460F6
:102E100010BD000053544D3332463478785F5374FC
:102E2000645065726970685F4472697665725C733C
:102E300072635C73746D3332663478785F6977647B
:102E4000672E63000030004010B5044645F255502F
:102E5000844200D004B903E0842103A003F056FAB1
:102E60000D48046010BD000053544D333246347891
:102E7000785F5374645065726970685F44726976F4
:102E800065725C7372635C73746D33326634787828
:102E90005F697764672E6300003000401CB50CA0AA
:102EA00008F09CFC0121022000F01AFF01208DF89F
:102EB000040000208DF806008DF805008DF807004D
:102EC0004FF48040009069460948FFF74FFB1CBD56
:102ED0000D0A2B204C4544204750494F20636F6E0C
:102EE0006669677572652E2E2E2E2E2E0D0A000035
:102EF0000004024000BFFEE7704710B500214FF00C
:102F0000006000F0C5F84FF4A06000F08DF810BD2F
:102F100008B525208DF8000003208DF80100002061
:102F20008DF8020001208DF80300684600F010F8CB
:102F30002B208DF8000003208DF8010000208DF873
:102F4000020001208DF80300684600F001F808BD7A
:102F50002DE9F0410446002500270F26E07810B146
:102F6000E078012800D103E0872122A003F0CEF908
:102F70006078102800DA03E088211EA003F0C6F96B
:102F8000A078102800DA03E089211AA003F0BEF926
:102F9000E07818B32148006800F4E060C0F5E06014
:102FA000C0F30725C5F10400C7B22E416078B840D0
:102FB000C5B2A078304005432807050E184821788F
:102FC0004554207800F01F010120884021784911E4
:102FD000890001F1E021C1F8000109E0207800F04A
:102FE0001F01012088400F492278521141F8220028
:102FF000BDE8F08153544D3332463478785F5374D2
:10300000645065726970685F4472697665725C735A
:1030100072635C6D6973632E630000000CED00E069
:1030200000E400E080E100E010B50446B4F5E06F94
:103030000BD0B4F5C06F08D0B4F5A06F05D0B4F5CF
:10304000806F02D0B4F5407F00D103E0732104A06B
:1030500003F05CF90C4820430C49086010BD0000E7
:1030600053544D3332463478785F537464506572EC
:103070006970685F4472697665725C7372635C6DD7
:103080006973632E630000000000FA050CED00E098
:1030900070B504460D46B4F1005F02D0B4F1006F84
:1030A00000D103E0B12109A003F030F911488542B5
:1030B00000D203E0B22105A003F028F90E4905EA89
:1030C000010020430D49086070BD000053544D338A
:1030D00032463478785F5374645065726970685F03
:1030E0004472697665725C7372635C6D6973632E9A
:1030F00063000000FFFF0F0080FFFF1F08ED00E0EE
:1031000000BF0A48006810F8080C0849096811F85F
:10311000041C08440549096801F8080C03480068C4
:10312000001F0249086000BF70470000B401002082
:1031300000BF0A48006850F8080C0849096851F8AF
:10314000041C08440549096841F8080C0348006854
:10315000001F0249086000BF70470000B401002052
:1031600000BF0A48006830F8080C0849096831F8BF
:10317000041C084400B20549096821F8080C0348FA
:103180000068001F0149086000BF7047B4010020BB
:1031900000BF0A48006810F8080C0849096811F8CF
:1031A000041C08400549096801F8080C0348006838
:1031B000001F0249086000BF70470000B4010020F2
:1031C00000BF0A48006850F8080C0849096851F81F
:1031D000041C08400549096841F8080C03480068C8
:1031E000001F0249086000BF70470000B4010020C2
:1031F00000BF0A48006830F9080C0849096831F92D
:10320000041C08400549096821F8080C03480068B7
:10321000001F0249086000BF70470000B401002091
:103220000448006810F8040CC0430249096801F81A
:10323000040C7047B40100200448006850F8040CE6
:10324000C0430249096841F8040C7047B4010020EA
:103250000448006830F9040CC0430249096821F8A9
:10326000040C7047B401002010B5A4B0DF4800681A
:1032700000781390DD480068401CDC49086000209D
:103280001290DB480068001FD949086011E0D84857
:10329000006802681398401E1299401A14A941F858
:1032A0002020D3480068001FD14908601298401CB4
:1032B0001290DDE912018842E9D3CD480068006828
:1032C0001190139811286ED2DFE800F0090E141D3A
:1032D000293747596E849CB6D2F4F2F1F0000020F1
:1032E00011998847109074E114980F9011998847AC
:1032F00010906EE115980F9014980E90119A0F99F6
:103300009047109065E116980F9015980E901498BC
:103310000D90119BDDE90E129847109059E1179816
:103320000F9016980E9015980D9014980C90119C73
:103330000DA90EC9A04710904BE11898009017985E
:103340000F9016980E9015980D9014980C90119C53
:103350000DA90EC9A04710903BE1DDE91801CDE9A8
:10336000000117980F9016980E9015980D901498CC
:103370000C90119C0DA90EC9A047109029E1DDE920
:1033800019211898CDE90121009017980F901698EF
:103390000E9015980D9014980C90119C0DA90EC9C3
:1033A000A047109015E111E1DDE9193218991B9839
:1033B000CDE901320091039017980F9016980E9066
:1033C00015980D9014980C90119C0DA90EC9A0474A
:1033D0001090FEE0DDE91923DDE91B10CDE90123A2
:1033E000CDE903101898009017980F9016980E903A
:1033F00015980D9014980C90119C0DA90EC9A0471A
:103400001090E6E0DDE91A23DDE91C10CDE9022386
:10341000CDE90410DDE91801CDE9000117980F90FE
:1034200016980E9015980D9014980C90119C0DA95B
:103430000EC9A0471090CCE0DDE91C321B991E9804
:10344000CDE9043203910690DDE919211898CDE900
:103450000121009017980F9016980E9015980D90D6
:1034600014980C90119C0DA90EC9A0471090B0E0C3
:10347000DDE91C23DDE91E10CDE90423CDE90610AA
:10348000DDE9193218991B98CDE9013200910390BA
:1034900017980F9016980E9015980D9014980C9000
:1034A000119C0DA90EC9A047109092E068E043E07E
:1034B00020E0FFE7DDE91E321D992098CDE90632B4
:1034C00005910890DDE91923DDE91B01CDE9012310
:1034D000CDE903011898009017980F9016980E9058
:1034E00015980D9014980C90119C0DA90EC9A04729
:1034F00010906EE0DDE91E13DDE92002CDE9061330
:10350000CDE90802DDE91A23DDE91C01CDE902233A
:10351000CDE90401DDE91801CDE9000117980F900C
:1035200016980E9015980D9014980C90119C0DA95A
:103530000EC9A04710904CE0DDE92031229A1F9877
:10354000CDE908310A920790DDE91B23DDE91D0171
:10355000CDE90323CDE90501DDE919211898CDE96D
:103560000121009017980F9016980E9015980D90C5
:1035700014980C90119C0DA90EC9A047109028E03A
:10358000DDE9213220992398CDE9093208910B9089
:10359000DDE91D321C991F98CDE905320491079091
:1035A000DDE91823DDE91A10CDE90023CDE9021089
:1035B00017980F9016980E9015980D9014980C90DF
:1035C000119C0DA90EC9A047109002E00020109098
:1035D00000BF00BF064910980968086004480068E9
:1035E000001D0349086024B010BD0000B801002090
:1035F000B401002000BF0A48006810F8080C084910
:10360000096811F8041C90FBF1F00549096801F8FC
:10361000080C03480068001F0149086000BF70479C
:10362000B401002000BF0A48006850F8080C08499F
:10363000096851F8041C90FBF1F00549096841F84C
:10364000080C03480068001F0149086000BF70476C
:10365000B401002000BF0B48006830F9080C09498C
:10366000096831F9041C90FBF1F000B205490968C2
:1036700021F8080C03480068001F0249086000BFD9
:1036800070470000B401002008480068007808492D
:103690000968087006480068001D0549086003486D
:1036A0000068401C0149086070470000B801002014
:1036B000B40100200F48006800780E490968497875
:1036C00040EA01200B490968897840EA014009492C
:1036D0000968C97840EA0160074909680860064836
:1036E0000068001D0449086002480068001D014987
:1036F00008607047B8010020B40100201049096833
:1037000009780F4A1268527841EA02210C4A12687D
:10371000927841EA02410A4A1268D27841EA02608C
:103720000178084A1268117006490968091D054A9E
:10373000116003490968091D014A116070470000C2
:10374000B8010020B40100200449096851F8040CB4
:103750000178024A126802F8041C7047B401002084
:103760001049096809780F4A1268527841EA022123
:103770000C4A1268927841EA02410A4A1268D278E9
:1037800041EA0260084A0168126811600649096846
:10379000091D054A116003490968091D014A1160A4
:1037A00070470000B8010020B401002004490968F6
:1037B00051F8040C024A0168126842F8041C704770
:1037C000B40100201049096809780F4A126852783C
:1037D00041EA02210C4A1268927841EA02410A4AFF
:1037E0001268D27841EA02600188084A12681180A2
:1037F00006490968091D054A116003490968091D40
:10380000014A116070470000B8010020B401002097
:103810000449096851F8040C0188024A126822F828
:10382000041C7047B40100200B48006800780A4966
:103830000968497840EA012000B20849096808800F
:1038400006480068001D0549086003480068801CA0
:103850000149086070470000B8010020B401002051
:1038600000BF0B48006810F8080C0949096811F8F6
:10387000041C90FBF1F201FB12000549096801F8F4
:10388000080C03480068001F0149086000BF70472A
:10389000B401002000BF0B48006850F8080C09492B
:1038A000096851F8041C90FBF1F201FB1200054974
:1038B000096841F8080C03480068001F01490860C6
:1038C00000BF7047B401002000BF0B48006830F90A
:1038D000080C0949096831F9041C90FBF1F201FB5D
:1038E00012000549096821F8080C03480068001F08
:1038F0000149086000BF7047B401002000BF0A48BA
:10390000006810F8080C0849096811F8041C10FB3D
:1039100001F00549096801F8080C03480068001F18
:103920000149086000BF7047B401002000BF0A4889
:10393000006850F8080C0849096851F8041C48430D
:103940000549096841F8080C03480068001F02494E
:10395000086000BF70470000B401002000BF0B48A2
:10396000006830F8080C0949096831F8041C10FB9C
:1039700001F000B20549096821F8080C0348006805
:10398000001F0249086000BF70470000B40100201A
:103990007047000000BF0A48006810F8080C08498A
:1039A000096811F8041C08430549096801F8080C66
:1039B00003480068001F0249086000BF704700000C
:1039C000B401002000BF0A48006850F8080C0849FC
:1039D000096851F8041C08430549096841F8080CB6
:1039E00003480068001F0249086000BF70470000DC
:1039F000B401002000BF0A48006830F9080C0849EB
:103A0000096831F9041C08430549096821F8080CC4
:103A100003480068001F0249086000BF70470000AB
:103A2000B401002002480068001F01490860704787
:103A3000B401002000BF0A48006810F8080C0849CB
:103A4000096811F8041C88400549096801F8080C48
:103A500003480068001F0249086000BF704700006B
:103A6000B401002000BF0A48006850F8080C08495B
:103A7000096811F8041C88400549096841F8080CD8
:103A800003480068001F0249086000BF704700003B
:103A9000B401002000BF0A48006830F8080C08494B
:103AA000096811F8041C884000B20549096821F82A
:103AB000080C03480068001F0149086000BF7047F8
:103AC000B401002000BF0A48006810F8080C08493B
:103AD000096811F8041C08410549096801F8080C37
:103AE00003480068001F0249086000BF70470000DB
:103AF000B401002000BF0A48006850F8080C0849CB
:103B0000096811F8041C08410549096841F8080CC6
:103B100003480068001F0249086000BF70470000AA
:103B2000B401002000BF0A48006830F9080C0849B9
:103B3000096811F8041C08410549096821F8080CB6
:103B400003480068001F0249086000BF704700007A
:103B5000B40100200748006810F8040C0549096802
:103B600051F8081C087003480068001F01490860EC
:103B700070470000B40100200748006850F8040CAA
:103B80000549096851F8081C086003480068001FCF
:103B90000149086070470000B40100200748006830
:103BA00030F8040C0549096851F8081C08800348DE
:103BB0000068001F0149086070470000B401002040
:103BC00000BF0A48006810F8080C0849096811F895
:103BD000041C401A0549096801F8080C03480068EC
:103BE000001F0249086000BF70470000B4010020B8
:103BF00000BF0A48006850F8080C0849096851F8E5
:103C0000041C401A0549096841F8080C034800687B
:103C1000001F0249086000BF70470000B401002087
:103C200000BF0A48006830F8080C0849096831F8F4
:103C3000041C401A00B20549096821F8080C034821
:103C40000068001F0149086000BF7047B4010020F0
:103C500000BF0A48006810F8080C0849096811F804
:103C6000041C48400549096801F8080C034800682D
:103C7000001F0249086000BF70470000B401002027
:103C800000BF0A48006850F8080C0849096851F854
:103C9000041C48400549096841F8080C03480068BD
:103CA000001F0249086000BF70470000B4010020F7
:103CB00000BF0A48006830F9080C0849096831F962
:103CC000041C48400549096821F8080C03480068AD
:103CD000001F0249086000BF70470000B4010020C7
:103CE00070B504460D461048204008B904B104E000
:103CF0004FF488610DA002F009FB0DB1012D00D138
:103D000004E040F2424109A002F000FB2DB113484B
:103D1000006820431149086004E010480068A0438F
:103D20000E49086070BD000000EE8B8153544D3386
:103D300032463478785F5374645065726970685F96
:103D40004472697665725C7372635C73746D33324E
:103D5000663478785F7263632E6300003038024007
:103D600070B504460D461048204008B904B104E07F
:103D700040F2AD410DA002F0C9FA0DB1012D00D104
:103D800004E040F2AE4109A002F0C0FA2DB11348A0
:103D9000006820431149086004E010480068A0430F
:103DA0000E49086070BD0000003601C953544D3300
:103DB00032463478785F5374645065726970685F16
:103DC0004472697665725C7372635C73746D3332CE
:103DD000663478785F7263632E6300004038024077
:103DE00070B504460D461048204008B904B104E0FF
:103DF0004FF4AC610DA002F089FA0DB1012D00D194
:103E000004E040F2615109A002F080FA2DB113489C
:103E1000006820431149086004E010480068A0438E
:103E20000E49086070BD0000003601C953544D337F
:103E300032463478785F5374645065726970685F95
:103E40004472697665725C7372635C73746D33324D
:103E5000663478785F7263632E6300002038024016
:103E600070B504460D461048204008B904B104E07E
:103E700040F2D5410DA002F049FA0DB1012D00D15B
:103E800004E040F2D64109A002F040FA2DB11348F7
:103E9000006820431149086004E010480068A0430E
:103EA0000E49086070BD0000CCA0F8FF53544D339C
:103EB00032463478785F5374645065726970685F15
:103EC0004472697665725C7372635C73746D3332CD
:103ED000663478785F7263632E6300004438024072
:103EE00070B504460D461048204008B904B104E0FE
:103EF00040F284510DA002F009FA0DB1012D00D15C
:103F000004E040F2855109A002F000FA2DB11348F7
:103F1000006820431149086004E010480068A0438D
:103F20000E49086070BD0000CCA6F8FF53544D3315
:103F300032463478785F5374645065726970685F94
:103F40004472697665725C7372635C73746D33324C
:103F5000663478785F7263632E6300002438024011
:103F600010B501210846FFF7BBFE01211020FFF725
:103F700077FF01218805FFF7B3FE01214020FFF7FD
:103F8000EFFE10BD0E48006840F001000C490860CB
:103F900000200B49083108600948006809490840B9
:103FA000074908600848091D0860081F006820F4D8
:103FB0008020091F0860002001490C31086070470B
:103FC00000380240FFFFF6FE10300024F0B500215B
:103FD00000220024022500260223324F3F6807F00A
:103FE0000C0121B1042905D0082937D105E02E4F55
:103FF000076036E02D4F076033E02A4F3F1F3F68D0
:10400000C7F38056274F3F1F3F6807F03F036EB14D
:10401000264FB7FBF3F7DFF88CC0ACF1040CDCF8EB
:1040200000C0CCF3881C07FB0CF40CE01E4FB7FB60
:10403000F3F7DFF870C0ACF1040CDCF800C0CCF38F
:10404000881C07FB0CF4174F3F1F3F68C7F301475D
:104050007F1C7D00B4FBF5F7076002E0124F07609C
:1040600000BF00BF0F4F3F6807F0F0010909104F74
:104070007A5C0768D74047600A4F3F6807F4E05111
:10408000890A0B4F7A5C4768D7408760054F3F68C5
:1040900007F46041490B064F7A5C4768D740C76018
:1040A000F0BD0000083802400024F40000127A003D
:1040B0003800002010B504460CB1012C00D104E0FA
:1040C00040F24B1102A002F021F90D48046010BD2E
:1040D00053544D3332463478785F5374645065726C
:1040E0006970685F4472697665725C7372635C7351
:1040F000746D3332663478785F7263632E630000C8
:1041000000004742704700001CB50020019000905D
:104110005C48006840F480305A49086000BF594844
:10412000006800F4003000900198401C0190009855
:1041300018B90198B0F5A06FF1D15248006800F4A9
:10414000003010B10120009001E0002000900098A4
:10415000012847D14B484030006840F08050494921
:10416000403108604848006840F480404649086093
:104170004448083000684349083108600846006830
:1041800040F4004008600846006840F4A050086011
:104190003E48091F0860081F006840F08070091F32
:1041A000086000BF3748006800F000700028F9D0B0
:1041B00040F205603649086032480830006820F057
:1041C00003003049083108600846006840F00200EA
:1041D000086000BF2B480830006800F00C00082879
:1041E000F8D14EE0FFF7CEFE0120FFF763FF01207C
:1041F000FEF764F923484030006840F080502149C0
:10420000403108602048006840F480401E49086042
:104210001C48083000681B490831086008460068DF
:1042200040F4004008600846006840F4A050086070
:104230001848091F0860081F006840F08070091FB7
:10424000086000BF0F48006800F000700028F9D037
:1042500040F205600E4908600A480830006820F006
:1042600003000849083108600846006840F0020071
:10427000086000BF03480830006800F00C00082800
:10428000F8D11CBD003802400070004008544007BF
:10429000003C02401054000710B504462CB94FF4FE
:1042A00080410548FEF772FC04E04FF4804102486B
:1042B000FEF712FC10BD00000004024010B50446D9
:1042C000042C01D0601D00B903E0DC210BA002F03A
:1042D0001DF8042C08D14FF0E020006940F00400E4
:1042E0004FF0E021086107E04FF0E020006920F086
:1042F00004004FF0E021086110BD000053544D331D
:1043000032463478785F5374645065726970685FC0
:104310004472697665725C7372635C6D6973632E57
:10432000630000007FB56846FFF750FE4FF47A71D6
:104330000198B0FBF1F4E4081549019808602146A2
:10434000B1F1807F00D31DE021F07F40401E4FF08F
:10435000E022506150170F22002807DA13071E0EC3
:104360000C4B00F00F052D1F5E5503E013071D0ECB
:10437000094B1D5400BF00204FF0E0229061072040
:10438000106100BF6FF00400FFF798FF7FBD0000D1
:104390000000002018ED00E000E400E010B507F098
:1043A000A9F909F07FF807F0BDF910BD10B515485F
:1043B000006840F47000134908601348006840F03A
:1043C00001001149086000200F49083108600E48BB
:1043D00000680E4908400C4908600D48091D086036
:1043E000081F006820F48020091F0860002006498B
:1043F0000C310860FFF788FE4FF0006001498039FA
:10440000086010BD88ED00E000380240FFFFF6FEB6
:104410001030002410B5FDF7C1FBFDF74FFBFDF791
:1044200091FBFDF70DFC012202210448FCF7C8FDB9
:10443000012202210248FCF7C3FD10BD00640040C8
:104440000068004010B5FEF729FD042000F02AF8AE
:1044500010BD000010B510480068401C0E490860EF
:104460000846007800F00300A0B90C4909680C4A1E
:104470001268885CFFF710FF09480068401C084973
:104480000860084600682821B0FBF1F201FB120029
:104490000349086010BD0000100000200800002043
:1044A0000C00002001280AD0022804D003280AD0DA
:1044B000042810D10BE00B490B4A11600FE00B49A7
:1044C000094A11600BE00A49074A116007E00949EF
:1044D000054A116003E00549034A116000BF00BFAF
:1044E0007047000026E70008080000204EE700089B
:1044F00076E700089EE700081FB514A007F06EF9E4
:104500001DA007F06BF91CA007F068F902F036FA5D
:10451000002301221AA11C4807F094FF1B490860E0
:1045200008200A21C2011A4BCDE90032CDE9021060
:104530000023184A18A11B4808F068FD044614B966
:10454000184808F069FEFCF763F91FBD0D0A5B2AE5
:104550005D2053797374656D20616C6C2074617398
:104560006B20496E6974205374617274202E2E2E54
:104570002E2E2E200D0A0000202B200D0A000000F8
:1045800053656D31306D7300A006002014000020CB
:1045900010020020B109000842737053797354610E
:1045A000736B00001006002010B507F0A3F807F0A9
:1045B000B9F810BD10B507F09DF807F0B3F810BDBD
:1045C00010B507F097F80121034800F027F9FDF72F
:1045D0005DFA07F0A7F810BD0004004010B507F021
:1045E00089F80121034800F019F909F0B5FA07F03C
:1045F00099F810BD0008004010B507F07BF807F0EF
:1046000091F810BD10B507F075F807F08BF810BDE4
:1046100010B507F06FF80C480068C0F500700B4942
:10462000086005F0EFFD0A48407C10B1084807F02B
:1046300043FF0021074800F059F90121054800F027
:1046400085F807F06FF810BD8C640240340000203C
:10465000F40A00200018004070B504460D462248B8
:10466000844226D0B4F1804F23D02048844220D009
:104670001F4884421DD01F4884421AD01E488442DD
:1046800017D01E48844214D01D48844211D01D48C2
:1046900084420ED01C4884420BD01C48844208D06F
:1046A0001B48844205D01B48844202D01A488442E9
:1046B00000D104E040F2072118A001F027FE0DB15F
:1046C000012D00D104E04FF4027114A001F01EFE90
:1046D00025B1208840F08000208004E020884FF63B
:1046E0007F710840208070BD000001400004004040
:1046F00000080040000C0040001000400014004082
:1047000000040140004001400044014000480140D5
:1047100000180040001C00400020004053544D335E
:1047200032463478785F5374645065726970685F9C
:104730004472697665725C7372635C73746D333254
:10474000663478785F74696D2E63000070B5044636
:104750000D461948844226D0B4F1804F23D0174823
:10476000844220D0164884421DD0164884421AD074
:104770001548844217D01548844214D01448844206
:1047800011D0144884420ED0134884420BD01348F1
:10479000844208D01248844205D01248844202D094
:1047A0001148844200D104E040F6AE110FA001F0A0
:1047B000ADFDE843208270BD0000014000040040D0
:1047C00000080040000C00400010004000140040B1
:1047D0000004014000400140004401400048014005
:1047E00000180040001C00400020004053544D338E
:1047F00032463478785F5374645065726970685FCC
:104800004472697665725C7372635C73746D333283
:10481000663478785F74696D2E63000070B5044665
:104820000D461948844226D0B4F1804F23D0174852
:10483000844220D0164884421DD0164884421AD0A3
:104840001548844217D01548844214D01448844235
:1048500011D0144884420ED0134884420BD0134820
:10486000844208D01248844205D01248844202D0C3
:104870001148844200D104E040F6F3110FA001F08A
:1048800045FDE843208270BD000001400004004067
:1048900000080040000C00400010004000140040E0
:1048A0000004014000400140004401400048014034
:1048B00000180040001C00400020004053544D33BD
:1048C00032463478785F5374645065726970685FFB
:1048D0004472697665725C7372635C73746D3332B3
:1048E000663478785F74696D2E63000070B5044695
:1048F0000D462248844226D0B4F1804F23D0204870
:10490000844220D01F4884421DD01F4884421AD0C0
:104910001E48844217D01E48844214D01D48844249
:1049200011D01D4884420ED01C4884420BD01C4834
:10493000844208D01B48844205D01B48844202D0E0
:104940001A48844200D104E040F24D2118A001F041
:10495000DDFC0DB1012D00D104E040F24E2114A088
:1049600001F0D4FC25B1208840F00100208004E053
:1049700020884FF6FE710840208070BD0000014085
:104980000004004000080040000C004000100040FF
:104990000014004000040140004001400044014078
:1049A0000048014000180040001C0040002000406A
:1049B00053544D3332463478785F53746450657283
:1049C0006970685F4472697665725C7372635C7368
:1049D000746D3332663478785F74696D2E630000CD
:1049E00010B504466C48844226D0B4F1804F23D0E1
:1049F0006A48844220D06A4884421DD06948844273
:104A00001AD06948844217D06848844214D0684854
:104A1000844211D0674884420ED0674884420BD04C
:104A20006648844208D06648844205D0654884427E
:104A300002D06548844200D103E0C52163A001F0A3
:104A400065FC5548844208D101210846FFF748FA21
:104A500000210120FFF744FA9DE0B4F1804F08D116
:104A600001210846FFF7BCF900210120FFF7B8F942
:104A700091E04A48844208D101210220FFF7B0F9B1
:104A800000210220FFF7ACF985E04548844208D1B7
:104A900001210420FFF7A4F900210420FFF7A0F969
:104AA00079E04048844208D101210820FFF798F9B5
:104AB00000210820FFF794F96DE03B48844208D1BB
:104AC00001211020FFF78CF900211020FFF788F951
:104AD00061E03648844208D101212020FFF780F9A7
:104AE00000212020FFF77CF955E03148844208D1AD
:104AF00001210220FFF7F4F900210220FFF7F0F96D
:104B000049E02C48844209D101210804FFF7E8F963
:104B100000214FF48030FFF7E3F93CE0264884425F
:104B200009D101214804FFF7DBF900214FF40030DF
:104B3000FFF7D6F92FE02148844209D101218804EA
:104B4000FFF7CEF900214FF48020FFF7C9F922E0EA
:104B50001B48844208D101214020FFF741F9002180
:104B60004020FFF73DF916E01648844208D10121A4
:104B70008020FFF735F900218020FFF731F90AE0A6
:104B80001148844207D101218015FFF729F900213E
:104B9000A015FFF725F910BD0000014000040040FA
:104BA00000080040000C00400010004000140040CD
:104BB0000004014000400140004401400048014021
:104BC00000180040001C00400020004053544D33AA
:104BD00032463478785F5374645065726970685FE8
:104BE0004472697665725C7372635C73746D3332A0
:104BF000663478785F74696D2E63000070B5044682
:104C00000D4616462548844226D0B4F1804F23D065
:104C10002348844220D0234884421DD02248844225
:104C20001AD02248844217D02148844214D0214807
:104C3000844211D0204884420ED0204884420BD0B8
:104C40001F48844208D01F48844205D01E48844231
:104C500002D01E48844200D104E040F63D111CA061
:104C600001F054FB05F47F4008B905B104E040F6BB
:104C70003E1117A001F04AFB0EB1012E00D104E055
:104C800040F63F1112A001F041FB1EB1A08928435C
:104C9000A08102E0A089A843A08170BD000001406E
:104CA0000004004000080040000C004000100040DC
:104CB0000014004000040140004001400044014055
:104CC0000048014000180040001C00400020004047
:104CD00053544D3332463478785F53746450657260
:104CE0006970685F4472697665725C7372635C7345
:104CF000746D3332663478785F74696D2E630000AA
:104D000070B504460E4615461D48844226D0B4F1BF
:104D1000804F23D01B48844220D01B4884421DD0A2
:104D20001A4884421AD01A48844217D0194884423B
:104D300014D01948844211D0184884420ED0184823
:104D400084420BD01748844208D01748844205D0CB
:104D50001648844202D01648844200D104E040F252
:104D6000651114A001F0D2FA0DB1012D00D104E0BB
:104D70004FF4B3710FA001F0C9FA2685A58270BD6A
:104D8000000001400004004000080040000C00400A
:104D900000100040001400400004014000400140A9
:104DA000004401400048014000180040001C004041
:104DB0000020004053544D3332463478785F5374AA
:104DC000645065726970685F4472697665725C737D
:104DD00072635C73746D3332663478785F74696DB6
:104DE0002E63000070B504460D461948844226D053
:104DF000B4F1804F23D01748844220D01648844213
:104E00001DD0164884421AD01548844217D0154840
:104E1000844214D01448844211D0144884420ED0E5
:104E2000134884420BD01348844208D0124884426D
:104E300005D01248844202D01148844200D104E0D7
:104E40004FF4CB710FA001F061FA656270BD0000F4
:104E5000000001400004004000080040000C004039
:104E600000100040001400400004014000400140D8
:104E7000004401400048014000180040001C004070
:104E80000020004053544D3332463478785F5374D9
:104E9000645065726970685F4472697665725C73AC
:104EA00072635C73746D3332663478785F74696DE5
:104EB0002E63000070B504460D4600264348844228
:104EC00026D0B4F1804F23D04148844220D04148BD
:104ED00084421DD0404884421AD04048844217D0B2
:104EE0003F48844214D03F48844211D03E48844217
:104EF0000ED03E4884420BD03D48844208D03D4805
:104F0000844205D03C48844202D03C48844200D1CF
:104F100004E040F21F113AA001F0F8F9688858B196
:104F20006888102808D06888202805D0688840281C
:104F300002D06888602800D104E04FF4907130A05E
:104F400001F0E4F9288938B12889B0F5807F03D0D1
:104F50002889B0F5007F00D104E040F2211128A09B
:104F600001F0D4F92688194884420ED01D488442A5
:104F70000BD0B4F1804F08D01548844205D01548B5
:104F8000844202D01448844204D14FF68F70064008
:104F9000688806431148844207D01148844204D0EF
:104FA0004FF6FF4006402889064326806868E06285
:104FB000288820850548844202D00A48844201D1CD
:104FC000A87A20860120A08270BD00000000014068
:104FD0000004004000080040000C004000100040A9
:104FE0000014004000040140004001400044014022
:104FF0000048014000180040001C00400020004014
:1050000053544D3332463478785F5374645065722C
:105010006970685F4472697665725C7372635C7311
:10502000746D3332663478785F74696D2E63000076
:105030000EB50D48FFF7D4FCC82001905320ADF801
:1050400000000020ADF80800ADF8020069460648EF
:10505000FFF730FF01210448FFF778FB01221146DA
:105060000148FFF7CBFD0EBD0018004010B506F05B
:1050700041FB06F057FB10BD10B506F03BFB40F2BC
:1050800024410B4800F0C6F958B1094800F028FC4B
:1050900000210848FFF7A6FE01210648FFF726FC7D
:1050A00002E0054806F0F4F906F03CFB10BD0000F4
:1050B0000010014000180040AC07002010B506F0B9
:1050C00019FB40F22551064800F0A4F920B140F246
:1050D0002551034800F070F806F024FB10BD0000D5
:1050E0000044004000B587B001210846FEF7F8FDF6
:1050F00001214804FEF734FE4FF4E1300390002014
:10510000ADF81000ADF81200ADF81400ADF81800BD
:105110000C20ADF81600C001FDF786FF26208DF8A3
:10512000000000208DF8020001208DF8030000200F
:105130008DF801006846FDF70BFF07220221194890
:10514000FDF7EAFA072203211648FDF7E5FA0020E9
:105150008DF80A0001208DF80B0002208DF8080060
:105160000420019002208DF8090001A90D48FDF7E7
:10517000FDF902208DF808000820019001A90948D6
:10518000FDF7F4F903A9084800F09EFA012106484A
:1051900000F08AF8012240F22551034800F0ECF9B2
:1051A00007B000BD000002400044004010B506F00A
:1051B000A1FA06F0B7FA10BD2DE9F04104460D46FC
:1051C00000260027254884420ED0254884420BD073
:1051D0002448844208D02448844205D0234884428D
:1051E00002D02348844200D104E040F2995121A02A
:1051F00001F08CF840F2266085420BD040F2255039
:10520000854207D040F64600854203D040F66A103A
:10521000854200D104E040F29A5116A001F076F8E0
:1052200040F66A10854211D10C48844208D00C48DF
:10523000844205D00B48844202D00D48844200D1FC
:1052400004E040F29F510BA001F060F82E12012003
:10525000B04087B2F8432080BDE8F08100100140E3
:105260000044004000480040004C00400050004016
:105270000014014053544D3332463478785F5374F0
:10528000645065726970685F4472697665725C73B8
:1052900072635C73746D3332663478785F757361F2
:1052A00072742E630000000070B504460D46164867
:1052B00084420ED0154884420BD01548844208D051
:1052C0001448844205D01448844202D013488442D2
:1052D00000D104E040F29B1111A001F017F80DB1CC
:1052E000012D00D104E04FF4CE710DA001F00EF8B5
:1052F00025B1A08940F40050A08104E0A0894DF6BA
:10530000FF710840A08170BD0010014000440040C2
:1053100000480040004C0040005000400014014094
:1053200053544D3332463478785F53746450657209
:105330006970685F4472697665725C7372635C73EE
:10534000746D3332663478785F75736172742E636E
:105350000000000070B504460D4616461A48844207
:105360000ED01A4884420BD01948844208D01948FC
:10537000844205D01848844202D01848844200D1A3
:1053800004E040F23B4116A000F0C0FF4FF63F7032
:10539000284008B905B104E040F23C4110A000F0FB
:1053A000B5FF0EB1012E00D104E040F23D410CA04A
:1053B00000F0ACFF1EB1A08A2843A08202E0A08AC0
:1053C000A843A08270BD00000010014000440040CE
:1053D00000480040004C00400050004000140140D4
:1053E00053544D3332463478785F53746450657249
:1053F0006970685F4472697665725C7372635C732E
:10540000746D3332663478785F75736172742E63AD
:10541000000000002DE9F04705460C460027002655
:10542000B046B146414885420ED0414885420BD036
:105430004048854208D04048854205D03F488542D3
:1054400002D03F48854200D104E04FF4AA613DA05C
:1054500000F05CFF282C27D040F22770844223D034
:1054600040F2266084421FD040F2255084421BD077
:1054700040F22440844217D040F64600844213D0C4
:1054800040F66A1084420FD0B4F5587F0CD040F239
:105490002530844208D0B4F5587F05D0B4F5187F84
:1054A00002D0B4F5B07F00D104E040F2515125A004
:1054B00000F02CFF40F66A10844211D11B4885424F
:1054C00008D01B48854205D01A48854202D01C48A6
:1054D000854200D104E040F256511AA000F016FFB8
:1054E000C4F3421804F01F06012000FA06F6B8F1D2
:1054F000010F02D1A889064007E0B8F1020F02D1DE
:10550000288A064001E0A88A06402712012000FAF6
:1055100007F7288807401EB117B14FF0010901E0D5
:105520004FF000094846BDE8F08700000010014038
:105530000044004000480040004C00400050004043
:105540000014014053544D3332463478785F53741D
:10555000645065726970685F4472697665725C73E5
:1055600072635C73746D3332663478785F7573611F
:1055700072742E63000000002DE9F04704460D46CA
:1055800017464FF00008C246C14600263B488442F9
:105590000ED03B4884420BD03A48844208D03A4867
:1055A000844205D03948844202D03948844200D12F
:1055B00004E040F2BD4137A000F0A8FE282D19D02C
:1055C00040F22770854215D040F22660854211D006
:1055D00040F2255085420DD040F22440854209D04A
:1055E00040F64600854205D040F66A10854201D05B
:1055F000602D00D104E040F2BE4126A000F086FEFE
:105600000FB1012F00D104E040F2BF4121A000F012
:105610007DFE40F66A10854211D11848844208D0B8
:105620001748844205D01748844202D01848844263
:1056300000D104E040F2C44116A000F067FE264607
:10564000C5F3421805F01F0A012000FA0AF9B8F163
:10565000010F01D10C3605E0B8F1020F01D110366F
:1056600000E0143627B1306840EA0900306003E0FA
:10567000306820EA09003060BDE8F0870010014082
:105680000044004000480040004C004000500040F2
:105690000014014053544D3332463478785F5374CC
:1056A000645065726970685F4472697665725C7394
:1056B00072635C73746D3332663478785F757361CE
:1056C00072742E63000000002DE9FF4705460C466A
:1056D0000026B14600BFB0466D4885420ED06D48E9
:1056E00085420BD06C48854208D06C48854205D075
:1056F0006B48854202D06B48854200D103E0EB2124
:1057000069A000F003FE206820B174492068884237
:1057100000D203E0EC2164A000F0F8FDA08818B1ED
:10572000A088B0F5805F00D103E0ED215EA000F01D
:10573000EDFDE08858B1E088B0F5805F07D0E088E3
:10574000B0F5005F03D0E088B0F5405F00D103E022
:10575000EE2155A000F0DAFD208938B12089B0F59E
:10576000806F03D02089B0F5C06F00D103E0EF2136
:105770004DA000F0CBFD60894FF6F371084010B9E1
:10578000608900B103E0F02147A000F0BFFDA089CF
:1057900058B1A089B0F5807F07D0A089B0F5007F0F
:1057A00003D0A089B0F5407F00D103E0F1213EA0F5
:1057B00000F0ACFDA08980B13548854208D035485D
:1057C000854205D03448854202D03648854200D112
:1057D00003E0F62134A000F099FD2E8A26F440560D
:1057E000E08806432E82AE8941F20C608643A08891
:1057F00021890843618908430643AE81AE8A26F4B5
:105800004076A0890643AE826846FEF7DFFB20485B
:10581000854202D02348854202D1DDF80C9001E098
:10582000DDF80890A88900F4004040B109EBC900F8
:1058300000EB091021684900B0FBF1F707E009EB24
:10584000C90000EB091021688900B0FBF1F7642062
:10585000B7FBF0F006013009642101FB1078A8893C
:1058600000F4004040B1322000EBC800B0FBF1F082
:1058700000F00700064308E0322000EB0810642126
:10588000B0FBF1F000F00F0006432E81BDE8FF876A
:10589000001001400044004000480040004C00401F
:1058A000005000400014014053544D3332463478C8
:1058B000785F5374645065726970685F447269768A
:1058C00065725C7372635C73746D333266347878BE
:1058D0005F75736172742E6300000000E1707200E6
:1058E00010B504460D4884420ED00D4884420BD0BA
:1058F0000C48844208D00C48844205D00B488442AE
:1059000002D00B48844200D104E040F22D2109A0CE
:1059100000F0FCFCA088C0F3080010BD001001409E
:105920000044004000480040004C0040005000404F
:105930000014014053544D3332463478785F537429
:10594000645065726970685F4472697665725C73F1
:1059500072635C73746D3332663478785F7573612B
:1059600072742E630000000000BFFEE770B590B0B7
:1059700005463C22104901A8FAF7C8FD0FA005F022
:105980002DFF14A005F02AFF2E6810E0A6F11404E4
:10599000207F0E2804DC207F01A951F8200000E0C0
:1059A0000F980246214611A005F018FF3668AE4256
:1059B000ECD1002010B070BD20F10008646576695C
:1059C000636520202020747970652020202020200D
:1059D0000A0000002D2D2D2D2D2D2D2D202D2D2DAE
:1059E0002D2D2D2D2D2D2D200A000000252D387355
:1059F00020252D3873200A002DE9F041054616A018
:105A000005F0ECFE1DA005F0E9FE2E681FE0A6F1F2
:105A1000140404F11C0005F038FF90B904F11C00D7
:105A200005F03BFF07463B4621461DA0626A05F094
:105A3000D5FE04F11C0007F0A9FF1EA005F0CEFE64
:105A400004E021461CA0626A05F0C8FE3668AE423A
:105A5000DDD10020BDE8F0816576656E74202020E0
:105A600020736574202020202020202073757370FF
:105A7000656E64207468726561640A002D2D2D2D99
:105A80002D2D2D2D202D2D2D2D2D2D2D2D2D2D2060
:105A90002D2D2D2D2D2D2D2D2D2D2D2D2D2D0A0086
:105AA000252D387320203078253038782025303364
:105AB000643A00000A000000252D38732020307859
:105AC0002530387820300A00F8B5054619A005F0D1
:105AD00085FE21A005F082FE2E6827E0A6F11404C1
