:020000040800F2
:10000000B8F3002039030008B54802081D040008B1
:10001000B1480208011D02082D85020800000000F9
:10002000000000000000000000000000E969020874
:10003000E536020800000000A7030008A56C0208CE
:100040005303000853030008530300085303000838
:100050005303000853030008530300085303000828
:1000600053030008E736020853030008530300084F
:100070005303000853030008ED2F02085303000840
:1000800053030008EF2F020853030008530300082E
:100090004D1D02085303000853030008E936020807
:1000A00053030008E16E02085303000853030008DD
:1000B000ED6E0208F96E0208156F0208530300087E
:1000C00053030008530300085303000853030008B8
:1000D00053030008717A0208B57A0208B97B020856
:1000E000530300085303000853030008496F020834
:1000F0005303000853030008530300085303000888
:100100005303000853030008316F0208530300082B
:10011000657A020853030008530300083D6F020884
:100120005303000853030008530300085303000857
:100130005303000853030008530300085303000847
:10014000A51D0208530300085303000853030008C9
:100150005303000853030008530300085303000827
:100160005303000853030008530300085303000817
:100170005303000853030008530300085303000807
:10018000530300085303000800F002F800F0C4F81D
:100190000AA090E8000C82448344AAF10107DA45E2
:1001A00001D100F0B9F8AFF2090EBAE80F0013F070
:1001B000010F18BFFB1A43F001031847D4D90300FD
:1001C000F4D9030010F8013B0A4413F0030408BFFC
:1001D00010F8014B1D1108BF10F8015B641E05D01B
:1001E00010F8016B641E01F8016BF9D1002D15D0D8
:1001F00010F8014B03F00C030C2BA1EB04040ABF15
:1002000010F8013BA4EB8314A4EB032405F10103D4
:1002100014F8016B5B1E01F8016BF9D5914238BFF0
:1002200010F8013BD1D3704700230024002500269D
:10023000103A28BF78C1FBD8520728BF30C148BF49
:100240000B6070476E291DF0938670291DF0B787EB
:1002500066293BF03F8365293BF03C8367293BF0EF
:10026000398361293BF0388303681B0A28BF41F0BA
:10027000800169291DF0408664291DF03D8675299D
:100280001DF03A866F291DF0448778291DF0838779
:10029000E9291DF0DF86E4291DF0DC86F5291DF033
:1002A000D986EF291DF04187F8291DF08287036860
:1002B000DB0928BF41F0800163291EF0EE86732917
:1002C0001EF0F386E3291EF01187F3291EF016872E
:1002D000002070471FB53BF066F99DE803001FF052
:1002E00015FC1EF0C3FB04000020002138F0D8FDEF
:1002F000401C60600020002138F0E8FDE060002034
:10030000002138F0F9FD20611EF09AFB1FBD10B5E9
:1003100000201FF017FB10BD20F0D4F91146FFF7A5
:10032000D9FF32F0D3FC20F023FA03B4FFF7EFFF3C
:1003300003BC2EF04AFE00000948804709480047E8
:10034000FEE7FEE7FEE7FEE7FEE7FEE7FEE7FEE785
:10035000FEE7FEE704480549054A064B70470000E2
:10036000B56C020889010008B8EB0020B8F3002042
:10037000B8EF0020B8EF0020EFF3108072B670479E
:1003800080F3108870472A4A1368012B04D04FF07D
:1003900001031360274A1060274A116027484FF075
:1003A000805101607047EFF3108272B620480168F7
:1003B000B1B14FF0000101601E48016839B1EFF39F
:1003C000098121ED108B21E9F00F006801601A49C5
:1003D00009680968B1E8F00FB1EC108B81F3098866
:1003E00082F310884EF0040E7047134908601149DB
:1003F0004FF0000008600E494FF0010008601048FF
:100400004FF47F01D0F8002041EA020101600B485F
:100410004FF08051016062B6704700BFEFF3098072
:1004200000B534F0A3FA5DF804EB4EF0040E70470B
:10043000BC010020B4010020B801002004ED00E060
:1004400020ED00E02DE9F04706460F4690461C4699
:100450004FF0000A354630461EF073F800EB0609EF
:10046000002020602168481C206047F8215015E0DA
:1004700028782E2806D1681C2268511C216047F874
:1004800022000AE028785B2807D1206847F820502E
:10049000B54202D02068401C20606D1C4D4502D240
:1004A00020684045E4DB2068404502DA4FF0010A4D
:1004B00001E0002020605046BDE8F08770B5054699
:1004C0002C1D00BFD4E900014860D4E9000181601F
:1004D000204639F0A1FB00BF00BF251F284670BD94
:1004E00070B504462046FFF7E9FF054629F062FD96
:1004F00070BD7047704770477047704770477047CE
:10050000704770477047002101604160018181722E
:10051000C172704700B502461046FFF7F4FF10465F
:1005200000BD70B504460D461646002020812560AA
:1005300055B1284615F08CFD4FF6FF71884203D265
:10054000284615F085FD2081666070BD70B50446B3
:100550000D4616462046FFF7D6FF3246294620466E
:10056000FFF7DFFF70BD2DE9F0410446002720684A
:1005700078B12568284628F06AF91D2804D0284655
:1005800028F065F9142801D1012000E0002006467A
:1005900037463846BDE8F08170B50446002520682E
:1005A00028B1206828F053F90E2800D101252846EB
:1005B00070BD70B504460025206828B1206828F079
:1005C00046F9112800D10125284670BD70B50446B2
:1005D0000025206818B1206828F050F90546284603
:1005E00070BD70B504460025206818B1206828F059
:1005F00054F90546284670BD2DE9FC5F05460C46BA
:1006000090469946002001902060C8F80000C9F883
:100610000000002D6BD000BF2888C0F3C010012857
:1006200065D100BF284628F029F980F00100012893
:100630005DD1284616F0E9F800904FF0000BDA463D
:10064000002611E03146284616F052F8074657B109
:10065000384629F0BEF930B9384629F0BFF910B94B
:10066000BB460AF1010A761C00988642EAD3BAF129
:10067000010F2CD1BBF1000F29D0584629F097F972
:100680000646F7A137F037FD20B9584629F096F90C
:1006900020601CE0584629F08AF90646F5A137F09B
:1006A0002AFDA0B9584629F089F92060F3A128460F
:1006B00015F0E3FF06464EB1304629F08FF90128C8
:1006C00004D1304616F01CF9C8F8000000BF2068BD
:1006D00060B1284615F0BCFC0646206815F0B8FC51
:1006E000B6FBF0F0C9F800000120019000BF0198AE
:1006F000BDE8FC9F3EB504460020029001900090AA
:100700006B4601AA02A92046FFF776FF0546284658
:100710003EBD70B504462068FFF7ECFF054628464D
:1007200070BD70B504460025206840B1206828F0EF
:100730008EF80E2800D20125A07A00B101252846A6
:1007400070BD70B504460025206860B1A07A50B92C
:10075000206828F0A2F8012804D0206828F08EF83C
:10076000012800D10125284670BD2DE9F04104463D
:1007700000272068A0B1606890B101276068066812
:100780002568284628F089F8012803D1284615F065
:1007900076FB0546324629462046FFF7C2FE00BFDB
:1007A0003846BDE8F08170B5044625892DB920682A
:1007B00018B1206815F04CFC0546A07AD0B1A07A9B
:1007C000022801D1012515E0A07A052801D10125D3
:1007D00010E0A07A072801D102250BE0A07A0928B1
:1007E00001D1042506E0A07A802802D0A07A8128D1
:1007F00000D10425284670BD70B504460025A07AB6
:1008000030B9206880B1206828F021F805460BE057
:10081000A07A0B2801DCA57A06E0A07A802802D015
:10082000A07A812800D10925284670BD0146002004
:100830000A89012A02D14A68107810E00A89022A3E
:1008400002D14A6810880AE00A89042A02D14A685B
:10085000106804E00A89082A01D14A6810687047C4
:100860002DE9F05F07460C4600BFF87A00F03F0024
:1008700080464FF0000B388908280CD17868D0E901
:10088000009A42464D465646284631461DF066FAC5
:1008900000EA040B08E03846FFF7C8FF034623FAD6
:1008A00008F000EA040B00BF5846BDE8F09F2DE9B0
:1008B000FE4304460D464FF000096068002850D002
:1008C0004FF00109A07A00284CD1206827F0BFFF23
:1008D0000646304600F0010181F00101012921D1D5
:1008E0002089012806D1606890F90010284629F077
:1008F0008BF836E02089022806D16068B0F9001034
:10090000284629F081F82CE02089042805D1606868
:100910000168284629F078F823E0616803C9C5E931
:1009200000011EE02089012805D160680178284671
:1009300029F072F815E02089022805D16068018845
:10094000284629F069F80CE02089042805D1606860
:100950000168284629F060F803E0616803C9C5E929
:1009600000016DE0A07A022809D101212046FFF79D
:1009700077FF06463146284629F04EF860E0A07A17
:10098000052809D1FF212046FFF76AFF06463146B8
:10099000284629F041F853E0A07A07280AD14FF6FB
:1009A000FF712046FFF75CFF06463146284629F0D6
:1009B00033F845E0A07A09280AD14FF0FF312046EC
:1009C000FFF74EFF06463146284629F025F837E066
:1009D000A07A812815D1666800BF3068804603F090
:1009E00095FB074667B100BFD7F8900080302168BB
:1009F0000E1A3146284629F00FF84FF0010900BFC2
:100A00001EE0A07A802819D1002002900190009069
:100A1000206827F054FF012803D1606841680091E5
:100A200005E06B4601AA02A92068FFF7E5FD28460C
:100A3000009928F0F1FF4FF0010901E04FF00009A3
:100A40004846BDE8FE830289012A02D14368197035
:100A50001BE00289022A13D14368198015E00000C7
:100A60004669786564456C656D656E744669656C4C
:100A700064000000416E63686F7200004C42000029
:100A80000289042A01D14268116070472DE9FF5F95
:100A900004460D46164600BFE07A00F03F000746C8
:100AA0002089082822D16068D0E900AB00203A46AE
:100AB000B0460390404603991DF03DF9CDE9000191
:100AC000DDE900102AEA010A2BEA000B00203A4671
:100AD000A9460290484602991DF02DF940EA0A0AFB
:100AE00041EA0B0B6168C1E900AB10E02046FFF75B
:100AF0009DFE824606FA07FB2AEA0B0A05FA07F072
:100B000040EA0A0A51462046FFF79DFF00BFBDE8B4
:100B1000FF9F70B504460D4600266068002836D059
:100B20000126A07A60B92089082804D16068D5E937
:100B3000001206C02BE020462968FFF784FF26E05C
:100B4000A07A022805D1012220462968FFF79EFFDE
:100B50001DE0A07A052805D1FF2220462968FFF76D
:100B600095FF14E0A07A072806D14FF6FF722046C1
:100B70002968FFF78BFF0AE0A07A092806D14FF019
:100B8000FF3220462968FFF781FF00E0002630464B
:100B900070BD70B504460D460026606800B301269E
:100BA000A07A60B92089082804D100206168C1E9D1
:100BB00000502BE029462046FFF745FF26E0A07AAB
:100BC000022805D1012229462046FFF75FFF1DE0DC
:100BD000A07A052805D1FF2229462046FFF756FFB7
:100BE00014E0A07A072806D14FF6FF722946204666
:100BF000FFF74CFF0AE0A07A092806D14FF0FF3238
:100C000029462046FFF742FF00E00026304670BD2F
:100C100010B5817200BFC37A23F03F03C372C37A59
:100C200002F03F042343C37200BF10BD10B502465B
:100C30000020136833B129B100BFD1F89030803360
:100C40001468E01A10BD014600200A89012A03D168
:100C50004A6892F9000011E00A89022A03D14A6821
:100C6000B2F900000AE00A89042A02D14A68106831
:100C700004E00A89082A01D14A681068704770B5F3
:100C8000044604F1E80038F004FBA0F1E80404F1A4
:100C9000D40038F04FFBA0F1D40404F1C000FFF7FA
:100CA0000DFCA0F1C00404F1680012F049FEA0F1AF
:100CB0006804254600BFD5E900010860D5E90010A9
:100CC0004860284638F0B1FE00BF00BF2C462046E1
:100CD00070BD0146B1F89E00704770B504460D46E0
:100CE000D4F8A40010F0020F09D1D4F8900030B16C
:100CF000D4F89010081D1B2229461DF08EFD70BDF2
:100D000070B504464FF4807004F19004E0814FF018
:100D10000000A0612060606020746061A4F1900414
:100D2000FCA12046FFF7D9FF00BF646700BF04F1B4
:100D30006800C4F88C004830C4F8BC00002084F877
:100D40009D00E06404F1C00044F8CC0F0020606016
:100D50006062A062E062F148206101202076A4F187
:100D6000CC040546284670BD2DE9F041044688466E
:100D700017462546284638F058FE00BF2C4604F199
:100D80000805284638F001FE00BFA5F1080404F16B
:100D9000500001F00DFBA0F1500404F15C0001F0E3
:100DA00007FBA0F15C0404F1680012F0B7FDA0F1AC
:100DB000680404F1B0000CF04BF9A0F1B00404F1A8
:100DC000C0052E1D304638F027FF00BF351FD44820
:100DD00045F8C0092C4604F1D40500BF284638F078
:100DE00099FE00BF00BF00BFA5F1D40404F1E805DF
:100DF00000BF284638F028FE00BF00BF00BFA5F1A5
:100E0000E8042046FFF77CFF012848D141462046F0
:100E1000FFF763FF04F19C04A7604FF000006080BF
:100E2000A068A4F19C0400F00100012828D1000270
:100E3000A4F89E00FC2002F01FFE05460022414659
:100E4000FFF792FF0546E064E06CC0B1E06CFFF78D
:100E500040FFA0B904F14C042168206CC1F88C005B
:100E60002168206FC1F8BC002168A06DC1F8A40002
:100E700054F84C09C4644FF00000A4F89E0000BF71
:100E8000D4F8A40000F00200022808D1D4F8A4008D
:100E900000F00100012802D10002A4F89E002046C3
:100EA000BDE8F0812DE9F04106460F46FC2002F036
:100EB000E3FD04463A463146FFF756FF0446254611
:100EC0005DB12846FFF705FF38B12DB12846FFF781
:100ED000D6FE804602F0E8FD00252846BDE8F081F8
:100EE0002DE9F04788B004460F4690461D464FF066
:100EF000000A27B34246394604F1680013F0AEFBFE
:100F000001281CD101A904F1680028F0D0FE049E3C
:100F1000642D04D206FB05F06421B0FBF1F6D4F891
:100F2000A40010F0010F00D0760800BF7D48814674
:100F30003246052102F057FF4FF0010A00BF50462C
:100F400008B0BDE8F0872DE9F04104460E4615468D
:100F50000027802D10D944F8906F65606069A4F176
:100F6000900400F00200022801D1012704E0D4F827
:100F7000900007F0D7FE01273846BDE8F0812DE943
:100F8000F04104460D4616464FF000082DB3D4F844
:100F9000A40010F0010F00D0760832462946204602
:100FA000FFF7D1FF012818D1804600BF5D480746F2
:100FB0003246072102F017FFD4F8A40010F0010F09
:100FC0000BD04FF00008E06C38B1AF19324639460B
:100FD000E06CFFF7B8FF804600BF4046BDE8F081F7
:100FE0000246D2F8BC000160012070472DE9F047AD
:100FF00004464FF0010904F1080039F081FA064671
:1010000000250FE0294604F1080038F0C4FC076809
:101010002046B96988478046B8F1000F01D14FF0EA
:1010200000096D1CB542EDD34846BDE8F0872DE9B7
:10103000FC5F04460120019004F15C0B5D46192120
:10104000284601F077FB074647B3D4F88C0030B34D
:1010500000BF7888804600261EE0002000906A4687
:101060003146384615F015FD05468DB100BFA5F196
:1010700008008146D4F88C004946009A13F0D0FA53
:101080008246BAF1000F02D10020019006E002E092
:101090000020019002E0761C4645DED301E00020EE
:1010A00001900198BDE8FC9F70B50446E06C20B942
:1010B000D4F88C0028F0C4FD07E0E06CFFF709FECF
:1010C00018B9D4F88C0028F0BBFD002004F1980476
:1010D000206120606071A4F19804204608F0FEFAB7
:1010E0002046FFF7A4FF08B9002070BD0125D4F801
:1010F000900027F010FD58B9032120460BF023FF84
:1011000020460DF04DF90546032120460BF09DFCCD
:101110002846EAE744656661756C7400B390000880
:1011200080D2030818EA002070B504460025204646
:10113000FFF7BAFF01280ED12046FFF757FF01281D
:1011400001D1012507E0F948006882B203214FF47C
:10115000004011F05FF8284670BD2DE9F04F89B0CE
:1011600005460C464FF00008D4E90C0108440890ED
:1011700007A80021018000BF0898420804F18001FF
:1011800007A807F027FEB4F84A0030B100BFBDF849
:101190001C00B4F84A1088427ED104F18009204630
:1011A00027F0B9FC01283BD1D5F8900000F1800967
:1011B00000BFDF480068E16E884203D0002009B01C
:1011C000BDE8F08F03A828F017FC01A828F014FC54
:1011D000494603A828F014FCA06F0190E06F02902C
:1011E00001A903A828F0C7FE08B10020E7E7D5F859
:1011F0008C0000BF00BF00BF00BF016800BF00BF80
:101200008B4603A828F0FCFB206F0190606F0290D2
:1012100001A903A828F0AFFE08B10020CFE706E03F
:10122000284627F094FC012801D10020C7E7206B55
:1012300000EB090637463E46606B00EB060A49465E
:1012400006A828F029FA314605A828F027FA00BF99
:101250000698834628F062FE102829D105F15C0B20
:1012600005AA06A9584601F0EEF801281FD1394613
:1012700004A828F011FA0146029006A828F017FAEF
:10128000514604A828F00AFA0146029005A828F061
:101290000EFA05F1500000E00BE0039005AA06A944
:1012A000039801F0D0F8012800D1804600BF00BFAC
:1012B00000BFB8F1000F06D19C48006882B201213E
:1012C000C80310F0A7FF404679E770B50446002533
:1012D000B4F89E0001281CD1D4F8900003F0F2FA73
:1012E000012816D12046D4F89010FFF736FF0128C8
:1012F0000FD12046FFF718FF01280AD1022004F180
:101300009C046080206BA4F19C040268916888476B
:101310000125284670BD2DE9F041044604F108007E
:1013200039F0EEF807467D1E09E0294604F1080071
:1013300038F031FB06682046F16988476D1E002DA4
:10134000F3DA04F1080038F020FB0120BDE8F08159
:1013500010B50446E06C20B9D4F88C0028F070FC7D
:1013600007E0E06CFFF7B5FC18B9D4F88C0028F062
:1013700067FCD4F8A40010F0020F0ED104F15C0059
:1013800001F0AFFB04F1500001F0ABFBD4F890008A
:1013900018B1D4F8900007F0C5FCAFF288212046C0
:1013A000FFF79BFC0020C4F8A8002046FFF7B3FF1E
:1013B0000020C4F8980084F89D0020460BF0A1FDA1
:1013C000012010BD70B504460025B4F89E008028A9
:1013D00007D0B4F89E00022803D0B4F89E0001287C
:1013E0000DD12046FFF7B4FF002004F19C0460807B
:1013F000206BA4F19C040268D16888470125284627
:1014000070BD2DE9F047C0B004460027B4F89E0037
:10141000002868D1D4F89400802864D9204627F0A9
:1014200096FB012801D101274DE000220221D4F8CA
:10143000BC000BF012FE012845D180230021D4F816
:101440009020D4F8BC000BF061FE802837D154F80E
:10145000900F006B2168496B46186168A4F19004F5
:1014600006F18000814229D90127D4F8900000F1CB
:1014700080084FF0800A1DE04FF4807031468842AA
:1014800001DA024600E00A46914600BF4B466A4632
:101490005146D4F8BC000BF039FE054645B12A464A
:1014A000694640461DF0B7F8761BA844AA4400E000
:1014B00002E000BF002EDFD100BF00BF00BFD4F8A4
:1014C000BC000BF0EEFD012F09D10120A4F89E0015
:1014D000002084F8A0002046FFF7F7FE074617B962
:1014E0002046FFF76FFF384640B0BDE8F08770B583
:1014F00004460E460025002084F89D00B4F89E00A6
:10150000082811D101253146204617F0C4FF0546B1
:10151000012D09D1202004F19C046080206BA4F1EE
:101520009C040268D1698847284670BD301C0020A1
:10153000F4080020F8B505460E46002000906F46DE
:101540002A464FF47A71384603F0EFF9044654B155
:1015500004F1080007F0EDFD0090009800B9B047D5
:10156000204603F015FA0098F8BD2DE9F84F04461F
:101570004FF0010B0020C4F8AC0004F15C094D46AB
:101580001321284601F0D6F8064642E000BF06F1D6
:101590000800074600BFF888C0F30B0000904FF02A
:1015A00000082BE04146384614F094FF05461DB371
:1015B00000BFA888C0F30020012813D1284628F0D6
:1015C00088FB8246BAF1000F0BD051462046FFF748
:1015D000B1FFC4F89800D4F8980010B14FF0000B98
:1015E0000FE000BF00BFA888C0F34010012803D15E
:1015F000C4F8AC50C4F8A87008F101080098804500
:10160000D0D337464D4613223946284601F0DCF840
:10161000064616B1BBF1010FB8D0D4F8AC0008B93A
:101620004FF0000B5846BDE8F88F70B588B00446FF
:10163000012004F1980420714FF00800E0804FF081
:101640000000206644F8980906462046FFF78DFF03
:1016500001281ED1D4F8AC00C28802F01F0100BFDF
:101660008288C2F30012012A00D1491E00BF81B94D
:10167000D4F8AC0028F02DFB05464DB12946204694
:10168000FFF758FFC4F89800D4F8980000B9012675
:1016900000BF0A2017F052FD01A9D4F88C0028F0F1
:1016A00006FB002084F89C00304608B070BD70B581
:1016B00004460E460125B4F89E00802803D120463A
:1016C000FFF7F2FC0546204607F0F2FF012D32D16C
:1016D0000025B4F89E00022803D0B4F89E008028AC
:1016E00029D1042004F19C046080206BA4F19C04A7
:1016F000026891698847102E02D1012084F89D006C
:101700002046FFF792FF0546012D14D1B4F89E0044
:10171000082809D100BF94F89D0001280BD10021B1
:101720002046FFF7E4FE06E0B4F89E00202802D130
:1017300000BF00BF00BF284670BD10B50446B4F816
:101740009E00082803D0B4F89E0020281DD1D4F8AC
:101750009800A8B1B4F89E00082811D1002004F127
:10176000980460712168606B03681A699047E0888B
:10177000A4F19804082803D100212046FFF7B7FE02
:10178000D4F8CC00026851698847012010BD024698
:10179000012082F89D00C2F89810704710B50446E9
:1017A000204607F09BFF012010BD70B5044620467F
:1017B00007F094FF0025002004F198046071206078
:1017C000E088A4F1980420280BD1D4F8CC0002685A
:1017D000116A8847204617F034FE0820A4F89E00BE
:1017E0000125284670BD70B586B006460125F7482C
:1017F00038F057FD039009E003A837F014FC0446C5
:1018000000BF00BF03A837F011FC0190EF4838F08B
:1018100040FD059005A903A838F094FB0028EBD102
:1018200000BFEB48016801A837F0F3FB00680290A5
:101830000AE000BF0299084600BF00BF00BF02983F
:101840000068029002980190E14C214601A837F00F
:10185000E0FB0068049004990298884201D00120BE
:1018600000E000200028E4D1284606B070BD70B525
:1018700004460026B4F89E00202803D0B4F89E0049
:10188000082824D1802004F19C046080206BA4F1FE
:101890009C040268516A88472821204617F0FBFD06
:1018A0000A21204617F0ACFE204618F04FF900BF81
:1018B00004F15C0005462946D4F88C0012F00BF9BF
:1018C0002046FFF790FF0020C4F8F00001263046C4
:1018D00070BD2DE9F0412DED028B84B0064688469F
:1018E00014461D46DDED0C8A00BFD4F88C0008EECE
:1018F000100AD4F8880007468DED008A0195CDEDD9
:10190000028A3B4622464146304607F0FAFD4146F0
:101910003046FFF73CFF14B1204617F05FFB04B0E0
:10192000BDEC028BBDE8F081F0B52DED048B83B0EA
:1019300005460E4614461F469DED0C8ADDED0D8AC8
:101940009DED0E9A8DED008ACDED018A8DED029A06
:101950003B4622463146284607F0D3FD314628460D
:10196000FFF715FF14B1204617F038FB03B0BDECAC
:10197000048BF0BD70B5044696A5D4F8900040B134
:10198000D4F8900007F077FA012802D1D4F890003B
:10199000051D284670BD2DE9F041044601250026AD
:1019A00094F8A00000B901262046FFF7E3FF0746A0
:1019B000012332463946D4F8BC000BF082FB0546C1
:1019C0002846BDE8F0812DE9F041044601250026B6
:1019D00094F8A00000B901262046FFF7CBFF074688
:1019E000002332463946D4F8BC000BF06AFB0546AA
:1019F0002846BDE8F08101460022D1F88C00C3687A
:101A00008B4200D10122104670472DE9F84305466C
:101A10000E46174600200090E8462A464FF47A7199
:101A2000404602F082FF04465CB104F1080007F072
:101A300080FB0090009808B93846B047204602F075
:101A4000A7FF0098BDE8F8832DE9F84305460E4648
:101A5000174600200090E8462A464FF47A71404627
:101A600002F063FF04465CB104F1080007F061FB7B
:101A70000090009808B9B0473860204602F088FF0F
:101A80000098BDE8F8832DE9F84305460E469046D8
:101A90001F4600200090E9462A464FF47A714846D6
:101AA00002F043FF044664B104F1080007F041FB73
:101AB0000090009810B94046B0473860204602F0C8
:101AC00067FF0098BDE8F8830346002070472DE9C2
:101AD000F04F8BB083460D4614461E464FF0000A69
:101AE0003D4903C9CDE9090100BF099400BFDDE903
:101AF000090105EB6107CDE90101CDE9030111F011
:101B0000010F04D1DDE90901CDE9050108E0DDE9B6
:101B10000901CDE90701396800EB0108D8F8000098
:101B2000814631463846C847824650460BB0BDE82C
:101B3000F08F70B505460C4600BF1C2120461CF0F6
:101B400045FE00BF55F8940FA0612868E0606889E1
:101B5000A5F1940502280DDBD5F89010096BD5F896
:101B60009020526B114401F18000A060A169091A14
:101B7000E16000BF70BD70B504460D462946D4F83B
:101B80008C0028F094F870BD0246002011B1C2F814
:101B9000CC1001207047024600BF02F1C000C2F81D
:101BA000CC00012070470246D2F8F000401CC2F879
:101BB000F000012070470246D2F8F00020B1D2F8C0
:101BC000F000401EC2F8F00001207047E02F002016
:101BD000F02F002000000000BCC703087047D0F8B9
:101BE000F420521CC0F8F42070472DE9F04104465F
:101BF0000D4617463A46294604F15C0014F013F9E5
:101C0000064626B93946284602F096FB0646304677
:101C1000BDE8F0812DE9F04104460D4616461F4609
:101C20003B463246294604F15C0014F038F9804600
:101C30004046BDE8F08170B504460D46294604F1E2
:101C40005C0014F062F80646304670BD70B504467C
:101C50000D462946D4F88C0012F0FBFB06463046B0
:101C600070BD2DE9F04106460F461446002500BF21
:101C70002088C0F34030012804D1204614F079FEBA
:101C8000054609E039463046FFF7E0FF05461DB13D
:101C9000204614F040FD05442846BDE8F0812DE9BA
:101CA000F0470746884691461D464FF0000A4A46CF
:101CB00041463846FFF799FF044664B1294620465D
:101CC00014F0DBFC06462EB1324621463846FFF7BB
:101CD000C8FF824600BF5046BDE8F08710B5072018
:101CE00002F0CEFB10BD70B5044600255CB1204665
:101CF00027F0EFFF38B1204627F0EBFFAFF22301CA
:101D0000884200D00125284670BD2DE9FF4F8BB0D9
:101D10001C4600200A9000270C98002878D000BFAD
:101D200075E100BF2068099000BF6068054600208B
:101D300008900C9850F827600EB1099810B900204F
:101D40000A9068E1C7B1099826F0A7FD012804D0E0
:101D5000099826F093FD01280ED12046FEF705FDD7
:101D6000012806D100BF2068099000BF60680546C1
:101D700002E000200A904EE14FF00008002007909A
:101D800030785B287DD0B14601E009F1010999F86E
:101D9000000038B199F800002E2803D099F800000F
:101DA0005B28F2D1A9EB060006903146069A099805
:101DB00014F06EFC8246BAF1000F6ED100200A903A
:101DC000099826F044FD0B286AD830780590701CDD
:101DD0001CF0E2FA049000200390099814F038F9FE
:101DE000029000BFA07A8346BBF1000F03D109988F
:101DF00026F02DFD8346002001900598582808D133
:101E0000BBF1020F05DD012003900220019020E0CC
:101E100002E10598422807D1BBF1040F04DB08203A
:101E200003900520019014E00598572807D1BBF1D5
:101E3000060F04DB102003900720019009E00598AD
:101E4000442806D1BBF1080F03DB202003900920B2
:101E50000190019818B30398002820DD00BFE07AB4
:101E600000F03F00DDE9032101FB0200049004992A
:101E70000298B1EBC00F12DADDE9032090FBF2F11A
:101E800000E064E002FB110048B92046049A019981
:101E9000FEF7BEFE01200A90B8E03CE000E037E02B
:101EA000F9A13046069A1CF06BFBC8B9099826F0D8
:101EB00006FD012807D1002280212046FEF7A8FE5A
:101EC00001200A9024E00998FEF714FC01281FD194
:101ED000002280212046FEF79BFE01200A9017E099
:101EE000EBA13046069A1CF04BFB88B9099826F006
:101EF000C5FC01280CD100BF286800BF00F1080113
:101F00000991002281212046FEF782FE01200A90DD
:101F10000A98D8B97FE0504627F05BFD012806D12A
:101F2000524609990B98FFF79CFE054604E01DB147
:101F3000504614F0F0FB0544504627F03FFD099051
:101F400000BFBAF80000C0F30030089005E001209F
:101F50000790701C1CF020FA804675B3099860B396
:101F600001200A902A4620460999FEF7DAFA0898D5
:101F7000012806D100BFE07A40F08000E07200BF87
:101F800000BF079801283DD10020069005900490DD
:101F9000099826F094FC012810D1099813F06FFFDE
:101FA00006903DB100BF68680490284600F1080122
:101FB0000D4611E000200A900EE021E004AB05AAD6
:101FC00006A90998FEF718FB012803D10598A8EB8C
:101FD000000801E000200A90B8F1000F0DDB049822
:101FE00080450ADA069814F033F800FB08552A46B3
:101FF00020460699FEF7AAFA01E000200A9001E0C7
:1020000000200A900A9800B905E000BF7F1C0D98D7
:102010008742FFF486AE00BF0A98012800D10D9FC9
:1020200038460FB0BDE8F08F2DE9FF4FA9B08A46C2
:1020300093460020289000BF2C98006838B15A467B
:1020400051462C9B2998FFF760FE2890B1E008AE1E
:10205000002030700796B1460690059004900390DA
:102060008046A2E05AF82850002D7DD00027039822
:10207000012833D12C4600E0641C207840B1207840
:102080002E2805D02078292802D020785B28F3D18B
:10209000671B28785B2811D10598401C0590002704
:1020A0006C1C00E0641C207840B120782E2805D0FC
:1020B0002078292802D020785B28F3D1207829289D
:1020C0000BD101A827F098FC01A9601C13F0D7FCE4
:1020D000019804900020039000BF0FE02978282980
:1020E00002D16D1C01210391284600E0401C0178BB
:1020F00011B101782E29F9D1471B00BF0698384449
:10210000802800DD54E0002F08DDB1463A4629461C
:1021100048461CF080FA002009F80700B8F1000FCB
:102120002FDD039868BB0020029009F8010C059888
:10213000002807DD4A46059B07992998FFF76AFDA5
:10214000029005E04A4607992998FFF74EFD029054
:102150000298A8B1049A02992C98FEF7F7F908F1B1
:102160000104ABEB040200E01CE00AEB84012C9BB1
:102170002998FFF7CAFD289028982044289017E056
:1021800000BF002F0DDDB8F1000F02DD2E2006F894
:10219000010C3E44002006F8010B781C0699084407
:1021A000069000E004E008F10108D845FFF65AAFB8
:1021B00000BF28982DB0BDE8F08F2DE9F043A1B005
:1021C00080460D4616461C464FF000090020009040
:1021D0006B46202201A92846FEF734F9012818D1C0
:1021E0000098002815DD0098202812DA334601A94E
:1021F0004046009AFFF718FF07460098874202D131
:102200004FF0010904E01CB101A850F8270020603C
:1022100000BF484621B0BDE8F08370470246002069
:1022200070472DE9FF41044601271B4838F039F873
:1022300002900FE002A836F0F6FE8046404627F0F6
:10224000DFFAA04202D1404616F08EFE02A836F018
:10225000EDFE0190104838F01CF8039003A902A885
:1022600037F070FE0028E5D1204617F051FB2046DC
:1022700017F06CFC2825002631E00126064838F0CE
:1022800010F8029020E000004C656E677468000052
:102290004765745479706500E02F002002A836F07D
:1022A000C2FE8046404627F0ABFAA04208D1404625
:1022B00027F0C2FA20B900260A2016F03FFF0A3D97
:1022C00002A836F0B3FE00902B4837F0E2FF0190F1
:1022D00001A902A837F036FE0028DFD100BF002D8B
:1022E00001DD002EC9D0244837F0DBFF029014E056
:1022F00002A836F098FE8046404627F081FAA042B8
:1023000007D1404627F098FA18B90921404617F03E
:1023100076F802A836F08AFE0190174837F0B9FF28
:10232000039003A902A837F00DFE0028E0D138463B
:1023300004B0BDE8F0812DE9F84304460D460026BF
:1023400000BF04F15C0080462A464146684600F022
:1023500096F900BF0098074627F0E0FD132807D143
:1023600000BF009800BF011D00BF01F10800064634
:102370003046BDE8F8830000E02F002038B5044661
:10238000FE49684627F088F905462946204627F089
:102390008EF92146201D27F08AF9201D27F0C7FD60
:1023A00005460022012126F0A2FB0120207238BD43
:1023B00010B50446204627F077F90446201D27F083
:1023C00073F9041F2046FFF7D9FF204610BD70B5F2
:1023D00004460D46204627F067F90446201D27F0E5
:1023E00063F9041F2046FFF7C9FF2572204670BD20
:1023F0002DE9F04105460E4614460027A408FCB11D
:10240000641E3146284627F052F92946281D27F038
:102410004EF964B1641E284627F089FD80462246A5
:10242000002126F064FB0021281D27F043F9281D18
:1024300027F07DFD80460022012126F058FB012770
:102440003846BDE8F0812DE9F04105460E461446B8
:10245000002700BF30682168884201D8012000E0D1
:10246000002080B1204627F062FD804627F056FD0F
:10247000012808D13146284627F019F92146281DA0
:1024800027F015F901273846BDE8F0812DE9F04124
:1024900004460D46002700BF00BF264631462846A9
:1024A00027F048FD48B1204627F034FB0646314668
:1024B000284627F048FD00B101273846BDE8F081E5
:1024C0002DE9F04104460D4617461E463946204682
:1024D00027F0E7F8044603E00021204627F0EAF859
:1024E00021462846FFF7D2FF012807D1204627F0D2
:1024F0001EFD804627F012FDB042EDD12146284650
:10250000FFF7C4FF38B9284627F004FB8046414650
:10251000204627F0CCF8BDE8F0812DE9F0410446D3
:102520000D4616464FF0000800BF00BF274639464B
:10253000284627F0FFFC90B1204627F0EBFA07462B
:102540003946284627F0FFFC48B1284627F0EFFC23
:10255000074627F0E3FCB04201D14FF001084046A6
:10256000BDE8F081F8B50446012500BF00BF26464E
:102570003146684627F095F800BF00BF2646314631
:10258000684627F094F803E00021684627F092F8A7
:10259000204627F0BFFA06463146684627F0D3FCAE
:1025A0000028F1D1012D08D1684627F0C0FC06466D
:1025B00027F0B4FC012800D000252846F8BD2DE9FD
:1025C000F04105460C460026284627F0B0FC074699
:1025D00027F09BFCA04205D8281D27F0A8FCA042AC
:1025E00000D901263046BDE8F0812DE9F843804648
:1025F0000C4615461E4600BF00BF274639464046DA
:1026000027F04FF8804629462046FFF7D8FF0128DB
:102610002BD100BF00BF27463946684627F041F856
:1026200010E0684627F083FC074627F06EFCA842BE
:1026300000D911E06946404627F039F80021684684
:1026400027F038F8204627F065FA074639466846ED
:1026500027F079FC0028E4D1404627F068FC0746C3
:1026600027F053FC281A306007E0204627F052FA82
:1026700007463946404627F01AF8BDE8F883F8B512
:1026800007460C46154600BF00BF26463146384671
:1026900027F007F8074629462046FFF790FF012854
:1026A00023D100BF00BF26463146684626F0F9FF19
:1026B00010E0684627F03BFC064627F026FCA842BF
:1026C00000D91AE06946384626F0F1FF0021684635
:1026D00026F0F0FF204627F01DFA064631466846F0
:1026E00027F031FC0028E4D107E0204627F012FA59
:1026F00006463146384626F0DAFFF8BDF8B50446FE
:10270000002600BF00BF25462946684626F0C9FFBF
:10271000204627F0FFF905462946684627F013FCB6
:1027200030B1684627F003FC054627F0EEFB06466D
:102730003046F8BD2DE9F84304460D464FF0000839
:102740006E4600BF00BF27462B463A46214630461C
:10275000FFF7B6FE00BF204627F0DCF906463146FB
:10276000684627F0F0FB30B1684627F0E0FB0646EC
:1027700027F0CBFB80464046BDE8F8837808002070
:10278000F8B504460D4600262946684626F086FF21
:1027900069462046FFF77AFE012813D100216846DA
:1027A00026F088FF204627F0B5F9074639466846E7
:1027B00027F0C9FB30B1684627F0B9FB074627F080
:1027C000A4FB06463046F8BD2DE9F84305460E4603
:1027D000144600273146684626F060FF69462846C1
:1027E000FFF754FE012823D10021684626F062FF3E
:1027F00013E0684627F09BFB804627F08FFBA04242
:1028000007D1684627F093FB804627F07EFB0746FA
:102810000DE00021684626F04DFF284627F07AF9A2
:1028200080464146684627F08EFB0028E1D100BF74
:102830003846BDE8F8832DE9FC470546884614462E
:102840001F464FF0000921460420421E0A44431E41
:102850009A431446A408284627F05CF906463146F8
:1028600001A826F01EFF00BF00BF2E463146684675
:1028700026F017FF17E0684627F059FB064627F0B9
:102880004DFB60B9684627F052FB064627F04BFB2C
:10289000A04204D3694601A826F009FF0DE00021FB
:1028A000684626F007FF284627F034F906463146E9
:1028B000684627F048FB0028DDD1284627F02AF992
:1028C0000646314601A827F047FB002849D001A859
:1028D00027F02DFB824627F026FB061B86B3761ECB
:1028E000012F18D101A827F022FB8246224641463B
:1028F00026F0FDF801A9684626F0D3FE00216846BF
:1029000026F0D8FE684627F012FB824632460021A8
:1029100026F0EDF81DE001A827F009FB82463246BB
:10292000002126F0E4F8002101A826F0C3FE01A84A
:1029300027F0FDFA82462246414626F0D8F808E004
:10294000FFE701A827F0F3FA82462246414626F027
:10295000CEF801A827F0EBFA824627F0D6FA814696
:1029600000BF4846BDE8FC872DE9F047064688468B
:1029700014462146304626F094FE0646204627F0AF
:10298000D6FA054627F0CAFA40BB0021304626F0A9
:1029900091FE1BE0204627F0CAFA074627F0C3FA4B
:1029A0008146304627F0C3FA074627F0BCFA484470
:1029B000451C0021304626F07DFE204627F0B7FA60
:1029C00007462A46002126F092F800BF304627F03D
:1029D000AEFA054627F0A2FA0028DBD0BDE8F08762
:1029E0002DE9F04385B004460D460026002D60D049
:1029F000294604A826F052FE00BF00BF27463946EC
:102A000003A826F04EFE00BF00BF394602A826F0FC
:102A100048FE43E000BF029800BF0499884235D1C8
:102A200002A827F084FA074627F078FA00B93FE0B9
:102A300002A827F07CFA804627F075FA074602A81C
:102A400027F075FA81463A46002126F050F803A88F
:102A500027F06DFA074627F061FA50B903A96846D6
:102A600026F01FFE07463A46214601A8FFF77CFFE5
:102A70000AE002A9684626F014FE07463A462146B7
:102A800001A8FFF771FF00BF012611E002A903A80A
:102A900026F00DFE002102A826F00CFE204627F0AD
:102AA00039F80746394602A827F04DFA0028B1D177
:102AB00000BF06B900BF304605B0BDE8F08370B571
:102AC000044600BF00BF204627F024F805462968C9
:102AD0002268891A89108800001D00BF064630460A
:102AE00070BDF8B5044600BF00BF254629466846BC
:102AF00026F0D7FD204627F00DF8054600BF00BFA1
:102B000028682168401A8010064646B1761E68463D
:102B100027F00DFA05463246002125F0E8FFF8BD02
:102B200038B504463149684626F0B6FD6946204668
:102B300027F012FA38BD2DE9FC4106460C4600BFCD
:102B40001C2120461BF042FE00BF3046FFF7B7FFB6
:102B5000A061304626F0DEFF0546294601A826F092
:102B6000A0FD00BF00BF35462946684626F099FD06
:102B700029E0684627F0DBF98046404627F0D3F984
:102B800080000546684627F0D2F9804627F0C6F94E
:102B9000074657B96068401C6060E0682844E06000
:102BA0006069A8420BD2656109E02068401C206082
:102BB000A0682844A0602069A84200D225610021B5
:102BC000684626F077FD304626F0A4FF05462946E4
:102BD000684627F0B8F90028CBD1BDE8FC817047E2
:102BE00002480021016000BF704700007808002003
:102BF00030B503460C460021002004E04D04290CAA
:102C000041F00101401C9042F8DB43FA04F0084017
:102C100030BD0021016041600172704770B504460B
:102C20000D46656026F01FFD20600120207270BDFA
:102C300070B504460026207A012808D126F013FD3D
:102C40002168451A6068A84200D8012600BF3046B6
:102C500070BD10B50446204627F065F80020A0613D
:102C6000606110BD10B504462046FFF7D2FF044650
:102C70002046FFF7EEFF0020E0602061207720462D
:102C800010BD70B504460D4616462046FFF7E1FF1D
:102C9000E560266170BD70B504460D462046FFF71D
:102CA000D8FF29462046FFF7B9FF70BD70B504462E
:102CB0000D4629462046FFF7B1FF70BD2DE9F041D2
:102CC00004460D464FF00108A1692069471A002FFC
:102CD0001ADDA269E068811828683A4683682846A8
:102CE00098470646002E03DDA0693044A06103E04A
:102CF000002E01DA4FF00008A1692069884202D154
:102D0000204627F010F800BF4046BDE8F0812DE9CD
:102D1000F04104460E461746D4E90510451A3946D7
:102D2000284625F043FC05466269E06881182A467A
:102D300030461BF070FC6069284460612846BDE89D
:102D4000F0812DE9F04104460D464FF00108D4E929
:102D50000510471A002F1ADD6269E068811828689B
:102D60003A464368284698470646002E03DD6069C8
:102D70003044606103E0002E01DA4FF00008D4E92E
:102D80000401884202D1204626F0CDFF00BF404614
:102D9000BDE8F0812DE9F04104460F461646A169D1
:102DA0002069451A3146284625F000FC0546A269EF
:102DB000E16888182A4639461BF02DFCA069284492
:102DC000A0612846BDE8F08110B50446204601F018
:102DD00075FF0446FB48206004F18000FFF719FFEF
:102DE000A0F1800441F29400204426F095FFA0F564
:102DF0008054943C41F2B400204426F08DFFA0F5AD
:102E00008054B43C41F2D400204425F06BFDA0F581
:102E10008054D43C41F2F400204425F063FDA0F539
:102E20008054F43C0020E06026F01DFC84F854003F
:102E300094F8540010B9012084F85400002004F1E3
:102E4000540460706060A06020736073A073E073CE
:102E50002074A06340F6B830E063A4F154044FF04E
:102E6000400104F110001BF0B1FC002020650C2291
:102E700004F1660141F294002044FFF702FF0022B2
:102E800004F1940141F2B4002044FFF7FAFE4FF43C
:102E9000006204F6940141F2D4002044FFF7F1FEF1
:102EA0000C2204F1720141F2F4002044FFF7E9FE24
:102EB000002141F214100155204610BD704710B595
:102EC0000446C04820602046FFF7F8FF204601F086
:102ED00009FF0446204610BD70B504462046FFF7A2
:102EE000EEFF054600F0E0FD70BD0B4601460846CA
:102EF000704710B52DED028B044641F2F4002044DA
:102F0000E168FFF71EFF41F2F4016018D0E90412F6
:102F1000891A21B941F2F4002044FFF79AFE41F2E8
:102F2000F400204425F0D8FC48BB04F18000FFF7F2
:102F30007FFE01281DD141F2D400204425F0F6FC8B
:102F400008EE100A26F08FFB08EE900A94ED240A92
:102F500010EE101A04F18000FFF760FED4F88C0028
:102F6000401CC4F88C0041F2D400204425F0B7FC8A
:102F700000BF41F2D4002044E168FFF7E2FEBDEC5F
:102F8000028B10BDF0B5A3B004460F4620A8FFF792
:102F900040FE394620A8FFF741FE002600BFE0684A
:102FA000016880228B68694698470546002D00DD40
:102FB0002E4420A8FFF73CFE012800D103E00A20A0
:102FC00016F0BCF8EBE700BF41F294002044FFF795
:102FD00040FE23B0F0BD10B5044641F294002044F9
:102FE000FFF737FE41F2B4002044FFF732FE012123
:102FF00041F21410015510BD02460020102903D2E1
:1030000002F1100353F8210070472DE9FE4F0546E9
:103010000C4616469946DDF830A00020206060601E
:10302000A06000BFA08840EAC620A08000BF15F8BD
:10303000540FE1880143E18000BF2878401C2870CC
:103040006878A5F15405E18841EA0021E18000BFDC
:10305000A4F80A90A4F808A04FF00001684626F0F2
:1030600099FB6F46002102A826F094FB8046B8F831
:103070000000388000BF06222146684605F0AAFEFF
:1030800001AFBDF80000C04381B2384626F082FB94
:10309000074600BF01A826F068FF60800120BDE858
:1030A000FE8F30B52DED028B81B004460D46002019
:1030B00008EE100A41F2F400204425F00DFC08BB94
:1030C000002003462A4604F1720100902046FFF7D3
:1030D0009CFF04F1720025F01EFC84F8540004F1FA
:1030E000720025F018FC41F2F401214408770C220B
:1030F00004F1720141F2F4002044FFF74BFE01207D
:1031000008EE100A01B0BDEC028B30BD2DE9F04194
:1031100004460E4615464FF000082A46314641F255
:10312000B4002044FFF7F3FD0746AF4201D14FF052
:1031300001084046BDE8F0812DE9F04104460E4605
:1031400015464FF000082A46314641F2D40020448B
:10315000FFF720FE0746AF4207D104F18000D4F804
:103160009010FFF75BFD4FF001084046BDE8F0818D
:103170002DE9FF4104460E4615461F464FF0000854
:103180002B46324601A920460097FFF73EFF05F186
:103190000C0141F2D400204425F0C6FB0C2201A909
:1031A0002046FFF7C9FF012808D101A825F0B3FB8D
:1031B00041F2D401214408774FF00108404604B0A1
:1031C000BDE8F08108D403087CB50446002541F22F
:1031D000D400204425F080FB48BBE06D80B2ADF800
:1031E0000400002101A825F09CFD012101A825F083
:1031F00093FD0021684626F0CDFA042201A9684615
:1032000005F09DFE684626F0B0FE064633460422D1
:1032100002212046FFF7ACFF012807D1042201A9B3
:103220002046FFF789FF012800D1012500BF28466D
:103230007CBD10B5044626F016FA84F8540094F8C4
:10324000540010B9012084F8540004F1800026F0E5
:103250006AFD0020C4F88C0041F294002044FFF77E
:10326000F8FC002041F294012144087741F2B400B7
:103270002044FFF7EEFC002041F2B401214408771E
:1032800041F2D4002044FFF7E4FC002041F2D401D5
:1032900021440877012141F21410015500212046F4
:1032A000FFF770FE10BD2DE9F0432DED028BA3B0AA
:1032B00005460C46174620A8FFF7ABFC394620A868
:1032C000FFF7ACFC08EE104A4FF0000822E0802126
:1032D000204625F06BF9814695ED030A10EE100AA1
:1032E000E968096891ED020A10EE103A4A4669460B
:1032F00098470646002E01DDA41BB044002E04DBD7
:1033000020A8FFF795FC012800D105E00A2015F060
:1033100015FF00BF002CDADC00BF41F29400284406
:10332000FFF797FC23B0BDEC028BBDE8F083F8B546
:10333000044600250021684626F02CFA41F2B4012B
:10334000601801690E4641F2B400204425F0EEFAFF
:10335000074632463946684605F0F1FD684626F0D4
:1033600004FE6E21095B884200D101252846F8BD84
:103370002DE9F04104460D464FF001080020287069
:1033800041F2B400204426F0C4FC014641F2B402EC
:10339000A0180269914264D24FF0000841F2B400D3
:1033A0002044E168FFF78AFC80F00100287041F2B8
:1033B000B400204426F0ADFC074641F2B401601889
:1033C0000169B94244D141F2B400204425F0B1FA78
:1033D00004F1660025F096FA01280FD1F74800683D
:1033E00060B90120F549086041F2B400204425F09D
:1033F0009DFA06463078C043307000BF2046FFF784
:1034000096FF01280FD1804604F1660025F083FA6B
:1034100084F8550004F1660025F07DFA41F2B4010C
:10342000214408771CE041F29400204425F07EFA04
:103430000646D4F8900042087020015B2046FFF752
:1034400032FF05212046FFF72CFE0120287007E0FF
:1034500041F2B400204425F072FA012800D128700E
:1034600000BF4046BDE8F08138B504460025002184
:10347000684626F08FF9062204F16601684605F0D9
:10348000A9FC684626F071FDA0F57F41FF3900D107
:103490000125284638BD2DE9F04704460D464FF07A
:1034A00001090020287041F29400204426F031FCEC
:1034B0000C287CD24FF0000941F29400204426F001
:1034C00028FC074641F294002044E168FFF7F6FB30
:1034D00080F00100287041F29400204426F019FC8D
:1034E00006464FB946B10C2E06D24FF4967141F202
:1034F00094002044FFF7DAFB0C2E7CD141F29400BB
:10350000204425F016FA2046FFF7AEFF012873D1BC
:103510004FF0000804F1660025F0F4F9012813D0FB
:1035200004F1660025F0E5F941F2D4012144097F58
:10353000884209D004F1660025F0DBF941F2F4017C
:103540002144097F884221D104F1660025F0D1F998
:1035500041F2D4012144097F884212D104F166006E
:1035600025F0D0F9052813D041F2D4002044FFF70C
:1035700070FB04F1800026F0D6FB0020C4F88C001C
:1035800006E004F1660025F0B4F901E04FF001080F
:103590007020005B002819DD04F1660025F0BBF9FE
:1035A00041F2B4012144097F88420FD100E045E097
:1035B00004F1660025F0A6F9012802D04FF00108B9
:1035C00004E094F86300012800D18046B8F1000FB0
:1035D00013D14FF001097020015B41F2B400204487
:1035E00025F0A2F9D4F89000410841F2B40020443B
:1035F000FFF751FB0FE018E00EE0D4F8900042080E
:103600007020015B2046FFF74EFE04212046FFF7A5
:1036100048FD0120287010E0D4F8900041082046B1
:10362000FFF7B0FC0120287007E041F2940020442D
:1036300025F085F9012800D1287000BF4846BDE873
:10364000F0877CB50446002541F2D400204425F0E3
:1036500043F948BBE06D80B2ADF80400002101A839
:1036600025F05FFB012101A825F056FB00216846EB
:1036700026F090F8042201A9684605F060FC68462F
:1036800026F073FC06463346042201212046FFF74C
:103690006FFD012807D1042201A92046FFF74CFD48
:1036A000012800D1012500BF28467CBD7CB5044619
:1036B0002046FFF71EFC94F8620068B994F8610098
:1036C000012809D194F8630030B92046FFF7B9FF0B
:1036D000012801D184F8630041F21410005D012833
:1036E00017D10020019001A92046FFF7D4FE012840
:1036F00003D1022141F2141001559DF80400012864
:1037000006D12046FFF767FC00212046FFF73AFC70
:1037100000BF41F21410005D02287DD1002001900D
:1037200001A92046FFF724FE012876D104F16600A6
:1037300025F0E8F80546012D1FD1042269462046F0
:10374000FFF7E4FC012812D184F863002046FFF75C
:1037500070FDBDF80000A0652046FFF735FD01288B
:1037600002D184F8640004E00120019001E001200E
:1037700001902046FFF72FFC68E0022D20D10422A3
:1037800069462046FFF7C2FC012811D1002004F150
:1037900058042073E0724FF00100A072BDF80000E1
:1037A00044F858094FF004012046FFF77AFC01E085
:1037B000012001902046FFF70EFC47E07C08002026
:1037C000032D16D104212046FFF76BFC00BFB4F88F
:1037D0006A0008220021FFF70BFAC0B20646314604
:1037E0002046FFF709FC2065032141F21410015522
:1037F0002CE0042D12D194F86400012808D1002097
:1038000004F16204A07060704FF0010004F86209D6
:103810002046FFF7E0FB19E025E018E0052D13D165
:1038200004F18000D4F89010FFF7F8F9D4F88C0078
:10383000401CC4F88C0041F2D400204425F04FF81D
:103840002046FFF7C8FB01E00120019000BF9DF872
:103850000400012806D12046FFF7BDFB00212046C9
:10386000FFF790FB00BF2046FFF743FB7CBD2DE92F
:10387000F84304460F4615464FF00008E06800285C
:103880003ED02046FFF712FF002D39DD94F862008C
:10389000012835D141F2D400204425F01DF878BB31
:1038A0002946A06D24F082FE06463246394604F6CB
:1038B00094001AF0B0FE0021684625F06BFF3246F6
:1038C00004F69401684605F03AFB684626F04DFB85
:1038D00081464B46324603212046FFF749FC01282A
:1038E0000AD1324639462046FFF726FC012801D18D
:1038F000B04601E04FF0FF382046FFF7D7FE00BF8B
:103900004046BDE8F8832DE9F04104460E461546D1
:103910000027E068D8B12046FFF7C8FE002D16DD6D
:1039200041F21410005D032811D12A46314641F2BC
:10393000B4002044FFF7EBF9074641F2B4016018E8
:10394000D0E90412891A11B92046FFF744FB384622
:10395000BDE8F08100BF00BF704770B504460D465A
:10396000204601F0CBF9044642482060E56020463D
:1039700070BD2DE9F04104460D464FF00008102DB2
:1039800015D204F1100050F8257017B1384601F037
:10399000BDF9102000F070F806462146FFF7DDFF64
:1039A0000646B04604F1100040F8258000BF4046AE
:1039B000BDE8F0812DE9F04104460E4615464FF072
:1039C0000008CEB105F11C07B7F5006F13D24FF612
:1039D000FF7085420FD2E660E0688168491C816013
:1039E00000BFE5652046FFF7F6FA00212046FFF705
:1039F000C0FF4FF0010800BF4046BDE8F08170B540
:103A000004460025012084F86100002084F862004B
:103A1000E06850B12046FFF70CFC2046FFF711FE8E
:103A2000012802D184F863000125284670BD10B535
:103A30000446204601F077F90446204610BD70B5D3
:103A400004462046FFF7F3FF054600F02DF870BD51
:103A5000014601207047034600BF00BF00207047A9
:103A6000034600BF00BF002070470146002070479A
:103A700070470000E4D3030870B50446F8480068B6
:103A800018B1F748006824F021FE22464021F5488D
:103A900026F049F80546F248006818B1F048006879
:103AA00024F01CFE284670BD10B50446EC480068A2
:103AB00018B1EB48006824F009FE2146E948FEF7FA
:103AC0008FFFE748006818B1E548006824F006FE5B
:103AD00010BD70B50446E248006818B1E0480068BF
:103AE00024F0F4FD22464021DE4826F01CF805466D
:103AF000DB48006818B1DA48006824F0EFFD28467A
:103B000070BD10B50446D648006818B1D4480068A6
:103B100024F0DCFD2146D348FEF762FFD048006860
:103B200018B1CF48006824F0D9FD10BD10B5044687
:103B3000204635F073FF04460020A060E06020615D
:103B40006061A061E061204610BD2DE9F04F2DEDD0
:103B5000028B85B004460E46174698469DED108AA6
:103B6000DDED118A4FF0000A06EB070B314604A881
:103B700025F092FD594603A825F090FD04A826F0F3
:103B8000D6F90546286800F07F00102829D104A83E
:103B900026F0CDF90546281D814600BFB9F8020080
:103BA000000A0A281CD16846FEF702FC03AA04A9F1
:103BB0006846FEF748FC012811D16D4611212846C0
:103BC000FEF7B8FD2061206948B1A660E760C4F83F
:103BD000148084ED068AC4ED078A4FF0010A00BF05
:103BE00000BF504605B0BDEC028BBDE8F08F01462A
:103BF0000869704770B504469BA5206918B1206913
:103C000025F0F3FC0546284670BD10B50446204655
:103C100036F08AF804460020A063E063206484F84C
:103C20004400204610BD70B504460D46294604F1F7
:103C3000080005F093FA70BD0246002092F8443067
:103C4000012B06D1D36B8B4203D9136C8B4200D26C
:103C500001207047C1638B1A0364012380F844304C
:103C6000704770471CB50446AFF209006061002040
:103C7000E0607E4903C9CDE90001684624F05FFC9D
:103C800020611CBD10B5044600BF00BF00BF00BFCF
:103C900000BF00BF00BF00BF00BF2046FFF7E2FF2C
:103CA000204610BD7FB586B004460D46002620464E
:103CB000FFF7D8FFDDE90801CDE9000170B9002068
:103CC000804206D1DDE90801CDE9020111F0010FC2
:103CD0000DD0DDE90801CDE9040141B108A824F0C7
:103CE0002EFC2061656004F11000A06001263046C2
:103CF0000AB070BD2DE9FC4104460D46164600276A
:103D00002046FFF7AFFF85B16561E6605749083986
:103D100003C9CDE90001684624F011FC206164600C
:103D200004F11000A060012700BF3846BDE8FC8107
:103D300010B504466169E068884710BD0021416004
:103D40008160016070472DE9F04104460E464FF056
:103D5000000806F1150505EB450087003846FFF71A
:103D60008BFE20602068D0B16560A5603946206870
:103D70001AF02CFD4FF0010800200EE000EB40038C
:103D8000226802EB83013A4A52F820200A60088137
:103D900000224A6001224A81401C1528EEDB404681
:103DA000BDE8F08130B503464FF0000C152908DA64
:103DB00001EB41051C6804EB850042600E24448140
:103DC00000BF604630BD70B504464FF0000C1529A9
:103DD00007DA01EB4106256805EB86004360428166
:103DE00000BF604670BDF0B505460E46144623463A
:103DF000092231462846FFF7E6FF07463846F0BD60
:103E0000F0B505460E4614462346022231462846A2
:103E1000FFF7D9FF07463846F0BD30B5024612A37A
:103E2000152909DA01EB4105146804EB8500448982
:103E30000E2C00D1436800BF184630BD30B5024695
:103E40000023152909DA01EB4105146804EB85000C
:103E50004489092C00DC436800BF184630BD0000CF
:103E6000D4080020E8E9002000000000CCC70308C7
:103E70008008002010B50246002053688B4204D908
:103E800001EB4104136803EB840010BD10B501245D
:103E900001F05BF912F0E4FEFE480068401C00D11E
:103EA00000240DF021FD0FF037FBFB480068401C9B
:103EB00000D1002404F042F900B90024204610BDCE
:103EC0002DE9F04F9FB006460F46904600BFF348DD
:103ED0000068642801D1012000E0002018B900200A
:103EE0001FB0BDE8F08F1BA842F20F7100BF00BFEA
:103EF00000BF416000BFEA4903C9CDE91901E849A3
:103F0000083103C9CDE9170119A824F018FB0446AC
:103F1000179400BFDDE91901CDE90001DDE91712B1
:103F2000CDE90212884241D1DDE91901CDE9040150
:103F300060B9DDE91901CDE906010846DDE917128E
:103F40001043CDE9081210F0010F0AD0DDE9190184
:103F5000CDE90A010846DDE91712CDE90C129042BD
:103F600024D1DDE91701CDE90E0108461BA901EBBB
:103F70006009DDE91701CDE9100111F0010F04D14D
:103F8000DDE91701CDE9120108E0DDE91701CDE90E
:103F90001401D9F8001008441E9000681D9048468E
:103FA0001D998847A0F51C510F3901D0002097E7D3
:103FB00000201690DFF8ECA23C464546214614A8A6
:103FC00025F06AFB15A81499016000BF83462A46B4
:103FD00059465046FEF70CFA01287DD124F084FBA7
:103FE000B149086024F080FBB0490860AE48006821
:103FF00010B10846006808B9002071E74FF0000AC8
:1040000023E04820FFF738FD0546FFF7FEFD054693
:104010002C46C4B1DFF898B2584636F05AF91490DD
:1040200000BF149949686160149921606068046058
:1040300014994C6000BF214613A835F005F80068BC
:10404000159000BF00BF0AF1010ABAF1080FD8DBD2
:10405000984C354600BF204635F0ADFC0020216865
:10406000087000BF2946204635F019FC00BF00212A
:104070009148FFF768FE012841D140F60212022163
:104080008D48FFF7B0FE512214218B48FFF7ABFE9D
:10409000002205218848FFF7A6FE00220721864856
:1040A000FFF7A1FE7F48FEF70AFD05462A460921D3
:1040B0008148FFF798FE81A20B217F48FFF772FE2F
:1040C00081A20C217C48FFF76DFE81A20D217A4868
:1040D000FFF768FE012000E016E001F066F80446F4
:1040E00004B9202422460F217348FFF77CFE0122E9
:1040F00012217148FFF784FE7848169000BFFFF741
:10410000C5FE08B9002016901698E9E6FEB50546EA
:104110000027734835F086FF019013E001A834F0C2
:104120001CFF0446204600F15C010E46294630463D
:10413000FEF745FA012801D127460DE001A834F029
:104140000FFF0090664835F065FF029002A901A8B4
:1041500035F0B9FE0028E1D13846FEBDFEB5054672
:1041600000275F4835F05EFF019013E001A834F0AE
:10417000F4FE0446204600F150010E462946304622
:10418000FEF71DFA012801D127460DE001A834F001
:10419000E7FE0090524835F03DFF029002A901A8C9
:1041A00035F091FE0028E1D13846FEBDFEB504464B
:1041B00000264B4835F036FF019011E001A834F09D
:1041C000CCFE05462846FDF7D5FB0746214633F0D1
:1041D00092FF08B92E460DE001A834F0C1FE009010
:1041E0003F4835F017FF029002A901A835F06BFE99
:1041F0000028E3D13046FEBD2DE9F04F2DED028BB6
:1042000087B006460D4693461F469DED128A4FF035
:10421000FF300690002F67D0002E65D0042D63D9A3
:104220002020FFF729FC8046FFF780FC80464446AB
:10423000002C7AD000978DED018A5B462A463146E4
:104240002046FFF782FC01286FD1264834F089FF11
:104250000690DFF89090484635F0CCFE029000BF03
:10426000029949686160029921606068046002995E
:104270004C6000BF214601A834F062FE0068039044
:1042800000BF002104A825F085FA0DF110090021D6
:1042900005A82AE054290020301C0020D80800205E
:1042A000D4C70308E8E90020F0080020D408002063
:1042B000F8080020F4E9002018EA0020322E322EFF
:1042C000302E32303437380065434C520000000045
:1042D000507265656D70746976650000EC080020A9
:1042E000DC080020E408002020E025F053FA824694
:1042F000BAF80000A9F8000000BF6A08314604A817
:1043000004F068FDFE4800684000FD49086000BFF9
:10431000BDF8100009680844F949086008461321EF
:104320000268F848FFF75FFD00BF00BF069807B0BE
:10433000BDEC028BBDE8F08F2DE9FE4304460D462F
:104340000026F14835F05EFE019014E001A834F03B
:10435000F9FD80464046FFF74AFC07463FB12A4632
:104360002146384611F021FD064606B10DE001A8B0
:1043700034F0EBFD0090E44835F03CFE029002A9D9
:1043800001A835F097FD0028E0D13046BDE8FE8356
:10439000FEB505460C4600264FF47A40206024F016
:1043A00085FCDA4835F09DFF019014E000BF0199CB
:1043B000084600BF90F84410012908D100BFC26B25
:1043C000511B22688A4201D92160064600BF01A81C
:1043D00034F03CFE0090CD4835F07BFF029002A9FE
:1043E00001A835F0B8FD0028E0D124F067FC304684
:1043F000FEBD1FB507460E4690463046FFF7AEFE9F
:104400008146002400200390824614F070FE04468A
:104410007CB100BFA06958B100BFD4F888008246C3
:1044200000BFD4F88C00039000BFA069814600E073
:104430000024002574B90020029003A902A8FFF708
:10444000A7FF05462DB100BFE86B824600BFA86BF1
:10445000814600BFB9F1000F08D0039853462246A9
:1044600039468DE841014846FDF75EFA1DB13946EF
:104470002846FFF7D8FB00BF0A2014F05FFEFBE7D9
:104480000446002211462046FFF7B3FF3EB5A04880
:1044900035F0C8FD01900AE001A834F05EFD044645
:1044A0002046FDF74AF901A834F05AFD00909848DB
:1044B00035F0B0FD029002A901A835F004FD0028F6
:1044C000EAD13EBD2DE9F04106460F463946304659
:1044D000FCF7E8FC044664B121468D4834F08DFEBB
:1044E00000BFE06C05461DB12946894834F085FEC1
:1044F00000BF2046BDE8F081FEB504460026002539
:10450000814835F07FFD01900BE0A54204D101A860
:1045100034F018FD06460EE06D1C01A834F015FDC0
:104520000090794835F066FD029002A901A835F0A7
:10453000C1FC0028E9D13046FEBD10B5724834F008
:1045400010FE10BD2DE9F04706464FF00008FFF7BA
:10455000F4FF8146002414E02046FFF7CDFF054616
:1045600075B12846FFF743FB074647B1384625F0AB
:104570003CF88246314633F0BEFD00B9A84600BF84
:10458000641C4C45E8D34046BDE8F0872DE9F04176
:1045900006460D4600273046FFF7D4FF04462CB1EF
:1045A000284661698847012800D127463846BDE87A
:1045B000F0812DE9FF5F04464FF0000B00258026B7
:1045C000A946A846504835F01DFD02904E4835F0EA
:1045D00011FD039003A902A835F06CFC68B102A894
:1045E00034F0B0FC0746D7F80890484625F090FC18
:1045F00000F104084644454400BF1AE002A834F024
:10460000A1FC01900198FFF7F2FA824651466846F4
:1046100025F044F8684625F08AFC824625F078FCAF
:10462000071D3D44B74200D93E4602A834F08DFC38
:104630000190354835F0DEFC039003A902A835F05F
:1046400039FC0028DAD1361D2D1D3046FFF714FA4B
:104650006061606938B3B9F1000F24D04FF0010BED
:104660006769002003462A462AA10090384604F0D4
:104670006FFB00BF224800683865384604F0D4FB61
:104680004246494607F180001AF04CF808F1800ACA
:104690005246394604F1080004F0AEFC1A4835F0E1
:1046A000B1FCA06100BF584604B0BDE8F09F10B552
:1046B0000446204608F08AFC04461A48206004F1AB
:1046C000080004F0A6FCA0F108040F4835F09AFC9D
:1046D000A06100206061204610BD70B51C20FFF76E
:1046E000CBF90446FFF7E3FF044625463DB12846D3
:1046F000FFF75FFF18B9284608F07CFC002513E09F
:10470000F408002018EA0020E4080020F80800203F
:10471000DC080020417373656D626C794D657461CE
:1047200000000000B0D40308284670BDFEB5044662
:1047300000270025FE4835F065FC0190FC4835F067
:1047400061FC019009E001A834F0FCFB0646F0682A
:10475000054401A834F0F9FB0090F54835F04AFC17
:10476000029002A901A835F0A5FB0028EBD1034671
:104770002A46F0A1009004F1080004F0E9FA00BF15
:10478000F0480168A16504F1080004F04DFB8022A7
:1047900004F1080104F1880004F02EFCE44835F02F
:1047A00031FC9421085101273846FEBD10B504465E
:1047B000204608F00BFC0446E348206004F10800A2
:1047C00004F0B9FAA0F1080404F1880004F021FC17
:1047D000A0F18804D64835F015FC9421085104F165
:1047E000080004F09FFA204610BD70B59820FFF72E
:1047F00043F90446FFF7DAFF044625463DB1284653
:10480000FFF794FF18B9284608F0F4FB0025284666
:1048100070BDF8B504460D46204608F0D7FB0446A7
:10482000CA48206004F1080004F085FAA0F10804E9
:1048300004F1880004F0EDFBA0F1880404F1080005
:1048400004F070FA2846FFF77DFEC4F89400D4F80F
:104850009400D8B1D4F89400C668002003463246CC
:104860002946009004F1080004F072FA00BFB54830
:104870000168A16504F1080004F0D6FA802204F171
:10488000080104F1880004F0B7FB00BF2046F8BD22
:1048900070B506469820FFF7EFF804463146FFF75B
:1048A000B8FF044625465DB100BFD5F8940008B1B5
:1048B000012000E0002018B9284608F09BFB0025E5
:1048C000284670BD70B50446002524B3204604F088
:1048D000D2FA01281FD19E492068096888421AD15E
:1048E00000BFB4F868000A300A2814D1208DB0F552
:1048F000106F10DD208D40F6021188420BDC00BFE6
:10490000B4F86A100A3108460A2803D1A18D51294A
:1049100000D1012500BF35B98E48006882B201215F
:10492000C8030DF077FC284670BD2DE9FE4305460F
:104930000E4617464FF0000824F0B8F9864835F0C7
:10494000D0FC019015E000BF0198044600BF94F828
:10495000440050B93946204625F015F8324629461C
:104960002046FFF777F9A0460DE001A834F06EFB72
:104970000090794835F0ADFC029002A901A835F00D
:10498000EAFA0028DFD124F099F94046BDE8FE8319
:1049900010B5044624F08AF94CB10021204624F0D9
:1049A000F2FF00BF002084F8440000BF00BF24F0E5
:1049B00085F910BD10B5044668482060606910B1E3
:1049C0006069FFF771F8204608F00AFB04462046AC
:1049D00010BD70B504462046FFF7ECFF0546FFF713
:1049E00063F870BD2DE9F04F87B004468A469346C0
:1049F0005A46514604F1080004F02EFB8046B8F1F7
:104A0000000F67D14A4835F0F5FA069006A904F17F
:104A1000180035F04FFA00285BD004F1180034F08C
:104A200091FA03900398FFF7E2F80646314602A890
:104A300024F034FE02A825F07AFA064625F068FA3A
:104A4000051D00BF029806462A463146606919F0E6
:104A5000E2FD02AE05A8616924F01EFE0746386833
:104A6000306000BF02A825F062FA0646301D81467C
:104A7000484611F0C9F904F1180034F066FA0190C3
:104A80002B4835F0B7FA0490A0690499884201D107
:104A9000012000E0002070B16069421901A80021E6
:104AA000016000BF012040EA0123019300BF01988B
:104AB00010602D1D00BF2A4604F10800616904F052
:104AC0009BFA5A46514604F1080004F0C5FA8046A4
:104AD00000BF00BF404607B0BDE8F08F10B50446E8
:104AE000204608F07DFA0446204610BD70B5044605
:104AF0002046FFF7F3FF0546FEF7D6FF70BD2DE910
:104B0000FC4104460F4690464246394604F188006F
:104B100004F0A2FA054655B9054835F06BFA019044
:104B200001A904F1940035F0C5F988B318E030E02C
:104B3000E40800204E61746976654C6962734D65C6
:104B400074610000F40800209CD4030888D4030892
:104B5000FCC70308301C0020F8080020B0D403086C
:104B600004F1940034F0EEF9064604F18800D6E929
:104B7000021204F041FA4246394604F1880004F07A
:104B80006BFA054604F1940034F0DFF9009000BFA1
:104B900000BF2846BDE8FC8110B50446204608F059
:104BA0001FFA0446204610BD70B504462046FFF7A4
:104BB000F3FF0546FEF778FF70BD2DE9F04104468E
:104BC0000E4617463A46314604F1880004F044FA8E
:104BD0000546A5B9D4F8940088B1D4F89400D0E97A
:104BE000021204F1880004F007FA3A46314604F153
:104BF000880004F031FA05460020C4F894002846E5
:104C0000BDE8F08170B5214C00BF204634F00DFFA7
:104C100000BF00BF00BF25461D4A1E49284619F0A7
:104C20000DFC1D4C204634F0F9FE044600BF25461D
:104C3000174A1A49284619F001FC194C204635F04C
:104C400073F8044600BF2546114A1649284619F054
:104C5000F5FB1548FFF772F8144C00BF204634F0FE
:104C6000AAFE00BF00BF00202168087000BF2546D3
:104C7000074A0F49284619F0E1FB00210D48FDF7CE
:104C8000A6FB0D486421016000BF70BDDC08002058
:104C9000000000082D920308E40800209591030805
:104CA000F80800203796030818EA0020F4E90020ED
:104CB000E5980308E8E90020D808002020490160B1
:104CC0000021017101218160704710B50446A06880
:104CD000401EA060A06820B91CB120684169204630
:104CE000884710BD16490160704770B504462046DC
:104CF000FFF7F8FF0546FEF7D7FE70BD11490160CA
:104D000000210171417101218160704710B5044695
:104D1000A068401EA060A06820B91CB1206881690D
:104D20002046884710BD07490160704770B50446AA
:104D30002046FFF7F8FF0546FEF7B6FE70BD0000FF
:104D4000B8D20308ACD3030800BF00BF014600BFC0
:104D500000BF7047014600207047024600208A428B
:104D600000D101207047014600207047704700BF06
:104D700000BF014600BF00BF704700BF00BF014633
:104D800000BF00BF00BF00228280C28000BF00BF02
:104D900070472DE9F04104460E46A288E388D01AF8
:104DA000F18823F003FC0546002D11DD204624F098
:104DB0000FFD0746304624F00BFD80466A00E1886F
:104DC000C819414619F027FCE0882844E08000BF5C
:104DD000BDE8F0812DE9F04104460D46E988A08840
:104DE00023F0E4FB0646002E0EDD204624F0F0FC06
:104DF0008046284624F0ECFC0746720039464046BF
:104E000019F009FCE68000BFBDE8F0812DE9F0470C
:104E100004460E46254600BFA088074600BFE0882E
:104E2000804600BFF088814608EB0900B84203D9EC
:104E300021462846FFF7CEFF31462846FFF7A9FF57
:104E40002846BDE8F0872DE9F04104460D460027CD
:104E5000AEB2A088B04204D9204624F0B9FC30F8A4
:104E600016703846BDE8F081014600BFC88870471B
:104E70002DE9F04180460C461546404624F0A8FC3A
:104E8000064600270EE0404624F095FCB04207D9C4
:104E90003146B61C404624F097FC04F8010B00E0B4
:104EA00003E07F1C681EB842EDDC00202070BDE8E6
:104EB000F08130B502469188082303EB4100034698
:104EC00004214C1E1C444D1EAC43204630BD2DE930
:104ED000F04105460E46A888002813DD284624F038
:104EE00077FC0746002404E0305D27F81400601CBE
:104EF00084B2A888401EA04202DD305D0028F3D1B4
:104F0000EC8000BFBDE8F0812DE9F04104460D467C
:104F10006988208823F04AFB0646002E0EDB00BF7E
:104F2000201D074600BF281D8046324641463846B0
:104F300019F071FB66800020B85500BFBDE8F08114
:104F400070B504460D4621462846FFF7DDFF70BDCB
:104F50002DE9F04105460027002D3ED000BF2888EE
:104F6000C0F3C010012838D1284623F022FC0128C4
:104F700033D10021284611F0BBFB0446002C2BD076
:104F800000BF2146201D10F0A9FE0646002E22D0AB
:104F9000304623F04DFC8046FEA133F0ACF848B912
:104FA000304610F0EEFE8046FDA133F0A4F808B9BB
:104FB000012710E0304623F03BFC8046FDA133F092
:104FC0009AF840B9304610F0DCFE8046FDA133F07F
:104FD00092F800B9012700BF00BF3846BDE8F08154
:104FE0002DE9F04104460F46384619F0AAFA064664
:104FF0002088314623F0DAFA0546002D0BDB00BF8E
:10500000201D06462A463946304619F004FB6580C5
:105010000020705500BFBDE8F08100BF00BF014611
:1050200000BF00BF00BF00BF00BF70472DE9FF4FAA
:105030002DED028B85B0054688461446002008EE0B
:10504000100A002D67D0002C65D0284624F090FF70
:105050000646204624F08CFF0490002E5AD0049877
:10506000002857D000BF06F1080082460498864207
:105070004FD15746384623F0EAFB1D2804D0384666
:1050800023F0E5FB142801D1012000E00020814637
:10509000B9F1010F3DD100BFBAF80200C0F30230F0
:1050A000012836D1504610F0EAFE0390039810F024
:1050B000CFFF0746C3469DED0A0A8DED020A9DED1E
:1050C000140A10EE109A284624F05AFC0BEB090142
:1050D00088421DD3204624F053FC0299494488425B
:1050E00016D300BF05F1080007FB0B00019000BFBD
:1050F00004F10800029907FB0100009009FB07F288
:10510000DDE9000119F087FA012008EE100A00BF5E
:1051100000BF00BF00BF05B0BDEC028BBDE8FF8F34
:1051200070B50546284624F023FF044604F1080024
:10513000064610F0A4FE70BD00BF00BF016000BFB6
:1051400000BF00BF00BF426070470CB50120A04AFD
:1051500006CACDE9001200BF00999E4A11600CBD3D
:10516000014601207047014600BF012070470146FB
:1051700000BF0120704730B9974B1B680B60974BFD
:105180001B68136010E0012806D1954B1B680B606B
:10519000944B1B68136007E0022805D1924B1B68F3
:1051A0000B60924B1B68136070473CB504460020AF
:1051B000019000906A4601A92046FFF7DCFF002518
:1051C0000198002802DC009800280CDDDDE90001D0
:1051D000884204DBDDE90001401A451C03E0DDE9FB
:1051E0000010401A451C28463CBD2DE9F0410546FB
:1051F0000E467B4805607B48066000BF7C4804463D
:105200005CB100BFA06840B10120FFF7CEFF0746A8
:105210003A460F212046FEF7E6FDBDE8F0817047D3
:1052200070B50546012024F0E1FE0446FFF7F7FFC4
:10523000044670BD00BF00BF00BF41608260704780
:1052400070B503460C46154600BF00BF1E462A46F1
:1052500021463046FFF7EEFF064670BD70472DE948
:10526000F04F8BB0044688461546404624F034FD86
:10527000012806D1404624F02CFD06462846B047BA
:105280002AE04CB3A2465249083103C9CDE90901CD
:10529000404624F01EFD8346594609A823F052F9E2
:1052A000DDE909010AEB6106CDE90101CDE9030160
:1052B00011F0010F04D1DDE90901CDE9050106E096
:1052C000DDE90901CDE907013168471838688146F1
:1052D00029463046C84700BF0BB0BDE8F08F704785
:1052E0002DE9F34F2DED028BB3B00E461EA834F01E
:1052F0002AFB359824F06CFA05464FF0000941E08E
:105300002946359824F060FA04467D2C0BD1A91C5F
:10531000359824F059FA7D2805D121461EA834F08D
:105320002BFBAD1C2DE07B2C0BD1A91C359824F058
:105330004BFA7B2805D121461EA834F01DFBAD1C7D
:105340001FE0B9F1000F0CD17B2C0AD14FF00109FD
:1053500025211EA834F010FB73211EA834F00CFB8D
:105360000EE0B9F1010F04D17D2C02D14FF00009FC
:1053700006E0B9F1000F03D121461EA834F0FCFA73
:1053800000BFAD1C359824F016FAA842B8D80A21FF
:105390001EA82FE0496563537472696E67457800F3
:1053A00053797374656D2E49656336313133314CF1
:1053B00069620000496563537472696E674865618C
:1053C0006400000045636C722E50636F7300000030
:1053D000E4C70308000900200C0900201009002080
:1053E00014090020180900201C09002020090020B1
:1053F00018EA002034F0C0FA09A834F0A4FA3046C4
:1054000024F0B6FD044604F1080B00BF584623F013
:10541000D0F9012869D109A835F06CF88246341D0D
:10542000584623F014FA801E0C285BD2DFE800F007
:10543000061B0D07141C22282E363E4F00BF227873
:10544000F9A1504618F0E0FC4DE094F90020F6A1D7
:10545000504618F0D9FC46E0B4F90020F2A15046BD
:1054600018F0D2FC3FE000BF2288F0A1504618F0AF
:10547000CBFC38E0ECA15046226818F0C5FC32E0C5
:10548000EAA15046226818F0BFFC2CE0D4E9007372
:105490003A46E7A1504618F0B7FC24E0D4E900737F
:1054A0003A46E5A1504618F0AFFC1CE021680846DA
:1054B00035F0D8FF41EC100BB0EE408AF0EE608A78
:1054C00053EC182BDEA1504618F09EFC0BE0D4E9FB
:1054D000000141EC100B53EC102BD9A1504618F0F1
:1054E00093FC00BF00BF00BFBAE0584623F0C6F9E6
:1054F00001287CD1584623F0AAF98246BAF10E0F52
:1055000015D13446204624F063F9054609E02946C2
:10551000204624F059F90746394609A834F02CFAF8
:10552000AD1C204624F047F9A842F0D88EE0BAF12D
:105530001D0F6DD137463846FFF7F2FD804610F05B
:1055400020FC0446214609A834F00DFABDA109A8A3
:1055500034F009FA3846FFF7E3FD804623F068F996
:105560000446214609A834F0FEF9B7A109A834F091
:10557000FAF9384624F004FA04462246AAA105A8FE
:1055800018F042FC05A909A834F0EDF9AFA109A86B
:1055900034F0E9F9002435E000BF07F10800804647
:1055A000002004903846FFF7BBFD039010F063FD28
:1055B000012804D0022806D004280CD107E018F8EE
:1055C0000400049007E038F81400049003E058F851
:1055D0002400049000BF00BF93A105A8049A18F00E
:1055E00013FC05A909A834F0BEF9384600E02EE006
:1055F00024F0C6F9401EA04203D995A109A834F0B1
:10560000B2F9641C384624F0BBF9A042C4D81DE0AE
:10561000324690A101A818F0F7FB584610F0B1FBF4
:105620000446214609A834F09EF986A109A834F061
:105630009AF9584623F0FCF80446214609A834F0AC
:1056400092F901A909A834F08EF900BF08E009A871
:1056500000BF1EA800BF33B0BDEC028BBDE8FC8FBD
:1056600009A834F047FF04461EA834F043FF07465C
:10567000214618F0BDFB09A800BF1EA800BF00BF4F
:10568000E9E770B596B0054601A834F05CF9284604
:1056900024F09EF8044609E02146284624F094F8B8
:1056A0000646314601A834F067F9A41C284624F0C8
:1056B00082F8A042F0D801A834F01CFF064631461B
:1056C00066A018F095FB01A800BF16B070BD00BF22
:1056D00000BF00BF704700B5014600BF00BF0A46CB
:1056E0001046FFF7F4FF024600BD10B523F0BBFFE4
:1056F0000446204610BD00BF704730B52DED028B2B
:1057000085B004460D4622462B4602A823F00EFB28
:10571000DDE9020141EC100B27F01EFEB0EE408ADD
:10572000F0EE608A684623F0FEFADDE9000105B07C
:10573000BDEC028B30BD30B52DED028B85B004463B
:105740000D4622462B4602A823F0F0FADDE90201BD
:1057500041EC100B25F0C0FBB0EE408AF0EE608A01
:10576000684623F0E0FADDE9000105B0BDEC028BEC
:1057700030BD30B52DED028B85B004460D46224676
:105780002B4602A823F0D2FADDE9020141EC100B0E
:1057900027F06AFFB0EE408AF0EE608A684623F098
:1057A000C2FADDE9000105B0BDEC028B30BD30B5B9
:1057B0002DED028B85B004460D4622462B4602A8ED
:1057C00023F0B4FADDE9020141EC100B24F004FFF0
:1057D000B0EE408AF0EE608A684623F0A4FADDE974
:1057E000000105B0BDEC028B30BD30B52DED028B54
:1057F00085B004460D4622462B4602A823F096FAB1
:10580000DDE9020141EC100B24F0AEFCB0EE408A61
:10581000F0EE608A684623F086FADDE9000105B003
:10582000BDEC028B30BD0000256400002575000032
:10583000256C6C6400000000256C6C750000000095
:10584000254500002E0000005B0000005D200000E8
:105850002C000000202825303858290025730A0024
:1058600030B52DED028B85B004460D4622462B4601
:1058700002A823F05BFADDE9020141EC100B25F0F0
:10588000F3F8B0EE408AF0EE608A684623F04BFAF7
:10589000DDE9000105B0BDEC028B30BD30B52DED6A
:1058A000028B85B004460D4622462B4602A823F003
:1058B0003DFADDE9020141EC100B25F019FCB0EED8
:1058C000408AF0EE608A684623F02DFADDE9000197
:1058D00005B0BDEC028B30BD30B52DED028B85B02F
:1058E00004460D4622462B4602A823F01FFADDE9A6
:1058F000020141EC100B25F0DFFFB0EE408AF0EE24
:10590000608A684623F00FFADDE9000105B0BDECBE
:10591000028B30BD30B52DED028B85B004460D46AF
:1059200022462B4602A823F001FADDE9020141ECF0
:10593000100B26F0A5F9B0EE408AF0EE608A6846BA
:1059400023F0F1F9DDE9000105B0BDEC028B30BDBB
:1059500030B52DED028B85B004460D4622462B4610
:1059600002A823F0E3F9DDE9020141EC100B27F076
:105970001FFEB0EE408AF0EE608A684623F0D3F94D
:10598000DDE9000105B0BDEC028B30BDF0B52DEDB9
:10599000028B87B004460D4616461F4622462B460C
:1059A00004A823F0C3F932463B4602A823F0BEF90F
:1059B000DDE9020141EC110BDDE9040141EC100BC2
:1059C00026F06EFBB0EE408AF0EE608A684623F067
:1059D000AAF9DDE9000107B0BDEC028BF0BD00BF04
:1059E00000BF00BF00BF00BF00BF00BF00BF7047C7
:1059F00070B503460C46154600BF00BF1E462A463A
:105A000021463046FFF7EBFF064670BD2DE9F04713
:105A10008AB00446D4F80890484624F05DF901287D
:105A200005D1484624F055F90546A8472AE06068A4
:105A300040B3D4F80480CC4903C9CDE908014846F5
:105A400024F047F98246514608A822F07BFDDDE9A3
:105A5000080108EB6105CDE90001CDE9020111F073
:105A6000010F04D1DDE90801CDE9040106E0DDE91B
:105A70000801CDE90601296846183068074628461E
:105A8000B84700BF0AB0BDE8F08710B504466069AA
:105A900020B100222146606913F082FC10BD10B5D0
:105AA0000446606910B1606913F03CFA10BD10B58E
:105AB0000446606910B1606913F07CFC10BD10B53C
:105AC0000446606918B10121606913F098FC10BDAB
:105AD00070B504460D462A460121606913F01EFE8A
